{"abi":[{"inputs":[{"internalType":"address","name":"_owner1","type":"address"},{"internalType":"address","name":"_owner2","type":"address"}],"stateMutability":"nonpayable","type":"constructor","name":"constructor"},{"anonymous":false,"inputs":[{"indexed":false,"internalType":"string","name":"message","type":"string"}],"name":"Completed","type":"event"},{"anonymous":false,"inputs":[{"indexed":false,"internalType":"uint256","name":"ID","type":"uint256"},{"indexed":false,"internalType":"string","name":"message","type":"string"}],"name":"CreatedProject","type":"event"},{"anonymous":false,"inputs":[{"indexed":false,"internalType":"string","name":"message","type":"string"}],"name":"DeadLineNotice","type":"event"},{"anonymous":false,"inputs":[{"indexed":false,"internalType":"string","name":"message","type":"string"}],"name":"See","type":"event"},{"inputs":[{"internalType":"uint256","name":"_ProjectId","type":"uint256"}],"name":"AcceptProject","outputs":[],"stateMutability":"payable","type":"function"},{"inputs":[{"internalType":"uint256","name":"_ProjectId","type":"uint256"}],"name":"CompletedProject","outputs":[],"stateMutability":"nonpayable","type":"function"},{"inputs":[{"internalType":"uint256","name":"_ProjectId","type":"uint256"}],"name":"ConfirmedProject","outputs":[],"stateMutability":"nonpayable","type":"function"},{"inputs":[{"internalType":"string","name":"ProjectDescription","type":"string"},{"internalType":"uint256","name":"Budget","type":"uint256"},{"internalType":"uint256","name":"ProjectDuration","type":"uint256"}],"name":"CreateProject","outputs":[],"stateMutability":"payable","type":"function"},{"inputs":[{"internalType":"uint256","name":"_ProjectId","type":"uint256"}],"name":"Dissatisfied","outputs":[],"stateMutability":"nonpayable","type":"function"},{"inputs":[{"internalType":"address","name":"","type":"address"},{"internalType":"uint256","name":"","type":"uint256"}],"name":"EmployeeProjects","outputs":[{"internalType":"uint256","name":"","type":"uint256"}],"stateMutability":"view","type":"function"},{"inputs":[{"internalType":"address","name":"","type":"address"}],"name":"Employee_lockedCredits","outputs":[{"internalType":"uint256","name":"","type":"uint256"}],"stateMutability":"view","type":"function"},{"inputs":[{"internalType":"address","name":"","type":"address"},{"internalType":"uint256","name":"","type":"uint256"}],"name":"EmployerProjects","outputs":[{"internalType":"uint256","name":"","type":"uint256"}],"stateMutability":"view","type":"function"},{"inputs":[{"internalType":"uint256","name":"_ProjectId","type":"uint256"}],"name":"NotConfirmed","outputs":[],"stateMutability":"nonpayable","type":"function"},{"inputs":[{"internalType":"uint256","name":"_ProjectId","type":"uint256"}],"name":"RealeasePayment","outputs":[],"stateMutability":"nonpayable","type":"function"},{"inputs":[{"internalType":"uint256","name":"_ProjectId","type":"uint256"}],"name":"Review","outputs":[],"stateMutability":"nonpayable","type":"function"},{"inputs":[{"internalType":"uint256","name":"_Amount","type":"uint256"},{"internalType":"string","name":"_position","type":"string"}],"name":"Withdraw","outputs":[],"stateMutability":"nonpayable","type":"function"},{"inputs":[],"name":"WithdrawTreasury","outputs":[],"stateMutability":"payable","type":"function"},{"inputs":[{"internalType":"uint256","name":"_ProjectId","type":"uint256"}],"name":"cancelProject","outputs":[],"stateMutability":"nonpayable","type":"function"},{"inputs":[],"name":"confirm","outputs":[],"stateMutability":"nonpayable","type":"function"},{"inputs":[{"internalType":"address","name":"","type":"address"}],"name":"credits","outputs":[{"internalType":"uint256","name":"","type":"uint256"}],"stateMutability":"view","type":"function"},{"inputs":[{"internalType":"uint256","name":"_ProjectId","type":"uint256"},{"internalType":"uint256","name":"Proportion","type":"uint256"}],"name":"finalDecision","outputs":[],"stateMutability":"nonpayable","type":"function"},{"inputs":[{"internalType":"address","name":"_address","type":"address"}],"name":"get_employee_creadits","outputs":[{"internalType":"uint256","name":"","type":"uint256"},{"internalType":"uint256","name":"","type":"uint256"}],"stateMutability":"view","type":"function"},{"inputs":[{"internalType":"address","name":"_address","type":"address"}],"name":"get_employee_projects","outputs":[{"internalType":"uint256[]","name":"","type":"uint256[]"}],"stateMutability":"view","type":"function"},{"inputs":[{"internalType":"address","name":"_address","type":"address"}],"name":"get_employer_creadits","outputs":[{"internalType":"uint256","name":"","type":"uint256"},{"internalType":"uint256","name":"","type":"uint256"}],"stateMutability":"view","type":"function"},{"inputs":[{"internalType":"address","name":"_address","type":"address"}],"name":"get_employer_projects","outputs":[{"internalType":"uint256[]","name":"","type":"uint256[]"}],"stateMutability":"view","type":"function"},{"inputs":[{"internalType":"uint256","name":"_ProjectId","type":"uint256"}],"name":"get_project","outputs":[{"internalType":"uint256","name":"ProjectID","type":"uint256"},{"internalType":"address","name":"Employer","type":"address"},{"internalType":"address","name":"Employee","type":"address"},{"internalType":"string","name":"ProjectDescription","type":"string"},{"internalType":"uint256","name":"Budget","type":"uint256"},{"internalType":"uint256","name":"ProjectDuration","type":"uint256"},{"internalType":"uint256","name":"DeadLine","type":"uint256"},{"internalType":"uint256","name":"EndTime","type":"uint256"},{"internalType":"bool","name":"isActive","type":"bool"},{"internalType":"bool","name":"isCompleted","type":"bool"},{"internalType":"enum WorkChain.IsAccepted","name":"isAccepted","type":"uint8"}],"stateMutability":"view","type":"function"},{"inputs":[],"name":"get_status","outputs":[{"internalType":"bool","name":"","type":"bool"}],"stateMutability":"view","type":"function"},{"inputs":[],"name":"get_treasury","outputs":[{"internalType":"uint256","name":"","type":"uint256"}],"stateMutability":"view","type":"function"},{"inputs":[{"internalType":"address","name":"","type":"address"}],"name":"lockedCredits","outputs":[{"internalType":"uint256","name":"","type":"uint256"}],"stateMutability":"view","type":"function"},{"inputs":[],"name":"numConfirmation","outputs":[{"internalType":"uint32","name":"","type":"uint32"}],"stateMutability":"view","type":"function"},{"inputs":[],"name":"owner1","outputs":[{"internalType":"address","name":"","type":"address"}],"stateMutability":"view","type":"function"},{"inputs":[],"name":"owner2","outputs":[{"internalType":"address","name":"","type":"address"}],"stateMutability":"view","type":"function"},{"inputs":[{"internalType":"uint256","name":"","type":"uint256"}],"name":"projects","outputs":[{"internalType":"uint256","name":"ProjectID","type":"uint256"},{"internalType":"address","name":"Employer","type":"address"},{"internalType":"address","name":"Employee","type":"address"},{"internalType":"string","name":"ProjectDescription","type":"string"},{"internalType":"uint256","name":"Budget","type":"uint256"},{"internalType":"uint256","name":"ProjectDuration","type":"uint256"},{"internalType":"uint256","name":"DeadLine","type":"uint256"},{"internalType":"uint256","name":"EndTime","type":"uint256"},{"internalType":"bool","name":"isActive","type":"bool"},{"internalType":"bool","name":"isCompleted","type":"bool"},{"internalType":"enum WorkChain.IsAccepted","name":"isaccepted","type":"uint8"}],"stateMutability":"view","type":"function"},{"inputs":[{"internalType":"bool","name":"_paused","type":"bool"}],"name":"setPause","outputs":[],"stateMutability":"nonpayable","type":"function"},{"inputs":[],"name":"status","outputs":[{"internalType":"bool","name":"","type":"bool"}],"stateMutability":"view","type":"function"},{"inputs":[],"name":"treasury","outputs":[{"internalType":"uint256","name":"","type":"uint256"}],"stateMutability":"view","type":"function"}],"bytecode":"60806040526000600955600b805464ffffffffff60a01b1916600160c01b1790553480156200002d57600080fd5b50604051620037d0380380620037d08339810160408190526200005091620000d5565b60016000908155600a80546001600160a01b03199081166001600160a01b039586161791829055600b80549091169385169390931783558316815260086020526040808220805460ff199081169091559254909316815291909120805490911690556200010c565b80516001600160a01b0381168114620000d057600080fd5b919050565b60008060408385031215620000e8578182fd5b620000f383620000b8565b91506200010360208401620000b8565b90509250929050565b6136b4806200011c6000396000f3fe6080604052600436106101e35760003560e01c806382a3b85611610102578063bedb86fb11610095578063f3a873dd11610064578063f3a873dd1461054f578063f57336111461056f578063f95ff5b41461058f578063fe5ff468146105af576101e3565b8063bedb86fb146104cf578063bf3a099f146104ef578063c0b038481461050f578063d6ee600c1461052f576101e3565b8063affda4ab116100d1578063affda4ab14610441578063b50e8ccd1461046f578063b90200411461048f578063bcc97357146104af576101e3565b806382a3b856146103fe57806385ea616a146104065780638d01ccd91461041b578063a2f43a011461042e576101e3565b8063527097251161017a578063639948c911610149578063639948c91461039257806364a32234146103b25780637022b58e146103d457806373688914146103e9576101e3565b8063527097251461031b578063555b392d1461033d5780635ddaa77a1461035d57806361d027b31461037d576101e3565b806328599acd116101b657806328599acd14610299578063326b7558146102b957806339aaba25146102e65780633bb9d634146102fb576101e3565b80631046a850146101e8578063107046bd1461021e578063200d2ed2146102555780632494114714610277575b600080fd5b3480156101f457600080fd5b50610208610203366004612fd7565b6105cf565b60405161021591906134b6565b60405180910390f35b34801561022a57600080fd5b5061023e61023936600461306c565b610600565b6040516102159b9a999897969594939291906134bf565b34801561026157600080fd5b5061026a610707565b60405161021591906131c1565b34801561028357600080fd5b5061029761029236600461306c565b610717565b005b3480156102a557600080fd5b506102086102b4366004612fd7565b610930565b3480156102c557600080fd5b506102d96102d4366004612fb6565b61094c565b604051610215919061317d565b3480156102f257600080fd5b5061026a6109b9565b34801561030757600080fd5b5061029761031636600461306c565b6109c9565b34801561032757600080fd5b50610330610b76565b6040516102159190613169565b34801561034957600080fd5b506102976103583660046130c9565b610b85565b34801561036957600080fd5b50610297610378366004613084565b610f3c565b34801561038957600080fd5b506102086110f6565b34801561039e57600080fd5b506102976103ad36600461306c565b6110fc565b3480156103be57600080fd5b506103c7611985565b6040516102159190613598565b3480156103e057600080fd5b50610297611998565b3480156103f557600080fd5b506103306119e0565b6102976119ef565b34801561041257600080fd5b50610208611ab6565b610297610429366004613020565b611abc565b61029761043c36600461306c565b6120bc565b34801561044d57600080fd5b5061046161045c366004612fb6565b61242b565b60405161021592919061358a565b34801561047b57600080fd5b5061029761048a36600461306c565b612453565b34801561049b57600080fd5b506102086104aa366004612fb6565b6125b6565b3480156104bb57600080fd5b506102d96104ca366004612fb6565b6125c8565b3480156104db57600080fd5b506102976104ea366004613000565b612632565b3480156104fb57600080fd5b5061029761050a36600461306c565b612713565b34801561051b57600080fd5b5061029761052a36600461306c565b6127dc565b34801561053b57600080fd5b5061023e61054a36600461306c565b6128f0565b34801561055b57600080fd5b5061029761056a36600461306c565b612c78565b34801561057b57600080fd5b5061046161058a366004612fb6565b612e08565b34801561059b57600080fd5b506102086105aa366004612fb6565b612e30565b3480156105bb57600080fd5b506102086105ca366004612fb6565b612e42565b600360205281600052604060002081815481106105eb57600080fd5b90600052602060002001600091509150505481565b6001818154811061061057600080fd5b600091825260209091206009909102018054600182015460028301546003840180549395506001600160a01b0392831694929091169261064f90613617565b80601f016020809104026020016040519081016040528092919081815260200182805461067b90613617565b80156106c85780601f1061069d576101008083540402835291602001916106c8565b820191906000526020600020905b8154815290600101906020018083116106ab57829003601f168201915b505050600484015460058501546006860154600787015460089097015495969295919450925060ff80821691610100810482169162010000909104168b565b600b54600160c01b900460ff1681565b803360016107258184613600565b8154811061074357634e487b7160e01b600052603260045260246000fd5b60009182526020909120600160099092020101546001600160a01b03161461076a57600080fd5b60016107768184613600565b8154811061079457634e487b7160e01b600052603260045260246000fd5b600091825260209091206008600990920201015460ff1615156001146107b957600080fd5b600060016107c78185613600565b815481106107e557634e487b7160e01b600052603260045260246000fd5b60009182526020822060099190910201600801805460ff19169215159290921790915560016108148185613600565b8154811061083257634e487b7160e01b600052603260045260246000fd5b90600052602060002090600902016004015490508060056000600180876108599190613600565b8154811061087757634e487b7160e01b600052603260045260246000fd5b60009182526020808320600160099093020191909101546001600160a01b03168352820192909252604001812080549091906108b4908490613600565b909155508190506004600060016108cb8188613600565b815481106108e957634e487b7160e01b600052603260045260246000fd5b60009182526020808320600160099093020191909101546001600160a01b03168352820192909252604001812080549091906109269084906135a9565b9091555050505050565b600260205281600052604060002081815481106105eb57600080fd5b6001600160a01b0381166000908152600360209081526040918290208054835181840281018401909452808452606093928301828280156109ac57602002820191906000526020600020905b815481526020019060010190808311610998575b505050505090505b919050565b600b54600160c01b900460ff1690565b803360016109d78184613600565b815481106109f557634e487b7160e01b600052603260045260246000fd5b60009182526020909120600260099092020101546001600160a01b031614610a1c57600080fd5b60026001610a2a8185613600565b81548110610a4857634e487b7160e01b600052603260045260246000fd5b906000526020600020906009020160080160029054906101000a900460ff166003811115610a8657634e487b7160e01b600052602160045260246000fd5b1415610aad5760405162461bcd60e51b8152600401610aa490613379565b60405180910390fd5b6001610ab98184613600565b81548110610ad757634e487b7160e01b600052603260045260246000fd5b90600052602060002090600902016007015462015180610af791906135a9565b421015610b0357600080fd5b600180610b108185613600565b81548110610b2e57634e487b7160e01b600052603260045260246000fd5b60009182526020909120600860099092020101805462ff0000191662010000836003811115610b6d57634e487b7160e01b600052602160045260246000fd5b02179055505050565b600b546001600160a01b031681565b600a546001600160a01b0316331480610ba85750600b546001600160a01b031633145b610bb157600080fd5b6046811115610bbf57600080fd5b60036001610bcd8185613600565b81548110610beb57634e487b7160e01b600052603260045260246000fd5b906000526020600020906009020160080160029054906101000a900460ff166003811115610c2957634e487b7160e01b600052602160045260246000fd5b14610c3357600080fd5b600180610c408185613600565b81548110610c5e57634e487b7160e01b600052603260045260246000fd5b906000526020600020906009020160080160029054906101000a900460ff166003811115610c9c57634e487b7160e01b600052602160045260246000fd5b50600090506001610cad8185613600565b81548110610ccb57634e487b7160e01b600052603260045260246000fd5b9060005260206000209060090201600401549050806005600060018087610cf29190613600565b81548110610d1057634e487b7160e01b600052603260045260246000fd5b60009182526020808320600160099093020191909101546001600160a01b0316835282019290925260400181208054909190610d4d908490613600565b9091555060649050610d5f83836135e1565b610d6991906135c1565b600460006001610d798188613600565b81548110610d9757634e487b7160e01b600052603260045260246000fd5b60009182526020808320600160099093020191909101546001600160a01b0316835282019290925260400181208054909190610dd49084906135a9565b9091555060649050610de78260146135e1565b610df191906135c1565b600760006001610e018188613600565b81548110610e1f57634e487b7160e01b600052603260045260246000fd5b60009182526020808320600260099093020191909101546001600160a01b0316835282019290925260400181208054909190610e5c908490613600565b9091555060649050601e610e708483613600565b610e7a9190613600565b610e8490836135e1565b610e8f8360146135e1565b610e9991906135a9565b610ea391906135c1565b600660006001610eb38188613600565b81548110610ed157634e487b7160e01b600052603260045260246000fd5b60009182526020808320600260099093020191909101546001600160a01b0316835282019290925260400181208054909190610f0e9084906135a9565b9091555060649050610f2182601e6135e1565b610f2b91906135c1565b6009600082825461092691906135a9565b610f44612e54565b805160208201207faa684a62cfec67884698edcb374cdd8a7421222bfeb8b6570bb1a601a3f0069081141561101c5733600090815260046020526040902054831115610f8f57600080fd5b3360009081526004602052604081208054859290610fae908490613600565b909155505060405160009033908590610fc690613166565b60006040518083038185875af1925050503d8060008114611003576040519150601f19603f3d011682016040523d82523d6000602084013e611008565b606091505b505090508061101657600080fd5b506110e9565b7f8d7680ead1da220f978b7468ed8cda236baa559f8af75bff883132fa60b435a78114156110e9573360009081526006602052604090205483111561106057600080fd5b336000908152600660205260408120805485929061107f908490613600565b90915550506040516000903390859061109790613166565b60006040518083038185875af1925050503d80600081146110d4576040519150601f19603f3d011682016040523d82523d6000602084013e6110d9565b606091505b50509050806110e757600080fd5b505b506110f2612e7e565b5050565b60095481565b8033600161110a8184613600565b8154811061112857634e487b7160e01b600052603260045260246000fd5b60009182526020909120600260099092020101546001600160a01b03161461114f57600080fd5b60018061115c8185613600565b8154811061117a57634e487b7160e01b600052603260045260246000fd5b906000526020600020906009020160080160029054906101000a900460ff1660038111156111b857634e487b7160e01b600052602160045260246000fd5b146111d55760405162461bcd60e51b8152600401610aa490613295565b600060016111e38185613600565b8154811061120157634e487b7160e01b600052603260045260246000fd5b9060005260206000209060090201600401549050600180846112239190613600565b8154811061124157634e487b7160e01b600052603260045260246000fd5b906000526020600020906009020160060154600180856112619190613600565b8154811061127f57634e487b7160e01b600052603260045260246000fd5b9060005260206000209060090201600701541161146057806005600060016112a78188613600565b815481106112c557634e487b7160e01b600052603260045260246000fd5b60009182526020808320600160099093020191909101546001600160a01b0316835282019290925260400181208054909190611302908490613600565b90915550606490506113158260146135e1565b61131f91906135c1565b60076000600161132f8188613600565b8154811061134d57634e487b7160e01b600052603260045260246000fd5b60009182526020808320600260099093020191909101546001600160a01b031683528201929092526040018120805490919061138a908490613600565b909155506064905061139d82605f6135e1565b6113a88360146135e1565b6113b291906135a9565b6113bc91906135c1565b6006600060016113cc8188613600565b815481106113ea57634e487b7160e01b600052603260045260246000fd5b60009182526020808320600260099093020191909101546001600160a01b03168352820192909252604001812080549091906114279084906135a9565b909155506064905061143a8260056135e1565b61144491906135c1565b6009600082825461145591906135a9565b909155506119809050565b6064600161146e8186613600565b8154811061148c57634e487b7160e01b600052603260045260246000fd5b90600052602060002090600902016005015460146114aa91906135e1565b6114b491906135c1565b60016114c08186613600565b815481106114de57634e487b7160e01b600052603260045260246000fd5b906000526020600020906009020160060154600180866114fe9190613600565b8154811061151c57634e487b7160e01b600052603260045260246000fd5b9060005260206000209060090201600701546115389190613600565b11611769578060056000600161154e8188613600565b8154811061156c57634e487b7160e01b600052603260045260246000fd5b60009182526020808320600160099093020191909101546001600160a01b03168352820192909252604001812080549091906115a9908490613600565b90915550606490506115bc82600a6135e1565b6115c691906135c1565b6004600060016115d68188613600565b815481106115f457634e487b7160e01b600052603260045260246000fd5b60009182526020808320600160099093020191909101546001600160a01b03168352820192909252604001812080549091906116319084906135a9565b90915550606490506116448260146135e1565b61164e91906135c1565b60076000600161165e8188613600565b8154811061167c57634e487b7160e01b600052603260045260246000fd5b60009182526020808320600260099093020191909101546001600160a01b03168352820192909252604001812080549091906116b9908490613600565b90915550606490506116cc8260506135e1565b6116d78360146135e1565b6116e191906135a9565b6116eb91906135c1565b6006600060016116fb8188613600565b8154811061171957634e487b7160e01b600052603260045260246000fd5b60009182526020808320600260099093020191909101546001600160a01b03168352820192909252604001812080549091906117569084906135a9565b909155506064905061143a82600a6135e1565b8060056000600161177a8188613600565b8154811061179857634e487b7160e01b600052603260045260246000fd5b60009182526020808320600160099093020191909101546001600160a01b03168352820192909252604001812080549091906117d5908490613600565b90915550606490506117e882601e6135e1565b6117f291906135c1565b6004600060016118028188613600565b8154811061182057634e487b7160e01b600052603260045260246000fd5b60009182526020808320600160099093020191909101546001600160a01b031683528201929092526040018120805490919061185d9084906135a9565b90915550606490506118708260466135e1565b61187a91906135c1565b60066000600161188a8188613600565b815481106118a857634e487b7160e01b600052603260045260246000fd5b60009182526020808320600260099093020191909101546001600160a01b03168352820192909252604001812080549091906118e59084906135a9565b90915550606490506118f88260146135e1565b61190291906135c1565b6007600060016119128188613600565b8154811061193057634e487b7160e01b600052603260045260246000fd5b60009182526020808320600260099093020191909101546001600160a01b031683528201929092526040018120805490919061196d908490613600565b9091555060649050610f218260146135e1565b505050565b600b54600160a01b900463ffffffff1681565b600a546001600160a01b03163314806119bb5750600b546001600160a01b031633145b6119c457600080fd5b336000908152600860205260409020805460ff19166001179055565b600a546001600160a01b031681565b600a546001600160a01b0316331480611a125750600b546001600160a01b031633145b611a1b57600080fd5b611a23612e54565b600a546009546040516000926001600160a01b03169190611a4390613166565b60006040518083038185875af1925050503d8060008114611a80576040519150601f19603f3d011682016040523d82523d6000602084013e611a85565b606091505b5050905080611aa65760405162461bcd60e51b8152600401610aa490613220565b506000600955611ab4612e7e565b565b60095490565b33600090815260046020526040812080548492349291611add9084906135a9565b909155505034811115611de85733600090815260046020526040902054811115611b195760405162461bcd60e51b8152600401610aa4906133e7565b600b54600160c01b900460ff16611b2f57600080fd5b60008211611b4f5760405162461bcd60e51b8152600401610aa490613313565b3360009081526004602052604081208054859290611b6e908490613600565b90915550503360009081526005602052604081208054859290611b929084906135a9565b909155505060018054600091611ba891906135a9565b90506000611bb984620151806135e1565b60408051610160810182528481523360208083019182526000938301848152606084018c8152608085018c905260a0850187905260c0850186905260e08501869052600161010086018190526101208601879052610140860187905280548082018255965284517fb10e2d527612073b26eecdfd717e6a320cf44b4afac2b0732d9fcbe2b7fa0cf6600990970296870190815593517fb10e2d527612073b26eecdfd717e6a320cf44b4afac2b0732d9fcbe2b7fa0cf7870180546001600160a01b03199081166001600160a01b039384161790915592517fb10e2d527612073b26eecdfd717e6a320cf44b4afac2b0732d9fcbe2b7fa0cf888018054909416911617909155518051959650929485949293611cf8937fb10e2d527612073b26eecdfd717e6a320cf44b4afac2b0732d9fcbe2b7fa0cf901920190612e85565b506080820151600482015560a0820151600582015560c0820151600682015560e082015160078201556101008083015160088301805461012086015160ff199091169215159290921761ff00191691151590920217808255610140840151919062ff0000191662010000836003811115611d8257634e487b7160e01b600052602160045260246000fd5b02179055505033600090815260026020908152604080832080546001810182559084529190922001859055517f4b1b1a905a6323b91259e1e095b47ee5dbb95009e905491db7049e6a1c98a8749150611ddc908590613554565b60405180910390a15050505b600b54600160c01b900460ff16611dfe57600080fd5b60008211611e1e5760405162461bcd60e51b8152600401610aa490613313565b3360009081526004602052604081208054859290611e3d908490613600565b90915550503360009081526005602052604081208054859290611e619084906135a9565b909155505060018054600091611e7791906135a9565b90506000611e8884620151806135e1565b60408051610160810182528481523360208083019182526000938301848152606084018c8152608085018c905260a0850187905260c0850186905260e08501869052600161010086018190526101208601879052610140860187905280548082018255965284517fb10e2d527612073b26eecdfd717e6a320cf44b4afac2b0732d9fcbe2b7fa0cf6600990970296870190815593517fb10e2d527612073b26eecdfd717e6a320cf44b4afac2b0732d9fcbe2b7fa0cf7870180546001600160a01b03199081166001600160a01b039384161790915592517fb10e2d527612073b26eecdfd717e6a320cf44b4afac2b0732d9fcbe2b7fa0cf888018054909416911617909155518051959650929485949293611fc7937fb10e2d527612073b26eecdfd717e6a320cf44b4afac2b0732d9fcbe2b7fa0cf901920190612e85565b506080820151600482015560a0820151600582015560c0820151600682015560e082015160078201556101008083015160088301805461012086015160ff199091169215159290921761ff00191691151590920217808255610140840151919062ff000019166201000083600381111561205157634e487b7160e01b600052602160045260246000fd5b02179055505033600090815260026020908152604080832080546001810182559084529190922001859055517f4b1b1a905a6323b91259e1e095b47ee5dbb95009e905491db7049e6a1c98a87491506120ab908590613554565b60405180910390a150505050505050565b600b54600160c01b900460ff166120d257600080fd5b60016120de8183613600565b815481106120fc57634e487b7160e01b600052603260045260246000fd5b600091825260209091206008600990920201015460ff1661212f5760405162461bcd60e51b8152600401610aa4906132c4565b336000908152600660205260408120805434929061214e9084906135a9565b9091555060009050606460016121648185613600565b8154811061218257634e487b7160e01b600052603260045260246000fd5b90600052602060002090600902016004015460146121a091906135e1565b6121aa91906135c1565b9050803410156121e357336000908152600660205260409020548111156121e35760405162461bcd60e51b8152600401610aa4906133e7565b3360009081526006602052604081208054839290612202908490613600565b909155505033600090815260076020526040812080548392906122269084906135a9565b9091555042905060016122398185613600565b8154811061225757634e487b7160e01b600052603260045260246000fd5b90600052602060002090600902016005015461227391906135a9565b600161227f8185613600565b8154811061229d57634e487b7160e01b600052603260045260246000fd5b60009182526020909120600660099092020101553360016122be8185613600565b815481106122dc57634e487b7160e01b600052603260045260246000fd5b6000918252602082206009919091020160020180546001600160a01b0319166001600160a01b039390931692909217909155600161231a8185613600565b8154811061233857634e487b7160e01b600052603260045260246000fd5b60009182526020808320600992909202909101600801805460ff191693151593909317909255338152600382526040812080546001818101835591835292822090920184905590620151809061238e8186613600565b815481106123ac57634e487b7160e01b600052603260045260246000fd5b9060005260206000209060090201600501546123c891906135c1565b90506000816040516020016123dd9190613135565b60405160208183030381529060405290507f924392c21ebc9aa8cf47a2e5f971c9478c6f6cfe2c91e116fade1cd0a0725e578160405161241d91906131cc565b60405180910390a150505050565b6001600160a01b03166000908152600660209081526040808320546007909252909120549091565b803360016124618184613600565b8154811061247f57634e487b7160e01b600052603260045260246000fd5b60009182526020909120600160099092020101546001600160a01b0316146124a657600080fd5b60016124b28184613600565b815481106124d057634e487b7160e01b600052603260045260246000fd5b600091825260209091206008600990920201015460ff61010090910416151560011461250e5760405162461bcd60e51b8152600401610aa49061324e565b60018061251b8185613600565b8154811061253957634e487b7160e01b600052603260045260246000fd5b60009182526020909120600860099092020101805462ff000019166201000083600381111561257857634e487b7160e01b600052602160045260246000fd5b02179055507f4d2a9189ba870bc995777afa824aeaef603e32e7807917d76f41fa5fa80208e66040516125aa906131df565b60405180910390a15050565b60056020526000908152604090205481565b6001600160a01b0381166000908152600260209081526040918290208054835181840281018401909452808452606093928301828280156109ac57602002820191906000526020600020908154815260200190600101908083116109985750505050509050919050565b600a546001600160a01b03163314806126555750600b546001600160a01b031633145b61265e57600080fd5b600a546001600160a01b031660009081526008602052604090205460ff1680156126a25750600b546001600160a01b031660009081526008602052604090205460ff165b6126be5760405162461bcd60e51b8152600401610aa49061347f565b600b8054911515600160c01b0260ff60c01b19909216919091178155600a546001600160a01b03908116600090815260086020526040808220805460ff19908116909155935490921681522080549091169055565b803360016127218184613600565b8154811061273f57634e487b7160e01b600052603260045260246000fd5b60009182526020909120600160099092020101546001600160a01b03161461276657600080fd5b60016127728184613600565b8154811061279057634e487b7160e01b600052603260045260246000fd5b600091825260209091206008600990920201015460ff6101009091041615156001146127ce5760405162461bcd60e51b8152600401610aa4906133b0565b60026001610b108185613600565b803360016127ea8184613600565b8154811061280857634e487b7160e01b600052603260045260246000fd5b60009182526020909120600260099092020101546001600160a01b03161461282f57600080fd5b60018061283c8185613600565b8154811061285a57634e487b7160e01b600052603260045260246000fd5b6000918252602090912060086009909202010180549115156101000261ff00199092169190911790554260016128908185613600565b815481106128ae57634e487b7160e01b600052603260045260246000fd5b9060005260206000209060090201600701819055507fa554c5ece40ddc458252a21d6268e4a67f51cbe8e2f00c818417161c854a817f6040516125aa9061334a565b600080806060818080808080806001612909818e613600565b8154811061292757634e487b7160e01b600052603260045260246000fd5b60009182526020909120600990910201549a506001612946818e613600565b8154811061296457634e487b7160e01b600052603260045260246000fd5b6000918252602090912060016009909202018101546001600160a01b03169a5061298e818e613600565b815481106129ac57634e487b7160e01b600052603260045260246000fd5b60009182526020909120600260099092020101546001600160a01b0316985060016129d7818e613600565b815481106129f557634e487b7160e01b600052603260045260246000fd5b90600052602060002090600902016003018054612a1190613617565b80601f0160208091040260200160405190810160405280929190818152602001828054612a3d90613617565b8015612a8a5780601f10612a5f57610100808354040283529160200191612a8a565b820191906000526020600020905b815481529060010190602001808311612a6d57829003601f168201915b505050505097506001808d612a9f9190613600565b81548110612abd57634e487b7160e01b600052603260045260246000fd5b90600052602060002090600902016004015496506001808d612adf9190613600565b81548110612afd57634e487b7160e01b600052603260045260246000fd5b90600052602060002090600902016005015495506001808d612b1f9190613600565b81548110612b3d57634e487b7160e01b600052603260045260246000fd5b90600052602060002090600902016006015494506001808d612b5f9190613600565b81548110612b7d57634e487b7160e01b600052603260045260246000fd5b90600052602060002090600902016007015493506001808d612b9f9190613600565b81548110612bbd57634e487b7160e01b600052603260045260246000fd5b600091825260209091206008600990920201015460ff1692506001612be2818e613600565b81548110612c0057634e487b7160e01b600052603260045260246000fd5b6000918252602090912060099091020160080154610100900460ff1691506001612c2a818e613600565b81548110612c4857634e487b7160e01b600052603260045260246000fd5b906000526020600020906009020160080160029054906101000a900460ff16905091939597999b90929496989a50565b336001612c858184613600565b81548110612ca357634e487b7160e01b600052603260045260246000fd5b60009182526020909120600160099092020101546001600160a01b03161480612d115750336001612cd48184613600565b81548110612cf257634e487b7160e01b600052603260045260246000fd5b60009182526020909120600260099092020101546001600160a01b0316145b612d2d5760405162461bcd60e51b8152600401610aa49061341e565b6001612d398183613600565b81548110612d5757634e487b7160e01b600052603260045260246000fd5b600091825260209091206008600990920201015460ff610100909104161515600114612d955760405162461bcd60e51b8152600401610aa4906133b0565b60036001612da38184613600565b81548110612dc157634e487b7160e01b600052603260045260246000fd5b60009182526020909120600860099092020101805462ff0000191662010000836003811115612e0057634e487b7160e01b600052602160045260246000fd5b021790555050565b6001600160a01b03166000908152600460209081526040808320546005909252909120549091565b60076020526000908152604090205481565b60046020526000908152604090205481565b60026000541415612e775760405162461bcd60e51b8152600401610aa490613448565b6002600055565b6001600055565b828054612e9190613617565b90600052602060002090601f016020900481019282612eb35760008555612ef9565b82601f10612ecc57805160ff1916838001178555612ef9565b82800160010185558215612ef9579182015b82811115612ef9578251825591602001919060010190612ede565b50612f05929150612f09565b5090565b5b80821115612f055760008155600101612f0a565b80356001600160a01b03811681146109b457600080fd5b600082601f830112612f45578081fd5b813567ffffffffffffffff80821115612f6057612f60613668565b604051601f8301601f191681016020018281118282101715612f8457612f84613668565b604052828152848301602001861015612f9b578384fd5b82602086016020830137918201602001929092529392505050565b600060208284031215612fc7578081fd5b612fd082612f1e565b9392505050565b60008060408385031215612fe9578081fd5b612ff283612f1e565b946020939093013593505050565b600060208284031215613011578081fd5b81358015158114612fd0578182fd5b600080600060608486031215613034578081fd5b833567ffffffffffffffff81111561304a578182fd5b61305686828701612f35565b9660208601359650604090950135949350505050565b60006020828403121561307d578081fd5b5035919050565b60008060408385031215613096578182fd5b82359150602083013567ffffffffffffffff8111156130b3578182fd5b6130bf85828601612f35565b9150509250929050565b600080604083850312156130db578182fd5b50508035926020909101359150565b60008151808452815b8181101561310f576020818501810151868301820152016130f3565b818111156131205782602083870101525b50601f01601f19169290920160200192915050565b6f796f757220646561646c696e6520697360801b81526010810191909152636461797360e01b603082015260340190565b90565b6001600160a01b0391909116815260200190565b6020808252825182820181905260009190848201906040850190845b818110156131b557835183529284019291840191600101613199565b50909695505050505050565b901515815260200190565b600060208252612fd060208301846130ea565b60208082526021908201527f73656520796f7520736f6f6e20666f7220746865206e6578742070726f6a65636040820152601d60fa1b606082015260800190565b6020808252601490820152732330b4b632b2103a379039b2b7321022ba3432b960611b604082015260600190565b60208082526027908201527f207468652070726f6a656374206973206e6f7420636f6d706c657465642077616040820152666974206d6f726560c81b606082015260800190565b60208082526015908201527420796f752073686f756c642077616974206d6f726560581b604082015260600190565b6020808252602f908201527f496e76616c69642070726f6a656374204944206f72207468652070726f6a656360408201526e74206973206e6f742061637469766560881b606082015260800190565b6020808252601c908201527f4475726174696f6e206d757374206265206d6f7265207468616e203000000000604082015260600190565b6020808252601590820152743bb0b4ba103337b91031b7b73334b936b0ba34b7b760591b604082015260600190565b6020808252601c908201527f796f757220636c69656e74206973206e6f742073617469736669656400000000604082015260600190565b60208082526018908201527f796f75722070656f6a656374206973206e6f7420646f6e650000000000000000604082015260600190565b6020808252601b908201527f506c6561736520496e63726561736520796f7572206372656469740000000000604082015260600190565b60208082526010908201526f1ddc9bdb99c81c1c9bda9958dd08125160821b604082015260600190565b6020808252601f908201527f5265656e7472616e637947756172643a207265656e7472616e742063616c6c00604082015260600190565b6020808252601d908201527f636f6e6669726d6174696f6e206973206e6f7420636f6d706c65746564000000604082015260600190565b90815260200190565b8b81526001600160a01b038b811660208301528a166040820152610160606082018190526000906134f28382018c6130ea565b9150508860808301528760a08301528660c08301528560e08301528415156101008301528315156101208301526004831061353d57634e487b7160e01b600052602160045260246000fd5b826101408301529c9b505050505050505050505050565b9081526040602082018190526015908201527450726f6a65637420697320416374697665206e6f7760581b606082015260800190565b918252602082015260400190565b63ffffffff91909116815260200190565b600082198211156135bc576135bc613652565b500190565b6000826135dc57634e487b7160e01b81526012600452602481fd5b500490565b60008160001904831182151516156135fb576135fb613652565b500290565b60008282101561361257613612613652565b500390565b60028104600182168061362b57607f821691505b6020821081141561364c57634e487b7160e01b600052602260045260246000fd5b50919050565b634e487b7160e01b600052601160045260246000fd5b634e487b7160e01b600052604160045260246000fdfea2646970667358221220718f703ec2fda599ab4e64bb048d6bf08a0a7c748d416ee406d6de167ddfa54664736f6c63430008000033","bytecodeSha1":"29427d6a433eceeeb4e90eb8585f83f656caecf3","compiler":{"evm_version":"istanbul","optimizer":{"enabled":true,"runs":200},"version":"0.8.0+commit.c7dfd78e"},"contractName":"WorkChain","language":"Solidity","natspec":{"kind":"dev","methods":{},"version":1},"opcodes":"PUSH1 0x80 PUSH1 0x40 MSTORE PUSH1 0x4 CALLDATASIZE LT PUSH2 0x1E3 JUMPI PUSH1 0x0 CALLDATALOAD PUSH1 0xE0 SHR DUP1 PUSH4 0x82A3B856 GT PUSH2 0x102 JUMPI DUP1 PUSH4 0xBEDB86FB GT PUSH2 0x95 JUMPI DUP1 PUSH4 0xF3A873DD GT PUSH2 0x64 JUMPI DUP1 PUSH4 0xF3A873DD EQ PUSH2 0x54F JUMPI DUP1 PUSH4 0xF5733611 EQ PUSH2 0x56F JUMPI DUP1 PUSH4 0xF95FF5B4 EQ PUSH2 0x58F JUMPI DUP1 PUSH4 0xFE5FF468 EQ PUSH2 0x5AF JUMPI PUSH2 0x1E3 JUMP JUMPDEST DUP1 PUSH4 0xBEDB86FB EQ PUSH2 0x4CF JUMPI DUP1 PUSH4 0xBF3A099F EQ PUSH2 0x4EF JUMPI DUP1 PUSH4 0xC0B03848 EQ PUSH2 0x50F JUMPI DUP1 PUSH4 0xD6EE600C EQ PUSH2 0x52F JUMPI PUSH2 0x1E3 JUMP JUMPDEST DUP1 PUSH4 0xAFFDA4AB GT PUSH2 0xD1 JUMPI DUP1 PUSH4 0xAFFDA4AB EQ PUSH2 0x441 JUMPI DUP1 PUSH4 0xB50E8CCD EQ PUSH2 0x46F JUMPI DUP1 PUSH4 0xB9020041 EQ PUSH2 0x48F JUMPI DUP1 PUSH4 0xBCC97357 EQ PUSH2 0x4AF JUMPI PUSH2 0x1E3 JUMP JUMPDEST DUP1 PUSH4 0x82A3B856 EQ PUSH2 0x3FE JUMPI DUP1 PUSH4 0x85EA616A EQ PUSH2 0x406 JUMPI DUP1 PUSH4 0x8D01CCD9 EQ PUSH2 0x41B JUMPI DUP1 PUSH4 0xA2F43A01 EQ PUSH2 0x42E JUMPI PUSH2 0x1E3 JUMP JUMPDEST DUP1 PUSH4 0x52709725 GT PUSH2 0x17A JUMPI DUP1 PUSH4 0x639948C9 GT PUSH2 0x149 JUMPI DUP1 PUSH4 0x639948C9 EQ PUSH2 0x392 JUMPI DUP1 PUSH4 0x64A32234 EQ PUSH2 0x3B2 JUMPI DUP1 PUSH4 0x7022B58E EQ PUSH2 0x3D4 JUMPI DUP1 PUSH4 0x73688914 EQ PUSH2 0x3E9 JUMPI PUSH2 0x1E3 JUMP JUMPDEST DUP1 PUSH4 0x52709725 EQ PUSH2 0x31B JUMPI DUP1 PUSH4 0x555B392D EQ PUSH2 0x33D JUMPI DUP1 PUSH4 0x5DDAA77A EQ PUSH2 0x35D JUMPI DUP1 PUSH4 0x61D027B3 EQ PUSH2 0x37D JUMPI PUSH2 0x1E3 JUMP JUMPDEST DUP1 PUSH4 0x28599ACD GT PUSH2 0x1B6 JUMPI DUP1 PUSH4 0x28599ACD EQ PUSH2 0x299 JUMPI DUP1 PUSH4 0x326B7558 EQ PUSH2 0x2B9 JUMPI DUP1 PUSH4 0x39AABA25 EQ PUSH2 0x2E6 JUMPI DUP1 PUSH4 0x3BB9D634 EQ PUSH2 0x2FB JUMPI PUSH2 0x1E3 JUMP JUMPDEST DUP1 PUSH4 0x1046A850 EQ PUSH2 0x1E8 JUMPI DUP1 PUSH4 0x107046BD EQ PUSH2 0x21E JUMPI DUP1 PUSH4 0x200D2ED2 EQ PUSH2 0x255 JUMPI DUP1 PUSH4 0x24941147 EQ PUSH2 0x277 JUMPI JUMPDEST PUSH1 0x0 DUP1 REVERT JUMPDEST CALLVALUE DUP1 ISZERO PUSH2 0x1F4 JUMPI PUSH1 0x0 DUP1 REVERT JUMPDEST POP PUSH2 0x208 PUSH2 0x203 CALLDATASIZE PUSH1 0x4 PUSH2 0x2FD7 JUMP JUMPDEST PUSH2 0x5CF JUMP JUMPDEST PUSH1 0x40 MLOAD PUSH2 0x215 SWAP2 SWAP1 PUSH2 0x34B6 JUMP JUMPDEST PUSH1 0x40 MLOAD DUP1 SWAP2 SUB SWAP1 RETURN JUMPDEST CALLVALUE DUP1 ISZERO PUSH2 0x22A JUMPI PUSH1 0x0 DUP1 REVERT JUMPDEST POP PUSH2 0x23E PUSH2 0x239 CALLDATASIZE PUSH1 0x4 PUSH2 0x306C JUMP JUMPDEST PUSH2 0x600 JUMP JUMPDEST PUSH1 0x40 MLOAD PUSH2 0x215 SWAP12 SWAP11 SWAP10 SWAP9 SWAP8 SWAP7 SWAP6 SWAP5 SWAP4 SWAP3 SWAP2 SWAP1 PUSH2 0x34BF JUMP JUMPDEST CALLVALUE DUP1 ISZERO PUSH2 0x261 JUMPI PUSH1 0x0 DUP1 REVERT JUMPDEST POP PUSH2 0x26A PUSH2 0x707 JUMP JUMPDEST PUSH1 0x40 MLOAD PUSH2 0x215 SWAP2 SWAP1 PUSH2 0x31C1 JUMP JUMPDEST CALLVALUE DUP1 ISZERO PUSH2 0x283 JUMPI PUSH1 0x0 DUP1 REVERT JUMPDEST POP PUSH2 0x297 PUSH2 0x292 CALLDATASIZE PUSH1 0x4 PUSH2 0x306C JUMP JUMPDEST PUSH2 0x717 JUMP JUMPDEST STOP JUMPDEST CALLVALUE DUP1 ISZERO PUSH2 0x2A5 JUMPI PUSH1 0x0 DUP1 REVERT JUMPDEST POP PUSH2 0x208 PUSH2 0x2B4 CALLDATASIZE PUSH1 0x4 PUSH2 0x2FD7 JUMP JUMPDEST PUSH2 0x930 JUMP JUMPDEST CALLVALUE DUP1 ISZERO PUSH2 0x2C5 JUMPI PUSH1 0x0 DUP1 REVERT JUMPDEST POP PUSH2 0x2D9 PUSH2 0x2D4 CALLDATASIZE PUSH1 0x4 PUSH2 0x2FB6 JUMP JUMPDEST PUSH2 0x94C JUMP JUMPDEST PUSH1 0x40 MLOAD PUSH2 0x215 SWAP2 SWAP1 PUSH2 0x317D JUMP JUMPDEST CALLVALUE DUP1 ISZERO PUSH2 0x2F2 JUMPI PUSH1 0x0 DUP1 REVERT JUMPDEST POP PUSH2 0x26A PUSH2 0x9B9 JUMP JUMPDEST CALLVALUE DUP1 ISZERO PUSH2 0x307 JUMPI PUSH1 0x0 DUP1 REVERT JUMPDEST POP PUSH2 0x297 PUSH2 0x316 CALLDATASIZE PUSH1 0x4 PUSH2 0x306C JUMP JUMPDEST PUSH2 0x9C9 JUMP JUMPDEST CALLVALUE DUP1 ISZERO PUSH2 0x327 JUMPI PUSH1 0x0 DUP1 REVERT JUMPDEST POP PUSH2 0x330 PUSH2 0xB76 JUMP JUMPDEST PUSH1 0x40 MLOAD PUSH2 0x215 SWAP2 SWAP1 PUSH2 0x3169 JUMP JUMPDEST CALLVALUE DUP1 ISZERO PUSH2 0x349 JUMPI PUSH1 0x0 DUP1 REVERT JUMPDEST POP PUSH2 0x297 PUSH2 0x358 CALLDATASIZE PUSH1 0x4 PUSH2 0x30C9 JUMP JUMPDEST PUSH2 0xB85 JUMP JUMPDEST CALLVALUE DUP1 ISZERO PUSH2 0x369 JUMPI PUSH1 0x0 DUP1 REVERT JUMPDEST POP PUSH2 0x297 PUSH2 0x378 CALLDATASIZE PUSH1 0x4 PUSH2 0x3084 JUMP JUMPDEST PUSH2 0xF3C JUMP JUMPDEST CALLVALUE DUP1 ISZERO PUSH2 0x389 JUMPI PUSH1 0x0 DUP1 REVERT JUMPDEST POP PUSH2 0x208 PUSH2 0x10F6 JUMP JUMPDEST CALLVALUE DUP1 ISZERO PUSH2 0x39E JUMPI PUSH1 0x0 DUP1 REVERT JUMPDEST POP PUSH2 0x297 PUSH2 0x3AD CALLDATASIZE PUSH1 0x4 PUSH2 0x306C JUMP JUMPDEST PUSH2 0x10FC JUMP JUMPDEST CALLVALUE DUP1 ISZERO PUSH2 0x3BE JUMPI PUSH1 0x0 DUP1 REVERT JUMPDEST POP PUSH2 0x3C7 PUSH2 0x1985 JUMP JUMPDEST PUSH1 0x40 MLOAD PUSH2 0x215 SWAP2 SWAP1 PUSH2 0x3598 JUMP JUMPDEST CALLVALUE DUP1 ISZERO PUSH2 0x3E0 JUMPI PUSH1 0x0 DUP1 REVERT JUMPDEST POP PUSH2 0x297 PUSH2 0x1998 JUMP JUMPDEST CALLVALUE DUP1 ISZERO PUSH2 0x3F5 JUMPI PUSH1 0x0 DUP1 REVERT JUMPDEST POP PUSH2 0x330 PUSH2 0x19E0 JUMP JUMPDEST PUSH2 0x297 PUSH2 0x19EF JUMP JUMPDEST CALLVALUE DUP1 ISZERO PUSH2 0x412 JUMPI PUSH1 0x0 DUP1 REVERT JUMPDEST POP PUSH2 0x208 PUSH2 0x1AB6 JUMP JUMPDEST PUSH2 0x297 PUSH2 0x429 CALLDATASIZE PUSH1 0x4 PUSH2 0x3020 JUMP JUMPDEST PUSH2 0x1ABC JUMP JUMPDEST PUSH2 0x297 PUSH2 0x43C CALLDATASIZE PUSH1 0x4 PUSH2 0x306C JUMP JUMPDEST PUSH2 0x20BC JUMP JUMPDEST CALLVALUE DUP1 ISZERO PUSH2 0x44D JUMPI PUSH1 0x0 DUP1 REVERT JUMPDEST POP PUSH2 0x461 PUSH2 0x45C CALLDATASIZE PUSH1 0x4 PUSH2 0x2FB6 JUMP JUMPDEST PUSH2 0x242B JUMP JUMPDEST PUSH1 0x40 MLOAD PUSH2 0x215 SWAP3 SWAP2 SWAP1 PUSH2 0x358A JUMP JUMPDEST CALLVALUE DUP1 ISZERO PUSH2 0x47B JUMPI PUSH1 0x0 DUP1 REVERT JUMPDEST POP PUSH2 0x297 PUSH2 0x48A CALLDATASIZE PUSH1 0x4 PUSH2 0x306C JUMP JUMPDEST PUSH2 0x2453 JUMP JUMPDEST CALLVALUE DUP1 ISZERO PUSH2 0x49B JUMPI PUSH1 0x0 DUP1 REVERT JUMPDEST POP PUSH2 0x208 PUSH2 0x4AA CALLDATASIZE PUSH1 0x4 PUSH2 0x2FB6 JUMP JUMPDEST PUSH2 0x25B6 JUMP JUMPDEST CALLVALUE DUP1 ISZERO PUSH2 0x4BB JUMPI PUSH1 0x0 DUP1 REVERT JUMPDEST POP PUSH2 0x2D9 PUSH2 0x4CA CALLDATASIZE PUSH1 0x4 PUSH2 0x2FB6 JUMP JUMPDEST PUSH2 0x25C8 JUMP JUMPDEST CALLVALUE DUP1 ISZERO PUSH2 0x4DB JUMPI PUSH1 0x0 DUP1 REVERT JUMPDEST POP PUSH2 0x297 PUSH2 0x4EA CALLDATASIZE PUSH1 0x4 PUSH2 0x3000 JUMP JUMPDEST PUSH2 0x2632 JUMP JUMPDEST CALLVALUE DUP1 ISZERO PUSH2 0x4FB JUMPI PUSH1 0x0 DUP1 REVERT JUMPDEST POP PUSH2 0x297 PUSH2 0x50A CALLDATASIZE PUSH1 0x4 PUSH2 0x306C JUMP JUMPDEST PUSH2 0x2713 JUMP JUMPDEST CALLVALUE DUP1 ISZERO PUSH2 0x51B JUMPI PUSH1 0x0 DUP1 REVERT JUMPDEST POP PUSH2 0x297 PUSH2 0x52A CALLDATASIZE PUSH1 0x4 PUSH2 0x306C JUMP JUMPDEST PUSH2 0x27DC JUMP JUMPDEST CALLVALUE DUP1 ISZERO PUSH2 0x53B JUMPI PUSH1 0x0 DUP1 REVERT JUMPDEST POP PUSH2 0x23E PUSH2 0x54A CALLDATASIZE PUSH1 0x4 PUSH2 0x306C JUMP JUMPDEST PUSH2 0x28F0 JUMP JUMPDEST CALLVALUE DUP1 ISZERO PUSH2 0x55B JUMPI PUSH1 0x0 DUP1 REVERT JUMPDEST POP PUSH2 0x297 PUSH2 0x56A CALLDATASIZE PUSH1 0x4 PUSH2 0x306C JUMP JUMPDEST PUSH2 0x2C78 JUMP JUMPDEST CALLVALUE DUP1 ISZERO PUSH2 0x57B JUMPI PUSH1 0x0 DUP1 REVERT JUMPDEST POP PUSH2 0x461 PUSH2 0x58A CALLDATASIZE PUSH1 0x4 PUSH2 0x2FB6 JUMP JUMPDEST PUSH2 0x2E08 JUMP JUMPDEST CALLVALUE DUP1 ISZERO PUSH2 0x59B JUMPI PUSH1 0x0 DUP1 REVERT JUMPDEST POP PUSH2 0x208 PUSH2 0x5AA CALLDATASIZE PUSH1 0x4 PUSH2 0x2FB6 JUMP JUMPDEST PUSH2 0x2E30 JUMP JUMPDEST CALLVALUE DUP1 ISZERO PUSH2 0x5BB JUMPI PUSH1 0x0 DUP1 REVERT JUMPDEST POP PUSH2 0x208 PUSH2 0x5CA CALLDATASIZE PUSH1 0x4 PUSH2 0x2FB6 JUMP JUMPDEST PUSH2 0x2E42 JUMP JUMPDEST PUSH1 0x3 PUSH1 0x20 MSTORE DUP2 PUSH1 0x0 MSTORE PUSH1 0x40 PUSH1 0x0 KECCAK256 DUP2 DUP2 SLOAD DUP2 LT PUSH2 0x5EB JUMPI PUSH1 0x0 DUP1 REVERT JUMPDEST SWAP1 PUSH1 0x0 MSTORE PUSH1 0x20 PUSH1 0x0 KECCAK256 ADD PUSH1 0x0 SWAP2 POP SWAP2 POP POP SLOAD DUP2 JUMP JUMPDEST PUSH1 0x1 DUP2 DUP2 SLOAD DUP2 LT PUSH2 0x610 JUMPI PUSH1 0x0 DUP1 REVERT JUMPDEST PUSH1 0x0 SWAP2 DUP3 MSTORE PUSH1 0x20 SWAP1 SWAP2 KECCAK256 PUSH1 0x9 SWAP1 SWAP2 MUL ADD DUP1 SLOAD PUSH1 0x1 DUP3 ADD SLOAD PUSH1 0x2 DUP4 ADD SLOAD PUSH1 0x3 DUP5 ADD DUP1 SLOAD SWAP4 SWAP6 POP PUSH1 0x1 PUSH1 0x1 PUSH1 0xA0 SHL SUB SWAP3 DUP4 AND SWAP5 SWAP3 SWAP1 SWAP2 AND SWAP3 PUSH2 0x64F SWAP1 PUSH2 0x3617 JUMP JUMPDEST DUP1 PUSH1 0x1F ADD PUSH1 0x20 DUP1 SWAP2 DIV MUL PUSH1 0x20 ADD PUSH1 0x40 MLOAD SWAP1 DUP2 ADD PUSH1 0x40 MSTORE DUP1 SWAP3 SWAP2 SWAP1 DUP2 DUP2 MSTORE PUSH1 0x20 ADD DUP3 DUP1 SLOAD PUSH2 0x67B SWAP1 PUSH2 0x3617 JUMP JUMPDEST DUP1 ISZERO PUSH2 0x6C8 JUMPI DUP1 PUSH1 0x1F LT PUSH2 0x69D JUMPI PUSH2 0x100 DUP1 DUP4 SLOAD DIV MUL DUP4 MSTORE SWAP2 PUSH1 0x20 ADD SWAP2 PUSH2 0x6C8 JUMP JUMPDEST DUP3 ADD SWAP2 SWAP1 PUSH1 0x0 MSTORE PUSH1 0x20 PUSH1 0x0 KECCAK256 SWAP1 JUMPDEST DUP2 SLOAD DUP2 MSTORE SWAP1 PUSH1 0x1 ADD SWAP1 PUSH1 0x20 ADD DUP1 DUP4 GT PUSH2 0x6AB JUMPI DUP3 SWAP1 SUB PUSH1 0x1F AND DUP3 ADD SWAP2 JUMPDEST POP POP POP PUSH1 0x4 DUP5 ADD SLOAD PUSH1 0x5 DUP6 ADD SLOAD PUSH1 0x6 DUP7 ADD SLOAD PUSH1 0x7 DUP8 ADD SLOAD PUSH1 0x8 SWAP1 SWAP8 ADD SLOAD SWAP6 SWAP7 SWAP3 SWAP6 SWAP2 SWAP5 POP SWAP3 POP PUSH1 0xFF DUP1 DUP3 AND SWAP2 PUSH2 0x100 DUP2 DIV DUP3 AND SWAP2 PUSH3 0x10000 SWAP1 SWAP2 DIV AND DUP12 JUMP JUMPDEST PUSH1 0xB SLOAD PUSH1 0x1 PUSH1 0xC0 SHL SWAP1 DIV PUSH1 0xFF AND DUP2 JUMP JUMPDEST DUP1 CALLER PUSH1 0x1 PUSH2 0x725 DUP2 DUP5 PUSH2 0x3600 JUMP JUMPDEST DUP2 SLOAD DUP2 LT PUSH2 0x743 JUMPI PUSH4 0x4E487B71 PUSH1 0xE0 SHL PUSH1 0x0 MSTORE PUSH1 0x32 PUSH1 0x4 MSTORE PUSH1 0x24 PUSH1 0x0 REVERT JUMPDEST PUSH1 0x0 SWAP2 DUP3 MSTORE PUSH1 0x20 SWAP1 SWAP2 KECCAK256 PUSH1 0x1 PUSH1 0x9 SWAP1 SWAP3 MUL ADD ADD SLOAD PUSH1 0x1 PUSH1 0x1 PUSH1 0xA0 SHL SUB AND EQ PUSH2 0x76A JUMPI PUSH1 0x0 DUP1 REVERT JUMPDEST PUSH1 0x1 PUSH2 0x776 DUP2 DUP5 PUSH2 0x3600 JUMP JUMPDEST DUP2 SLOAD DUP2 LT PUSH2 0x794 JUMPI PUSH4 0x4E487B71 PUSH1 0xE0 SHL PUSH1 0x0 MSTORE PUSH1 0x32 PUSH1 0x4 MSTORE PUSH1 0x24 PUSH1 0x0 REVERT JUMPDEST PUSH1 0x0 SWAP2 DUP3 MSTORE PUSH1 0x20 SWAP1 SWAP2 KECCAK256 PUSH1 0x8 PUSH1 0x9 SWAP1 SWAP3 MUL ADD ADD SLOAD PUSH1 0xFF AND ISZERO ISZERO PUSH1 0x1 EQ PUSH2 0x7B9 JUMPI PUSH1 0x0 DUP1 REVERT JUMPDEST PUSH1 0x0 PUSH1 0x1 PUSH2 0x7C7 DUP2 DUP6 PUSH2 0x3600 JUMP JUMPDEST DUP2 SLOAD DUP2 LT PUSH2 0x7E5 JUMPI PUSH4 0x4E487B71 PUSH1 0xE0 SHL PUSH1 0x0 MSTORE PUSH1 0x32 PUSH1 0x4 MSTORE PUSH1 0x24 PUSH1 0x0 REVERT JUMPDEST PUSH1 0x0 SWAP2 DUP3 MSTORE PUSH1 0x20 DUP3 KECCAK256 PUSH1 0x9 SWAP2 SWAP1 SWAP2 MUL ADD PUSH1 0x8 ADD DUP1 SLOAD PUSH1 0xFF NOT AND SWAP3 ISZERO ISZERO SWAP3 SWAP1 SWAP3 OR SWAP1 SWAP2 SSTORE PUSH1 0x1 PUSH2 0x814 DUP2 DUP6 PUSH2 0x3600 JUMP JUMPDEST DUP2 SLOAD DUP2 LT PUSH2 0x832 JUMPI PUSH4 0x4E487B71 PUSH1 0xE0 SHL PUSH1 0x0 MSTORE PUSH1 0x32 PUSH1 0x4 MSTORE PUSH1 0x24 PUSH1 0x0 REVERT JUMPDEST SWAP1 PUSH1 0x0 MSTORE PUSH1 0x20 PUSH1 0x0 KECCAK256 SWAP1 PUSH1 0x9 MUL ADD PUSH1 0x4 ADD SLOAD SWAP1 POP DUP1 PUSH1 0x5 PUSH1 0x0 PUSH1 0x1 DUP1 DUP8 PUSH2 0x859 SWAP2 SWAP1 PUSH2 0x3600 JUMP JUMPDEST DUP2 SLOAD DUP2 LT PUSH2 0x877 JUMPI PUSH4 0x4E487B71 PUSH1 0xE0 SHL PUSH1 0x0 MSTORE PUSH1 0x32 PUSH1 0x4 MSTORE PUSH1 0x24 PUSH1 0x0 REVERT JUMPDEST PUSH1 0x0 SWAP2 DUP3 MSTORE PUSH1 0x20 DUP1 DUP4 KECCAK256 PUSH1 0x1 PUSH1 0x9 SWAP1 SWAP4 MUL ADD SWAP2 SWAP1 SWAP2 ADD SLOAD PUSH1 0x1 PUSH1 0x1 PUSH1 0xA0 SHL SUB AND DUP4 MSTORE DUP3 ADD SWAP3 SWAP1 SWAP3 MSTORE PUSH1 0x40 ADD DUP2 KECCAK256 DUP1 SLOAD SWAP1 SWAP2 SWAP1 PUSH2 0x8B4 SWAP1 DUP5 SWAP1 PUSH2 0x3600 JUMP JUMPDEST SWAP1 SWAP2 SSTORE POP DUP2 SWAP1 POP PUSH1 0x4 PUSH1 0x0 PUSH1 0x1 PUSH2 0x8CB DUP2 DUP9 PUSH2 0x3600 JUMP JUMPDEST DUP2 SLOAD DUP2 LT PUSH2 0x8E9 JUMPI PUSH4 0x4E487B71 PUSH1 0xE0 SHL PUSH1 0x0 MSTORE PUSH1 0x32 PUSH1 0x4 MSTORE PUSH1 0x24 PUSH1 0x0 REVERT JUMPDEST PUSH1 0x0 SWAP2 DUP3 MSTORE PUSH1 0x20 DUP1 DUP4 KECCAK256 PUSH1 0x1 PUSH1 0x9 SWAP1 SWAP4 MUL ADD SWAP2 SWAP1 SWAP2 ADD SLOAD PUSH1 0x1 PUSH1 0x1 PUSH1 0xA0 SHL SUB AND DUP4 MSTORE DUP3 ADD SWAP3 SWAP1 SWAP3 MSTORE PUSH1 0x40 ADD DUP2 KECCAK256 DUP1 SLOAD SWAP1 SWAP2 SWAP1 PUSH2 0x926 SWAP1 DUP5 SWAP1 PUSH2 0x35A9 JUMP JUMPDEST SWAP1 SWAP2 SSTORE POP POP POP POP POP JUMP JUMPDEST PUSH1 0x2 PUSH1 0x20 MSTORE DUP2 PUSH1 0x0 MSTORE PUSH1 0x40 PUSH1 0x0 KECCAK256 DUP2 DUP2 SLOAD DUP2 LT PUSH2 0x5EB JUMPI PUSH1 0x0 DUP1 REVERT JUMPDEST PUSH1 0x1 PUSH1 0x1 PUSH1 0xA0 SHL SUB DUP2 AND PUSH1 0x0 SWAP1 DUP2 MSTORE PUSH1 0x3 PUSH1 0x20 SWAP1 DUP2 MSTORE PUSH1 0x40 SWAP2 DUP3 SWAP1 KECCAK256 DUP1 SLOAD DUP4 MLOAD DUP2 DUP5 MUL DUP2 ADD DUP5 ADD SWAP1 SWAP5 MSTORE DUP1 DUP5 MSTORE PUSH1 0x60 SWAP4 SWAP3 DUP4 ADD DUP3 DUP3 DUP1 ISZERO PUSH2 0x9AC JUMPI PUSH1 0x20 MUL DUP3 ADD SWAP2 SWAP1 PUSH1 0x0 MSTORE PUSH1 0x20 PUSH1 0x0 KECCAK256 SWAP1 JUMPDEST DUP2 SLOAD DUP2 MSTORE PUSH1 0x20 ADD SWAP1 PUSH1 0x1 ADD SWAP1 DUP1 DUP4 GT PUSH2 0x998 JUMPI JUMPDEST POP POP POP POP POP SWAP1 POP JUMPDEST SWAP2 SWAP1 POP JUMP JUMPDEST PUSH1 0xB SLOAD PUSH1 0x1 PUSH1 0xC0 SHL SWAP1 DIV PUSH1 0xFF AND SWAP1 JUMP JUMPDEST DUP1 CALLER PUSH1 0x1 PUSH2 0x9D7 DUP2 DUP5 PUSH2 0x3600 JUMP JUMPDEST DUP2 SLOAD DUP2 LT PUSH2 0x9F5 JUMPI PUSH4 0x4E487B71 PUSH1 0xE0 SHL PUSH1 0x0 MSTORE PUSH1 0x32 PUSH1 0x4 MSTORE PUSH1 0x24 PUSH1 0x0 REVERT JUMPDEST PUSH1 0x0 SWAP2 DUP3 MSTORE PUSH1 0x20 SWAP1 SWAP2 KECCAK256 PUSH1 0x2 PUSH1 0x9 SWAP1 SWAP3 MUL ADD ADD SLOAD PUSH1 0x1 PUSH1 0x1 PUSH1 0xA0 SHL SUB AND EQ PUSH2 0xA1C JUMPI PUSH1 0x0 DUP1 REVERT JUMPDEST PUSH1 0x2 PUSH1 0x1 PUSH2 0xA2A DUP2 DUP6 PUSH2 0x3600 JUMP JUMPDEST DUP2 SLOAD DUP2 LT PUSH2 0xA48 JUMPI PUSH4 0x4E487B71 PUSH1 0xE0 SHL PUSH1 0x0 MSTORE PUSH1 0x32 PUSH1 0x4 MSTORE PUSH1 0x24 PUSH1 0x0 REVERT JUMPDEST SWAP1 PUSH1 0x0 MSTORE PUSH1 0x20 PUSH1 0x0 KECCAK256 SWAP1 PUSH1 0x9 MUL ADD PUSH1 0x8 ADD PUSH1 0x2 SWAP1 SLOAD SWAP1 PUSH2 0x100 EXP SWAP1 DIV PUSH1 0xFF AND PUSH1 0x3 DUP2 GT ISZERO PUSH2 0xA86 JUMPI PUSH4 0x4E487B71 PUSH1 0xE0 SHL PUSH1 0x0 MSTORE PUSH1 0x21 PUSH1 0x4 MSTORE PUSH1 0x24 PUSH1 0x0 REVERT JUMPDEST EQ ISZERO PUSH2 0xAAD JUMPI PUSH1 0x40 MLOAD PUSH3 0x461BCD PUSH1 0xE5 SHL DUP2 MSTORE PUSH1 0x4 ADD PUSH2 0xAA4 SWAP1 PUSH2 0x3379 JUMP JUMPDEST PUSH1 0x40 MLOAD DUP1 SWAP2 SUB SWAP1 REVERT JUMPDEST PUSH1 0x1 PUSH2 0xAB9 DUP2 DUP5 PUSH2 0x3600 JUMP JUMPDEST DUP2 SLOAD DUP2 LT PUSH2 0xAD7 JUMPI PUSH4 0x4E487B71 PUSH1 0xE0 SHL PUSH1 0x0 MSTORE PUSH1 0x32 PUSH1 0x4 MSTORE PUSH1 0x24 PUSH1 0x0 REVERT JUMPDEST SWAP1 PUSH1 0x0 MSTORE PUSH1 0x20 PUSH1 0x0 KECCAK256 SWAP1 PUSH1 0x9 MUL ADD PUSH1 0x7 ADD SLOAD PUSH3 0x15180 PUSH2 0xAF7 SWAP2 SWAP1 PUSH2 0x35A9 JUMP JUMPDEST TIMESTAMP LT ISZERO PUSH2 0xB03 JUMPI PUSH1 0x0 DUP1 REVERT JUMPDEST PUSH1 0x1 DUP1 PUSH2 0xB10 DUP2 DUP6 PUSH2 0x3600 JUMP JUMPDEST DUP2 SLOAD DUP2 LT PUSH2 0xB2E JUMPI PUSH4 0x4E487B71 PUSH1 0xE0 SHL PUSH1 0x0 MSTORE PUSH1 0x32 PUSH1 0x4 MSTORE PUSH1 0x24 PUSH1 0x0 REVERT JUMPDEST PUSH1 0x0 SWAP2 DUP3 MSTORE PUSH1 0x20 SWAP1 SWAP2 KECCAK256 PUSH1 0x8 PUSH1 0x9 SWAP1 SWAP3 MUL ADD ADD DUP1 SLOAD PUSH3 0xFF0000 NOT AND PUSH3 0x10000 DUP4 PUSH1 0x3 DUP2 GT ISZERO PUSH2 0xB6D JUMPI PUSH4 0x4E487B71 PUSH1 0xE0 SHL PUSH1 0x0 MSTORE PUSH1 0x21 PUSH1 0x4 MSTORE PUSH1 0x24 PUSH1 0x0 REVERT JUMPDEST MUL OR SWAP1 SSTORE POP POP POP JUMP JUMPDEST PUSH1 0xB SLOAD PUSH1 0x1 PUSH1 0x1 PUSH1 0xA0 SHL SUB AND DUP2 JUMP JUMPDEST PUSH1 0xA SLOAD PUSH1 0x1 PUSH1 0x1 PUSH1 0xA0 SHL SUB AND CALLER EQ DUP1 PUSH2 0xBA8 JUMPI POP PUSH1 0xB SLOAD PUSH1 0x1 PUSH1 0x1 PUSH1 0xA0 SHL SUB AND CALLER EQ JUMPDEST PUSH2 0xBB1 JUMPI PUSH1 0x0 DUP1 REVERT JUMPDEST PUSH1 0x46 DUP2 GT ISZERO PUSH2 0xBBF JUMPI PUSH1 0x0 DUP1 REVERT JUMPDEST PUSH1 0x3 PUSH1 0x1 PUSH2 0xBCD DUP2 DUP6 PUSH2 0x3600 JUMP JUMPDEST DUP2 SLOAD DUP2 LT PUSH2 0xBEB JUMPI PUSH4 0x4E487B71 PUSH1 0xE0 SHL PUSH1 0x0 MSTORE PUSH1 0x32 PUSH1 0x4 MSTORE PUSH1 0x24 PUSH1 0x0 REVERT JUMPDEST SWAP1 PUSH1 0x0 MSTORE PUSH1 0x20 PUSH1 0x0 KECCAK256 SWAP1 PUSH1 0x9 MUL ADD PUSH1 0x8 ADD PUSH1 0x2 SWAP1 SLOAD SWAP1 PUSH2 0x100 EXP SWAP1 DIV PUSH1 0xFF AND PUSH1 0x3 DUP2 GT ISZERO PUSH2 0xC29 JUMPI PUSH4 0x4E487B71 PUSH1 0xE0 SHL PUSH1 0x0 MSTORE PUSH1 0x21 PUSH1 0x4 MSTORE PUSH1 0x24 PUSH1 0x0 REVERT JUMPDEST EQ PUSH2 0xC33 JUMPI PUSH1 0x0 DUP1 REVERT JUMPDEST PUSH1 0x1 DUP1 PUSH2 0xC40 DUP2 DUP6 PUSH2 0x3600 JUMP JUMPDEST DUP2 SLOAD DUP2 LT PUSH2 0xC5E JUMPI PUSH4 0x4E487B71 PUSH1 0xE0 SHL PUSH1 0x0 MSTORE PUSH1 0x32 PUSH1 0x4 MSTORE PUSH1 0x24 PUSH1 0x0 REVERT JUMPDEST SWAP1 PUSH1 0x0 MSTORE PUSH1 0x20 PUSH1 0x0 KECCAK256 SWAP1 PUSH1 0x9 MUL ADD PUSH1 0x8 ADD PUSH1 0x2 SWAP1 SLOAD SWAP1 PUSH2 0x100 EXP SWAP1 DIV PUSH1 0xFF AND PUSH1 0x3 DUP2 GT ISZERO PUSH2 0xC9C JUMPI PUSH4 0x4E487B71 PUSH1 0xE0 SHL PUSH1 0x0 MSTORE PUSH1 0x21 PUSH1 0x4 MSTORE PUSH1 0x24 PUSH1 0x0 REVERT JUMPDEST POP PUSH1 0x0 SWAP1 POP PUSH1 0x1 PUSH2 0xCAD DUP2 DUP6 PUSH2 0x3600 JUMP JUMPDEST DUP2 SLOAD DUP2 LT PUSH2 0xCCB JUMPI PUSH4 0x4E487B71 PUSH1 0xE0 SHL PUSH1 0x0 MSTORE PUSH1 0x32 PUSH1 0x4 MSTORE PUSH1 0x24 PUSH1 0x0 REVERT JUMPDEST SWAP1 PUSH1 0x0 MSTORE PUSH1 0x20 PUSH1 0x0 KECCAK256 SWAP1 PUSH1 0x9 MUL ADD PUSH1 0x4 ADD SLOAD SWAP1 POP DUP1 PUSH1 0x5 PUSH1 0x0 PUSH1 0x1 DUP1 DUP8 PUSH2 0xCF2 SWAP2 SWAP1 PUSH2 0x3600 JUMP JUMPDEST DUP2 SLOAD DUP2 LT PUSH2 0xD10 JUMPI PUSH4 0x4E487B71 PUSH1 0xE0 SHL PUSH1 0x0 MSTORE PUSH1 0x32 PUSH1 0x4 MSTORE PUSH1 0x24 PUSH1 0x0 REVERT JUMPDEST PUSH1 0x0 SWAP2 DUP3 MSTORE PUSH1 0x20 DUP1 DUP4 KECCAK256 PUSH1 0x1 PUSH1 0x9 SWAP1 SWAP4 MUL ADD SWAP2 SWAP1 SWAP2 ADD SLOAD PUSH1 0x1 PUSH1 0x1 PUSH1 0xA0 SHL SUB AND DUP4 MSTORE DUP3 ADD SWAP3 SWAP1 SWAP3 MSTORE PUSH1 0x40 ADD DUP2 KECCAK256 DUP1 SLOAD SWAP1 SWAP2 SWAP1 PUSH2 0xD4D SWAP1 DUP5 SWAP1 PUSH2 0x3600 JUMP JUMPDEST SWAP1 SWAP2 SSTORE POP PUSH1 0x64 SWAP1 POP PUSH2 0xD5F DUP4 DUP4 PUSH2 0x35E1 JUMP JUMPDEST PUSH2 0xD69 SWAP2 SWAP1 PUSH2 0x35C1 JUMP JUMPDEST PUSH1 0x4 PUSH1 0x0 PUSH1 0x1 PUSH2 0xD79 DUP2 DUP9 PUSH2 0x3600 JUMP JUMPDEST DUP2 SLOAD DUP2 LT PUSH2 0xD97 JUMPI PUSH4 0x4E487B71 PUSH1 0xE0 SHL PUSH1 0x0 MSTORE PUSH1 0x32 PUSH1 0x4 MSTORE PUSH1 0x24 PUSH1 0x0 REVERT JUMPDEST PUSH1 0x0 SWAP2 DUP3 MSTORE PUSH1 0x20 DUP1 DUP4 KECCAK256 PUSH1 0x1 PUSH1 0x9 SWAP1 SWAP4 MUL ADD SWAP2 SWAP1 SWAP2 ADD SLOAD PUSH1 0x1 PUSH1 0x1 PUSH1 0xA0 SHL SUB AND DUP4 MSTORE DUP3 ADD SWAP3 SWAP1 SWAP3 MSTORE PUSH1 0x40 ADD DUP2 KECCAK256 DUP1 SLOAD SWAP1 SWAP2 SWAP1 PUSH2 0xDD4 SWAP1 DUP5 SWAP1 PUSH2 0x35A9 JUMP JUMPDEST SWAP1 SWAP2 SSTORE POP PUSH1 0x64 SWAP1 POP PUSH2 0xDE7 DUP3 PUSH1 0x14 PUSH2 0x35E1 JUMP JUMPDEST PUSH2 0xDF1 SWAP2 SWAP1 PUSH2 0x35C1 JUMP JUMPDEST PUSH1 0x7 PUSH1 0x0 PUSH1 0x1 PUSH2 0xE01 DUP2 DUP9 PUSH2 0x3600 JUMP JUMPDEST DUP2 SLOAD DUP2 LT PUSH2 0xE1F JUMPI PUSH4 0x4E487B71 PUSH1 0xE0 SHL PUSH1 0x0 MSTORE PUSH1 0x32 PUSH1 0x4 MSTORE PUSH1 0x24 PUSH1 0x0 REVERT JUMPDEST PUSH1 0x0 SWAP2 DUP3 MSTORE PUSH1 0x20 DUP1 DUP4 KECCAK256 PUSH1 0x2 PUSH1 0x9 SWAP1 SWAP4 MUL ADD SWAP2 SWAP1 SWAP2 ADD SLOAD PUSH1 0x1 PUSH1 0x1 PUSH1 0xA0 SHL SUB AND DUP4 MSTORE DUP3 ADD SWAP3 SWAP1 SWAP3 MSTORE PUSH1 0x40 ADD DUP2 KECCAK256 DUP1 SLOAD SWAP1 SWAP2 SWAP1 PUSH2 0xE5C SWAP1 DUP5 SWAP1 PUSH2 0x3600 JUMP JUMPDEST SWAP1 SWAP2 SSTORE POP PUSH1 0x64 SWAP1 POP PUSH1 0x1E PUSH2 0xE70 DUP5 DUP4 PUSH2 0x3600 JUMP JUMPDEST PUSH2 0xE7A SWAP2 SWAP1 PUSH2 0x3600 JUMP JUMPDEST PUSH2 0xE84 SWAP1 DUP4 PUSH2 0x35E1 JUMP JUMPDEST PUSH2 0xE8F DUP4 PUSH1 0x14 PUSH2 0x35E1 JUMP JUMPDEST PUSH2 0xE99 SWAP2 SWAP1 PUSH2 0x35A9 JUMP JUMPDEST PUSH2 0xEA3 SWAP2 SWAP1 PUSH2 0x35C1 JUMP JUMPDEST PUSH1 0x6 PUSH1 0x0 PUSH1 0x1 PUSH2 0xEB3 DUP2 DUP9 PUSH2 0x3600 JUMP JUMPDEST DUP2 SLOAD DUP2 LT PUSH2 0xED1 JUMPI PUSH4 0x4E487B71 PUSH1 0xE0 SHL PUSH1 0x0 MSTORE PUSH1 0x32 PUSH1 0x4 MSTORE PUSH1 0x24 PUSH1 0x0 REVERT JUMPDEST PUSH1 0x0 SWAP2 DUP3 MSTORE PUSH1 0x20 DUP1 DUP4 KECCAK256 PUSH1 0x2 PUSH1 0x9 SWAP1 SWAP4 MUL ADD SWAP2 SWAP1 SWAP2 ADD SLOAD PUSH1 0x1 PUSH1 0x1 PUSH1 0xA0 SHL SUB AND DUP4 MSTORE DUP3 ADD SWAP3 SWAP1 SWAP3 MSTORE PUSH1 0x40 ADD DUP2 KECCAK256 DUP1 SLOAD SWAP1 SWAP2 SWAP1 PUSH2 0xF0E SWAP1 DUP5 SWAP1 PUSH2 0x35A9 JUMP JUMPDEST SWAP1 SWAP2 SSTORE POP PUSH1 0x64 SWAP1 POP PUSH2 0xF21 DUP3 PUSH1 0x1E PUSH2 0x35E1 JUMP JUMPDEST PUSH2 0xF2B SWAP2 SWAP1 PUSH2 0x35C1 JUMP JUMPDEST PUSH1 0x9 PUSH1 0x0 DUP3 DUP3 SLOAD PUSH2 0x926 SWAP2 SWAP1 PUSH2 0x35A9 JUMP JUMPDEST PUSH2 0xF44 PUSH2 0x2E54 JUMP JUMPDEST DUP1 MLOAD PUSH1 0x20 DUP3 ADD KECCAK256 PUSH32 0xAA684A62CFEC67884698EDCB374CDD8A7421222BFEB8B6570BB1A601A3F00690 DUP2 EQ ISZERO PUSH2 0x101C JUMPI CALLER PUSH1 0x0 SWAP1 DUP2 MSTORE PUSH1 0x4 PUSH1 0x20 MSTORE PUSH1 0x40 SWAP1 KECCAK256 SLOAD DUP4 GT ISZERO PUSH2 0xF8F JUMPI PUSH1 0x0 DUP1 REVERT JUMPDEST CALLER PUSH1 0x0 SWAP1 DUP2 MSTORE PUSH1 0x4 PUSH1 0x20 MSTORE PUSH1 0x40 DUP2 KECCAK256 DUP1 SLOAD DUP6 SWAP3 SWAP1 PUSH2 0xFAE SWAP1 DUP5 SWAP1 PUSH2 0x3600 JUMP JUMPDEST SWAP1 SWAP2 SSTORE POP POP PUSH1 0x40 MLOAD PUSH1 0x0 SWAP1 CALLER SWAP1 DUP6 SWAP1 PUSH2 0xFC6 SWAP1 PUSH2 0x3166 JUMP JUMPDEST PUSH1 0x0 PUSH1 0x40 MLOAD DUP1 DUP4 SUB DUP2 DUP6 DUP8 GAS CALL SWAP3 POP POP POP RETURNDATASIZE DUP1 PUSH1 0x0 DUP2 EQ PUSH2 0x1003 JUMPI PUSH1 0x40 MLOAD SWAP2 POP PUSH1 0x1F NOT PUSH1 0x3F RETURNDATASIZE ADD AND DUP3 ADD PUSH1 0x40 MSTORE RETURNDATASIZE DUP3 MSTORE RETURNDATASIZE PUSH1 0x0 PUSH1 0x20 DUP5 ADD RETURNDATACOPY PUSH2 0x1008 JUMP JUMPDEST PUSH1 0x60 SWAP2 POP JUMPDEST POP POP SWAP1 POP DUP1 PUSH2 0x1016 JUMPI PUSH1 0x0 DUP1 REVERT JUMPDEST POP PUSH2 0x10E9 JUMP JUMPDEST PUSH32 0x8D7680EAD1DA220F978B7468ED8CDA236BAA559F8AF75BFF883132FA60B435A7 DUP2 EQ ISZERO PUSH2 0x10E9 JUMPI CALLER PUSH1 0x0 SWAP1 DUP2 MSTORE PUSH1 0x6 PUSH1 0x20 MSTORE PUSH1 0x40 SWAP1 KECCAK256 SLOAD DUP4 GT ISZERO PUSH2 0x1060 JUMPI PUSH1 0x0 DUP1 REVERT JUMPDEST CALLER PUSH1 0x0 SWAP1 DUP2 MSTORE PUSH1 0x6 PUSH1 0x20 MSTORE PUSH1 0x40 DUP2 KECCAK256 DUP1 SLOAD DUP6 SWAP3 SWAP1 PUSH2 0x107F SWAP1 DUP5 SWAP1 PUSH2 0x3600 JUMP JUMPDEST SWAP1 SWAP2 SSTORE POP POP PUSH1 0x40 MLOAD PUSH1 0x0 SWAP1 CALLER SWAP1 DUP6 SWAP1 PUSH2 0x1097 SWAP1 PUSH2 0x3166 JUMP JUMPDEST PUSH1 0x0 PUSH1 0x40 MLOAD DUP1 DUP4 SUB DUP2 DUP6 DUP8 GAS CALL SWAP3 POP POP POP RETURNDATASIZE DUP1 PUSH1 0x0 DUP2 EQ PUSH2 0x10D4 JUMPI PUSH1 0x40 MLOAD SWAP2 POP PUSH1 0x1F NOT PUSH1 0x3F RETURNDATASIZE ADD AND DUP3 ADD PUSH1 0x40 MSTORE RETURNDATASIZE DUP3 MSTORE RETURNDATASIZE PUSH1 0x0 PUSH1 0x20 DUP5 ADD RETURNDATACOPY PUSH2 0x10D9 JUMP JUMPDEST PUSH1 0x60 SWAP2 POP JUMPDEST POP POP SWAP1 POP DUP1 PUSH2 0x10E7 JUMPI PUSH1 0x0 DUP1 REVERT JUMPDEST POP JUMPDEST POP PUSH2 0x10F2 PUSH2 0x2E7E JUMP JUMPDEST POP POP JUMP JUMPDEST PUSH1 0x9 SLOAD DUP2 JUMP JUMPDEST DUP1 CALLER PUSH1 0x1 PUSH2 0x110A DUP2 DUP5 PUSH2 0x3600 JUMP JUMPDEST DUP2 SLOAD DUP2 LT PUSH2 0x1128 JUMPI PUSH4 0x4E487B71 PUSH1 0xE0 SHL PUSH1 0x0 MSTORE PUSH1 0x32 PUSH1 0x4 MSTORE PUSH1 0x24 PUSH1 0x0 REVERT JUMPDEST PUSH1 0x0 SWAP2 DUP3 MSTORE PUSH1 0x20 SWAP1 SWAP2 KECCAK256 PUSH1 0x2 PUSH1 0x9 SWAP1 SWAP3 MUL ADD ADD SLOAD PUSH1 0x1 PUSH1 0x1 PUSH1 0xA0 SHL SUB AND EQ PUSH2 0x114F JUMPI PUSH1 0x0 DUP1 REVERT JUMPDEST PUSH1 0x1 DUP1 PUSH2 0x115C DUP2 DUP6 PUSH2 0x3600 JUMP JUMPDEST DUP2 SLOAD DUP2 LT PUSH2 0x117A JUMPI PUSH4 0x4E487B71 PUSH1 0xE0 SHL PUSH1 0x0 MSTORE PUSH1 0x32 PUSH1 0x4 MSTORE PUSH1 0x24 PUSH1 0x0 REVERT JUMPDEST SWAP1 PUSH1 0x0 MSTORE PUSH1 0x20 PUSH1 0x0 KECCAK256 SWAP1 PUSH1 0x9 MUL ADD PUSH1 0x8 ADD PUSH1 0x2 SWAP1 SLOAD SWAP1 PUSH2 0x100 EXP SWAP1 DIV PUSH1 0xFF AND PUSH1 0x3 DUP2 GT ISZERO PUSH2 0x11B8 JUMPI PUSH4 0x4E487B71 PUSH1 0xE0 SHL PUSH1 0x0 MSTORE PUSH1 0x21 PUSH1 0x4 MSTORE PUSH1 0x24 PUSH1 0x0 REVERT JUMPDEST EQ PUSH2 0x11D5 JUMPI PUSH1 0x40 MLOAD PUSH3 0x461BCD PUSH1 0xE5 SHL DUP2 MSTORE PUSH1 0x4 ADD PUSH2 0xAA4 SWAP1 PUSH2 0x3295 JUMP JUMPDEST PUSH1 0x0 PUSH1 0x1 PUSH2 0x11E3 DUP2 DUP6 PUSH2 0x3600 JUMP JUMPDEST DUP2 SLOAD DUP2 LT PUSH2 0x1201 JUMPI PUSH4 0x4E487B71 PUSH1 0xE0 SHL PUSH1 0x0 MSTORE PUSH1 0x32 PUSH1 0x4 MSTORE PUSH1 0x24 PUSH1 0x0 REVERT JUMPDEST SWAP1 PUSH1 0x0 MSTORE PUSH1 0x20 PUSH1 0x0 KECCAK256 SWAP1 PUSH1 0x9 MUL ADD PUSH1 0x4 ADD SLOAD SWAP1 POP PUSH1 0x1 DUP1 DUP5 PUSH2 0x1223 SWAP2 SWAP1 PUSH2 0x3600 JUMP JUMPDEST DUP2 SLOAD DUP2 LT PUSH2 0x1241 JUMPI PUSH4 0x4E487B71 PUSH1 0xE0 SHL PUSH1 0x0 MSTORE PUSH1 0x32 PUSH1 0x4 MSTORE PUSH1 0x24 PUSH1 0x0 REVERT JUMPDEST SWAP1 PUSH1 0x0 MSTORE PUSH1 0x20 PUSH1 0x0 KECCAK256 SWAP1 PUSH1 0x9 MUL ADD PUSH1 0x6 ADD SLOAD PUSH1 0x1 DUP1 DUP6 PUSH2 0x1261 SWAP2 SWAP1 PUSH2 0x3600 JUMP JUMPDEST DUP2 SLOAD DUP2 LT PUSH2 0x127F JUMPI PUSH4 0x4E487B71 PUSH1 0xE0 SHL PUSH1 0x0 MSTORE PUSH1 0x32 PUSH1 0x4 MSTORE PUSH1 0x24 PUSH1 0x0 REVERT JUMPDEST SWAP1 PUSH1 0x0 MSTORE PUSH1 0x20 PUSH1 0x0 KECCAK256 SWAP1 PUSH1 0x9 MUL ADD PUSH1 0x7 ADD SLOAD GT PUSH2 0x1460 JUMPI DUP1 PUSH1 0x5 PUSH1 0x0 PUSH1 0x1 PUSH2 0x12A7 DUP2 DUP9 PUSH2 0x3600 JUMP JUMPDEST DUP2 SLOAD DUP2 LT PUSH2 0x12C5 JUMPI PUSH4 0x4E487B71 PUSH1 0xE0 SHL PUSH1 0x0 MSTORE PUSH1 0x32 PUSH1 0x4 MSTORE PUSH1 0x24 PUSH1 0x0 REVERT JUMPDEST PUSH1 0x0 SWAP2 DUP3 MSTORE PUSH1 0x20 DUP1 DUP4 KECCAK256 PUSH1 0x1 PUSH1 0x9 SWAP1 SWAP4 MUL ADD SWAP2 SWAP1 SWAP2 ADD SLOAD PUSH1 0x1 PUSH1 0x1 PUSH1 0xA0 SHL SUB AND DUP4 MSTORE DUP3 ADD SWAP3 SWAP1 SWAP3 MSTORE PUSH1 0x40 ADD DUP2 KECCAK256 DUP1 SLOAD SWAP1 SWAP2 SWAP1 PUSH2 0x1302 SWAP1 DUP5 SWAP1 PUSH2 0x3600 JUMP JUMPDEST SWAP1 SWAP2 SSTORE POP PUSH1 0x64 SWAP1 POP PUSH2 0x1315 DUP3 PUSH1 0x14 PUSH2 0x35E1 JUMP JUMPDEST PUSH2 0x131F SWAP2 SWAP1 PUSH2 0x35C1 JUMP JUMPDEST PUSH1 0x7 PUSH1 0x0 PUSH1 0x1 PUSH2 0x132F DUP2 DUP9 PUSH2 0x3600 JUMP JUMPDEST DUP2 SLOAD DUP2 LT PUSH2 0x134D JUMPI PUSH4 0x4E487B71 PUSH1 0xE0 SHL PUSH1 0x0 MSTORE PUSH1 0x32 PUSH1 0x4 MSTORE PUSH1 0x24 PUSH1 0x0 REVERT JUMPDEST PUSH1 0x0 SWAP2 DUP3 MSTORE PUSH1 0x20 DUP1 DUP4 KECCAK256 PUSH1 0x2 PUSH1 0x9 SWAP1 SWAP4 MUL ADD SWAP2 SWAP1 SWAP2 ADD SLOAD PUSH1 0x1 PUSH1 0x1 PUSH1 0xA0 SHL SUB AND DUP4 MSTORE DUP3 ADD SWAP3 SWAP1 SWAP3 MSTORE PUSH1 0x40 ADD DUP2 KECCAK256 DUP1 SLOAD SWAP1 SWAP2 SWAP1 PUSH2 0x138A SWAP1 DUP5 SWAP1 PUSH2 0x3600 JUMP JUMPDEST SWAP1 SWAP2 SSTORE POP PUSH1 0x64 SWAP1 POP PUSH2 0x139D DUP3 PUSH1 0x5F PUSH2 0x35E1 JUMP JUMPDEST PUSH2 0x13A8 DUP4 PUSH1 0x14 PUSH2 0x35E1 JUMP JUMPDEST PUSH2 0x13B2 SWAP2 SWAP1 PUSH2 0x35A9 JUMP JUMPDEST PUSH2 0x13BC SWAP2 SWAP1 PUSH2 0x35C1 JUMP JUMPDEST PUSH1 0x6 PUSH1 0x0 PUSH1 0x1 PUSH2 0x13CC DUP2 DUP9 PUSH2 0x3600 JUMP JUMPDEST DUP2 SLOAD DUP2 LT PUSH2 0x13EA JUMPI PUSH4 0x4E487B71 PUSH1 0xE0 SHL PUSH1 0x0 MSTORE PUSH1 0x32 PUSH1 0x4 MSTORE PUSH1 0x24 PUSH1 0x0 REVERT JUMPDEST PUSH1 0x0 SWAP2 DUP3 MSTORE PUSH1 0x20 DUP1 DUP4 KECCAK256 PUSH1 0x2 PUSH1 0x9 SWAP1 SWAP4 MUL ADD SWAP2 SWAP1 SWAP2 ADD SLOAD PUSH1 0x1 PUSH1 0x1 PUSH1 0xA0 SHL SUB AND DUP4 MSTORE DUP3 ADD SWAP3 SWAP1 SWAP3 MSTORE PUSH1 0x40 ADD DUP2 KECCAK256 DUP1 SLOAD SWAP1 SWAP2 SWAP1 PUSH2 0x1427 SWAP1 DUP5 SWAP1 PUSH2 0x35A9 JUMP JUMPDEST SWAP1 SWAP2 SSTORE POP PUSH1 0x64 SWAP1 POP PUSH2 0x143A DUP3 PUSH1 0x5 PUSH2 0x35E1 JUMP JUMPDEST PUSH2 0x1444 SWAP2 SWAP1 PUSH2 0x35C1 JUMP JUMPDEST PUSH1 0x9 PUSH1 0x0 DUP3 DUP3 SLOAD PUSH2 0x1455 SWAP2 SWAP1 PUSH2 0x35A9 JUMP JUMPDEST SWAP1 SWAP2 SSTORE POP PUSH2 0x1980 SWAP1 POP JUMP JUMPDEST PUSH1 0x64 PUSH1 0x1 PUSH2 0x146E DUP2 DUP7 PUSH2 0x3600 JUMP JUMPDEST DUP2 SLOAD DUP2 LT PUSH2 0x148C JUMPI PUSH4 0x4E487B71 PUSH1 0xE0 SHL PUSH1 0x0 MSTORE PUSH1 0x32 PUSH1 0x4 MSTORE PUSH1 0x24 PUSH1 0x0 REVERT JUMPDEST SWAP1 PUSH1 0x0 MSTORE PUSH1 0x20 PUSH1 0x0 KECCAK256 SWAP1 PUSH1 0x9 MUL ADD PUSH1 0x5 ADD SLOAD PUSH1 0x14 PUSH2 0x14AA SWAP2 SWAP1 PUSH2 0x35E1 JUMP JUMPDEST PUSH2 0x14B4 SWAP2 SWAP1 PUSH2 0x35C1 JUMP JUMPDEST PUSH1 0x1 PUSH2 0x14C0 DUP2 DUP7 PUSH2 0x3600 JUMP JUMPDEST DUP2 SLOAD DUP2 LT PUSH2 0x14DE JUMPI PUSH4 0x4E487B71 PUSH1 0xE0 SHL PUSH1 0x0 MSTORE PUSH1 0x32 PUSH1 0x4 MSTORE PUSH1 0x24 PUSH1 0x0 REVERT JUMPDEST SWAP1 PUSH1 0x0 MSTORE PUSH1 0x20 PUSH1 0x0 KECCAK256 SWAP1 PUSH1 0x9 MUL ADD PUSH1 0x6 ADD SLOAD PUSH1 0x1 DUP1 DUP7 PUSH2 0x14FE SWAP2 SWAP1 PUSH2 0x3600 JUMP JUMPDEST DUP2 SLOAD DUP2 LT PUSH2 0x151C JUMPI PUSH4 0x4E487B71 PUSH1 0xE0 SHL PUSH1 0x0 MSTORE PUSH1 0x32 PUSH1 0x4 MSTORE PUSH1 0x24 PUSH1 0x0 REVERT JUMPDEST SWAP1 PUSH1 0x0 MSTORE PUSH1 0x20 PUSH1 0x0 KECCAK256 SWAP1 PUSH1 0x9 MUL ADD PUSH1 0x7 ADD SLOAD PUSH2 0x1538 SWAP2 SWAP1 PUSH2 0x3600 JUMP JUMPDEST GT PUSH2 0x1769 JUMPI DUP1 PUSH1 0x5 PUSH1 0x0 PUSH1 0x1 PUSH2 0x154E DUP2 DUP9 PUSH2 0x3600 JUMP JUMPDEST DUP2 SLOAD DUP2 LT PUSH2 0x156C JUMPI PUSH4 0x4E487B71 PUSH1 0xE0 SHL PUSH1 0x0 MSTORE PUSH1 0x32 PUSH1 0x4 MSTORE PUSH1 0x24 PUSH1 0x0 REVERT JUMPDEST PUSH1 0x0 SWAP2 DUP3 MSTORE PUSH1 0x20 DUP1 DUP4 KECCAK256 PUSH1 0x1 PUSH1 0x9 SWAP1 SWAP4 MUL ADD SWAP2 SWAP1 SWAP2 ADD SLOAD PUSH1 0x1 PUSH1 0x1 PUSH1 0xA0 SHL SUB AND DUP4 MSTORE DUP3 ADD SWAP3 SWAP1 SWAP3 MSTORE PUSH1 0x40 ADD DUP2 KECCAK256 DUP1 SLOAD SWAP1 SWAP2 SWAP1 PUSH2 0x15A9 SWAP1 DUP5 SWAP1 PUSH2 0x3600 JUMP JUMPDEST SWAP1 SWAP2 SSTORE POP PUSH1 0x64 SWAP1 POP PUSH2 0x15BC DUP3 PUSH1 0xA PUSH2 0x35E1 JUMP JUMPDEST PUSH2 0x15C6 SWAP2 SWAP1 PUSH2 0x35C1 JUMP JUMPDEST PUSH1 0x4 PUSH1 0x0 PUSH1 0x1 PUSH2 0x15D6 DUP2 DUP9 PUSH2 0x3600 JUMP JUMPDEST DUP2 SLOAD DUP2 LT PUSH2 0x15F4 JUMPI PUSH4 0x4E487B71 PUSH1 0xE0 SHL PUSH1 0x0 MSTORE PUSH1 0x32 PUSH1 0x4 MSTORE PUSH1 0x24 PUSH1 0x0 REVERT JUMPDEST PUSH1 0x0 SWAP2 DUP3 MSTORE PUSH1 0x20 DUP1 DUP4 KECCAK256 PUSH1 0x1 PUSH1 0x9 SWAP1 SWAP4 MUL ADD SWAP2 SWAP1 SWAP2 ADD SLOAD PUSH1 0x1 PUSH1 0x1 PUSH1 0xA0 SHL SUB AND DUP4 MSTORE DUP3 ADD SWAP3 SWAP1 SWAP3 MSTORE PUSH1 0x40 ADD DUP2 KECCAK256 DUP1 SLOAD SWAP1 SWAP2 SWAP1 PUSH2 0x1631 SWAP1 DUP5 SWAP1 PUSH2 0x35A9 JUMP JUMPDEST SWAP1 SWAP2 SSTORE POP PUSH1 0x64 SWAP1 POP PUSH2 0x1644 DUP3 PUSH1 0x14 PUSH2 0x35E1 JUMP JUMPDEST PUSH2 0x164E SWAP2 SWAP1 PUSH2 0x35C1 JUMP JUMPDEST PUSH1 0x7 PUSH1 0x0 PUSH1 0x1 PUSH2 0x165E DUP2 DUP9 PUSH2 0x3600 JUMP JUMPDEST DUP2 SLOAD DUP2 LT PUSH2 0x167C JUMPI PUSH4 0x4E487B71 PUSH1 0xE0 SHL PUSH1 0x0 MSTORE PUSH1 0x32 PUSH1 0x4 MSTORE PUSH1 0x24 PUSH1 0x0 REVERT JUMPDEST PUSH1 0x0 SWAP2 DUP3 MSTORE PUSH1 0x20 DUP1 DUP4 KECCAK256 PUSH1 0x2 PUSH1 0x9 SWAP1 SWAP4 MUL ADD SWAP2 SWAP1 SWAP2 ADD SLOAD PUSH1 0x1 PUSH1 0x1 PUSH1 0xA0 SHL SUB AND DUP4 MSTORE DUP3 ADD SWAP3 SWAP1 SWAP3 MSTORE PUSH1 0x40 ADD DUP2 KECCAK256 DUP1 SLOAD SWAP1 SWAP2 SWAP1 PUSH2 0x16B9 SWAP1 DUP5 SWAP1 PUSH2 0x3600 JUMP JUMPDEST SWAP1 SWAP2 SSTORE POP PUSH1 0x64 SWAP1 POP PUSH2 0x16CC DUP3 PUSH1 0x50 PUSH2 0x35E1 JUMP JUMPDEST PUSH2 0x16D7 DUP4 PUSH1 0x14 PUSH2 0x35E1 JUMP JUMPDEST PUSH2 0x16E1 SWAP2 SWAP1 PUSH2 0x35A9 JUMP JUMPDEST PUSH2 0x16EB SWAP2 SWAP1 PUSH2 0x35C1 JUMP JUMPDEST PUSH1 0x6 PUSH1 0x0 PUSH1 0x1 PUSH2 0x16FB DUP2 DUP9 PUSH2 0x3600 JUMP JUMPDEST DUP2 SLOAD DUP2 LT PUSH2 0x1719 JUMPI PUSH4 0x4E487B71 PUSH1 0xE0 SHL PUSH1 0x0 MSTORE PUSH1 0x32 PUSH1 0x4 MSTORE PUSH1 0x24 PUSH1 0x0 REVERT JUMPDEST PUSH1 0x0 SWAP2 DUP3 MSTORE PUSH1 0x20 DUP1 DUP4 KECCAK256 PUSH1 0x2 PUSH1 0x9 SWAP1 SWAP4 MUL ADD SWAP2 SWAP1 SWAP2 ADD SLOAD PUSH1 0x1 PUSH1 0x1 PUSH1 0xA0 SHL SUB AND DUP4 MSTORE DUP3 ADD SWAP3 SWAP1 SWAP3 MSTORE PUSH1 0x40 ADD DUP2 KECCAK256 DUP1 SLOAD SWAP1 SWAP2 SWAP1 PUSH2 0x1756 SWAP1 DUP5 SWAP1 PUSH2 0x35A9 JUMP JUMPDEST SWAP1 SWAP2 SSTORE POP PUSH1 0x64 SWAP1 POP PUSH2 0x143A DUP3 PUSH1 0xA PUSH2 0x35E1 JUMP JUMPDEST DUP1 PUSH1 0x5 PUSH1 0x0 PUSH1 0x1 PUSH2 0x177A DUP2 DUP9 PUSH2 0x3600 JUMP JUMPDEST DUP2 SLOAD DUP2 LT PUSH2 0x1798 JUMPI PUSH4 0x4E487B71 PUSH1 0xE0 SHL PUSH1 0x0 MSTORE PUSH1 0x32 PUSH1 0x4 MSTORE PUSH1 0x24 PUSH1 0x0 REVERT JUMPDEST PUSH1 0x0 SWAP2 DUP3 MSTORE PUSH1 0x20 DUP1 DUP4 KECCAK256 PUSH1 0x1 PUSH1 0x9 SWAP1 SWAP4 MUL ADD SWAP2 SWAP1 SWAP2 ADD SLOAD PUSH1 0x1 PUSH1 0x1 PUSH1 0xA0 SHL SUB AND DUP4 MSTORE DUP3 ADD SWAP3 SWAP1 SWAP3 MSTORE PUSH1 0x40 ADD DUP2 KECCAK256 DUP1 SLOAD SWAP1 SWAP2 SWAP1 PUSH2 0x17D5 SWAP1 DUP5 SWAP1 PUSH2 0x3600 JUMP JUMPDEST SWAP1 SWAP2 SSTORE POP PUSH1 0x64 SWAP1 POP PUSH2 0x17E8 DUP3 PUSH1 0x1E PUSH2 0x35E1 JUMP JUMPDEST PUSH2 0x17F2 SWAP2 SWAP1 PUSH2 0x35C1 JUMP JUMPDEST PUSH1 0x4 PUSH1 0x0 PUSH1 0x1 PUSH2 0x1802 DUP2 DUP9 PUSH2 0x3600 JUMP JUMPDEST DUP2 SLOAD DUP2 LT PUSH2 0x1820 JUMPI PUSH4 0x4E487B71 PUSH1 0xE0 SHL PUSH1 0x0 MSTORE PUSH1 0x32 PUSH1 0x4 MSTORE PUSH1 0x24 PUSH1 0x0 REVERT JUMPDEST PUSH1 0x0 SWAP2 DUP3 MSTORE PUSH1 0x20 DUP1 DUP4 KECCAK256 PUSH1 0x1 PUSH1 0x9 SWAP1 SWAP4 MUL ADD SWAP2 SWAP1 SWAP2 ADD SLOAD PUSH1 0x1 PUSH1 0x1 PUSH1 0xA0 SHL SUB AND DUP4 MSTORE DUP3 ADD SWAP3 SWAP1 SWAP3 MSTORE PUSH1 0x40 ADD DUP2 KECCAK256 DUP1 SLOAD SWAP1 SWAP2 SWAP1 PUSH2 0x185D SWAP1 DUP5 SWAP1 PUSH2 0x35A9 JUMP JUMPDEST SWAP1 SWAP2 SSTORE POP PUSH1 0x64 SWAP1 POP PUSH2 0x1870 DUP3 PUSH1 0x46 PUSH2 0x35E1 JUMP JUMPDEST PUSH2 0x187A SWAP2 SWAP1 PUSH2 0x35C1 JUMP JUMPDEST PUSH1 0x6 PUSH1 0x0 PUSH1 0x1 PUSH2 0x188A DUP2 DUP9 PUSH2 0x3600 JUMP JUMPDEST DUP2 SLOAD DUP2 LT PUSH2 0x18A8 JUMPI PUSH4 0x4E487B71 PUSH1 0xE0 SHL PUSH1 0x0 MSTORE PUSH1 0x32 PUSH1 0x4 MSTORE PUSH1 0x24 PUSH1 0x0 REVERT JUMPDEST PUSH1 0x0 SWAP2 DUP3 MSTORE PUSH1 0x20 DUP1 DUP4 KECCAK256 PUSH1 0x2 PUSH1 0x9 SWAP1 SWAP4 MUL ADD SWAP2 SWAP1 SWAP2 ADD SLOAD PUSH1 0x1 PUSH1 0x1 PUSH1 0xA0 SHL SUB AND DUP4 MSTORE DUP3 ADD SWAP3 SWAP1 SWAP3 MSTORE PUSH1 0x40 ADD DUP2 KECCAK256 DUP1 SLOAD SWAP1 SWAP2 SWAP1 PUSH2 0x18E5 SWAP1 DUP5 SWAP1 PUSH2 0x35A9 JUMP JUMPDEST SWAP1 SWAP2 SSTORE POP PUSH1 0x64 SWAP1 POP PUSH2 0x18F8 DUP3 PUSH1 0x14 PUSH2 0x35E1 JUMP JUMPDEST PUSH2 0x1902 SWAP2 SWAP1 PUSH2 0x35C1 JUMP JUMPDEST PUSH1 0x7 PUSH1 0x0 PUSH1 0x1 PUSH2 0x1912 DUP2 DUP9 PUSH2 0x3600 JUMP JUMPDEST DUP2 SLOAD DUP2 LT PUSH2 0x1930 JUMPI PUSH4 0x4E487B71 PUSH1 0xE0 SHL PUSH1 0x0 MSTORE PUSH1 0x32 PUSH1 0x4 MSTORE PUSH1 0x24 PUSH1 0x0 REVERT JUMPDEST PUSH1 0x0 SWAP2 DUP3 MSTORE PUSH1 0x20 DUP1 DUP4 KECCAK256 PUSH1 0x2 PUSH1 0x9 SWAP1 SWAP4 MUL ADD SWAP2 SWAP1 SWAP2 ADD SLOAD PUSH1 0x1 PUSH1 0x1 PUSH1 0xA0 SHL SUB AND DUP4 MSTORE DUP3 ADD SWAP3 SWAP1 SWAP3 MSTORE PUSH1 0x40 ADD DUP2 KECCAK256 DUP1 SLOAD SWAP1 SWAP2 SWAP1 PUSH2 0x196D SWAP1 DUP5 SWAP1 PUSH2 0x3600 JUMP JUMPDEST SWAP1 SWAP2 SSTORE POP PUSH1 0x64 SWAP1 POP PUSH2 0xF21 DUP3 PUSH1 0x14 PUSH2 0x35E1 JUMP JUMPDEST POP POP POP JUMP JUMPDEST PUSH1 0xB SLOAD PUSH1 0x1 PUSH1 0xA0 SHL SWAP1 DIV PUSH4 0xFFFFFFFF AND DUP2 JUMP JUMPDEST PUSH1 0xA SLOAD PUSH1 0x1 PUSH1 0x1 PUSH1 0xA0 SHL SUB AND CALLER EQ DUP1 PUSH2 0x19BB JUMPI POP PUSH1 0xB SLOAD PUSH1 0x1 PUSH1 0x1 PUSH1 0xA0 SHL SUB AND CALLER EQ JUMPDEST PUSH2 0x19C4 JUMPI PUSH1 0x0 DUP1 REVERT JUMPDEST CALLER PUSH1 0x0 SWAP1 DUP2 MSTORE PUSH1 0x8 PUSH1 0x20 MSTORE PUSH1 0x40 SWAP1 KECCAK256 DUP1 SLOAD PUSH1 0xFF NOT AND PUSH1 0x1 OR SWAP1 SSTORE JUMP JUMPDEST PUSH1 0xA SLOAD PUSH1 0x1 PUSH1 0x1 PUSH1 0xA0 SHL SUB AND DUP2 JUMP JUMPDEST PUSH1 0xA SLOAD PUSH1 0x1 PUSH1 0x1 PUSH1 0xA0 SHL SUB AND CALLER EQ DUP1 PUSH2 0x1A12 JUMPI POP PUSH1 0xB SLOAD PUSH1 0x1 PUSH1 0x1 PUSH1 0xA0 SHL SUB AND CALLER EQ JUMPDEST PUSH2 0x1A1B JUMPI PUSH1 0x0 DUP1 REVERT JUMPDEST PUSH2 0x1A23 PUSH2 0x2E54 JUMP JUMPDEST PUSH1 0xA SLOAD PUSH1 0x9 SLOAD PUSH1 0x40 MLOAD PUSH1 0x0 SWAP3 PUSH1 0x1 PUSH1 0x1 PUSH1 0xA0 SHL SUB AND SWAP2 SWAP1 PUSH2 0x1A43 SWAP1 PUSH2 0x3166 JUMP JUMPDEST PUSH1 0x0 PUSH1 0x40 MLOAD DUP1 DUP4 SUB DUP2 DUP6 DUP8 GAS CALL SWAP3 POP POP POP RETURNDATASIZE DUP1 PUSH1 0x0 DUP2 EQ PUSH2 0x1A80 JUMPI PUSH1 0x40 MLOAD SWAP2 POP PUSH1 0x1F NOT PUSH1 0x3F RETURNDATASIZE ADD AND DUP3 ADD PUSH1 0x40 MSTORE RETURNDATASIZE DUP3 MSTORE RETURNDATASIZE PUSH1 0x0 PUSH1 0x20 DUP5 ADD RETURNDATACOPY PUSH2 0x1A85 JUMP JUMPDEST PUSH1 0x60 SWAP2 POP JUMPDEST POP POP SWAP1 POP DUP1 PUSH2 0x1AA6 JUMPI PUSH1 0x40 MLOAD PUSH3 0x461BCD PUSH1 0xE5 SHL DUP2 MSTORE PUSH1 0x4 ADD PUSH2 0xAA4 SWAP1 PUSH2 0x3220 JUMP JUMPDEST POP PUSH1 0x0 PUSH1 0x9 SSTORE PUSH2 0x1AB4 PUSH2 0x2E7E JUMP JUMPDEST JUMP JUMPDEST PUSH1 0x9 SLOAD SWAP1 JUMP JUMPDEST CALLER PUSH1 0x0 SWAP1 DUP2 MSTORE PUSH1 0x4 PUSH1 0x20 MSTORE PUSH1 0x40 DUP2 KECCAK256 DUP1 SLOAD DUP5 SWAP3 CALLVALUE SWAP3 SWAP2 PUSH2 0x1ADD SWAP1 DUP5 SWAP1 PUSH2 0x35A9 JUMP JUMPDEST SWAP1 SWAP2 SSTORE POP POP CALLVALUE DUP2 GT ISZERO PUSH2 0x1DE8 JUMPI CALLER PUSH1 0x0 SWAP1 DUP2 MSTORE PUSH1 0x4 PUSH1 0x20 MSTORE PUSH1 0x40 SWAP1 KECCAK256 SLOAD DUP2 GT ISZERO PUSH2 0x1B19 JUMPI PUSH1 0x40 MLOAD PUSH3 0x461BCD PUSH1 0xE5 SHL DUP2 MSTORE PUSH1 0x4 ADD PUSH2 0xAA4 SWAP1 PUSH2 0x33E7 JUMP JUMPDEST PUSH1 0xB SLOAD PUSH1 0x1 PUSH1 0xC0 SHL SWAP1 DIV PUSH1 0xFF AND PUSH2 0x1B2F JUMPI PUSH1 0x0 DUP1 REVERT JUMPDEST PUSH1 0x0 DUP3 GT PUSH2 0x1B4F JUMPI PUSH1 0x40 MLOAD PUSH3 0x461BCD PUSH1 0xE5 SHL DUP2 MSTORE PUSH1 0x4 ADD PUSH2 0xAA4 SWAP1 PUSH2 0x3313 JUMP JUMPDEST CALLER PUSH1 0x0 SWAP1 DUP2 MSTORE PUSH1 0x4 PUSH1 0x20 MSTORE PUSH1 0x40 DUP2 KECCAK256 DUP1 SLOAD DUP6 SWAP3 SWAP1 PUSH2 0x1B6E SWAP1 DUP5 SWAP1 PUSH2 0x3600 JUMP JUMPDEST SWAP1 SWAP2 SSTORE POP POP CALLER PUSH1 0x0 SWAP1 DUP2 MSTORE PUSH1 0x5 PUSH1 0x20 MSTORE PUSH1 0x40 DUP2 KECCAK256 DUP1 SLOAD DUP6 SWAP3 SWAP1 PUSH2 0x1B92 SWAP1 DUP5 SWAP1 PUSH2 0x35A9 JUMP JUMPDEST SWAP1 SWAP2 SSTORE POP POP PUSH1 0x1 DUP1 SLOAD PUSH1 0x0 SWAP2 PUSH2 0x1BA8 SWAP2 SWAP1 PUSH2 0x35A9 JUMP JUMPDEST SWAP1 POP PUSH1 0x0 PUSH2 0x1BB9 DUP5 PUSH3 0x15180 PUSH2 0x35E1 JUMP JUMPDEST PUSH1 0x40 DUP1 MLOAD PUSH2 0x160 DUP2 ADD DUP3 MSTORE DUP5 DUP2 MSTORE CALLER PUSH1 0x20 DUP1 DUP4 ADD SWAP2 DUP3 MSTORE PUSH1 0x0 SWAP4 DUP4 ADD DUP5 DUP2 MSTORE PUSH1 0x60 DUP5 ADD DUP13 DUP2 MSTORE PUSH1 0x80 DUP6 ADD DUP13 SWAP1 MSTORE PUSH1 0xA0 DUP6 ADD DUP8 SWAP1 MSTORE PUSH1 0xC0 DUP6 ADD DUP7 SWAP1 MSTORE PUSH1 0xE0 DUP6 ADD DUP7 SWAP1 MSTORE PUSH1 0x1 PUSH2 0x100 DUP7 ADD DUP2 SWAP1 MSTORE PUSH2 0x120 DUP7 ADD DUP8 SWAP1 MSTORE PUSH2 0x140 DUP7 ADD DUP8 SWAP1 MSTORE DUP1 SLOAD DUP1 DUP3 ADD DUP3 SSTORE SWAP7 MSTORE DUP5 MLOAD PUSH32 0xB10E2D527612073B26EECDFD717E6A320CF44B4AFAC2B0732D9FCBE2B7FA0CF6 PUSH1 0x9 SWAP1 SWAP8 MUL SWAP7 DUP8 ADD SWAP1 DUP2 SSTORE SWAP4 MLOAD PUSH32 0xB10E2D527612073B26EECDFD717E6A320CF44B4AFAC2B0732D9FCBE2B7FA0CF7 DUP8 ADD DUP1 SLOAD PUSH1 0x1 PUSH1 0x1 PUSH1 0xA0 SHL SUB NOT SWAP1 DUP2 AND PUSH1 0x1 PUSH1 0x1 PUSH1 0xA0 SHL SUB SWAP4 DUP5 AND OR SWAP1 SWAP2 SSTORE SWAP3 MLOAD PUSH32 0xB10E2D527612073B26EECDFD717E6A320CF44B4AFAC2B0732D9FCBE2B7FA0CF8 DUP9 ADD DUP1 SLOAD SWAP1 SWAP5 AND SWAP2 AND OR SWAP1 SWAP2 SSTORE MLOAD DUP1 MLOAD SWAP6 SWAP7 POP SWAP3 SWAP5 DUP6 SWAP5 SWAP3 SWAP4 PUSH2 0x1CF8 SWAP4 PUSH32 0xB10E2D527612073B26EECDFD717E6A320CF44B4AFAC2B0732D9FCBE2B7FA0CF9 ADD SWAP3 ADD SWAP1 PUSH2 0x2E85 JUMP JUMPDEST POP PUSH1 0x80 DUP3 ADD MLOAD PUSH1 0x4 DUP3 ADD SSTORE PUSH1 0xA0 DUP3 ADD MLOAD PUSH1 0x5 DUP3 ADD SSTORE PUSH1 0xC0 DUP3 ADD MLOAD PUSH1 0x6 DUP3 ADD SSTORE PUSH1 0xE0 DUP3 ADD MLOAD PUSH1 0x7 DUP3 ADD SSTORE PUSH2 0x100 DUP1 DUP4 ADD MLOAD PUSH1 0x8 DUP4 ADD DUP1 SLOAD PUSH2 0x120 DUP7 ADD MLOAD PUSH1 0xFF NOT SWAP1 SWAP2 AND SWAP3 ISZERO ISZERO SWAP3 SWAP1 SWAP3 OR PUSH2 0xFF00 NOT AND SWAP2 ISZERO ISZERO SWAP1 SWAP3 MUL OR DUP1 DUP3 SSTORE PUSH2 0x140 DUP5 ADD MLOAD SWAP2 SWAP1 PUSH3 0xFF0000 NOT AND PUSH3 0x10000 DUP4 PUSH1 0x3 DUP2 GT ISZERO PUSH2 0x1D82 JUMPI PUSH4 0x4E487B71 PUSH1 0xE0 SHL PUSH1 0x0 MSTORE PUSH1 0x21 PUSH1 0x4 MSTORE PUSH1 0x24 PUSH1 0x0 REVERT JUMPDEST MUL OR SWAP1 SSTORE POP POP CALLER PUSH1 0x0 SWAP1 DUP2 MSTORE PUSH1 0x2 PUSH1 0x20 SWAP1 DUP2 MSTORE PUSH1 0x40 DUP1 DUP4 KECCAK256 DUP1 SLOAD PUSH1 0x1 DUP2 ADD DUP3 SSTORE SWAP1 DUP5 MSTORE SWAP2 SWAP1 SWAP3 KECCAK256 ADD DUP6 SWAP1 SSTORE MLOAD PUSH32 0x4B1B1A905A6323B91259E1E095B47EE5DBB95009E905491DB7049E6A1C98A874 SWAP2 POP PUSH2 0x1DDC SWAP1 DUP6 SWAP1 PUSH2 0x3554 JUMP JUMPDEST PUSH1 0x40 MLOAD DUP1 SWAP2 SUB SWAP1 LOG1 POP POP POP JUMPDEST PUSH1 0xB SLOAD PUSH1 0x1 PUSH1 0xC0 SHL SWAP1 DIV PUSH1 0xFF AND PUSH2 0x1DFE JUMPI PUSH1 0x0 DUP1 REVERT JUMPDEST PUSH1 0x0 DUP3 GT PUSH2 0x1E1E JUMPI PUSH1 0x40 MLOAD PUSH3 0x461BCD PUSH1 0xE5 SHL DUP2 MSTORE PUSH1 0x4 ADD PUSH2 0xAA4 SWAP1 PUSH2 0x3313 JUMP JUMPDEST CALLER PUSH1 0x0 SWAP1 DUP2 MSTORE PUSH1 0x4 PUSH1 0x20 MSTORE PUSH1 0x40 DUP2 KECCAK256 DUP1 SLOAD DUP6 SWAP3 SWAP1 PUSH2 0x1E3D SWAP1 DUP5 SWAP1 PUSH2 0x3600 JUMP JUMPDEST SWAP1 SWAP2 SSTORE POP POP CALLER PUSH1 0x0 SWAP1 DUP2 MSTORE PUSH1 0x5 PUSH1 0x20 MSTORE PUSH1 0x40 DUP2 KECCAK256 DUP1 SLOAD DUP6 SWAP3 SWAP1 PUSH2 0x1E61 SWAP1 DUP5 SWAP1 PUSH2 0x35A9 JUMP JUMPDEST SWAP1 SWAP2 SSTORE POP POP PUSH1 0x1 DUP1 SLOAD PUSH1 0x0 SWAP2 PUSH2 0x1E77 SWAP2 SWAP1 PUSH2 0x35A9 JUMP JUMPDEST SWAP1 POP PUSH1 0x0 PUSH2 0x1E88 DUP5 PUSH3 0x15180 PUSH2 0x35E1 JUMP JUMPDEST PUSH1 0x40 DUP1 MLOAD PUSH2 0x160 DUP2 ADD DUP3 MSTORE DUP5 DUP2 MSTORE CALLER PUSH1 0x20 DUP1 DUP4 ADD SWAP2 DUP3 MSTORE PUSH1 0x0 SWAP4 DUP4 ADD DUP5 DUP2 MSTORE PUSH1 0x60 DUP5 ADD DUP13 DUP2 MSTORE PUSH1 0x80 DUP6 ADD DUP13 SWAP1 MSTORE PUSH1 0xA0 DUP6 ADD DUP8 SWAP1 MSTORE PUSH1 0xC0 DUP6 ADD DUP7 SWAP1 MSTORE PUSH1 0xE0 DUP6 ADD DUP7 SWAP1 MSTORE PUSH1 0x1 PUSH2 0x100 DUP7 ADD DUP2 SWAP1 MSTORE PUSH2 0x120 DUP7 ADD DUP8 SWAP1 MSTORE PUSH2 0x140 DUP7 ADD DUP8 SWAP1 MSTORE DUP1 SLOAD DUP1 DUP3 ADD DUP3 SSTORE SWAP7 MSTORE DUP5 MLOAD PUSH32 0xB10E2D527612073B26EECDFD717E6A320CF44B4AFAC2B0732D9FCBE2B7FA0CF6 PUSH1 0x9 SWAP1 SWAP8 MUL SWAP7 DUP8 ADD SWAP1 DUP2 SSTORE SWAP4 MLOAD PUSH32 0xB10E2D527612073B26EECDFD717E6A320CF44B4AFAC2B0732D9FCBE2B7FA0CF7 DUP8 ADD DUP1 SLOAD PUSH1 0x1 PUSH1 0x1 PUSH1 0xA0 SHL SUB NOT SWAP1 DUP2 AND PUSH1 0x1 PUSH1 0x1 PUSH1 0xA0 SHL SUB SWAP4 DUP5 AND OR SWAP1 SWAP2 SSTORE SWAP3 MLOAD PUSH32 0xB10E2D527612073B26EECDFD717E6A320CF44B4AFAC2B0732D9FCBE2B7FA0CF8 DUP9 ADD DUP1 SLOAD SWAP1 SWAP5 AND SWAP2 AND OR SWAP1 SWAP2 SSTORE MLOAD DUP1 MLOAD SWAP6 SWAP7 POP SWAP3 SWAP5 DUP6 SWAP5 SWAP3 SWAP4 PUSH2 0x1FC7 SWAP4 PUSH32 0xB10E2D527612073B26EECDFD717E6A320CF44B4AFAC2B0732D9FCBE2B7FA0CF9 ADD SWAP3 ADD SWAP1 PUSH2 0x2E85 JUMP JUMPDEST POP PUSH1 0x80 DUP3 ADD MLOAD PUSH1 0x4 DUP3 ADD SSTORE PUSH1 0xA0 DUP3 ADD MLOAD PUSH1 0x5 DUP3 ADD SSTORE PUSH1 0xC0 DUP3 ADD MLOAD PUSH1 0x6 DUP3 ADD SSTORE PUSH1 0xE0 DUP3 ADD MLOAD PUSH1 0x7 DUP3 ADD SSTORE PUSH2 0x100 DUP1 DUP4 ADD MLOAD PUSH1 0x8 DUP4 ADD DUP1 SLOAD PUSH2 0x120 DUP7 ADD MLOAD PUSH1 0xFF NOT SWAP1 SWAP2 AND SWAP3 ISZERO ISZERO SWAP3 SWAP1 SWAP3 OR PUSH2 0xFF00 NOT AND SWAP2 ISZERO ISZERO SWAP1 SWAP3 MUL OR DUP1 DUP3 SSTORE PUSH2 0x140 DUP5 ADD MLOAD SWAP2 SWAP1 PUSH3 0xFF0000 NOT AND PUSH3 0x10000 DUP4 PUSH1 0x3 DUP2 GT ISZERO PUSH2 0x2051 JUMPI PUSH4 0x4E487B71 PUSH1 0xE0 SHL PUSH1 0x0 MSTORE PUSH1 0x21 PUSH1 0x4 MSTORE PUSH1 0x24 PUSH1 0x0 REVERT JUMPDEST MUL OR SWAP1 SSTORE POP POP CALLER PUSH1 0x0 SWAP1 DUP2 MSTORE PUSH1 0x2 PUSH1 0x20 SWAP1 DUP2 MSTORE PUSH1 0x40 DUP1 DUP4 KECCAK256 DUP1 SLOAD PUSH1 0x1 DUP2 ADD DUP3 SSTORE SWAP1 DUP5 MSTORE SWAP2 SWAP1 SWAP3 KECCAK256 ADD DUP6 SWAP1 SSTORE MLOAD PUSH32 0x4B1B1A905A6323B91259E1E095B47EE5DBB95009E905491DB7049E6A1C98A874 SWAP2 POP PUSH2 0x20AB SWAP1 DUP6 SWAP1 PUSH2 0x3554 JUMP JUMPDEST PUSH1 0x40 MLOAD DUP1 SWAP2 SUB SWAP1 LOG1 POP POP POP POP POP POP POP JUMP JUMPDEST PUSH1 0xB SLOAD PUSH1 0x1 PUSH1 0xC0 SHL SWAP1 DIV PUSH1 0xFF AND PUSH2 0x20D2 JUMPI PUSH1 0x0 DUP1 REVERT JUMPDEST PUSH1 0x1 PUSH2 0x20DE DUP2 DUP4 PUSH2 0x3600 JUMP JUMPDEST DUP2 SLOAD DUP2 LT PUSH2 0x20FC JUMPI PUSH4 0x4E487B71 PUSH1 0xE0 SHL PUSH1 0x0 MSTORE PUSH1 0x32 PUSH1 0x4 MSTORE PUSH1 0x24 PUSH1 0x0 REVERT JUMPDEST PUSH1 0x0 SWAP2 DUP3 MSTORE PUSH1 0x20 SWAP1 SWAP2 KECCAK256 PUSH1 0x8 PUSH1 0x9 SWAP1 SWAP3 MUL ADD ADD SLOAD PUSH1 0xFF AND PUSH2 0x212F JUMPI PUSH1 0x40 MLOAD PUSH3 0x461BCD PUSH1 0xE5 SHL DUP2 MSTORE PUSH1 0x4 ADD PUSH2 0xAA4 SWAP1 PUSH2 0x32C4 JUMP JUMPDEST CALLER PUSH1 0x0 SWAP1 DUP2 MSTORE PUSH1 0x6 PUSH1 0x20 MSTORE PUSH1 0x40 DUP2 KECCAK256 DUP1 SLOAD CALLVALUE SWAP3 SWAP1 PUSH2 0x214E SWAP1 DUP5 SWAP1 PUSH2 0x35A9 JUMP JUMPDEST SWAP1 SWAP2 SSTORE POP PUSH1 0x0 SWAP1 POP PUSH1 0x64 PUSH1 0x1 PUSH2 0x2164 DUP2 DUP6 PUSH2 0x3600 JUMP JUMPDEST DUP2 SLOAD DUP2 LT PUSH2 0x2182 JUMPI PUSH4 0x4E487B71 PUSH1 0xE0 SHL PUSH1 0x0 MSTORE PUSH1 0x32 PUSH1 0x4 MSTORE PUSH1 0x24 PUSH1 0x0 REVERT JUMPDEST SWAP1 PUSH1 0x0 MSTORE PUSH1 0x20 PUSH1 0x0 KECCAK256 SWAP1 PUSH1 0x9 MUL ADD PUSH1 0x4 ADD SLOAD PUSH1 0x14 PUSH2 0x21A0 SWAP2 SWAP1 PUSH2 0x35E1 JUMP JUMPDEST PUSH2 0x21AA SWAP2 SWAP1 PUSH2 0x35C1 JUMP JUMPDEST SWAP1 POP DUP1 CALLVALUE LT ISZERO PUSH2 0x21E3 JUMPI CALLER PUSH1 0x0 SWAP1 DUP2 MSTORE PUSH1 0x6 PUSH1 0x20 MSTORE PUSH1 0x40 SWAP1 KECCAK256 SLOAD DUP2 GT ISZERO PUSH2 0x21E3 JUMPI PUSH1 0x40 MLOAD PUSH3 0x461BCD PUSH1 0xE5 SHL DUP2 MSTORE PUSH1 0x4 ADD PUSH2 0xAA4 SWAP1 PUSH2 0x33E7 JUMP JUMPDEST CALLER PUSH1 0x0 SWAP1 DUP2 MSTORE PUSH1 0x6 PUSH1 0x20 MSTORE PUSH1 0x40 DUP2 KECCAK256 DUP1 SLOAD DUP4 SWAP3 SWAP1 PUSH2 0x2202 SWAP1 DUP5 SWAP1 PUSH2 0x3600 JUMP JUMPDEST SWAP1 SWAP2 SSTORE POP POP CALLER PUSH1 0x0 SWAP1 DUP2 MSTORE PUSH1 0x7 PUSH1 0x20 MSTORE PUSH1 0x40 DUP2 KECCAK256 DUP1 SLOAD DUP4 SWAP3 SWAP1 PUSH2 0x2226 SWAP1 DUP5 SWAP1 PUSH2 0x35A9 JUMP JUMPDEST SWAP1 SWAP2 SSTORE POP TIMESTAMP SWAP1 POP PUSH1 0x1 PUSH2 0x2239 DUP2 DUP6 PUSH2 0x3600 JUMP JUMPDEST DUP2 SLOAD DUP2 LT PUSH2 0x2257 JUMPI PUSH4 0x4E487B71 PUSH1 0xE0 SHL PUSH1 0x0 MSTORE PUSH1 0x32 PUSH1 0x4 MSTORE PUSH1 0x24 PUSH1 0x0 REVERT JUMPDEST SWAP1 PUSH1 0x0 MSTORE PUSH1 0x20 PUSH1 0x0 KECCAK256 SWAP1 PUSH1 0x9 MUL ADD PUSH1 0x5 ADD SLOAD PUSH2 0x2273 SWAP2 SWAP1 PUSH2 0x35A9 JUMP JUMPDEST PUSH1 0x1 PUSH2 0x227F DUP2 DUP6 PUSH2 0x3600 JUMP JUMPDEST DUP2 SLOAD DUP2 LT PUSH2 0x229D JUMPI PUSH4 0x4E487B71 PUSH1 0xE0 SHL PUSH1 0x0 MSTORE PUSH1 0x32 PUSH1 0x4 MSTORE PUSH1 0x24 PUSH1 0x0 REVERT JUMPDEST PUSH1 0x0 SWAP2 DUP3 MSTORE PUSH1 0x20 SWAP1 SWAP2 KECCAK256 PUSH1 0x6 PUSH1 0x9 SWAP1 SWAP3 MUL ADD ADD SSTORE CALLER PUSH1 0x1 PUSH2 0x22BE DUP2 DUP6 PUSH2 0x3600 JUMP JUMPDEST DUP2 SLOAD DUP2 LT PUSH2 0x22DC JUMPI PUSH4 0x4E487B71 PUSH1 0xE0 SHL PUSH1 0x0 MSTORE PUSH1 0x32 PUSH1 0x4 MSTORE PUSH1 0x24 PUSH1 0x0 REVERT JUMPDEST PUSH1 0x0 SWAP2 DUP3 MSTORE PUSH1 0x20 DUP3 KECCAK256 PUSH1 0x9 SWAP2 SWAP1 SWAP2 MUL ADD PUSH1 0x2 ADD DUP1 SLOAD PUSH1 0x1 PUSH1 0x1 PUSH1 0xA0 SHL SUB NOT AND PUSH1 0x1 PUSH1 0x1 PUSH1 0xA0 SHL SUB SWAP4 SWAP1 SWAP4 AND SWAP3 SWAP1 SWAP3 OR SWAP1 SWAP2 SSTORE PUSH1 0x1 PUSH2 0x231A DUP2 DUP6 PUSH2 0x3600 JUMP JUMPDEST DUP2 SLOAD DUP2 LT PUSH2 0x2338 JUMPI PUSH4 0x4E487B71 PUSH1 0xE0 SHL PUSH1 0x0 MSTORE PUSH1 0x32 PUSH1 0x4 MSTORE PUSH1 0x24 PUSH1 0x0 REVERT JUMPDEST PUSH1 0x0 SWAP2 DUP3 MSTORE PUSH1 0x20 DUP1 DUP4 KECCAK256 PUSH1 0x9 SWAP3 SWAP1 SWAP3 MUL SWAP1 SWAP2 ADD PUSH1 0x8 ADD DUP1 SLOAD PUSH1 0xFF NOT AND SWAP4 ISZERO ISZERO SWAP4 SWAP1 SWAP4 OR SWAP1 SWAP3 SSTORE CALLER DUP2 MSTORE PUSH1 0x3 DUP3 MSTORE PUSH1 0x40 DUP2 KECCAK256 DUP1 SLOAD PUSH1 0x1 DUP2 DUP2 ADD DUP4 SSTORE SWAP2 DUP4 MSTORE SWAP3 DUP3 KECCAK256 SWAP1 SWAP3 ADD DUP5 SWAP1 SSTORE SWAP1 PUSH3 0x15180 SWAP1 PUSH2 0x238E DUP2 DUP7 PUSH2 0x3600 JUMP JUMPDEST DUP2 SLOAD DUP2 LT PUSH2 0x23AC JUMPI PUSH4 0x4E487B71 PUSH1 0xE0 SHL PUSH1 0x0 MSTORE PUSH1 0x32 PUSH1 0x4 MSTORE PUSH1 0x24 PUSH1 0x0 REVERT JUMPDEST SWAP1 PUSH1 0x0 MSTORE PUSH1 0x20 PUSH1 0x0 KECCAK256 SWAP1 PUSH1 0x9 MUL ADD PUSH1 0x5 ADD SLOAD PUSH2 0x23C8 SWAP2 SWAP1 PUSH2 0x35C1 JUMP JUMPDEST SWAP1 POP PUSH1 0x0 DUP2 PUSH1 0x40 MLOAD PUSH1 0x20 ADD PUSH2 0x23DD SWAP2 SWAP1 PUSH2 0x3135 JUMP JUMPDEST PUSH1 0x40 MLOAD PUSH1 0x20 DUP2 DUP4 SUB SUB DUP2 MSTORE SWAP1 PUSH1 0x40 MSTORE SWAP1 POP PUSH32 0x924392C21EBC9AA8CF47A2E5F971C9478C6F6CFE2C91E116FADE1CD0A0725E57 DUP2 PUSH1 0x40 MLOAD PUSH2 0x241D SWAP2 SWAP1 PUSH2 0x31CC JUMP JUMPDEST PUSH1 0x40 MLOAD DUP1 SWAP2 SUB SWAP1 LOG1 POP POP POP POP JUMP JUMPDEST PUSH1 0x1 PUSH1 0x1 PUSH1 0xA0 SHL SUB AND PUSH1 0x0 SWAP1 DUP2 MSTORE PUSH1 0x6 PUSH1 0x20 SWAP1 DUP2 MSTORE PUSH1 0x40 DUP1 DUP4 KECCAK256 SLOAD PUSH1 0x7 SWAP1 SWAP3 MSTORE SWAP1 SWAP2 KECCAK256 SLOAD SWAP1 SWAP2 JUMP JUMPDEST DUP1 CALLER PUSH1 0x1 PUSH2 0x2461 DUP2 DUP5 PUSH2 0x3600 JUMP JUMPDEST DUP2 SLOAD DUP2 LT PUSH2 0x247F JUMPI PUSH4 0x4E487B71 PUSH1 0xE0 SHL PUSH1 0x0 MSTORE PUSH1 0x32 PUSH1 0x4 MSTORE PUSH1 0x24 PUSH1 0x0 REVERT JUMPDEST PUSH1 0x0 SWAP2 DUP3 MSTORE PUSH1 0x20 SWAP1 SWAP2 KECCAK256 PUSH1 0x1 PUSH1 0x9 SWAP1 SWAP3 MUL ADD ADD SLOAD PUSH1 0x1 PUSH1 0x1 PUSH1 0xA0 SHL SUB AND EQ PUSH2 0x24A6 JUMPI PUSH1 0x0 DUP1 REVERT JUMPDEST PUSH1 0x1 PUSH2 0x24B2 DUP2 DUP5 PUSH2 0x3600 JUMP JUMPDEST DUP2 SLOAD DUP2 LT PUSH2 0x24D0 JUMPI PUSH4 0x4E487B71 PUSH1 0xE0 SHL PUSH1 0x0 MSTORE PUSH1 0x32 PUSH1 0x4 MSTORE PUSH1 0x24 PUSH1 0x0 REVERT JUMPDEST PUSH1 0x0 SWAP2 DUP3 MSTORE PUSH1 0x20 SWAP1 SWAP2 KECCAK256 PUSH1 0x8 PUSH1 0x9 SWAP1 SWAP3 MUL ADD ADD SLOAD PUSH1 0xFF PUSH2 0x100 SWAP1 SWAP2 DIV AND ISZERO ISZERO PUSH1 0x1 EQ PUSH2 0x250E JUMPI PUSH1 0x40 MLOAD PUSH3 0x461BCD PUSH1 0xE5 SHL DUP2 MSTORE PUSH1 0x4 ADD PUSH2 0xAA4 SWAP1 PUSH2 0x324E JUMP JUMPDEST PUSH1 0x1 DUP1 PUSH2 0x251B DUP2 DUP6 PUSH2 0x3600 JUMP JUMPDEST DUP2 SLOAD DUP2 LT PUSH2 0x2539 JUMPI PUSH4 0x4E487B71 PUSH1 0xE0 SHL PUSH1 0x0 MSTORE PUSH1 0x32 PUSH1 0x4 MSTORE PUSH1 0x24 PUSH1 0x0 REVERT JUMPDEST PUSH1 0x0 SWAP2 DUP3 MSTORE PUSH1 0x20 SWAP1 SWAP2 KECCAK256 PUSH1 0x8 PUSH1 0x9 SWAP1 SWAP3 MUL ADD ADD DUP1 SLOAD PUSH3 0xFF0000 NOT AND PUSH3 0x10000 DUP4 PUSH1 0x3 DUP2 GT ISZERO PUSH2 0x2578 JUMPI PUSH4 0x4E487B71 PUSH1 0xE0 SHL PUSH1 0x0 MSTORE PUSH1 0x21 PUSH1 0x4 MSTORE PUSH1 0x24 PUSH1 0x0 REVERT JUMPDEST MUL OR SWAP1 SSTORE POP PUSH32 0x4D2A9189BA870BC995777AFA824AEAEF603E32E7807917D76F41FA5FA80208E6 PUSH1 0x40 MLOAD PUSH2 0x25AA SWAP1 PUSH2 0x31DF JUMP JUMPDEST PUSH1 0x40 MLOAD DUP1 SWAP2 SUB SWAP1 LOG1 POP POP JUMP JUMPDEST PUSH1 0x5 PUSH1 0x20 MSTORE PUSH1 0x0 SWAP1 DUP2 MSTORE PUSH1 0x40 SWAP1 KECCAK256 SLOAD DUP2 JUMP JUMPDEST PUSH1 0x1 PUSH1 0x1 PUSH1 0xA0 SHL SUB DUP2 AND PUSH1 0x0 SWAP1 DUP2 MSTORE PUSH1 0x2 PUSH1 0x20 SWAP1 DUP2 MSTORE PUSH1 0x40 SWAP2 DUP3 SWAP1 KECCAK256 DUP1 SLOAD DUP4 MLOAD DUP2 DUP5 MUL DUP2 ADD DUP5 ADD SWAP1 SWAP5 MSTORE DUP1 DUP5 MSTORE PUSH1 0x60 SWAP4 SWAP3 DUP4 ADD DUP3 DUP3 DUP1 ISZERO PUSH2 0x9AC JUMPI PUSH1 0x20 MUL DUP3 ADD SWAP2 SWAP1 PUSH1 0x0 MSTORE PUSH1 0x20 PUSH1 0x0 KECCAK256 SWAP1 DUP2 SLOAD DUP2 MSTORE PUSH1 0x20 ADD SWAP1 PUSH1 0x1 ADD SWAP1 DUP1 DUP4 GT PUSH2 0x998 JUMPI POP POP POP POP POP SWAP1 POP SWAP2 SWAP1 POP JUMP JUMPDEST PUSH1 0xA SLOAD PUSH1 0x1 PUSH1 0x1 PUSH1 0xA0 SHL SUB AND CALLER EQ DUP1 PUSH2 0x2655 JUMPI POP PUSH1 0xB SLOAD PUSH1 0x1 PUSH1 0x1 PUSH1 0xA0 SHL SUB AND CALLER EQ JUMPDEST PUSH2 0x265E JUMPI PUSH1 0x0 DUP1 REVERT JUMPDEST PUSH1 0xA SLOAD PUSH1 0x1 PUSH1 0x1 PUSH1 0xA0 SHL SUB AND PUSH1 0x0 SWAP1 DUP2 MSTORE PUSH1 0x8 PUSH1 0x20 MSTORE PUSH1 0x40 SWAP1 KECCAK256 SLOAD PUSH1 0xFF AND DUP1 ISZERO PUSH2 0x26A2 JUMPI POP PUSH1 0xB SLOAD PUSH1 0x1 PUSH1 0x1 PUSH1 0xA0 SHL SUB AND PUSH1 0x0 SWAP1 DUP2 MSTORE PUSH1 0x8 PUSH1 0x20 MSTORE PUSH1 0x40 SWAP1 KECCAK256 SLOAD PUSH1 0xFF AND JUMPDEST PUSH2 0x26BE JUMPI PUSH1 0x40 MLOAD PUSH3 0x461BCD PUSH1 0xE5 SHL DUP2 MSTORE PUSH1 0x4 ADD PUSH2 0xAA4 SWAP1 PUSH2 0x347F JUMP JUMPDEST PUSH1 0xB DUP1 SLOAD SWAP2 ISZERO ISZERO PUSH1 0x1 PUSH1 0xC0 SHL MUL PUSH1 0xFF PUSH1 0xC0 SHL NOT SWAP1 SWAP3 AND SWAP2 SWAP1 SWAP2 OR DUP2 SSTORE PUSH1 0xA SLOAD PUSH1 0x1 PUSH1 0x1 PUSH1 0xA0 SHL SUB SWAP1 DUP2 AND PUSH1 0x0 SWAP1 DUP2 MSTORE PUSH1 0x8 PUSH1 0x20 MSTORE PUSH1 0x40 DUP1 DUP3 KECCAK256 DUP1 SLOAD PUSH1 0xFF NOT SWAP1 DUP2 AND SWAP1 SWAP2 SSTORE SWAP4 SLOAD SWAP1 SWAP3 AND DUP2 MSTORE KECCAK256 DUP1 SLOAD SWAP1 SWAP2 AND SWAP1 SSTORE JUMP JUMPDEST DUP1 CALLER PUSH1 0x1 PUSH2 0x2721 DUP2 DUP5 PUSH2 0x3600 JUMP JUMPDEST DUP2 SLOAD DUP2 LT PUSH2 0x273F JUMPI PUSH4 0x4E487B71 PUSH1 0xE0 SHL PUSH1 0x0 MSTORE PUSH1 0x32 PUSH1 0x4 MSTORE PUSH1 0x24 PUSH1 0x0 REVERT JUMPDEST PUSH1 0x0 SWAP2 DUP3 MSTORE PUSH1 0x20 SWAP1 SWAP2 KECCAK256 PUSH1 0x1 PUSH1 0x9 SWAP1 SWAP3 MUL ADD ADD SLOAD PUSH1 0x1 PUSH1 0x1 PUSH1 0xA0 SHL SUB AND EQ PUSH2 0x2766 JUMPI PUSH1 0x0 DUP1 REVERT JUMPDEST PUSH1 0x1 PUSH2 0x2772 DUP2 DUP5 PUSH2 0x3600 JUMP JUMPDEST DUP2 SLOAD DUP2 LT PUSH2 0x2790 JUMPI PUSH4 0x4E487B71 PUSH1 0xE0 SHL PUSH1 0x0 MSTORE PUSH1 0x32 PUSH1 0x4 MSTORE PUSH1 0x24 PUSH1 0x0 REVERT JUMPDEST PUSH1 0x0 SWAP2 DUP3 MSTORE PUSH1 0x20 SWAP1 SWAP2 KECCAK256 PUSH1 0x8 PUSH1 0x9 SWAP1 SWAP3 MUL ADD ADD SLOAD PUSH1 0xFF PUSH2 0x100 SWAP1 SWAP2 DIV AND ISZERO ISZERO PUSH1 0x1 EQ PUSH2 0x27CE JUMPI PUSH1 0x40 MLOAD PUSH3 0x461BCD PUSH1 0xE5 SHL DUP2 MSTORE PUSH1 0x4 ADD PUSH2 0xAA4 SWAP1 PUSH2 0x33B0 JUMP JUMPDEST PUSH1 0x2 PUSH1 0x1 PUSH2 0xB10 DUP2 DUP6 PUSH2 0x3600 JUMP JUMPDEST DUP1 CALLER PUSH1 0x1 PUSH2 0x27EA DUP2 DUP5 PUSH2 0x3600 JUMP JUMPDEST DUP2 SLOAD DUP2 LT PUSH2 0x2808 JUMPI PUSH4 0x4E487B71 PUSH1 0xE0 SHL PUSH1 0x0 MSTORE PUSH1 0x32 PUSH1 0x4 MSTORE PUSH1 0x24 PUSH1 0x0 REVERT JUMPDEST PUSH1 0x0 SWAP2 DUP3 MSTORE PUSH1 0x20 SWAP1 SWAP2 KECCAK256 PUSH1 0x2 PUSH1 0x9 SWAP1 SWAP3 MUL ADD ADD SLOAD PUSH1 0x1 PUSH1 0x1 PUSH1 0xA0 SHL SUB AND EQ PUSH2 0x282F JUMPI PUSH1 0x0 DUP1 REVERT JUMPDEST PUSH1 0x1 DUP1 PUSH2 0x283C DUP2 DUP6 PUSH2 0x3600 JUMP JUMPDEST DUP2 SLOAD DUP2 LT PUSH2 0x285A JUMPI PUSH4 0x4E487B71 PUSH1 0xE0 SHL PUSH1 0x0 MSTORE PUSH1 0x32 PUSH1 0x4 MSTORE PUSH1 0x24 PUSH1 0x0 REVERT JUMPDEST PUSH1 0x0 SWAP2 DUP3 MSTORE PUSH1 0x20 SWAP1 SWAP2 KECCAK256 PUSH1 0x8 PUSH1 0x9 SWAP1 SWAP3 MUL ADD ADD DUP1 SLOAD SWAP2 ISZERO ISZERO PUSH2 0x100 MUL PUSH2 0xFF00 NOT SWAP1 SWAP3 AND SWAP2 SWAP1 SWAP2 OR SWAP1 SSTORE TIMESTAMP PUSH1 0x1 PUSH2 0x2890 DUP2 DUP6 PUSH2 0x3600 JUMP JUMPDEST DUP2 SLOAD DUP2 LT PUSH2 0x28AE JUMPI PUSH4 0x4E487B71 PUSH1 0xE0 SHL PUSH1 0x0 MSTORE PUSH1 0x32 PUSH1 0x4 MSTORE PUSH1 0x24 PUSH1 0x0 REVERT JUMPDEST SWAP1 PUSH1 0x0 MSTORE PUSH1 0x20 PUSH1 0x0 KECCAK256 SWAP1 PUSH1 0x9 MUL ADD PUSH1 0x7 ADD DUP2 SWAP1 SSTORE POP PUSH32 0xA554C5ECE40DDC458252A21D6268E4A67F51CBE8E2F00C818417161C854A817F PUSH1 0x40 MLOAD PUSH2 0x25AA SWAP1 PUSH2 0x334A JUMP JUMPDEST PUSH1 0x0 DUP1 DUP1 PUSH1 0x60 DUP2 DUP1 DUP1 DUP1 DUP1 DUP1 DUP1 PUSH1 0x1 PUSH2 0x2909 DUP2 DUP15 PUSH2 0x3600 JUMP JUMPDEST DUP2 SLOAD DUP2 LT PUSH2 0x2927 JUMPI PUSH4 0x4E487B71 PUSH1 0xE0 SHL PUSH1 0x0 MSTORE PUSH1 0x32 PUSH1 0x4 MSTORE PUSH1 0x24 PUSH1 0x0 REVERT JUMPDEST PUSH1 0x0 SWAP2 DUP3 MSTORE PUSH1 0x20 SWAP1 SWAP2 KECCAK256 PUSH1 0x9 SWAP1 SWAP2 MUL ADD SLOAD SWAP11 POP PUSH1 0x1 PUSH2 0x2946 DUP2 DUP15 PUSH2 0x3600 JUMP JUMPDEST DUP2 SLOAD DUP2 LT PUSH2 0x2964 JUMPI PUSH4 0x4E487B71 PUSH1 0xE0 SHL PUSH1 0x0 MSTORE PUSH1 0x32 PUSH1 0x4 MSTORE PUSH1 0x24 PUSH1 0x0 REVERT JUMPDEST PUSH1 0x0 SWAP2 DUP3 MSTORE PUSH1 0x20 SWAP1 SWAP2 KECCAK256 PUSH1 0x1 PUSH1 0x9 SWAP1 SWAP3 MUL ADD DUP2 ADD SLOAD PUSH1 0x1 PUSH1 0x1 PUSH1 0xA0 SHL SUB AND SWAP11 POP PUSH2 0x298E DUP2 DUP15 PUSH2 0x3600 JUMP JUMPDEST DUP2 SLOAD DUP2 LT PUSH2 0x29AC JUMPI PUSH4 0x4E487B71 PUSH1 0xE0 SHL PUSH1 0x0 MSTORE PUSH1 0x32 PUSH1 0x4 MSTORE PUSH1 0x24 PUSH1 0x0 REVERT JUMPDEST PUSH1 0x0 SWAP2 DUP3 MSTORE PUSH1 0x20 SWAP1 SWAP2 KECCAK256 PUSH1 0x2 PUSH1 0x9 SWAP1 SWAP3 MUL ADD ADD SLOAD PUSH1 0x1 PUSH1 0x1 PUSH1 0xA0 SHL SUB AND SWAP9 POP PUSH1 0x1 PUSH2 0x29D7 DUP2 DUP15 PUSH2 0x3600 JUMP JUMPDEST DUP2 SLOAD DUP2 LT PUSH2 0x29F5 JUMPI PUSH4 0x4E487B71 PUSH1 0xE0 SHL PUSH1 0x0 MSTORE PUSH1 0x32 PUSH1 0x4 MSTORE PUSH1 0x24 PUSH1 0x0 REVERT JUMPDEST SWAP1 PUSH1 0x0 MSTORE PUSH1 0x20 PUSH1 0x0 KECCAK256 SWAP1 PUSH1 0x9 MUL ADD PUSH1 0x3 ADD DUP1 SLOAD PUSH2 0x2A11 SWAP1 PUSH2 0x3617 JUMP JUMPDEST DUP1 PUSH1 0x1F ADD PUSH1 0x20 DUP1 SWAP2 DIV MUL PUSH1 0x20 ADD PUSH1 0x40 MLOAD SWAP1 DUP2 ADD PUSH1 0x40 MSTORE DUP1 SWAP3 SWAP2 SWAP1 DUP2 DUP2 MSTORE PUSH1 0x20 ADD DUP3 DUP1 SLOAD PUSH2 0x2A3D SWAP1 PUSH2 0x3617 JUMP JUMPDEST DUP1 ISZERO PUSH2 0x2A8A JUMPI DUP1 PUSH1 0x1F LT PUSH2 0x2A5F JUMPI PUSH2 0x100 DUP1 DUP4 SLOAD DIV MUL DUP4 MSTORE SWAP2 PUSH1 0x20 ADD SWAP2 PUSH2 0x2A8A JUMP JUMPDEST DUP3 ADD SWAP2 SWAP1 PUSH1 0x0 MSTORE PUSH1 0x20 PUSH1 0x0 KECCAK256 SWAP1 JUMPDEST DUP2 SLOAD DUP2 MSTORE SWAP1 PUSH1 0x1 ADD SWAP1 PUSH1 0x20 ADD DUP1 DUP4 GT PUSH2 0x2A6D JUMPI DUP3 SWAP1 SUB PUSH1 0x1F AND DUP3 ADD SWAP2 JUMPDEST POP POP POP POP POP SWAP8 POP PUSH1 0x1 DUP1 DUP14 PUSH2 0x2A9F SWAP2 SWAP1 PUSH2 0x3600 JUMP JUMPDEST DUP2 SLOAD DUP2 LT PUSH2 0x2ABD JUMPI PUSH4 0x4E487B71 PUSH1 0xE0 SHL PUSH1 0x0 MSTORE PUSH1 0x32 PUSH1 0x4 MSTORE PUSH1 0x24 PUSH1 0x0 REVERT JUMPDEST SWAP1 PUSH1 0x0 MSTORE PUSH1 0x20 PUSH1 0x0 KECCAK256 SWAP1 PUSH1 0x9 MUL ADD PUSH1 0x4 ADD SLOAD SWAP7 POP PUSH1 0x1 DUP1 DUP14 PUSH2 0x2ADF SWAP2 SWAP1 PUSH2 0x3600 JUMP JUMPDEST DUP2 SLOAD DUP2 LT PUSH2 0x2AFD JUMPI PUSH4 0x4E487B71 PUSH1 0xE0 SHL PUSH1 0x0 MSTORE PUSH1 0x32 PUSH1 0x4 MSTORE PUSH1 0x24 PUSH1 0x0 REVERT JUMPDEST SWAP1 PUSH1 0x0 MSTORE PUSH1 0x20 PUSH1 0x0 KECCAK256 SWAP1 PUSH1 0x9 MUL ADD PUSH1 0x5 ADD SLOAD SWAP6 POP PUSH1 0x1 DUP1 DUP14 PUSH2 0x2B1F SWAP2 SWAP1 PUSH2 0x3600 JUMP JUMPDEST DUP2 SLOAD DUP2 LT PUSH2 0x2B3D JUMPI PUSH4 0x4E487B71 PUSH1 0xE0 SHL PUSH1 0x0 MSTORE PUSH1 0x32 PUSH1 0x4 MSTORE PUSH1 0x24 PUSH1 0x0 REVERT JUMPDEST SWAP1 PUSH1 0x0 MSTORE PUSH1 0x20 PUSH1 0x0 KECCAK256 SWAP1 PUSH1 0x9 MUL ADD PUSH1 0x6 ADD SLOAD SWAP5 POP PUSH1 0x1 DUP1 DUP14 PUSH2 0x2B5F SWAP2 SWAP1 PUSH2 0x3600 JUMP JUMPDEST DUP2 SLOAD DUP2 LT PUSH2 0x2B7D JUMPI PUSH4 0x4E487B71 PUSH1 0xE0 SHL PUSH1 0x0 MSTORE PUSH1 0x32 PUSH1 0x4 MSTORE PUSH1 0x24 PUSH1 0x0 REVERT JUMPDEST SWAP1 PUSH1 0x0 MSTORE PUSH1 0x20 PUSH1 0x0 KECCAK256 SWAP1 PUSH1 0x9 MUL ADD PUSH1 0x7 ADD SLOAD SWAP4 POP PUSH1 0x1 DUP1 DUP14 PUSH2 0x2B9F SWAP2 SWAP1 PUSH2 0x3600 JUMP JUMPDEST DUP2 SLOAD DUP2 LT PUSH2 0x2BBD JUMPI PUSH4 0x4E487B71 PUSH1 0xE0 SHL PUSH1 0x0 MSTORE PUSH1 0x32 PUSH1 0x4 MSTORE PUSH1 0x24 PUSH1 0x0 REVERT JUMPDEST PUSH1 0x0 SWAP2 DUP3 MSTORE PUSH1 0x20 SWAP1 SWAP2 KECCAK256 PUSH1 0x8 PUSH1 0x9 SWAP1 SWAP3 MUL ADD ADD SLOAD PUSH1 0xFF AND SWAP3 POP PUSH1 0x1 PUSH2 0x2BE2 DUP2 DUP15 PUSH2 0x3600 JUMP JUMPDEST DUP2 SLOAD DUP2 LT PUSH2 0x2C00 JUMPI PUSH4 0x4E487B71 PUSH1 0xE0 SHL PUSH1 0x0 MSTORE PUSH1 0x32 PUSH1 0x4 MSTORE PUSH1 0x24 PUSH1 0x0 REVERT JUMPDEST PUSH1 0x0 SWAP2 DUP3 MSTORE PUSH1 0x20 SWAP1 SWAP2 KECCAK256 PUSH1 0x9 SWAP1 SWAP2 MUL ADD PUSH1 0x8 ADD SLOAD PUSH2 0x100 SWAP1 DIV PUSH1 0xFF AND SWAP2 POP PUSH1 0x1 PUSH2 0x2C2A DUP2 DUP15 PUSH2 0x3600 JUMP JUMPDEST DUP2 SLOAD DUP2 LT PUSH2 0x2C48 JUMPI PUSH4 0x4E487B71 PUSH1 0xE0 SHL PUSH1 0x0 MSTORE PUSH1 0x32 PUSH1 0x4 MSTORE PUSH1 0x24 PUSH1 0x0 REVERT JUMPDEST SWAP1 PUSH1 0x0 MSTORE PUSH1 0x20 PUSH1 0x0 KECCAK256 SWAP1 PUSH1 0x9 MUL ADD PUSH1 0x8 ADD PUSH1 0x2 SWAP1 SLOAD SWAP1 PUSH2 0x100 EXP SWAP1 DIV PUSH1 0xFF AND SWAP1 POP SWAP2 SWAP4 SWAP6 SWAP8 SWAP10 SWAP12 SWAP1 SWAP3 SWAP5 SWAP7 SWAP9 SWAP11 POP JUMP JUMPDEST CALLER PUSH1 0x1 PUSH2 0x2C85 DUP2 DUP5 PUSH2 0x3600 JUMP JUMPDEST DUP2 SLOAD DUP2 LT PUSH2 0x2CA3 JUMPI PUSH4 0x4E487B71 PUSH1 0xE0 SHL PUSH1 0x0 MSTORE PUSH1 0x32 PUSH1 0x4 MSTORE PUSH1 0x24 PUSH1 0x0 REVERT JUMPDEST PUSH1 0x0 SWAP2 DUP3 MSTORE PUSH1 0x20 SWAP1 SWAP2 KECCAK256 PUSH1 0x1 PUSH1 0x9 SWAP1 SWAP3 MUL ADD ADD SLOAD PUSH1 0x1 PUSH1 0x1 PUSH1 0xA0 SHL SUB AND EQ DUP1 PUSH2 0x2D11 JUMPI POP CALLER PUSH1 0x1 PUSH2 0x2CD4 DUP2 DUP5 PUSH2 0x3600 JUMP JUMPDEST DUP2 SLOAD DUP2 LT PUSH2 0x2CF2 JUMPI PUSH4 0x4E487B71 PUSH1 0xE0 SHL PUSH1 0x0 MSTORE PUSH1 0x32 PUSH1 0x4 MSTORE PUSH1 0x24 PUSH1 0x0 REVERT JUMPDEST PUSH1 0x0 SWAP2 DUP3 MSTORE PUSH1 0x20 SWAP1 SWAP2 KECCAK256 PUSH1 0x2 PUSH1 0x9 SWAP1 SWAP3 MUL ADD ADD SLOAD PUSH1 0x1 PUSH1 0x1 PUSH1 0xA0 SHL SUB AND EQ JUMPDEST PUSH2 0x2D2D JUMPI PUSH1 0x40 MLOAD PUSH3 0x461BCD PUSH1 0xE5 SHL DUP2 MSTORE PUSH1 0x4 ADD PUSH2 0xAA4 SWAP1 PUSH2 0x341E JUMP JUMPDEST PUSH1 0x1 PUSH2 0x2D39 DUP2 DUP4 PUSH2 0x3600 JUMP JUMPDEST DUP2 SLOAD DUP2 LT PUSH2 0x2D57 JUMPI PUSH4 0x4E487B71 PUSH1 0xE0 SHL PUSH1 0x0 MSTORE PUSH1 0x32 PUSH1 0x4 MSTORE PUSH1 0x24 PUSH1 0x0 REVERT JUMPDEST PUSH1 0x0 SWAP2 DUP3 MSTORE PUSH1 0x20 SWAP1 SWAP2 KECCAK256 PUSH1 0x8 PUSH1 0x9 SWAP1 SWAP3 MUL ADD ADD SLOAD PUSH1 0xFF PUSH2 0x100 SWAP1 SWAP2 DIV AND ISZERO ISZERO PUSH1 0x1 EQ PUSH2 0x2D95 JUMPI PUSH1 0x40 MLOAD PUSH3 0x461BCD PUSH1 0xE5 SHL DUP2 MSTORE PUSH1 0x4 ADD PUSH2 0xAA4 SWAP1 PUSH2 0x33B0 JUMP JUMPDEST PUSH1 0x3 PUSH1 0x1 PUSH2 0x2DA3 DUP2 DUP5 PUSH2 0x3600 JUMP JUMPDEST DUP2 SLOAD DUP2 LT PUSH2 0x2DC1 JUMPI PUSH4 0x4E487B71 PUSH1 0xE0 SHL PUSH1 0x0 MSTORE PUSH1 0x32 PUSH1 0x4 MSTORE PUSH1 0x24 PUSH1 0x0 REVERT JUMPDEST PUSH1 0x0 SWAP2 DUP3 MSTORE PUSH1 0x20 SWAP1 SWAP2 KECCAK256 PUSH1 0x8 PUSH1 0x9 SWAP1 SWAP3 MUL ADD ADD DUP1 SLOAD PUSH3 0xFF0000 NOT AND PUSH3 0x10000 DUP4 PUSH1 0x3 DUP2 GT ISZERO PUSH2 0x2E00 JUMPI PUSH4 0x4E487B71 PUSH1 0xE0 SHL PUSH1 0x0 MSTORE PUSH1 0x21 PUSH1 0x4 MSTORE PUSH1 0x24 PUSH1 0x0 REVERT JUMPDEST MUL OR SWAP1 SSTORE POP POP JUMP JUMPDEST PUSH1 0x1 PUSH1 0x1 PUSH1 0xA0 SHL SUB AND PUSH1 0x0 SWAP1 DUP2 MSTORE PUSH1 0x4 PUSH1 0x20 SWAP1 DUP2 MSTORE PUSH1 0x40 DUP1 DUP4 KECCAK256 SLOAD PUSH1 0x5 SWAP1 SWAP3 MSTORE SWAP1 SWAP2 KECCAK256 SLOAD SWAP1 SWAP2 JUMP JUMPDEST PUSH1 0x7 PUSH1 0x20 MSTORE PUSH1 0x0 SWAP1 DUP2 MSTORE PUSH1 0x40 SWAP1 KECCAK256 SLOAD DUP2 JUMP JUMPDEST PUSH1 0x4 PUSH1 0x20 MSTORE PUSH1 0x0 SWAP1 DUP2 MSTORE PUSH1 0x40 SWAP1 KECCAK256 SLOAD DUP2 JUMP JUMPDEST PUSH1 0x2 PUSH1 0x0 SLOAD EQ ISZERO PUSH2 0x2E77 JUMPI PUSH1 0x40 MLOAD PUSH3 0x461BCD PUSH1 0xE5 SHL DUP2 MSTORE PUSH1 0x4 ADD PUSH2 0xAA4 SWAP1 PUSH2 0x3448 JUMP JUMPDEST PUSH1 0x2 PUSH1 0x0 SSTORE JUMP JUMPDEST PUSH1 0x1 PUSH1 0x0 SSTORE JUMP JUMPDEST DUP3 DUP1 SLOAD PUSH2 0x2E91 SWAP1 PUSH2 0x3617 JUMP JUMPDEST SWAP1 PUSH1 0x0 MSTORE PUSH1 0x20 PUSH1 0x0 KECCAK256 SWAP1 PUSH1 0x1F ADD PUSH1 0x20 SWAP1 DIV DUP2 ADD SWAP3 DUP3 PUSH2 0x2EB3 JUMPI PUSH1 0x0 DUP6 SSTORE PUSH2 0x2EF9 JUMP JUMPDEST DUP3 PUSH1 0x1F LT PUSH2 0x2ECC JUMPI DUP1 MLOAD PUSH1 0xFF NOT AND DUP4 DUP1 ADD OR DUP6 SSTORE PUSH2 0x2EF9 JUMP JUMPDEST DUP3 DUP1 ADD PUSH1 0x1 ADD DUP6 SSTORE DUP3 ISZERO PUSH2 0x2EF9 JUMPI SWAP2 DUP3 ADD JUMPDEST DUP3 DUP2 GT ISZERO PUSH2 0x2EF9 JUMPI DUP3 MLOAD DUP3 SSTORE SWAP2 PUSH1 0x20 ADD SWAP2 SWAP1 PUSH1 0x1 ADD SWAP1 PUSH2 0x2EDE JUMP JUMPDEST POP PUSH2 0x2F05 SWAP3 SWAP2 POP PUSH2 0x2F09 JUMP JUMPDEST POP SWAP1 JUMP JUMPDEST JUMPDEST DUP1 DUP3 GT ISZERO PUSH2 0x2F05 JUMPI PUSH1 0x0 DUP2 SSTORE PUSH1 0x1 ADD PUSH2 0x2F0A JUMP JUMPDEST DUP1 CALLDATALOAD PUSH1 0x1 PUSH1 0x1 PUSH1 0xA0 SHL SUB DUP2 AND DUP2 EQ PUSH2 0x9B4 JUMPI PUSH1 0x0 DUP1 REVERT JUMPDEST PUSH1 0x0 DUP3 PUSH1 0x1F DUP4 ADD SLT PUSH2 0x2F45 JUMPI DUP1 DUP2 REVERT JUMPDEST DUP2 CALLDATALOAD PUSH8 0xFFFFFFFFFFFFFFFF DUP1 DUP3 GT ISZERO PUSH2 0x2F60 JUMPI PUSH2 0x2F60 PUSH2 0x3668 JUMP JUMPDEST PUSH1 0x40 MLOAD PUSH1 0x1F DUP4 ADD PUSH1 0x1F NOT AND DUP2 ADD PUSH1 0x20 ADD DUP3 DUP2 GT DUP3 DUP3 LT OR ISZERO PUSH2 0x2F84 JUMPI PUSH2 0x2F84 PUSH2 0x3668 JUMP JUMPDEST PUSH1 0x40 MSTORE DUP3 DUP2 MSTORE DUP5 DUP4 ADD PUSH1 0x20 ADD DUP7 LT ISZERO PUSH2 0x2F9B JUMPI DUP4 DUP5 REVERT JUMPDEST DUP3 PUSH1 0x20 DUP7 ADD PUSH1 0x20 DUP4 ADD CALLDATACOPY SWAP2 DUP3 ADD PUSH1 0x20 ADD SWAP3 SWAP1 SWAP3 MSTORE SWAP4 SWAP3 POP POP POP JUMP JUMPDEST PUSH1 0x0 PUSH1 0x20 DUP3 DUP5 SUB SLT ISZERO PUSH2 0x2FC7 JUMPI DUP1 DUP2 REVERT JUMPDEST PUSH2 0x2FD0 DUP3 PUSH2 0x2F1E JUMP JUMPDEST SWAP4 SWAP3 POP POP POP JUMP JUMPDEST PUSH1 0x0 DUP1 PUSH1 0x40 DUP4 DUP6 SUB SLT ISZERO PUSH2 0x2FE9 JUMPI DUP1 DUP2 REVERT JUMPDEST PUSH2 0x2FF2 DUP4 PUSH2 0x2F1E JUMP JUMPDEST SWAP5 PUSH1 0x20 SWAP4 SWAP1 SWAP4 ADD CALLDATALOAD SWAP4 POP POP POP JUMP JUMPDEST PUSH1 0x0 PUSH1 0x20 DUP3 DUP5 SUB SLT ISZERO PUSH2 0x3011 JUMPI DUP1 DUP2 REVERT JUMPDEST DUP2 CALLDATALOAD DUP1 ISZERO ISZERO DUP2 EQ PUSH2 0x2FD0 JUMPI DUP2 DUP3 REVERT JUMPDEST PUSH1 0x0 DUP1 PUSH1 0x0 PUSH1 0x60 DUP5 DUP7 SUB SLT ISZERO PUSH2 0x3034 JUMPI DUP1 DUP2 REVERT JUMPDEST DUP4 CALLDATALOAD PUSH8 0xFFFFFFFFFFFFFFFF DUP2 GT ISZERO PUSH2 0x304A JUMPI DUP2 DUP3 REVERT JUMPDEST PUSH2 0x3056 DUP7 DUP3 DUP8 ADD PUSH2 0x2F35 JUMP JUMPDEST SWAP7 PUSH1 0x20 DUP7 ADD CALLDATALOAD SWAP7 POP PUSH1 0x40 SWAP1 SWAP6 ADD CALLDATALOAD SWAP5 SWAP4 POP POP POP POP JUMP JUMPDEST PUSH1 0x0 PUSH1 0x20 DUP3 DUP5 SUB SLT ISZERO PUSH2 0x307D JUMPI DUP1 DUP2 REVERT JUMPDEST POP CALLDATALOAD SWAP2 SWAP1 POP JUMP JUMPDEST PUSH1 0x0 DUP1 PUSH1 0x40 DUP4 DUP6 SUB SLT ISZERO PUSH2 0x3096 JUMPI DUP2 DUP3 REVERT JUMPDEST DUP3 CALLDATALOAD SWAP2 POP PUSH1 0x20 DUP4 ADD CALLDATALOAD PUSH8 0xFFFFFFFFFFFFFFFF DUP2 GT ISZERO PUSH2 0x30B3 JUMPI DUP2 DUP3 REVERT JUMPDEST PUSH2 0x30BF DUP6 DUP3 DUP7 ADD PUSH2 0x2F35 JUMP JUMPDEST SWAP2 POP POP SWAP3 POP SWAP3 SWAP1 POP JUMP JUMPDEST PUSH1 0x0 DUP1 PUSH1 0x40 DUP4 DUP6 SUB SLT ISZERO PUSH2 0x30DB JUMPI DUP2 DUP3 REVERT JUMPDEST POP POP DUP1 CALLDATALOAD SWAP3 PUSH1 0x20 SWAP1 SWAP2 ADD CALLDATALOAD SWAP2 POP JUMP JUMPDEST PUSH1 0x0 DUP2 MLOAD DUP1 DUP5 MSTORE DUP2 JUMPDEST DUP2 DUP2 LT ISZERO PUSH2 0x310F JUMPI PUSH1 0x20 DUP2 DUP6 ADD DUP2 ADD MLOAD DUP7 DUP4 ADD DUP3 ADD MSTORE ADD PUSH2 0x30F3 JUMP JUMPDEST DUP2 DUP2 GT ISZERO PUSH2 0x3120 JUMPI DUP3 PUSH1 0x20 DUP4 DUP8 ADD ADD MSTORE JUMPDEST POP PUSH1 0x1F ADD PUSH1 0x1F NOT AND SWAP3 SWAP1 SWAP3 ADD PUSH1 0x20 ADD SWAP3 SWAP2 POP POP JUMP JUMPDEST PUSH16 0x796F757220646561646C696E65206973 PUSH1 0x80 SHL DUP2 MSTORE PUSH1 0x10 DUP2 ADD SWAP2 SWAP1 SWAP2 MSTORE PUSH4 0x64617973 PUSH1 0xE0 SHL PUSH1 0x30 DUP3 ADD MSTORE PUSH1 0x34 ADD SWAP1 JUMP JUMPDEST SWAP1 JUMP JUMPDEST PUSH1 0x1 PUSH1 0x1 PUSH1 0xA0 SHL SUB SWAP2 SWAP1 SWAP2 AND DUP2 MSTORE PUSH1 0x20 ADD SWAP1 JUMP JUMPDEST PUSH1 0x20 DUP1 DUP3 MSTORE DUP3 MLOAD DUP3 DUP3 ADD DUP2 SWAP1 MSTORE PUSH1 0x0 SWAP2 SWAP1 DUP5 DUP3 ADD SWAP1 PUSH1 0x40 DUP6 ADD SWAP1 DUP5 JUMPDEST DUP2 DUP2 LT ISZERO PUSH2 0x31B5 JUMPI DUP4 MLOAD DUP4 MSTORE SWAP3 DUP5 ADD SWAP3 SWAP2 DUP5 ADD SWAP2 PUSH1 0x1 ADD PUSH2 0x3199 JUMP JUMPDEST POP SWAP1 SWAP7 SWAP6 POP POP POP POP POP POP JUMP JUMPDEST SWAP1 ISZERO ISZERO DUP2 MSTORE PUSH1 0x20 ADD SWAP1 JUMP JUMPDEST PUSH1 0x0 PUSH1 0x20 DUP3 MSTORE PUSH2 0x2FD0 PUSH1 0x20 DUP4 ADD DUP5 PUSH2 0x30EA JUMP JUMPDEST PUSH1 0x20 DUP1 DUP3 MSTORE PUSH1 0x21 SWAP1 DUP3 ADD MSTORE PUSH32 0x73656520796F7520736F6F6E20666F7220746865206E6578742070726F6A6563 PUSH1 0x40 DUP3 ADD MSTORE PUSH1 0x1D PUSH1 0xFA SHL PUSH1 0x60 DUP3 ADD MSTORE PUSH1 0x80 ADD SWAP1 JUMP JUMPDEST PUSH1 0x20 DUP1 DUP3 MSTORE PUSH1 0x14 SWAP1 DUP3 ADD MSTORE PUSH20 0x2330B4B632B2103A379039B2B7321022BA3432B9 PUSH1 0x61 SHL PUSH1 0x40 DUP3 ADD MSTORE PUSH1 0x60 ADD SWAP1 JUMP JUMPDEST PUSH1 0x20 DUP1 DUP3 MSTORE PUSH1 0x27 SWAP1 DUP3 ADD MSTORE PUSH32 0x207468652070726F6A656374206973206E6F7420636F6D706C65746564207761 PUSH1 0x40 DUP3 ADD MSTORE PUSH7 0x6974206D6F7265 PUSH1 0xC8 SHL PUSH1 0x60 DUP3 ADD MSTORE PUSH1 0x80 ADD SWAP1 JUMP JUMPDEST PUSH1 0x20 DUP1 DUP3 MSTORE PUSH1 0x15 SWAP1 DUP3 ADD MSTORE PUSH21 0x20796F752073686F756C642077616974206D6F7265 PUSH1 0x58 SHL PUSH1 0x40 DUP3 ADD MSTORE PUSH1 0x60 ADD SWAP1 JUMP JUMPDEST PUSH1 0x20 DUP1 DUP3 MSTORE PUSH1 0x2F SWAP1 DUP3 ADD MSTORE PUSH32 0x496E76616C69642070726F6A656374204944206F72207468652070726F6A6563 PUSH1 0x40 DUP3 ADD MSTORE PUSH15 0x74206973206E6F7420616374697665 PUSH1 0x88 SHL PUSH1 0x60 DUP3 ADD MSTORE PUSH1 0x80 ADD SWAP1 JUMP JUMPDEST PUSH1 0x20 DUP1 DUP3 MSTORE PUSH1 0x1C SWAP1 DUP3 ADD MSTORE PUSH32 0x4475726174696F6E206D757374206265206D6F7265207468616E203000000000 PUSH1 0x40 DUP3 ADD MSTORE PUSH1 0x60 ADD SWAP1 JUMP JUMPDEST PUSH1 0x20 DUP1 DUP3 MSTORE PUSH1 0x15 SWAP1 DUP3 ADD MSTORE PUSH21 0x3BB0B4BA103337B91031B7B73334B936B0BA34B7B7 PUSH1 0x59 SHL PUSH1 0x40 DUP3 ADD MSTORE PUSH1 0x60 ADD SWAP1 JUMP JUMPDEST PUSH1 0x20 DUP1 DUP3 MSTORE PUSH1 0x1C SWAP1 DUP3 ADD MSTORE PUSH32 0x796F757220636C69656E74206973206E6F742073617469736669656400000000 PUSH1 0x40 DUP3 ADD MSTORE PUSH1 0x60 ADD SWAP1 JUMP JUMPDEST PUSH1 0x20 DUP1 DUP3 MSTORE PUSH1 0x18 SWAP1 DUP3 ADD MSTORE PUSH32 0x796F75722070656F6A656374206973206E6F7420646F6E650000000000000000 PUSH1 0x40 DUP3 ADD MSTORE PUSH1 0x60 ADD SWAP1 JUMP JUMPDEST PUSH1 0x20 DUP1 DUP3 MSTORE PUSH1 0x1B SWAP1 DUP3 ADD MSTORE PUSH32 0x506C6561736520496E63726561736520796F7572206372656469740000000000 PUSH1 0x40 DUP3 ADD MSTORE PUSH1 0x60 ADD SWAP1 JUMP JUMPDEST PUSH1 0x20 DUP1 DUP3 MSTORE PUSH1 0x10 SWAP1 DUP3 ADD MSTORE PUSH16 0x1DDC9BDB99C81C1C9BDA9958DD081251 PUSH1 0x82 SHL PUSH1 0x40 DUP3 ADD MSTORE PUSH1 0x60 ADD SWAP1 JUMP JUMPDEST PUSH1 0x20 DUP1 DUP3 MSTORE PUSH1 0x1F SWAP1 DUP3 ADD MSTORE PUSH32 0x5265656E7472616E637947756172643A207265656E7472616E742063616C6C00 PUSH1 0x40 DUP3 ADD MSTORE PUSH1 0x60 ADD SWAP1 JUMP JUMPDEST PUSH1 0x20 DUP1 DUP3 MSTORE PUSH1 0x1D SWAP1 DUP3 ADD MSTORE PUSH32 0x636F6E6669726D6174696F6E206973206E6F7420636F6D706C65746564000000 PUSH1 0x40 DUP3 ADD MSTORE PUSH1 0x60 ADD SWAP1 JUMP JUMPDEST SWAP1 DUP2 MSTORE PUSH1 0x20 ADD SWAP1 JUMP JUMPDEST DUP12 DUP2 MSTORE PUSH1 0x1 PUSH1 0x1 PUSH1 0xA0 SHL SUB DUP12 DUP2 AND PUSH1 0x20 DUP4 ADD MSTORE DUP11 AND PUSH1 0x40 DUP3 ADD MSTORE PUSH2 0x160 PUSH1 0x60 DUP3 ADD DUP2 SWAP1 MSTORE PUSH1 0x0 SWAP1 PUSH2 0x34F2 DUP4 DUP3 ADD DUP13 PUSH2 0x30EA JUMP JUMPDEST SWAP2 POP POP DUP9 PUSH1 0x80 DUP4 ADD MSTORE DUP8 PUSH1 0xA0 DUP4 ADD MSTORE DUP7 PUSH1 0xC0 DUP4 ADD MSTORE DUP6 PUSH1 0xE0 DUP4 ADD MSTORE DUP5 ISZERO ISZERO PUSH2 0x100 DUP4 ADD MSTORE DUP4 ISZERO ISZERO PUSH2 0x120 DUP4 ADD MSTORE PUSH1 0x4 DUP4 LT PUSH2 0x353D JUMPI PUSH4 0x4E487B71 PUSH1 0xE0 SHL PUSH1 0x0 MSTORE PUSH1 0x21 PUSH1 0x4 MSTORE PUSH1 0x24 PUSH1 0x0 REVERT JUMPDEST DUP3 PUSH2 0x140 DUP4 ADD MSTORE SWAP13 SWAP12 POP POP POP POP POP POP POP POP POP POP POP POP JUMP JUMPDEST SWAP1 DUP2 MSTORE PUSH1 0x40 PUSH1 0x20 DUP3 ADD DUP2 SWAP1 MSTORE PUSH1 0x15 SWAP1 DUP3 ADD MSTORE PUSH21 0x50726F6A65637420697320416374697665206E6F77 PUSH1 0x58 SHL PUSH1 0x60 DUP3 ADD MSTORE PUSH1 0x80 ADD SWAP1 JUMP JUMPDEST SWAP2 DUP3 MSTORE PUSH1 0x20 DUP3 ADD MSTORE PUSH1 0x40 ADD SWAP1 JUMP JUMPDEST PUSH4 0xFFFFFFFF SWAP2 SWAP1 SWAP2 AND DUP2 MSTORE PUSH1 0x20 ADD SWAP1 JUMP JUMPDEST PUSH1 0x0 DUP3 NOT DUP3 GT ISZERO PUSH2 0x35BC JUMPI PUSH2 0x35BC PUSH2 0x3652 JUMP JUMPDEST POP ADD SWAP1 JUMP JUMPDEST PUSH1 0x0 DUP3 PUSH2 0x35DC JUMPI PUSH4 0x4E487B71 PUSH1 0xE0 SHL DUP2 MSTORE PUSH1 0x12 PUSH1 0x4 MSTORE PUSH1 0x24 DUP2 REVERT JUMPDEST POP DIV SWAP1 JUMP JUMPDEST PUSH1 0x0 DUP2 PUSH1 0x0 NOT DIV DUP4 GT DUP3 ISZERO ISZERO AND ISZERO PUSH2 0x35FB JUMPI PUSH2 0x35FB PUSH2 0x3652 JUMP JUMPDEST POP MUL SWAP1 JUMP JUMPDEST PUSH1 0x0 DUP3 DUP3 LT ISZERO PUSH2 0x3612 JUMPI PUSH2 0x3612 PUSH2 0x3652 JUMP JUMPDEST POP SUB SWAP1 JUMP JUMPDEST PUSH1 0x2 DUP2 DIV PUSH1 0x1 DUP3 AND DUP1 PUSH2 0x362B JUMPI PUSH1 0x7F DUP3 AND SWAP2 POP JUMPDEST PUSH1 0x20 DUP3 LT DUP2 EQ ISZERO PUSH2 0x364C JUMPI PUSH4 0x4E487B71 PUSH1 0xE0 SHL PUSH1 0x0 MSTORE PUSH1 0x22 PUSH1 0x4 MSTORE PUSH1 0x24 PUSH1 0x0 REVERT JUMPDEST POP SWAP2 SWAP1 POP JUMP JUMPDEST PUSH4 0x4E487B71 PUSH1 0xE0 SHL PUSH1 0x0 MSTORE PUSH1 0x11 PUSH1 0x4 MSTORE PUSH1 0x24 PUSH1 0x0 REVERT JUMPDEST PUSH4 0x4E487B71 PUSH1 0xE0 SHL PUSH1 0x0 MSTORE PUSH1 0x41 PUSH1 0x4 MSTORE PUSH1 0x24 PUSH1 0x0 REVERT INVALID LOG2 PUSH5 0x6970667358 0x22 SLT KECCAK256 PUSH18 0x8F703EC2FDA599AB4E64BB048D6BF08A0A7C PUSH21 0x8D416EE406D6DE167DDFA54664736F6C6343000800 STOP CALLER ","sha1":"ad384c60899a135cf02e89d2aee72f65e24c555a","source":"// SPDX-License-Identifier: MIT\npragma solidity >=0.8.0;\n\n\nimport \"@openzeppelin/contracts/security/ReentrancyGuard.sol\";\n\n\ncontract WorkChain is ReentrancyGuard {\n\n    event CreatedProject(uint ID, string  message);\n    event DeadLineNotice (string message);\n    event Completed(string message);\n    event See (string message);\n\n    enum IsAccepted {\n        no,\n        yes,\n        dissatisfied,\n        Reviewing\n\n    }\n    struct Project {\n        uint256 ProjectID;\n        address Employer;\n        address Employee;\n        string ProjectDescription;\n        uint256 Budget;\n        uint256 ProjectDuration;\n        uint256 DeadLine;\n        uint256 EndTime; \n        bool isActive;\n        bool isCompleted;\n        IsAccepted isaccepted;\n    }\n\n\n    Project[] public projects;\n    mapping(address =>uint[]) public EmployerProjects;\n    mapping(address =>uint[]) public EmployeeProjects;\n    mapping(address =>uint256) public credits;\n    mapping(address =>uint256) public lockedCredits;\n    mapping(address =>uint256) private Employee_credits;\n    mapping(address =>uint256) public Employee_lockedCredits;\n    mapping (address => bool) private OwnerStatus;\n    uint256 public treasury =0;\n    address public owner1;\n    address public owner2;\n    uint32 public numConfirmation = 0;\n    bool public status = true;\n    \n\n\n\n\n\n\n    modifier CheckBalance (uint256 Budget) {\n        credits[msg.sender] += msg.value;\n        if (msg.value < Budget){\n            require (credits[msg.sender]>= Budget, 'Please Increase your credit');\n            _;\n        }\n        _;\n    }\n\n    modifier CheckEmployee (uint256 _projectId){\n        require(projects[_projectId - 1].Employee == msg.sender);\n        _;\n    }\n    modifier CheckEmployer (uint256 _projectId){\n        require(projects[_projectId - 1].Employer == msg.sender);\n        _;\n    }\n    modifier onlyowner() {\n        require (msg.sender == owner1 || msg.sender == owner2);\n        _;\n    }\n    modifier working () {\n        require (status);\n        _;\n    }\n\n    constructor(address _owner1, address _owner2) {\n        owner1 = _owner1;\n        owner2 = _owner2;\n        OwnerStatus[owner1] = false;\n        OwnerStatus[owner2] = false;\n\n    }\n\n\n\n\n\n\n\n\n    function CreateProject(string memory ProjectDescription, uint256 Budget, uint256 ProjectDuration ) \n    public payable CheckBalance(Budget) working {\n        require (ProjectDuration >0, 'Duration must be more than 0');\n        credits[msg.sender] -= Budget;\n        lockedCredits[msg.sender] += Budget;\n\n        uint256 ProjectId = projects.length + 1;\n        uint256 projectTime = ProjectDuration * 1 days;\n        Project memory NewProject = Project(ProjectId, msg.sender,address(0), ProjectDescription,\n        Budget, projectTime, 0, 0, true, false, IsAccepted.no);\n        projects.push(NewProject);\n        EmployerProjects[msg.sender].push(ProjectId);\n        emit CreatedProject(ProjectId, 'Project is Active now');\n\n    }\n\n    function AcceptProject (uint256 _ProjectId ) public payable working{\n        require(projects[_ProjectId - 1].isActive,'Invalid project ID or the project is not active');\n        Employee_credits[msg.sender] += msg.value;\n        uint256 guarantee = (projects[_ProjectId - 1].Budget * 20) /100;\n        if (msg.value < guarantee){\n            require (Employee_credits[msg.sender]>= guarantee, 'Please Increase your credit');\n        }\n        Employee_credits[msg.sender] -= guarantee;\n        Employee_lockedCredits[msg.sender] += guarantee;\n        projects[_ProjectId - 1].DeadLine = projects[_ProjectId - 1].ProjectDuration + block.timestamp;\n        projects[_ProjectId - 1].Employee = msg.sender;\n        projects[_ProjectId - 1].isActive = false;\n        EmployeeProjects[msg.sender].push(_ProjectId);\n        uint256 deadline = projects[_ProjectId - 1].ProjectDuration / 86400;\n        string memory DeadLineMessage = string(abi.encodePacked('your deadline is',deadline,'days' ));\n\n        emit DeadLineNotice(DeadLineMessage);\n\n    }\n    function CompletedProject (uint256 _ProjectId) public CheckEmployee(_ProjectId) {\n        projects[_ProjectId - 1].isCompleted = true;\n        projects[_ProjectId - 1].EndTime = block.timestamp;\n        emit Completed('wait for confirmation');\n    }\n\n    function ConfirmedProject (uint256 _ProjectId) public CheckEmployer(_ProjectId){\n        require(projects[_ProjectId - 1].isCompleted == true,' the project is not completed wait more');\n        projects[_ProjectId - 1].isaccepted = IsAccepted.yes;\n        emit See('see you soon for the next project');\n\n    }\n\n    function RealeasePayment(uint256 _ProjectId) public CheckEmployee(_ProjectId){\n        require(projects[_ProjectId - 1].isaccepted == IsAccepted.yes,' you should wait more');\n        uint256 budget = projects[_ProjectId - 1].Budget;\n\n        if (projects[_ProjectId - 1].EndTime <= projects[_ProjectId - 1].DeadLine){\n            lockedCredits[projects[_ProjectId - 1].Employer] -= budget;\n            Employee_lockedCredits[projects[_ProjectId - 1].Employee] -= (budget * 20)/100;\n            Employee_credits[projects[_ProjectId - 1].Employee] += ((budget * 20) + (budget * 95)) /100;\n            treasury +=(budget * 5)/100;\n\n        } else if (projects[_ProjectId - 1].EndTime - projects[_ProjectId - 1].DeadLine <= projects[_ProjectId - 1].ProjectDuration * 20/100){\n            lockedCredits[projects[_ProjectId - 1].Employer] -= budget;\n            credits[projects[_ProjectId - 1].Employer] += (budget * 10)/100;\n            Employee_lockedCredits[projects[_ProjectId - 1].Employee] -= (budget * 20)/100;\n            Employee_credits[projects[_ProjectId - 1].Employee] += ((budget * 20) + (budget * 80)) /100;\n            treasury += (budget * 10)/100;\n\n        } else {\n            lockedCredits[projects[_ProjectId - 1].Employer] -= budget;\n            credits[projects[_ProjectId - 1].Employer] += (budget * 30)/100;\n            Employee_credits[projects[_ProjectId - 1].Employee] += (budget * 70)/100;\n            Employee_lockedCredits[projects[_ProjectId - 1].Employee] -= (budget * 20)/100;\n            treasury += (budget * 20)/100;\n\n        }\n    }\n    function NotConfirmed (uint256 _ProjectId) public CheckEmployee(_ProjectId){\n        require(projects[_ProjectId - 1].isaccepted != IsAccepted.dissatisfied, 'your client is not satisfied');\n        require(block.timestamp >= projects[_ProjectId - 1].EndTime +1 days );\n        projects[_ProjectId - 1].isaccepted = IsAccepted.yes;\n\n    }\n\n    function Dissatisfied (uint256 _ProjectId) public CheckEmployer(_ProjectId){\n        require(projects[_ProjectId - 1].isCompleted == true, 'your peoject is not done');\n        projects[_ProjectId - 1].isaccepted = IsAccepted.dissatisfied;\n\n    }\n\n    function Withdraw(uint256 _Amount, string memory _position) public nonReentrant {\n        bytes32 positionHash = keccak256(bytes(_position));\n        if (positionHash == keccak256(\"Employer\")) {\n            require(credits[msg.sender]>= _Amount);\n            credits[msg.sender] -= _Amount;\n            (bool success, ) = msg.sender.call{value: _Amount}(\"\");\n            require(success);\n\n\n        } else if (positionHash == keccak256(\"Employee\")) {\n            require(Employee_credits[msg.sender]>= _Amount);\n            Employee_credits[msg.sender] -= _Amount;\n            (bool success, ) = msg.sender.call{value: _Amount}(\"\");\n            require(success);\n        } \n\n\n    }\n    function Review(uint256 _ProjectId) public {\n        require(projects[_ProjectId - 1].Employer == msg.sender || projects[_ProjectId - 1].Employee == msg.sender,'wrong project ID');\n        require(projects[_ProjectId - 1].isCompleted == true, 'your peoject is not done');\n        projects[_ProjectId - 1].isaccepted = IsAccepted.Reviewing;\n\n    }\n\n    function finalDecision (uint256 _ProjectId, uint256 Proportion ) public onlyowner{\n        require(Proportion<=70);\n        require(projects[_ProjectId - 1].isaccepted == IsAccepted.Reviewing);\n        projects[_ProjectId - 1].isaccepted == IsAccepted.yes;\n        uint256 budget = projects[_ProjectId - 1].Budget;\n        lockedCredits[projects[_ProjectId - 1].Employer] -= budget;\n        credits[projects[_ProjectId - 1].Employer] += (budget * Proportion)/100;\n        Employee_lockedCredits[projects[_ProjectId - 1].Employee] -= (budget * 20)/100;\n        Employee_credits[projects[_ProjectId - 1].Employee] += ((budget * 20) + (budget * (100 - Proportion - 30))) /100;\n        treasury += (budget * 30)/100;\n    }\n\n    function cancelProject (uint256 _ProjectId) public CheckEmployer(_ProjectId){\n        require(projects[_ProjectId - 1].isActive == true);\n        projects[_ProjectId - 1].isActive = false;\n        uint256 budget = projects[_ProjectId - 1].Budget;\n        lockedCredits[projects[_ProjectId - 1].Employer] -= budget;\n        credits[projects[_ProjectId - 1].Employer] += budget;\n\n    }\n\n\n\n    function confirm() public onlyowner {\n        \n        OwnerStatus[msg.sender] = true;\n    }\n\n    function setPause (bool _paused) public onlyowner {\n        require (OwnerStatus[owner1]  && OwnerStatus[owner2] ,'confirmation is not completed');\n        status = _paused;\n        OwnerStatus[owner1] = false;\n        OwnerStatus[owner2] = false;\n\n    }\n\n    function WithdrawTreasury () public payable onlyowner() nonReentrant{\n        \n        (bool success,) = owner1.call{value:treasury}('');\n        require(success,\"Failed to send Ether\");\n        treasury = 0;\n        \n    }\n\n\n\n    function get_project(uint256 _ProjectId) view public returns(uint256 ProjectID,\n        address Employer,address Employee,string memory ProjectDescription,\n        uint256 Budget, uint256 ProjectDuration,uint256 DeadLine,\n        uint256 EndTime,bool isActive,bool isCompleted,IsAccepted isAccepted) {\n        ProjectID =  projects[_ProjectId - 1].ProjectID;\n        Employer =  projects[_ProjectId - 1].Employer;\n        Employee =  projects[_ProjectId - 1].Employee;\n        ProjectDescription =  projects[_ProjectId - 1].ProjectDescription;\n        Budget =  projects[_ProjectId - 1].Budget;\n        ProjectDuration = projects[_ProjectId - 1].ProjectDuration;\n        DeadLine= projects[_ProjectId - 1].DeadLine;\n        EndTime= projects[_ProjectId - 1].EndTime;\n        isActive =  projects[_ProjectId - 1].isActive;\n        isCompleted = projects[_ProjectId - 1].isCompleted;\n        isAccepted = projects[_ProjectId - 1].isaccepted;\n\n\n    }\n\n    function get_employee_projects(address _address) view public returns(uint[] memory){\n        return (EmployeeProjects[_address]);\n    }\n\n    function  get_employer_projects(address _address) view public returns(uint[] memory){\n        return (EmployerProjects[_address]);\n\n\n    }\n    function  get_employer_creadits(address _address) view public returns(uint,uint){\n        return (credits[_address],lockedCredits[_address]);\n\n    }\n    function  get_employee_creadits(address _address) view public returns(uint,uint){\n        return (Employee_credits[_address],Employee_lockedCredits[_address]);\n\n    }\n    function  get_status() view public returns(bool){\n        return (status);\n\n    }\n    function  get_treasury() view public returns(uint256){\n        return (treasury);\n\n    }\n\n\n\n}\n\n\n\n","sourcePath":"contracts/WorkChain.sol","type":"contract","deployment":{"address":"0xDf77e7c0723CE462F55cc8d3384E2F1E20B8A719","chainid":"5777","blockHeight":1}}