{"abi":[{"inputs":[{"internalType":"address","name":"_owner1","type":"address"},{"internalType":"address","name":"_owner2","type":"address"}],"stateMutability":"nonpayable","type":"constructor","name":"constructor"},{"anonymous":false,"inputs":[{"indexed":true,"internalType":"uint256","name":"ID","type":"uint256"},{"indexed":false,"internalType":"string","name":"message","type":"string"}],"name":"CreatedProject","type":"event"},{"anonymous":false,"inputs":[{"indexed":false,"internalType":"uint256","name":"deadline","type":"uint256"}],"name":"DeadLineNotice","type":"event"},{"inputs":[{"internalType":"uint256","name":"_projectID","type":"uint256"}],"name":"acceptProject","outputs":[],"stateMutability":"payable","type":"function"},{"inputs":[{"internalType":"uint256","name":"_projectID","type":"uint256"}],"name":"cancelProject","outputs":[],"stateMutability":"nonpayable","type":"function"},{"inputs":[{"internalType":"uint256","name":"_projectID","type":"uint256"}],"name":"completedProject","outputs":[],"stateMutability":"nonpayable","type":"function"},{"inputs":[],"name":"confirm","outputs":[],"stateMutability":"nonpayable","type":"function"},{"inputs":[{"internalType":"uint256","name":"_projectID","type":"uint256"}],"name":"confirmedProject","outputs":[],"stateMutability":"nonpayable","type":"function"},{"inputs":[{"internalType":"string","name":"_projectDescription","type":"string"},{"internalType":"uint256","name":"_budget","type":"uint256"},{"internalType":"uint256","name":"_projectDuration","type":"uint256"}],"name":"createProject","outputs":[],"stateMutability":"payable","type":"function"},{"inputs":[{"internalType":"address","name":"","type":"address"}],"name":"credits","outputs":[{"internalType":"uint256","name":"","type":"uint256"}],"stateMutability":"view","type":"function"},{"inputs":[{"internalType":"uint256","name":"_projectID","type":"uint256"}],"name":"dissatisfied","outputs":[],"stateMutability":"nonpayable","type":"function"},{"inputs":[{"internalType":"address","name":"","type":"address"}],"name":"employeeLockedCredits","outputs":[{"internalType":"uint256","name":"","type":"uint256"}],"stateMutability":"view","type":"function"},{"inputs":[{"internalType":"address","name":"","type":"address"},{"internalType":"uint256","name":"","type":"uint256"}],"name":"employeeProjects","outputs":[{"internalType":"uint256","name":"","type":"uint256"}],"stateMutability":"view","type":"function"},{"inputs":[{"internalType":"address","name":"","type":"address"},{"internalType":"uint256","name":"","type":"uint256"}],"name":"employerProjects","outputs":[{"internalType":"uint256","name":"","type":"uint256"}],"stateMutability":"view","type":"function"},{"inputs":[{"internalType":"uint256","name":"_projectID","type":"uint256"},{"internalType":"uint256","name":"Proportion","type":"uint256"}],"name":"finalDecision","outputs":[],"stateMutability":"nonpayable","type":"function"},{"inputs":[{"internalType":"address","name":"_address","type":"address"}],"name":"getEmployeeCreadits","outputs":[{"internalType":"uint256","name":"","type":"uint256"},{"internalType":"uint256","name":"","type":"uint256"}],"stateMutability":"view","type":"function"},{"inputs":[{"internalType":"address","name":"_address","type":"address"}],"name":"getEmployeeProjects","outputs":[{"internalType":"uint256[]","name":"","type":"uint256[]"}],"stateMutability":"view","type":"function"},{"inputs":[{"internalType":"address","name":"_address","type":"address"}],"name":"getEmployerCreadits","outputs":[{"internalType":"uint256","name":"","type":"uint256"},{"internalType":"uint256","name":"","type":"uint256"}],"stateMutability":"view","type":"function"},{"inputs":[{"internalType":"address","name":"_address","type":"address"}],"name":"getEmployerProjects","outputs":[{"internalType":"uint256[]","name":"","type":"uint256[]"}],"stateMutability":"view","type":"function"},{"inputs":[{"internalType":"uint256","name":"_projectID","type":"uint256"}],"name":"getProject","outputs":[{"internalType":"uint256","name":"projectID","type":"uint256"},{"internalType":"address","name":"employer","type":"address"},{"internalType":"address","name":"employee","type":"address"},{"internalType":"string","name":"projectDescription","type":"string"},{"internalType":"uint256","name":"budget","type":"uint256"},{"internalType":"uint256","name":"projectDuration","type":"uint256"},{"internalType":"uint256","name":"deadLine","type":"uint256"},{"internalType":"uint256","name":"endTime","type":"uint256"},{"internalType":"bool","name":"isActive","type":"bool"},{"internalType":"bool","name":"isCompleted","type":"bool"},{"internalType":"enum WorkChain.IsAccepted","name":"isAccepted","type":"uint8"}],"stateMutability":"view","type":"function"},{"inputs":[],"name":"getStatus","outputs":[{"internalType":"bool","name":"","type":"bool"}],"stateMutability":"view","type":"function"},{"inputs":[],"name":"getTreasury","outputs":[{"internalType":"uint256","name":"","type":"uint256"}],"stateMutability":"view","type":"function"},{"inputs":[{"internalType":"address","name":"","type":"address"}],"name":"lockedCredits","outputs":[{"internalType":"uint256","name":"","type":"uint256"}],"stateMutability":"view","type":"function"},{"inputs":[{"internalType":"uint256","name":"_projectID","type":"uint256"}],"name":"notConfirmed","outputs":[],"stateMutability":"nonpayable","type":"function"},{"inputs":[],"name":"owner1","outputs":[{"internalType":"address","name":"","type":"address"}],"stateMutability":"view","type":"function"},{"inputs":[],"name":"owner2","outputs":[{"internalType":"address","name":"","type":"address"}],"stateMutability":"view","type":"function"},{"inputs":[{"internalType":"uint256","name":"","type":"uint256"}],"name":"projects","outputs":[{"internalType":"uint256","name":"projectID","type":"uint256"},{"internalType":"address","name":"employer","type":"address"},{"internalType":"address","name":"employee","type":"address"},{"internalType":"string","name":"projectDescription","type":"string"},{"internalType":"uint256","name":"budget","type":"uint256"},{"internalType":"uint256","name":"projectDuration","type":"uint256"},{"internalType":"uint256","name":"deadLine","type":"uint256"},{"internalType":"uint256","name":"endTime","type":"uint256"},{"internalType":"bool","name":"isActive","type":"bool"},{"internalType":"bool","name":"isCompleted","type":"bool"},{"internalType":"enum WorkChain.IsAccepted","name":"isAccepted","type":"uint8"}],"stateMutability":"view","type":"function"},{"inputs":[{"internalType":"uint256","name":"_projectID","type":"uint256"}],"name":"releasePayment","outputs":[],"stateMutability":"nonpayable","type":"function"},{"inputs":[{"internalType":"uint256","name":"_projectID","type":"uint256"}],"name":"review","outputs":[],"stateMutability":"nonpayable","type":"function"},{"inputs":[{"internalType":"bool","name":"_paused","type":"bool"}],"name":"setPause","outputs":[],"stateMutability":"nonpayable","type":"function"},{"inputs":[],"name":"status","outputs":[{"internalType":"bool","name":"","type":"bool"}],"stateMutability":"view","type":"function"},{"inputs":[],"name":"treasury","outputs":[{"internalType":"uint256","name":"","type":"uint256"}],"stateMutability":"view","type":"function"},{"inputs":[{"internalType":"uint256","name":"_Amount","type":"uint256"},{"internalType":"string","name":"_position","type":"string"}],"name":"withdraw","outputs":[],"stateMutability":"nonpayable","type":"function"},{"inputs":[],"name":"withdrawTreasury","outputs":[],"stateMutability":"payable","type":"function"}],"bytecode":"6080604052600b805460ff60a01b1916600160a01b1790553480156200002457600080fd5b50604051620035f2380380620035f28339810160408190526200004791620000cc565b60016000908155600a80546001600160a01b03199081166001600160a01b039586161791829055600b80549091169385169390931783558316815260086020526040808220805460ff1990811690915592549093168152919091208054909116905562000103565b80516001600160a01b0381168114620000c757600080fd5b919050565b60008060408385031215620000df578182fd5b620000ea83620000af565b9150620000fa60208401620000af565b90509250929050565b6134df80620001136000396000f3fe6080604052600436106101d85760003560e01c80637022b58e11610102578063dc048cf211610095578063f0f3f2c811610064578063f0f3f2c81461053c578063f3a6ac5f1461055c578063fd1d5ea91461056f578063fe5ff46814610582576101d8565b8063dc048cf2146104bc578063e1e96c9b146104dc578063e443fb90146104fc578063eb4c81261461051c576101d8565b8063ac7ba18e116100d1578063ac7ba18e1461043c578063b90200411461045c578063bedb86fb1461047c578063cddf6b271461049c576101d8565b80637022b58e146103c557806373688914146103da57806381373720146103ef57806388685cd91461041c576101d8565b80632ade136c1161017a5780635270972511610149578063527097251461034e578063555b392d1461037057806361d027b3146103905780636cfbec81146103a5576101d8565b80632ade136c146102e45780633b19e84a146103045780633ff31b48146103195780634e69d56014610339576101d8565b8063200d2ed2116101b6578063200d2ed21461025557806320d9e36a146102775780632494114714610297578063264ed709146102b7576101d8565b80630a5403ef146101dd578063107046bd14610214578063166bab951461024b575b600080fd5b3480156101e957600080fd5b506101fd6101f8366004612e9d565b6105a2565b60405161020b9291906133c6565b60405180910390f35b34801561022057600080fd5b5061023461022f366004612f53565b6105ca565b60405161020b9b9a999897969594939291906132fe565b6102536106d1565b005b34801561026157600080fd5b5061026a6107cd565b60405161020b9190613054565b34801561028357600080fd5b50610253610292366004612f53565b6107dd565b3480156102a357600080fd5b506102536102b2366004612f53565b610981565b3480156102c357600080fd5b506102d76102d2366004612e9d565b610b9a565b60405161020b91906132f5565b3480156102f057600080fd5b506101fd6102ff366004612e9d565b610bac565b34801561031057600080fd5b506102d7610bd4565b34801561032557600080fd5b506102d7610334366004612ebe565b610bda565b34801561034557600080fd5b5061026a610c0b565b34801561035a57600080fd5b50610363610c1b565b60405161020b9190612ffc565b34801561037c57600080fd5b5061025361038b366004612fb0565b610c2a565b34801561039c57600080fd5b506102d7610fe4565b3480156103b157600080fd5b506102d76103c0366004612ebe565b610fea565b3480156103d157600080fd5b50610253611006565b3480156103e657600080fd5b5061036361104e565b3480156103fb57600080fd5b5061040f61040a366004612e9d565b61105d565b60405161020b9190613010565b34801561042857600080fd5b50610253610437366004612f53565b6110ca565b34801561044857600080fd5b50610253610457366004612f53565b611953565b34801561046857600080fd5b506102d7610477366004612e9d565b611a0e565b34801561048857600080fd5b50610253610497366004612ee7565b611a20565b3480156104a857600080fd5b506102536104b7366004612f53565b611b01565b3480156104c857600080fd5b506102536104d7366004612f6b565b611bca565b3480156104e857600080fd5b506102536104f7366004612f53565b611d84565b34801561050857600080fd5b5061040f610517366004612e9d565b611f14565b34801561052857600080fd5b50610253610537366004612f53565b611f7e565b34801561054857600080fd5b50610234610557366004612f53565b612069565b61025361056a366004612f07565b6123f1565b61025361057d366004612f53565b6129f1565b34801561058e57600080fd5b506102d761059d366004612e9d565b612d29565b6001600160a01b03166000908152600460209081526040808320546005909252909120549091565b600181815481106105da57600080fd5b600091825260209091206009909102018054600182015460028301546003840180549395506001600160a01b0392831694929091169261061990613442565b80601f016020809104026020016040519081016040528092919081815260200182805461064590613442565b80156106925780601f1061066757610100808354040283529160200191610692565b820191906000526020600020905b81548152906001019060200180831161067557829003601f168201915b505050600484015460058501546006860154600787015460089097015495969295919450925060ff80821691610100810482169162010000909104168b565b600a546001600160a01b03163314806106f45750600b546001600160a01b031633145b6106fd57600080fd5b610705612d3b565b600b546001600160a01b031660009081526008602052604090205460ff16151560011461073157600080fd5b600a546009546040516000926001600160a01b0316919061075190612ff9565b60006040518083038185875af1925050503d806000811461078e576040519150601f19603f3d011682016040523d82523d6000602084013e610793565b606091505b50509050806107bd5760405162461bcd60e51b81526004016107b49061305f565b60405180910390fd5b5060006009556107cb612d65565b565b600b54600160a01b900460ff1681565b803360016107eb818461342b565b8154811061080957634e487b7160e01b600052603260045260246000fd5b60009182526020909120600260099092020101546001600160a01b03161461083057600080fd5b6002600161083e818561342b565b8154811061085c57634e487b7160e01b600052603260045260246000fd5b906000526020600020906009020160080160029054906101000a900460ff16600381111561089a57634e487b7160e01b600052602160045260246000fd5b14156108b85760405162461bcd60e51b81526004016107b490613189565b60016108c4818461342b565b815481106108e257634e487b7160e01b600052603260045260246000fd5b9060005260206000209060090201600701546201518061090291906133d4565b42101561090e57600080fd5b60018061091b818561342b565b8154811061093957634e487b7160e01b600052603260045260246000fd5b60009182526020909120600860099092020101805462ff000019166201000083600381111561097857634e487b7160e01b600052602160045260246000fd5b02179055505050565b8033600161098f818461342b565b815481106109ad57634e487b7160e01b600052603260045260246000fd5b60009182526020909120600160099092020101546001600160a01b0316146109d457600080fd5b60016109e0818461342b565b815481106109fe57634e487b7160e01b600052603260045260246000fd5b600091825260209091206008600990920201015460ff161515600114610a2357600080fd5b60006001610a31818561342b565b81548110610a4f57634e487b7160e01b600052603260045260246000fd5b60009182526020822060099190910201600801805460ff1916921515929092179091556001610a7e818561342b565b81548110610a9c57634e487b7160e01b600052603260045260246000fd5b9060005260206000209060090201600401549050806005600060018087610ac3919061342b565b81548110610ae157634e487b7160e01b600052603260045260246000fd5b60009182526020808320600160099093020191909101546001600160a01b0316835282019290925260400181208054909190610b1e90849061342b565b90915550819050600460006001610b35818861342b565b81548110610b5357634e487b7160e01b600052603260045260246000fd5b60009182526020808320600160099093020191909101546001600160a01b0316835282019290925260400181208054909190610b909084906133d4565b9091555050505050565b60076020526000908152604090205481565b6001600160a01b03166000908152600660209081526040808320546007909252909120549091565b60095490565b60036020528160005260406000208181548110610bf657600080fd5b90600052602060002001600091509150505481565b600b54600160a01b900460ff1690565b600b546001600160a01b031681565b600a546001600160a01b0316331480610c4d5750600b546001600160a01b031633145b610c5657600080fd5b6046811115610c6457600080fd5b60036001610c72818561342b565b81548110610c9057634e487b7160e01b600052603260045260246000fd5b906000526020600020906009020160080160029054906101000a900460ff166003811115610cce57634e487b7160e01b600052602160045260246000fd5b14610cd857600080fd5b600180610ce5818561342b565b81548110610d0357634e487b7160e01b600052603260045260246000fd5b60009182526020909120600860099092020101805462ff0000191662010000836003811115610d4257634e487b7160e01b600052602160045260246000fd5b021790555060006001610d55818561342b565b81548110610d7357634e487b7160e01b600052603260045260246000fd5b9060005260206000209060090201600401549050806005600060018087610d9a919061342b565b81548110610db857634e487b7160e01b600052603260045260246000fd5b60009182526020808320600160099093020191909101546001600160a01b0316835282019290925260400181208054909190610df590849061342b565b9091555060649050610e07838361340c565b610e1191906133ec565b600460006001610e21818861342b565b81548110610e3f57634e487b7160e01b600052603260045260246000fd5b60009182526020808320600160099093020191909101546001600160a01b0316835282019290925260400181208054909190610e7c9084906133d4565b9091555060649050610e8f82601461340c565b610e9991906133ec565b600760006001610ea9818861342b565b81548110610ec757634e487b7160e01b600052603260045260246000fd5b60009182526020808320600260099093020191909101546001600160a01b0316835282019290925260400181208054909190610f0490849061342b565b9091555060649050601e610f18848361342b565b610f22919061342b565b610f2c908361340c565b610f3783601461340c565b610f4191906133d4565b610f4b91906133ec565b600660006001610f5b818861342b565b81548110610f7957634e487b7160e01b600052603260045260246000fd5b60009182526020808320600260099093020191909101546001600160a01b0316835282019290925260400181208054909190610fb69084906133d4565b9091555060649050610fc982601e61340c565b610fd391906133ec565b60096000828254610b9091906133d4565b60095481565b60026020528160005260406000208181548110610bf657600080fd5b600a546001600160a01b03163314806110295750600b546001600160a01b031633145b61103257600080fd5b336000908152600860205260409020805460ff19166001179055565b600a546001600160a01b031681565b6001600160a01b0381166000908152600260209081526040918290208054835181840281018401909452808452606093928301828280156110bd57602002820191906000526020600020905b8154815260200190600101908083116110a9575b505050505090505b919050565b803360016110d8818461342b565b815481106110f657634e487b7160e01b600052603260045260246000fd5b60009182526020909120600260099092020101546001600160a01b03161461111d57600080fd5b60018061112a818561342b565b8154811061114857634e487b7160e01b600052603260045260246000fd5b906000526020600020906009020160080160029054906101000a900460ff16600381111561118657634e487b7160e01b600052602160045260246000fd5b146111a35760405162461bcd60e51b81526004016107b4906130d4565b600060016111b1818561342b565b815481106111cf57634e487b7160e01b600052603260045260246000fd5b9060005260206000209060090201600401549050600180846111f1919061342b565b8154811061120f57634e487b7160e01b600052603260045260246000fd5b9060005260206000209060090201600601546001808561122f919061342b565b8154811061124d57634e487b7160e01b600052603260045260246000fd5b9060005260206000209060090201600701541161142e5780600560006001611275818861342b565b8154811061129357634e487b7160e01b600052603260045260246000fd5b60009182526020808320600160099093020191909101546001600160a01b03168352820192909252604001812080549091906112d090849061342b565b90915550606490506112e382601461340c565b6112ed91906133ec565b6007600060016112fd818861342b565b8154811061131b57634e487b7160e01b600052603260045260246000fd5b60009182526020808320600260099093020191909101546001600160a01b031683528201929092526040018120805490919061135890849061342b565b909155506064905061136b82605f61340c565b61137683601461340c565b61138091906133d4565b61138a91906133ec565b60066000600161139a818861342b565b815481106113b857634e487b7160e01b600052603260045260246000fd5b60009182526020808320600260099093020191909101546001600160a01b03168352820192909252604001812080549091906113f59084906133d4565b909155506064905061140882600561340c565b61141291906133ec565b6009600082825461142391906133d4565b9091555061194e9050565b6064600161143c818661342b565b8154811061145a57634e487b7160e01b600052603260045260246000fd5b9060005260206000209060090201600501546014611478919061340c565b61148291906133ec565b600161148e818661342b565b815481106114ac57634e487b7160e01b600052603260045260246000fd5b906000526020600020906009020160060154600180866114cc919061342b565b815481106114ea57634e487b7160e01b600052603260045260246000fd5b906000526020600020906009020160070154611506919061342b565b11611737578060056000600161151c818861342b565b8154811061153a57634e487b7160e01b600052603260045260246000fd5b60009182526020808320600160099093020191909101546001600160a01b031683528201929092526040018120805490919061157790849061342b565b909155506064905061158a82600a61340c565b61159491906133ec565b6004600060016115a4818861342b565b815481106115c257634e487b7160e01b600052603260045260246000fd5b60009182526020808320600160099093020191909101546001600160a01b03168352820192909252604001812080549091906115ff9084906133d4565b909155506064905061161282601461340c565b61161c91906133ec565b60076000600161162c818861342b565b8154811061164a57634e487b7160e01b600052603260045260246000fd5b60009182526020808320600260099093020191909101546001600160a01b031683528201929092526040018120805490919061168790849061342b565b909155506064905061169a82605061340c565b6116a583601461340c565b6116af91906133d4565b6116b991906133ec565b6006600060016116c9818861342b565b815481106116e757634e487b7160e01b600052603260045260246000fd5b60009182526020808320600260099093020191909101546001600160a01b03168352820192909252604001812080549091906117249084906133d4565b909155506064905061140882600a61340c565b80600560006001611748818861342b565b8154811061176657634e487b7160e01b600052603260045260246000fd5b60009182526020808320600160099093020191909101546001600160a01b03168352820192909252604001812080549091906117a390849061342b565b90915550606490506117b682601e61340c565b6117c091906133ec565b6004600060016117d0818861342b565b815481106117ee57634e487b7160e01b600052603260045260246000fd5b60009182526020808320600160099093020191909101546001600160a01b031683528201929092526040018120805490919061182b9084906133d4565b909155506064905061183e82604661340c565b61184891906133ec565b600660006001611858818861342b565b8154811061187657634e487b7160e01b600052603260045260246000fd5b60009182526020808320600260099093020191909101546001600160a01b03168352820192909252604001812080549091906118b39084906133d4565b90915550606490506118c682601461340c565b6118d091906133ec565b6007600060016118e0818861342b565b815481106118fe57634e487b7160e01b600052603260045260246000fd5b60009182526020808320600260099093020191909101546001600160a01b031683528201929092526040018120805490919061193b90849061342b565b9091555060649050610fc982601461340c565b505050565b80336001611961818461342b565b8154811061197f57634e487b7160e01b600052603260045260246000fd5b60009182526020909120600160099092020101546001600160a01b0316146119a657600080fd5b60016119b2818461342b565b815481106119d057634e487b7160e01b600052603260045260246000fd5b600091825260209091206008600990920201015460ff61010090910416151560011461090e5760405162461bcd60e51b81526004016107b49061308d565b60056020526000908152604090205481565b600a546001600160a01b0316331480611a435750600b546001600160a01b031633145b611a4c57600080fd5b600a546001600160a01b031660009081526008602052604090205460ff168015611a905750600b546001600160a01b031660009081526008602052604090205460ff165b611aac5760405162461bcd60e51b81526004016107b4906132be565b600b8054911515600160a01b0260ff60a01b19909216919091178155600a546001600160a01b03908116600090815260086020526040808220805460ff19908116909155935490921681522080549091169055565b80336001611b0f818461342b565b81548110611b2d57634e487b7160e01b600052603260045260246000fd5b60009182526020909120600160099092020101546001600160a01b031614611b5457600080fd5b6001611b60818461342b565b81548110611b7e57634e487b7160e01b600052603260045260246000fd5b600091825260209091206008600990920201015460ff610100909104161515600114611bbc5760405162461bcd60e51b81526004016107b4906131c0565b6002600161091b818561342b565b611bd2612d3b565b805160208201207faa684a62cfec67884698edcb374cdd8a7421222bfeb8b6570bb1a601a3f00690811415611caa5733600090815260046020526040902054831115611c1d57600080fd5b3360009081526004602052604081208054859290611c3c90849061342b565b909155505060405160009033908590611c5490612ff9565b60006040518083038185875af1925050503d8060008114611c91576040519150601f19603f3d011682016040523d82523d6000602084013e611c96565b606091505b5050905080611ca457600080fd5b50611d77565b7f8d7680ead1da220f978b7468ed8cda236baa559f8af75bff883132fa60b435a7811415611d775733600090815260066020526040902054831115611cee57600080fd5b3360009081526006602052604081208054859290611d0d90849061342b565b909155505060405160009033908590611d2590612ff9565b60006040518083038185875af1925050503d8060008114611d62576040519150601f19603f3d011682016040523d82523d6000602084013e611d67565b606091505b5050905080611d7557600080fd5b505b50611d80612d65565b5050565b336001611d91818461342b565b81548110611daf57634e487b7160e01b600052603260045260246000fd5b60009182526020909120600160099092020101546001600160a01b03161480611e1d5750336001611de0818461342b565b81548110611dfe57634e487b7160e01b600052603260045260246000fd5b60009182526020909120600260099092020101546001600160a01b0316145b611e395760405162461bcd60e51b81526004016107b49061322e565b6001611e45818361342b565b81548110611e6357634e487b7160e01b600052603260045260246000fd5b600091825260209091206008600990920201015460ff610100909104161515600114611ea15760405162461bcd60e51b81526004016107b4906131c0565b60036001611eaf818461342b565b81548110611ecd57634e487b7160e01b600052603260045260246000fd5b60009182526020909120600860099092020101805462ff0000191662010000836003811115611f0c57634e487b7160e01b600052602160045260246000fd5b021790555050565b6001600160a01b0381166000908152600360209081526040918290208054835181840281018401909452808452606093928301828280156110bd57602002820191906000526020600020908154815260200190600101908083116110a95750505050509050919050565b80336001611f8c818461342b565b81548110611faa57634e487b7160e01b600052603260045260246000fd5b60009182526020909120600260099092020101546001600160a01b031614611fd157600080fd5b600180611fde818561342b565b81548110611ffc57634e487b7160e01b600052603260045260246000fd5b6000918252602090912060086009909202010180549115156101000261ff0019909216919091179055426001612032818561342b565b8154811061205057634e487b7160e01b600052603260045260246000fd5b9060005260206000209060090201600701819055505050565b600080806060818080808080806001612082818e61342b565b815481106120a057634e487b7160e01b600052603260045260246000fd5b60009182526020909120600990910201549a5060016120bf818e61342b565b815481106120dd57634e487b7160e01b600052603260045260246000fd5b6000918252602090912060016009909202018101546001600160a01b03169a50612107818e61342b565b8154811061212557634e487b7160e01b600052603260045260246000fd5b60009182526020909120600260099092020101546001600160a01b031698506001612150818e61342b565b8154811061216e57634e487b7160e01b600052603260045260246000fd5b9060005260206000209060090201600301805461218a90613442565b80601f01602080910402602001604051908101604052809291908181526020018280546121b690613442565b80156122035780601f106121d857610100808354040283529160200191612203565b820191906000526020600020905b8154815290600101906020018083116121e657829003601f168201915b505050505097506001808d612218919061342b565b8154811061223657634e487b7160e01b600052603260045260246000fd5b90600052602060002090600902016004015496506001808d612258919061342b565b8154811061227657634e487b7160e01b600052603260045260246000fd5b90600052602060002090600902016005015495506001808d612298919061342b565b815481106122b657634e487b7160e01b600052603260045260246000fd5b90600052602060002090600902016006015494506001808d6122d8919061342b565b815481106122f657634e487b7160e01b600052603260045260246000fd5b90600052602060002090600902016007015493506001808d612318919061342b565b8154811061233657634e487b7160e01b600052603260045260246000fd5b600091825260209091206008600990920201015460ff169250600161235b818e61342b565b8154811061237957634e487b7160e01b600052603260045260246000fd5b6000918252602090912060099091020160080154610100900460ff16915060016123a3818e61342b565b815481106123c157634e487b7160e01b600052603260045260246000fd5b906000526020600020906009020160080160029054906101000a900460ff16905091939597999b90929496989a50565b336000908152600460205260408120805484923492916124129084906133d4565b90915550503481111561271d573360009081526004602052604090205481111561244e5760405162461bcd60e51b81526004016107b4906131f7565b600b54600160a01b900460ff1661246457600080fd5b600082116124845760405162461bcd60e51b81526004016107b490613152565b33600090815260046020526040812080548592906124a390849061342b565b909155505033600090815260056020526040812080548592906124c79084906133d4565b9091555050600180546000916124dd91906133d4565b905060006124ee846201518061340c565b60408051610160810182528481523360208083019182526000938301848152606084018c8152608085018c905260a0850187905260c0850186905260e08501869052600161010086018190526101208601879052610140860187905280548082018255965284517fb10e2d527612073b26eecdfd717e6a320cf44b4afac2b0732d9fcbe2b7fa0cf6600990970296870190815593517fb10e2d527612073b26eecdfd717e6a320cf44b4afac2b0732d9fcbe2b7fa0cf7870180546001600160a01b03199081166001600160a01b039384161790915592517fb10e2d527612073b26eecdfd717e6a320cf44b4afac2b0732d9fcbe2b7fa0cf88801805490941691161790915551805195965092948594929361262d937fb10e2d527612073b26eecdfd717e6a320cf44b4afac2b0732d9fcbe2b7fa0cf901920190612d6c565b506080820151600482015560a0820151600582015560c0820151600682015560e082015160078201556101008083015160088301805461012086015160ff199091169215159290921761ff00191691151590920217808255610140840151919062ff00001916620100008360038111156126b757634e487b7160e01b600052602160045260246000fd5b02179055505033600090815260026020908152604080832080546001810182559084529190922001859055518491507f4b1b1a905a6323b91259e1e095b47ee5dbb95009e905491db7049e6a1c98a8749061271190613258565b60405180910390a25050505b600b54600160a01b900460ff1661273357600080fd5b600082116127535760405162461bcd60e51b81526004016107b490613152565b336000908152600460205260408120805485929061277290849061342b565b909155505033600090815260056020526040812080548592906127969084906133d4565b9091555050600180546000916127ac91906133d4565b905060006127bd846201518061340c565b60408051610160810182528481523360208083019182526000938301848152606084018c8152608085018c905260a0850187905260c0850186905260e08501869052600161010086018190526101208601879052610140860187905280548082018255965284517fb10e2d527612073b26eecdfd717e6a320cf44b4afac2b0732d9fcbe2b7fa0cf6600990970296870190815593517fb10e2d527612073b26eecdfd717e6a320cf44b4afac2b0732d9fcbe2b7fa0cf7870180546001600160a01b03199081166001600160a01b039384161790915592517fb10e2d527612073b26eecdfd717e6a320cf44b4afac2b0732d9fcbe2b7fa0cf8880180549094169116179091555180519596509294859492936128fc937fb10e2d527612073b26eecdfd717e6a320cf44b4afac2b0732d9fcbe2b7fa0cf901920190612d6c565b506080820151600482015560a0820151600582015560c0820151600682015560e082015160078201556101008083015160088301805461012086015160ff199091169215159290921761ff00191691151590920217808255610140840151919062ff000019166201000083600381111561298657634e487b7160e01b600052602160045260246000fd5b02179055505033600090815260026020908152604080832080546001810182559084529190922001859055518491507f4b1b1a905a6323b91259e1e095b47ee5dbb95009e905491db7049e6a1c98a874906129e090613258565b60405180910390a250505050505050565b600b54600160a01b900460ff16612a0757600080fd5b6001612a13818361342b565b81548110612a3157634e487b7160e01b600052603260045260246000fd5b600091825260209091206008600990920201015460ff16612a645760405162461bcd60e51b81526004016107b490613103565b3360009081526006602052604081208054349290612a839084906133d4565b909155506000905060646001612a99818561342b565b81548110612ab757634e487b7160e01b600052603260045260246000fd5b9060005260206000209060090201600401546014612ad5919061340c565b612adf91906133ec565b905080341015612b185733600090815260066020526040902054811115612b185760405162461bcd60e51b81526004016107b4906131f7565b3360009081526006602052604081208054839290612b3790849061342b565b90915550503360009081526007602052604081208054839290612b5b9084906133d4565b909155504290506001612b6e818561342b565b81548110612b8c57634e487b7160e01b600052603260045260246000fd5b906000526020600020906009020160050154612ba891906133d4565b6001612bb4818561342b565b81548110612bd257634e487b7160e01b600052603260045260246000fd5b6000918252602090912060066009909202010155336001612bf3818561342b565b81548110612c1157634e487b7160e01b600052603260045260246000fd5b6000918252602082206009919091020160020180546001600160a01b0319166001600160a01b0393909316929092179091556001612c4f818561342b565b81548110612c6d57634e487b7160e01b600052603260045260246000fd5b60009182526020808320600992909202909101600801805460ff1916931515939093179092553381526003825260408120805460018181018355918352929091209091018390557fc6f3e07c4b20b159a57bda01879e04cd4d7faf5d15b913e25b16673dcc0dd2ab90612ce0818561342b565b81548110612cfe57634e487b7160e01b600052603260045260246000fd5b906000526020600020906009020160060154604051612d1d91906132f5565b60405180910390a15050565b60046020526000908152604090205481565b60026000541415612d5e5760405162461bcd60e51b81526004016107b490613287565b6002600055565b6001600055565b828054612d7890613442565b90600052602060002090601f016020900481019282612d9a5760008555612de0565b82601f10612db357805160ff1916838001178555612de0565b82800160010185558215612de0579182015b82811115612de0578251825591602001919060010190612dc5565b50612dec929150612df0565b5090565b5b80821115612dec5760008155600101612df1565b80356001600160a01b03811681146110c557600080fd5b600082601f830112612e2c578081fd5b813567ffffffffffffffff80821115612e4757612e47613493565b604051601f8301601f191681016020018281118282101715612e6b57612e6b613493565b604052828152848301602001861015612e82578384fd5b82602086016020830137918201602001929092529392505050565b600060208284031215612eae578081fd5b612eb782612e05565b9392505050565b60008060408385031215612ed0578081fd5b612ed983612e05565b946020939093013593505050565b600060208284031215612ef8578081fd5b81358015158114612eb7578182fd5b600080600060608486031215612f1b578081fd5b833567ffffffffffffffff811115612f31578182fd5b612f3d86828701612e1c565b9660208601359650604090950135949350505050565b600060208284031215612f64578081fd5b5035919050565b60008060408385031215612f7d578182fd5b82359150602083013567ffffffffffffffff811115612f9a578182fd5b612fa685828601612e1c565b9150509250929050565b60008060408385031215612fc2578182fd5b50508035926020909101359150565b15159052565b60048110612ff557634e487b7160e01b600052602160045260246000fd5b9052565b90565b6001600160a01b0391909116815260200190565b6020808252825182820181905260009190848201906040850190845b818110156130485783518352928401929184019160010161302c565b50909695505050505050565b901515815260200190565b6020808252601490820152732330b4b632b2103a379039b2b7321022ba3432b960611b604082015260600190565b60208082526027908201527f207468652070726f6a656374206973206e6f7420636f6d706c657465642077616040820152666974206d6f726560c81b606082015260800190565b60208082526015908201527420796f752073686f756c642077616974206d6f726560581b604082015260600190565b6020808252602f908201527f496e76616c69642070726f6a656374204944206f72207468652070726f6a656360408201526e74206973206e6f742061637469766560881b606082015260800190565b6020808252601c908201527f4475726174696f6e206d757374206265206d6f7265207468616e203000000000604082015260600190565b6020808252601c908201527f796f757220636c69656e74206973206e6f742073617469736669656400000000604082015260600190565b60208082526018908201527f796f75722070656f6a656374206973206e6f7420646f6e650000000000000000604082015260600190565b6020808252601b908201527f506c6561736520496e63726561736520796f7572206372656469740000000000604082015260600190565b60208082526010908201526f1ddc9bdb99c81c1c9bda9958dd08125160821b604082015260600190565b60208082526015908201527450726f6a65637420697320416374697665206e6f7760581b604082015260600190565b6020808252601f908201527f5265656e7472616e637947756172643a207265656e7472616e742063616c6c00604082015260600190565b6020808252601d908201527f636f6e6669726d6174696f6e206973206e6f7420636f6d706c65746564000000604082015260600190565b90815260200190565b60006101608d8352602060018060a01b03808f1682860152808e166040860152508160608501528b5180838601528392505b8083101561334f578c8301820151858401610180015291810191613330565b80831115613361578361018082870101525b610180601f19601f83011686010193505050508860808301528760a08301528660c08301528560e083015261339a610100830186612fd1565b6133a8610120830185612fd1565b6133b6610140830184612fd7565b9c9b505050505050505050505050565b918252602082015260400190565b600082198211156133e7576133e761347d565b500190565b60008261340757634e487b7160e01b81526012600452602481fd5b500490565b60008160001904831182151516156134265761342661347d565b500290565b60008282101561343d5761343d61347d565b500390565b60028104600182168061345657607f821691505b6020821081141561347757634e487b7160e01b600052602260045260246000fd5b50919050565b634e487b7160e01b600052601160045260246000fd5b634e487b7160e01b600052604160045260246000fdfea2646970667358221220260102965326b846945b0892af0a4f6e1a3bc98b568337e07fc00c76f897152d64736f6c63430008000033","bytecodeSha1":"1e36ac1037fe3991e8ef959caa78ccaac0e0cf03","compiler":{"evm_version":"istanbul","optimizer":{"enabled":true,"runs":200},"version":"0.8.0+commit.c7dfd78e"},"contractName":"WorkChain","language":"Solidity","natspec":{"kind":"dev","methods":{},"version":1},"opcodes":"PUSH1 0x80 PUSH1 0x40 MSTORE PUSH1 0x4 CALLDATASIZE LT PUSH2 0x1D8 JUMPI PUSH1 0x0 CALLDATALOAD PUSH1 0xE0 SHR DUP1 PUSH4 0x7022B58E GT PUSH2 0x102 JUMPI DUP1 PUSH4 0xDC048CF2 GT PUSH2 0x95 JUMPI DUP1 PUSH4 0xF0F3F2C8 GT PUSH2 0x64 JUMPI DUP1 PUSH4 0xF0F3F2C8 EQ PUSH2 0x53C JUMPI DUP1 PUSH4 0xF3A6AC5F EQ PUSH2 0x55C JUMPI DUP1 PUSH4 0xFD1D5EA9 EQ PUSH2 0x56F JUMPI DUP1 PUSH4 0xFE5FF468 EQ PUSH2 0x582 JUMPI PUSH2 0x1D8 JUMP JUMPDEST DUP1 PUSH4 0xDC048CF2 EQ PUSH2 0x4BC JUMPI DUP1 PUSH4 0xE1E96C9B EQ PUSH2 0x4DC JUMPI DUP1 PUSH4 0xE443FB90 EQ PUSH2 0x4FC JUMPI DUP1 PUSH4 0xEB4C8126 EQ PUSH2 0x51C JUMPI PUSH2 0x1D8 JUMP JUMPDEST DUP1 PUSH4 0xAC7BA18E GT PUSH2 0xD1 JUMPI DUP1 PUSH4 0xAC7BA18E EQ PUSH2 0x43C JUMPI DUP1 PUSH4 0xB9020041 EQ PUSH2 0x45C JUMPI DUP1 PUSH4 0xBEDB86FB EQ PUSH2 0x47C JUMPI DUP1 PUSH4 0xCDDF6B27 EQ PUSH2 0x49C JUMPI PUSH2 0x1D8 JUMP JUMPDEST DUP1 PUSH4 0x7022B58E EQ PUSH2 0x3C5 JUMPI DUP1 PUSH4 0x73688914 EQ PUSH2 0x3DA JUMPI DUP1 PUSH4 0x81373720 EQ PUSH2 0x3EF JUMPI DUP1 PUSH4 0x88685CD9 EQ PUSH2 0x41C JUMPI PUSH2 0x1D8 JUMP JUMPDEST DUP1 PUSH4 0x2ADE136C GT PUSH2 0x17A JUMPI DUP1 PUSH4 0x52709725 GT PUSH2 0x149 JUMPI DUP1 PUSH4 0x52709725 EQ PUSH2 0x34E JUMPI DUP1 PUSH4 0x555B392D EQ PUSH2 0x370 JUMPI DUP1 PUSH4 0x61D027B3 EQ PUSH2 0x390 JUMPI DUP1 PUSH4 0x6CFBEC81 EQ PUSH2 0x3A5 JUMPI PUSH2 0x1D8 JUMP JUMPDEST DUP1 PUSH4 0x2ADE136C EQ PUSH2 0x2E4 JUMPI DUP1 PUSH4 0x3B19E84A EQ PUSH2 0x304 JUMPI DUP1 PUSH4 0x3FF31B48 EQ PUSH2 0x319 JUMPI DUP1 PUSH4 0x4E69D560 EQ PUSH2 0x339 JUMPI PUSH2 0x1D8 JUMP JUMPDEST DUP1 PUSH4 0x200D2ED2 GT PUSH2 0x1B6 JUMPI DUP1 PUSH4 0x200D2ED2 EQ PUSH2 0x255 JUMPI DUP1 PUSH4 0x20D9E36A EQ PUSH2 0x277 JUMPI DUP1 PUSH4 0x24941147 EQ PUSH2 0x297 JUMPI DUP1 PUSH4 0x264ED709 EQ PUSH2 0x2B7 JUMPI PUSH2 0x1D8 JUMP JUMPDEST DUP1 PUSH4 0xA5403EF EQ PUSH2 0x1DD JUMPI DUP1 PUSH4 0x107046BD EQ PUSH2 0x214 JUMPI DUP1 PUSH4 0x166BAB95 EQ PUSH2 0x24B JUMPI JUMPDEST PUSH1 0x0 DUP1 REVERT JUMPDEST CALLVALUE DUP1 ISZERO PUSH2 0x1E9 JUMPI PUSH1 0x0 DUP1 REVERT JUMPDEST POP PUSH2 0x1FD PUSH2 0x1F8 CALLDATASIZE PUSH1 0x4 PUSH2 0x2E9D JUMP JUMPDEST PUSH2 0x5A2 JUMP JUMPDEST PUSH1 0x40 MLOAD PUSH2 0x20B SWAP3 SWAP2 SWAP1 PUSH2 0x33C6 JUMP JUMPDEST PUSH1 0x40 MLOAD DUP1 SWAP2 SUB SWAP1 RETURN JUMPDEST CALLVALUE DUP1 ISZERO PUSH2 0x220 JUMPI PUSH1 0x0 DUP1 REVERT JUMPDEST POP PUSH2 0x234 PUSH2 0x22F CALLDATASIZE PUSH1 0x4 PUSH2 0x2F53 JUMP JUMPDEST PUSH2 0x5CA JUMP JUMPDEST PUSH1 0x40 MLOAD PUSH2 0x20B SWAP12 SWAP11 SWAP10 SWAP9 SWAP8 SWAP7 SWAP6 SWAP5 SWAP4 SWAP3 SWAP2 SWAP1 PUSH2 0x32FE JUMP JUMPDEST PUSH2 0x253 PUSH2 0x6D1 JUMP JUMPDEST STOP JUMPDEST CALLVALUE DUP1 ISZERO PUSH2 0x261 JUMPI PUSH1 0x0 DUP1 REVERT JUMPDEST POP PUSH2 0x26A PUSH2 0x7CD JUMP JUMPDEST PUSH1 0x40 MLOAD PUSH2 0x20B SWAP2 SWAP1 PUSH2 0x3054 JUMP JUMPDEST CALLVALUE DUP1 ISZERO PUSH2 0x283 JUMPI PUSH1 0x0 DUP1 REVERT JUMPDEST POP PUSH2 0x253 PUSH2 0x292 CALLDATASIZE PUSH1 0x4 PUSH2 0x2F53 JUMP JUMPDEST PUSH2 0x7DD JUMP JUMPDEST CALLVALUE DUP1 ISZERO PUSH2 0x2A3 JUMPI PUSH1 0x0 DUP1 REVERT JUMPDEST POP PUSH2 0x253 PUSH2 0x2B2 CALLDATASIZE PUSH1 0x4 PUSH2 0x2F53 JUMP JUMPDEST PUSH2 0x981 JUMP JUMPDEST CALLVALUE DUP1 ISZERO PUSH2 0x2C3 JUMPI PUSH1 0x0 DUP1 REVERT JUMPDEST POP PUSH2 0x2D7 PUSH2 0x2D2 CALLDATASIZE PUSH1 0x4 PUSH2 0x2E9D JUMP JUMPDEST PUSH2 0xB9A JUMP JUMPDEST PUSH1 0x40 MLOAD PUSH2 0x20B SWAP2 SWAP1 PUSH2 0x32F5 JUMP JUMPDEST CALLVALUE DUP1 ISZERO PUSH2 0x2F0 JUMPI PUSH1 0x0 DUP1 REVERT JUMPDEST POP PUSH2 0x1FD PUSH2 0x2FF CALLDATASIZE PUSH1 0x4 PUSH2 0x2E9D JUMP JUMPDEST PUSH2 0xBAC JUMP JUMPDEST CALLVALUE DUP1 ISZERO PUSH2 0x310 JUMPI PUSH1 0x0 DUP1 REVERT JUMPDEST POP PUSH2 0x2D7 PUSH2 0xBD4 JUMP JUMPDEST CALLVALUE DUP1 ISZERO PUSH2 0x325 JUMPI PUSH1 0x0 DUP1 REVERT JUMPDEST POP PUSH2 0x2D7 PUSH2 0x334 CALLDATASIZE PUSH1 0x4 PUSH2 0x2EBE JUMP JUMPDEST PUSH2 0xBDA JUMP JUMPDEST CALLVALUE DUP1 ISZERO PUSH2 0x345 JUMPI PUSH1 0x0 DUP1 REVERT JUMPDEST POP PUSH2 0x26A PUSH2 0xC0B JUMP JUMPDEST CALLVALUE DUP1 ISZERO PUSH2 0x35A JUMPI PUSH1 0x0 DUP1 REVERT JUMPDEST POP PUSH2 0x363 PUSH2 0xC1B JUMP JUMPDEST PUSH1 0x40 MLOAD PUSH2 0x20B SWAP2 SWAP1 PUSH2 0x2FFC JUMP JUMPDEST CALLVALUE DUP1 ISZERO PUSH2 0x37C JUMPI PUSH1 0x0 DUP1 REVERT JUMPDEST POP PUSH2 0x253 PUSH2 0x38B CALLDATASIZE PUSH1 0x4 PUSH2 0x2FB0 JUMP JUMPDEST PUSH2 0xC2A JUMP JUMPDEST CALLVALUE DUP1 ISZERO PUSH2 0x39C JUMPI PUSH1 0x0 DUP1 REVERT JUMPDEST POP PUSH2 0x2D7 PUSH2 0xFE4 JUMP JUMPDEST CALLVALUE DUP1 ISZERO PUSH2 0x3B1 JUMPI PUSH1 0x0 DUP1 REVERT JUMPDEST POP PUSH2 0x2D7 PUSH2 0x3C0 CALLDATASIZE PUSH1 0x4 PUSH2 0x2EBE JUMP JUMPDEST PUSH2 0xFEA JUMP JUMPDEST CALLVALUE DUP1 ISZERO PUSH2 0x3D1 JUMPI PUSH1 0x0 DUP1 REVERT JUMPDEST POP PUSH2 0x253 PUSH2 0x1006 JUMP JUMPDEST CALLVALUE DUP1 ISZERO PUSH2 0x3E6 JUMPI PUSH1 0x0 DUP1 REVERT JUMPDEST POP PUSH2 0x363 PUSH2 0x104E JUMP JUMPDEST CALLVALUE DUP1 ISZERO PUSH2 0x3FB JUMPI PUSH1 0x0 DUP1 REVERT JUMPDEST POP PUSH2 0x40F PUSH2 0x40A CALLDATASIZE PUSH1 0x4 PUSH2 0x2E9D JUMP JUMPDEST PUSH2 0x105D JUMP JUMPDEST PUSH1 0x40 MLOAD PUSH2 0x20B SWAP2 SWAP1 PUSH2 0x3010 JUMP JUMPDEST CALLVALUE DUP1 ISZERO PUSH2 0x428 JUMPI PUSH1 0x0 DUP1 REVERT JUMPDEST POP PUSH2 0x253 PUSH2 0x437 CALLDATASIZE PUSH1 0x4 PUSH2 0x2F53 JUMP JUMPDEST PUSH2 0x10CA JUMP JUMPDEST CALLVALUE DUP1 ISZERO PUSH2 0x448 JUMPI PUSH1 0x0 DUP1 REVERT JUMPDEST POP PUSH2 0x253 PUSH2 0x457 CALLDATASIZE PUSH1 0x4 PUSH2 0x2F53 JUMP JUMPDEST PUSH2 0x1953 JUMP JUMPDEST CALLVALUE DUP1 ISZERO PUSH2 0x468 JUMPI PUSH1 0x0 DUP1 REVERT JUMPDEST POP PUSH2 0x2D7 PUSH2 0x477 CALLDATASIZE PUSH1 0x4 PUSH2 0x2E9D JUMP JUMPDEST PUSH2 0x1A0E JUMP JUMPDEST CALLVALUE DUP1 ISZERO PUSH2 0x488 JUMPI PUSH1 0x0 DUP1 REVERT JUMPDEST POP PUSH2 0x253 PUSH2 0x497 CALLDATASIZE PUSH1 0x4 PUSH2 0x2EE7 JUMP JUMPDEST PUSH2 0x1A20 JUMP JUMPDEST CALLVALUE DUP1 ISZERO PUSH2 0x4A8 JUMPI PUSH1 0x0 DUP1 REVERT JUMPDEST POP PUSH2 0x253 PUSH2 0x4B7 CALLDATASIZE PUSH1 0x4 PUSH2 0x2F53 JUMP JUMPDEST PUSH2 0x1B01 JUMP JUMPDEST CALLVALUE DUP1 ISZERO PUSH2 0x4C8 JUMPI PUSH1 0x0 DUP1 REVERT JUMPDEST POP PUSH2 0x253 PUSH2 0x4D7 CALLDATASIZE PUSH1 0x4 PUSH2 0x2F6B JUMP JUMPDEST PUSH2 0x1BCA JUMP JUMPDEST CALLVALUE DUP1 ISZERO PUSH2 0x4E8 JUMPI PUSH1 0x0 DUP1 REVERT JUMPDEST POP PUSH2 0x253 PUSH2 0x4F7 CALLDATASIZE PUSH1 0x4 PUSH2 0x2F53 JUMP JUMPDEST PUSH2 0x1D84 JUMP JUMPDEST CALLVALUE DUP1 ISZERO PUSH2 0x508 JUMPI PUSH1 0x0 DUP1 REVERT JUMPDEST POP PUSH2 0x40F PUSH2 0x517 CALLDATASIZE PUSH1 0x4 PUSH2 0x2E9D JUMP JUMPDEST PUSH2 0x1F14 JUMP JUMPDEST CALLVALUE DUP1 ISZERO PUSH2 0x528 JUMPI PUSH1 0x0 DUP1 REVERT JUMPDEST POP PUSH2 0x253 PUSH2 0x537 CALLDATASIZE PUSH1 0x4 PUSH2 0x2F53 JUMP JUMPDEST PUSH2 0x1F7E JUMP JUMPDEST CALLVALUE DUP1 ISZERO PUSH2 0x548 JUMPI PUSH1 0x0 DUP1 REVERT JUMPDEST POP PUSH2 0x234 PUSH2 0x557 CALLDATASIZE PUSH1 0x4 PUSH2 0x2F53 JUMP JUMPDEST PUSH2 0x2069 JUMP JUMPDEST PUSH2 0x253 PUSH2 0x56A CALLDATASIZE PUSH1 0x4 PUSH2 0x2F07 JUMP JUMPDEST PUSH2 0x23F1 JUMP JUMPDEST PUSH2 0x253 PUSH2 0x57D CALLDATASIZE PUSH1 0x4 PUSH2 0x2F53 JUMP JUMPDEST PUSH2 0x29F1 JUMP JUMPDEST CALLVALUE DUP1 ISZERO PUSH2 0x58E JUMPI PUSH1 0x0 DUP1 REVERT JUMPDEST POP PUSH2 0x2D7 PUSH2 0x59D CALLDATASIZE PUSH1 0x4 PUSH2 0x2E9D JUMP JUMPDEST PUSH2 0x2D29 JUMP JUMPDEST PUSH1 0x1 PUSH1 0x1 PUSH1 0xA0 SHL SUB AND PUSH1 0x0 SWAP1 DUP2 MSTORE PUSH1 0x4 PUSH1 0x20 SWAP1 DUP2 MSTORE PUSH1 0x40 DUP1 DUP4 KECCAK256 SLOAD PUSH1 0x5 SWAP1 SWAP3 MSTORE SWAP1 SWAP2 KECCAK256 SLOAD SWAP1 SWAP2 JUMP JUMPDEST PUSH1 0x1 DUP2 DUP2 SLOAD DUP2 LT PUSH2 0x5DA JUMPI PUSH1 0x0 DUP1 REVERT JUMPDEST PUSH1 0x0 SWAP2 DUP3 MSTORE PUSH1 0x20 SWAP1 SWAP2 KECCAK256 PUSH1 0x9 SWAP1 SWAP2 MUL ADD DUP1 SLOAD PUSH1 0x1 DUP3 ADD SLOAD PUSH1 0x2 DUP4 ADD SLOAD PUSH1 0x3 DUP5 ADD DUP1 SLOAD SWAP4 SWAP6 POP PUSH1 0x1 PUSH1 0x1 PUSH1 0xA0 SHL SUB SWAP3 DUP4 AND SWAP5 SWAP3 SWAP1 SWAP2 AND SWAP3 PUSH2 0x619 SWAP1 PUSH2 0x3442 JUMP JUMPDEST DUP1 PUSH1 0x1F ADD PUSH1 0x20 DUP1 SWAP2 DIV MUL PUSH1 0x20 ADD PUSH1 0x40 MLOAD SWAP1 DUP2 ADD PUSH1 0x40 MSTORE DUP1 SWAP3 SWAP2 SWAP1 DUP2 DUP2 MSTORE PUSH1 0x20 ADD DUP3 DUP1 SLOAD PUSH2 0x645 SWAP1 PUSH2 0x3442 JUMP JUMPDEST DUP1 ISZERO PUSH2 0x692 JUMPI DUP1 PUSH1 0x1F LT PUSH2 0x667 JUMPI PUSH2 0x100 DUP1 DUP4 SLOAD DIV MUL DUP4 MSTORE SWAP2 PUSH1 0x20 ADD SWAP2 PUSH2 0x692 JUMP JUMPDEST DUP3 ADD SWAP2 SWAP1 PUSH1 0x0 MSTORE PUSH1 0x20 PUSH1 0x0 KECCAK256 SWAP1 JUMPDEST DUP2 SLOAD DUP2 MSTORE SWAP1 PUSH1 0x1 ADD SWAP1 PUSH1 0x20 ADD DUP1 DUP4 GT PUSH2 0x675 JUMPI DUP3 SWAP1 SUB PUSH1 0x1F AND DUP3 ADD SWAP2 JUMPDEST POP POP POP PUSH1 0x4 DUP5 ADD SLOAD PUSH1 0x5 DUP6 ADD SLOAD PUSH1 0x6 DUP7 ADD SLOAD PUSH1 0x7 DUP8 ADD SLOAD PUSH1 0x8 SWAP1 SWAP8 ADD SLOAD SWAP6 SWAP7 SWAP3 SWAP6 SWAP2 SWAP5 POP SWAP3 POP PUSH1 0xFF DUP1 DUP3 AND SWAP2 PUSH2 0x100 DUP2 DIV DUP3 AND SWAP2 PUSH3 0x10000 SWAP1 SWAP2 DIV AND DUP12 JUMP JUMPDEST PUSH1 0xA SLOAD PUSH1 0x1 PUSH1 0x1 PUSH1 0xA0 SHL SUB AND CALLER EQ DUP1 PUSH2 0x6F4 JUMPI POP PUSH1 0xB SLOAD PUSH1 0x1 PUSH1 0x1 PUSH1 0xA0 SHL SUB AND CALLER EQ JUMPDEST PUSH2 0x6FD JUMPI PUSH1 0x0 DUP1 REVERT JUMPDEST PUSH2 0x705 PUSH2 0x2D3B JUMP JUMPDEST PUSH1 0xB SLOAD PUSH1 0x1 PUSH1 0x1 PUSH1 0xA0 SHL SUB AND PUSH1 0x0 SWAP1 DUP2 MSTORE PUSH1 0x8 PUSH1 0x20 MSTORE PUSH1 0x40 SWAP1 KECCAK256 SLOAD PUSH1 0xFF AND ISZERO ISZERO PUSH1 0x1 EQ PUSH2 0x731 JUMPI PUSH1 0x0 DUP1 REVERT JUMPDEST PUSH1 0xA SLOAD PUSH1 0x9 SLOAD PUSH1 0x40 MLOAD PUSH1 0x0 SWAP3 PUSH1 0x1 PUSH1 0x1 PUSH1 0xA0 SHL SUB AND SWAP2 SWAP1 PUSH2 0x751 SWAP1 PUSH2 0x2FF9 JUMP JUMPDEST PUSH1 0x0 PUSH1 0x40 MLOAD DUP1 DUP4 SUB DUP2 DUP6 DUP8 GAS CALL SWAP3 POP POP POP RETURNDATASIZE DUP1 PUSH1 0x0 DUP2 EQ PUSH2 0x78E JUMPI PUSH1 0x40 MLOAD SWAP2 POP PUSH1 0x1F NOT PUSH1 0x3F RETURNDATASIZE ADD AND DUP3 ADD PUSH1 0x40 MSTORE RETURNDATASIZE DUP3 MSTORE RETURNDATASIZE PUSH1 0x0 PUSH1 0x20 DUP5 ADD RETURNDATACOPY PUSH2 0x793 JUMP JUMPDEST PUSH1 0x60 SWAP2 POP JUMPDEST POP POP SWAP1 POP DUP1 PUSH2 0x7BD JUMPI PUSH1 0x40 MLOAD PUSH3 0x461BCD PUSH1 0xE5 SHL DUP2 MSTORE PUSH1 0x4 ADD PUSH2 0x7B4 SWAP1 PUSH2 0x305F JUMP JUMPDEST PUSH1 0x40 MLOAD DUP1 SWAP2 SUB SWAP1 REVERT JUMPDEST POP PUSH1 0x0 PUSH1 0x9 SSTORE PUSH2 0x7CB PUSH2 0x2D65 JUMP JUMPDEST JUMP JUMPDEST PUSH1 0xB SLOAD PUSH1 0x1 PUSH1 0xA0 SHL SWAP1 DIV PUSH1 0xFF AND DUP2 JUMP JUMPDEST DUP1 CALLER PUSH1 0x1 PUSH2 0x7EB DUP2 DUP5 PUSH2 0x342B JUMP JUMPDEST DUP2 SLOAD DUP2 LT PUSH2 0x809 JUMPI PUSH4 0x4E487B71 PUSH1 0xE0 SHL PUSH1 0x0 MSTORE PUSH1 0x32 PUSH1 0x4 MSTORE PUSH1 0x24 PUSH1 0x0 REVERT JUMPDEST PUSH1 0x0 SWAP2 DUP3 MSTORE PUSH1 0x20 SWAP1 SWAP2 KECCAK256 PUSH1 0x2 PUSH1 0x9 SWAP1 SWAP3 MUL ADD ADD SLOAD PUSH1 0x1 PUSH1 0x1 PUSH1 0xA0 SHL SUB AND EQ PUSH2 0x830 JUMPI PUSH1 0x0 DUP1 REVERT JUMPDEST PUSH1 0x2 PUSH1 0x1 PUSH2 0x83E DUP2 DUP6 PUSH2 0x342B JUMP JUMPDEST DUP2 SLOAD DUP2 LT PUSH2 0x85C JUMPI PUSH4 0x4E487B71 PUSH1 0xE0 SHL PUSH1 0x0 MSTORE PUSH1 0x32 PUSH1 0x4 MSTORE PUSH1 0x24 PUSH1 0x0 REVERT JUMPDEST SWAP1 PUSH1 0x0 MSTORE PUSH1 0x20 PUSH1 0x0 KECCAK256 SWAP1 PUSH1 0x9 MUL ADD PUSH1 0x8 ADD PUSH1 0x2 SWAP1 SLOAD SWAP1 PUSH2 0x100 EXP SWAP1 DIV PUSH1 0xFF AND PUSH1 0x3 DUP2 GT ISZERO PUSH2 0x89A JUMPI PUSH4 0x4E487B71 PUSH1 0xE0 SHL PUSH1 0x0 MSTORE PUSH1 0x21 PUSH1 0x4 MSTORE PUSH1 0x24 PUSH1 0x0 REVERT JUMPDEST EQ ISZERO PUSH2 0x8B8 JUMPI PUSH1 0x40 MLOAD PUSH3 0x461BCD PUSH1 0xE5 SHL DUP2 MSTORE PUSH1 0x4 ADD PUSH2 0x7B4 SWAP1 PUSH2 0x3189 JUMP JUMPDEST PUSH1 0x1 PUSH2 0x8C4 DUP2 DUP5 PUSH2 0x342B JUMP JUMPDEST DUP2 SLOAD DUP2 LT PUSH2 0x8E2 JUMPI PUSH4 0x4E487B71 PUSH1 0xE0 SHL PUSH1 0x0 MSTORE PUSH1 0x32 PUSH1 0x4 MSTORE PUSH1 0x24 PUSH1 0x0 REVERT JUMPDEST SWAP1 PUSH1 0x0 MSTORE PUSH1 0x20 PUSH1 0x0 KECCAK256 SWAP1 PUSH1 0x9 MUL ADD PUSH1 0x7 ADD SLOAD PUSH3 0x15180 PUSH2 0x902 SWAP2 SWAP1 PUSH2 0x33D4 JUMP JUMPDEST TIMESTAMP LT ISZERO PUSH2 0x90E JUMPI PUSH1 0x0 DUP1 REVERT JUMPDEST PUSH1 0x1 DUP1 PUSH2 0x91B DUP2 DUP6 PUSH2 0x342B JUMP JUMPDEST DUP2 SLOAD DUP2 LT PUSH2 0x939 JUMPI PUSH4 0x4E487B71 PUSH1 0xE0 SHL PUSH1 0x0 MSTORE PUSH1 0x32 PUSH1 0x4 MSTORE PUSH1 0x24 PUSH1 0x0 REVERT JUMPDEST PUSH1 0x0 SWAP2 DUP3 MSTORE PUSH1 0x20 SWAP1 SWAP2 KECCAK256 PUSH1 0x8 PUSH1 0x9 SWAP1 SWAP3 MUL ADD ADD DUP1 SLOAD PUSH3 0xFF0000 NOT AND PUSH3 0x10000 DUP4 PUSH1 0x3 DUP2 GT ISZERO PUSH2 0x978 JUMPI PUSH4 0x4E487B71 PUSH1 0xE0 SHL PUSH1 0x0 MSTORE PUSH1 0x21 PUSH1 0x4 MSTORE PUSH1 0x24 PUSH1 0x0 REVERT JUMPDEST MUL OR SWAP1 SSTORE POP POP POP JUMP JUMPDEST DUP1 CALLER PUSH1 0x1 PUSH2 0x98F DUP2 DUP5 PUSH2 0x342B JUMP JUMPDEST DUP2 SLOAD DUP2 LT PUSH2 0x9AD JUMPI PUSH4 0x4E487B71 PUSH1 0xE0 SHL PUSH1 0x0 MSTORE PUSH1 0x32 PUSH1 0x4 MSTORE PUSH1 0x24 PUSH1 0x0 REVERT JUMPDEST PUSH1 0x0 SWAP2 DUP3 MSTORE PUSH1 0x20 SWAP1 SWAP2 KECCAK256 PUSH1 0x1 PUSH1 0x9 SWAP1 SWAP3 MUL ADD ADD SLOAD PUSH1 0x1 PUSH1 0x1 PUSH1 0xA0 SHL SUB AND EQ PUSH2 0x9D4 JUMPI PUSH1 0x0 DUP1 REVERT JUMPDEST PUSH1 0x1 PUSH2 0x9E0 DUP2 DUP5 PUSH2 0x342B JUMP JUMPDEST DUP2 SLOAD DUP2 LT PUSH2 0x9FE JUMPI PUSH4 0x4E487B71 PUSH1 0xE0 SHL PUSH1 0x0 MSTORE PUSH1 0x32 PUSH1 0x4 MSTORE PUSH1 0x24 PUSH1 0x0 REVERT JUMPDEST PUSH1 0x0 SWAP2 DUP3 MSTORE PUSH1 0x20 SWAP1 SWAP2 KECCAK256 PUSH1 0x8 PUSH1 0x9 SWAP1 SWAP3 MUL ADD ADD SLOAD PUSH1 0xFF AND ISZERO ISZERO PUSH1 0x1 EQ PUSH2 0xA23 JUMPI PUSH1 0x0 DUP1 REVERT JUMPDEST PUSH1 0x0 PUSH1 0x1 PUSH2 0xA31 DUP2 DUP6 PUSH2 0x342B JUMP JUMPDEST DUP2 SLOAD DUP2 LT PUSH2 0xA4F JUMPI PUSH4 0x4E487B71 PUSH1 0xE0 SHL PUSH1 0x0 MSTORE PUSH1 0x32 PUSH1 0x4 MSTORE PUSH1 0x24 PUSH1 0x0 REVERT JUMPDEST PUSH1 0x0 SWAP2 DUP3 MSTORE PUSH1 0x20 DUP3 KECCAK256 PUSH1 0x9 SWAP2 SWAP1 SWAP2 MUL ADD PUSH1 0x8 ADD DUP1 SLOAD PUSH1 0xFF NOT AND SWAP3 ISZERO ISZERO SWAP3 SWAP1 SWAP3 OR SWAP1 SWAP2 SSTORE PUSH1 0x1 PUSH2 0xA7E DUP2 DUP6 PUSH2 0x342B JUMP JUMPDEST DUP2 SLOAD DUP2 LT PUSH2 0xA9C JUMPI PUSH4 0x4E487B71 PUSH1 0xE0 SHL PUSH1 0x0 MSTORE PUSH1 0x32 PUSH1 0x4 MSTORE PUSH1 0x24 PUSH1 0x0 REVERT JUMPDEST SWAP1 PUSH1 0x0 MSTORE PUSH1 0x20 PUSH1 0x0 KECCAK256 SWAP1 PUSH1 0x9 MUL ADD PUSH1 0x4 ADD SLOAD SWAP1 POP DUP1 PUSH1 0x5 PUSH1 0x0 PUSH1 0x1 DUP1 DUP8 PUSH2 0xAC3 SWAP2 SWAP1 PUSH2 0x342B JUMP JUMPDEST DUP2 SLOAD DUP2 LT PUSH2 0xAE1 JUMPI PUSH4 0x4E487B71 PUSH1 0xE0 SHL PUSH1 0x0 MSTORE PUSH1 0x32 PUSH1 0x4 MSTORE PUSH1 0x24 PUSH1 0x0 REVERT JUMPDEST PUSH1 0x0 SWAP2 DUP3 MSTORE PUSH1 0x20 DUP1 DUP4 KECCAK256 PUSH1 0x1 PUSH1 0x9 SWAP1 SWAP4 MUL ADD SWAP2 SWAP1 SWAP2 ADD SLOAD PUSH1 0x1 PUSH1 0x1 PUSH1 0xA0 SHL SUB AND DUP4 MSTORE DUP3 ADD SWAP3 SWAP1 SWAP3 MSTORE PUSH1 0x40 ADD DUP2 KECCAK256 DUP1 SLOAD SWAP1 SWAP2 SWAP1 PUSH2 0xB1E SWAP1 DUP5 SWAP1 PUSH2 0x342B JUMP JUMPDEST SWAP1 SWAP2 SSTORE POP DUP2 SWAP1 POP PUSH1 0x4 PUSH1 0x0 PUSH1 0x1 PUSH2 0xB35 DUP2 DUP9 PUSH2 0x342B JUMP JUMPDEST DUP2 SLOAD DUP2 LT PUSH2 0xB53 JUMPI PUSH4 0x4E487B71 PUSH1 0xE0 SHL PUSH1 0x0 MSTORE PUSH1 0x32 PUSH1 0x4 MSTORE PUSH1 0x24 PUSH1 0x0 REVERT JUMPDEST PUSH1 0x0 SWAP2 DUP3 MSTORE PUSH1 0x20 DUP1 DUP4 KECCAK256 PUSH1 0x1 PUSH1 0x9 SWAP1 SWAP4 MUL ADD SWAP2 SWAP1 SWAP2 ADD SLOAD PUSH1 0x1 PUSH1 0x1 PUSH1 0xA0 SHL SUB AND DUP4 MSTORE DUP3 ADD SWAP3 SWAP1 SWAP3 MSTORE PUSH1 0x40 ADD DUP2 KECCAK256 DUP1 SLOAD SWAP1 SWAP2 SWAP1 PUSH2 0xB90 SWAP1 DUP5 SWAP1 PUSH2 0x33D4 JUMP JUMPDEST SWAP1 SWAP2 SSTORE POP POP POP POP POP JUMP JUMPDEST PUSH1 0x7 PUSH1 0x20 MSTORE PUSH1 0x0 SWAP1 DUP2 MSTORE PUSH1 0x40 SWAP1 KECCAK256 SLOAD DUP2 JUMP JUMPDEST PUSH1 0x1 PUSH1 0x1 PUSH1 0xA0 SHL SUB AND PUSH1 0x0 SWAP1 DUP2 MSTORE PUSH1 0x6 PUSH1 0x20 SWAP1 DUP2 MSTORE PUSH1 0x40 DUP1 DUP4 KECCAK256 SLOAD PUSH1 0x7 SWAP1 SWAP3 MSTORE SWAP1 SWAP2 KECCAK256 SLOAD SWAP1 SWAP2 JUMP JUMPDEST PUSH1 0x9 SLOAD SWAP1 JUMP JUMPDEST PUSH1 0x3 PUSH1 0x20 MSTORE DUP2 PUSH1 0x0 MSTORE PUSH1 0x40 PUSH1 0x0 KECCAK256 DUP2 DUP2 SLOAD DUP2 LT PUSH2 0xBF6 JUMPI PUSH1 0x0 DUP1 REVERT JUMPDEST SWAP1 PUSH1 0x0 MSTORE PUSH1 0x20 PUSH1 0x0 KECCAK256 ADD PUSH1 0x0 SWAP2 POP SWAP2 POP POP SLOAD DUP2 JUMP JUMPDEST PUSH1 0xB SLOAD PUSH1 0x1 PUSH1 0xA0 SHL SWAP1 DIV PUSH1 0xFF AND SWAP1 JUMP JUMPDEST PUSH1 0xB SLOAD PUSH1 0x1 PUSH1 0x1 PUSH1 0xA0 SHL SUB AND DUP2 JUMP JUMPDEST PUSH1 0xA SLOAD PUSH1 0x1 PUSH1 0x1 PUSH1 0xA0 SHL SUB AND CALLER EQ DUP1 PUSH2 0xC4D JUMPI POP PUSH1 0xB SLOAD PUSH1 0x1 PUSH1 0x1 PUSH1 0xA0 SHL SUB AND CALLER EQ JUMPDEST PUSH2 0xC56 JUMPI PUSH1 0x0 DUP1 REVERT JUMPDEST PUSH1 0x46 DUP2 GT ISZERO PUSH2 0xC64 JUMPI PUSH1 0x0 DUP1 REVERT JUMPDEST PUSH1 0x3 PUSH1 0x1 PUSH2 0xC72 DUP2 DUP6 PUSH2 0x342B JUMP JUMPDEST DUP2 SLOAD DUP2 LT PUSH2 0xC90 JUMPI PUSH4 0x4E487B71 PUSH1 0xE0 SHL PUSH1 0x0 MSTORE PUSH1 0x32 PUSH1 0x4 MSTORE PUSH1 0x24 PUSH1 0x0 REVERT JUMPDEST SWAP1 PUSH1 0x0 MSTORE PUSH1 0x20 PUSH1 0x0 KECCAK256 SWAP1 PUSH1 0x9 MUL ADD PUSH1 0x8 ADD PUSH1 0x2 SWAP1 SLOAD SWAP1 PUSH2 0x100 EXP SWAP1 DIV PUSH1 0xFF AND PUSH1 0x3 DUP2 GT ISZERO PUSH2 0xCCE JUMPI PUSH4 0x4E487B71 PUSH1 0xE0 SHL PUSH1 0x0 MSTORE PUSH1 0x21 PUSH1 0x4 MSTORE PUSH1 0x24 PUSH1 0x0 REVERT JUMPDEST EQ PUSH2 0xCD8 JUMPI PUSH1 0x0 DUP1 REVERT JUMPDEST PUSH1 0x1 DUP1 PUSH2 0xCE5 DUP2 DUP6 PUSH2 0x342B JUMP JUMPDEST DUP2 SLOAD DUP2 LT PUSH2 0xD03 JUMPI PUSH4 0x4E487B71 PUSH1 0xE0 SHL PUSH1 0x0 MSTORE PUSH1 0x32 PUSH1 0x4 MSTORE PUSH1 0x24 PUSH1 0x0 REVERT JUMPDEST PUSH1 0x0 SWAP2 DUP3 MSTORE PUSH1 0x20 SWAP1 SWAP2 KECCAK256 PUSH1 0x8 PUSH1 0x9 SWAP1 SWAP3 MUL ADD ADD DUP1 SLOAD PUSH3 0xFF0000 NOT AND PUSH3 0x10000 DUP4 PUSH1 0x3 DUP2 GT ISZERO PUSH2 0xD42 JUMPI PUSH4 0x4E487B71 PUSH1 0xE0 SHL PUSH1 0x0 MSTORE PUSH1 0x21 PUSH1 0x4 MSTORE PUSH1 0x24 PUSH1 0x0 REVERT JUMPDEST MUL OR SWAP1 SSTORE POP PUSH1 0x0 PUSH1 0x1 PUSH2 0xD55 DUP2 DUP6 PUSH2 0x342B JUMP JUMPDEST DUP2 SLOAD DUP2 LT PUSH2 0xD73 JUMPI PUSH4 0x4E487B71 PUSH1 0xE0 SHL PUSH1 0x0 MSTORE PUSH1 0x32 PUSH1 0x4 MSTORE PUSH1 0x24 PUSH1 0x0 REVERT JUMPDEST SWAP1 PUSH1 0x0 MSTORE PUSH1 0x20 PUSH1 0x0 KECCAK256 SWAP1 PUSH1 0x9 MUL ADD PUSH1 0x4 ADD SLOAD SWAP1 POP DUP1 PUSH1 0x5 PUSH1 0x0 PUSH1 0x1 DUP1 DUP8 PUSH2 0xD9A SWAP2 SWAP1 PUSH2 0x342B JUMP JUMPDEST DUP2 SLOAD DUP2 LT PUSH2 0xDB8 JUMPI PUSH4 0x4E487B71 PUSH1 0xE0 SHL PUSH1 0x0 MSTORE PUSH1 0x32 PUSH1 0x4 MSTORE PUSH1 0x24 PUSH1 0x0 REVERT JUMPDEST PUSH1 0x0 SWAP2 DUP3 MSTORE PUSH1 0x20 DUP1 DUP4 KECCAK256 PUSH1 0x1 PUSH1 0x9 SWAP1 SWAP4 MUL ADD SWAP2 SWAP1 SWAP2 ADD SLOAD PUSH1 0x1 PUSH1 0x1 PUSH1 0xA0 SHL SUB AND DUP4 MSTORE DUP3 ADD SWAP3 SWAP1 SWAP3 MSTORE PUSH1 0x40 ADD DUP2 KECCAK256 DUP1 SLOAD SWAP1 SWAP2 SWAP1 PUSH2 0xDF5 SWAP1 DUP5 SWAP1 PUSH2 0x342B JUMP JUMPDEST SWAP1 SWAP2 SSTORE POP PUSH1 0x64 SWAP1 POP PUSH2 0xE07 DUP4 DUP4 PUSH2 0x340C JUMP JUMPDEST PUSH2 0xE11 SWAP2 SWAP1 PUSH2 0x33EC JUMP JUMPDEST PUSH1 0x4 PUSH1 0x0 PUSH1 0x1 PUSH2 0xE21 DUP2 DUP9 PUSH2 0x342B JUMP JUMPDEST DUP2 SLOAD DUP2 LT PUSH2 0xE3F JUMPI PUSH4 0x4E487B71 PUSH1 0xE0 SHL PUSH1 0x0 MSTORE PUSH1 0x32 PUSH1 0x4 MSTORE PUSH1 0x24 PUSH1 0x0 REVERT JUMPDEST PUSH1 0x0 SWAP2 DUP3 MSTORE PUSH1 0x20 DUP1 DUP4 KECCAK256 PUSH1 0x1 PUSH1 0x9 SWAP1 SWAP4 MUL ADD SWAP2 SWAP1 SWAP2 ADD SLOAD PUSH1 0x1 PUSH1 0x1 PUSH1 0xA0 SHL SUB AND DUP4 MSTORE DUP3 ADD SWAP3 SWAP1 SWAP3 MSTORE PUSH1 0x40 ADD DUP2 KECCAK256 DUP1 SLOAD SWAP1 SWAP2 SWAP1 PUSH2 0xE7C SWAP1 DUP5 SWAP1 PUSH2 0x33D4 JUMP JUMPDEST SWAP1 SWAP2 SSTORE POP PUSH1 0x64 SWAP1 POP PUSH2 0xE8F DUP3 PUSH1 0x14 PUSH2 0x340C JUMP JUMPDEST PUSH2 0xE99 SWAP2 SWAP1 PUSH2 0x33EC JUMP JUMPDEST PUSH1 0x7 PUSH1 0x0 PUSH1 0x1 PUSH2 0xEA9 DUP2 DUP9 PUSH2 0x342B JUMP JUMPDEST DUP2 SLOAD DUP2 LT PUSH2 0xEC7 JUMPI PUSH4 0x4E487B71 PUSH1 0xE0 SHL PUSH1 0x0 MSTORE PUSH1 0x32 PUSH1 0x4 MSTORE PUSH1 0x24 PUSH1 0x0 REVERT JUMPDEST PUSH1 0x0 SWAP2 DUP3 MSTORE PUSH1 0x20 DUP1 DUP4 KECCAK256 PUSH1 0x2 PUSH1 0x9 SWAP1 SWAP4 MUL ADD SWAP2 SWAP1 SWAP2 ADD SLOAD PUSH1 0x1 PUSH1 0x1 PUSH1 0xA0 SHL SUB AND DUP4 MSTORE DUP3 ADD SWAP3 SWAP1 SWAP3 MSTORE PUSH1 0x40 ADD DUP2 KECCAK256 DUP1 SLOAD SWAP1 SWAP2 SWAP1 PUSH2 0xF04 SWAP1 DUP5 SWAP1 PUSH2 0x342B JUMP JUMPDEST SWAP1 SWAP2 SSTORE POP PUSH1 0x64 SWAP1 POP PUSH1 0x1E PUSH2 0xF18 DUP5 DUP4 PUSH2 0x342B JUMP JUMPDEST PUSH2 0xF22 SWAP2 SWAP1 PUSH2 0x342B JUMP JUMPDEST PUSH2 0xF2C SWAP1 DUP4 PUSH2 0x340C JUMP JUMPDEST PUSH2 0xF37 DUP4 PUSH1 0x14 PUSH2 0x340C JUMP JUMPDEST PUSH2 0xF41 SWAP2 SWAP1 PUSH2 0x33D4 JUMP JUMPDEST PUSH2 0xF4B SWAP2 SWAP1 PUSH2 0x33EC JUMP JUMPDEST PUSH1 0x6 PUSH1 0x0 PUSH1 0x1 PUSH2 0xF5B DUP2 DUP9 PUSH2 0x342B JUMP JUMPDEST DUP2 SLOAD DUP2 LT PUSH2 0xF79 JUMPI PUSH4 0x4E487B71 PUSH1 0xE0 SHL PUSH1 0x0 MSTORE PUSH1 0x32 PUSH1 0x4 MSTORE PUSH1 0x24 PUSH1 0x0 REVERT JUMPDEST PUSH1 0x0 SWAP2 DUP3 MSTORE PUSH1 0x20 DUP1 DUP4 KECCAK256 PUSH1 0x2 PUSH1 0x9 SWAP1 SWAP4 MUL ADD SWAP2 SWAP1 SWAP2 ADD SLOAD PUSH1 0x1 PUSH1 0x1 PUSH1 0xA0 SHL SUB AND DUP4 MSTORE DUP3 ADD SWAP3 SWAP1 SWAP3 MSTORE PUSH1 0x40 ADD DUP2 KECCAK256 DUP1 SLOAD SWAP1 SWAP2 SWAP1 PUSH2 0xFB6 SWAP1 DUP5 SWAP1 PUSH2 0x33D4 JUMP JUMPDEST SWAP1 SWAP2 SSTORE POP PUSH1 0x64 SWAP1 POP PUSH2 0xFC9 DUP3 PUSH1 0x1E PUSH2 0x340C JUMP JUMPDEST PUSH2 0xFD3 SWAP2 SWAP1 PUSH2 0x33EC JUMP JUMPDEST PUSH1 0x9 PUSH1 0x0 DUP3 DUP3 SLOAD PUSH2 0xB90 SWAP2 SWAP1 PUSH2 0x33D4 JUMP JUMPDEST PUSH1 0x9 SLOAD DUP2 JUMP JUMPDEST PUSH1 0x2 PUSH1 0x20 MSTORE DUP2 PUSH1 0x0 MSTORE PUSH1 0x40 PUSH1 0x0 KECCAK256 DUP2 DUP2 SLOAD DUP2 LT PUSH2 0xBF6 JUMPI PUSH1 0x0 DUP1 REVERT JUMPDEST PUSH1 0xA SLOAD PUSH1 0x1 PUSH1 0x1 PUSH1 0xA0 SHL SUB AND CALLER EQ DUP1 PUSH2 0x1029 JUMPI POP PUSH1 0xB SLOAD PUSH1 0x1 PUSH1 0x1 PUSH1 0xA0 SHL SUB AND CALLER EQ JUMPDEST PUSH2 0x1032 JUMPI PUSH1 0x0 DUP1 REVERT JUMPDEST CALLER PUSH1 0x0 SWAP1 DUP2 MSTORE PUSH1 0x8 PUSH1 0x20 MSTORE PUSH1 0x40 SWAP1 KECCAK256 DUP1 SLOAD PUSH1 0xFF NOT AND PUSH1 0x1 OR SWAP1 SSTORE JUMP JUMPDEST PUSH1 0xA SLOAD PUSH1 0x1 PUSH1 0x1 PUSH1 0xA0 SHL SUB AND DUP2 JUMP JUMPDEST PUSH1 0x1 PUSH1 0x1 PUSH1 0xA0 SHL SUB DUP2 AND PUSH1 0x0 SWAP1 DUP2 MSTORE PUSH1 0x2 PUSH1 0x20 SWAP1 DUP2 MSTORE PUSH1 0x40 SWAP2 DUP3 SWAP1 KECCAK256 DUP1 SLOAD DUP4 MLOAD DUP2 DUP5 MUL DUP2 ADD DUP5 ADD SWAP1 SWAP5 MSTORE DUP1 DUP5 MSTORE PUSH1 0x60 SWAP4 SWAP3 DUP4 ADD DUP3 DUP3 DUP1 ISZERO PUSH2 0x10BD JUMPI PUSH1 0x20 MUL DUP3 ADD SWAP2 SWAP1 PUSH1 0x0 MSTORE PUSH1 0x20 PUSH1 0x0 KECCAK256 SWAP1 JUMPDEST DUP2 SLOAD DUP2 MSTORE PUSH1 0x20 ADD SWAP1 PUSH1 0x1 ADD SWAP1 DUP1 DUP4 GT PUSH2 0x10A9 JUMPI JUMPDEST POP POP POP POP POP SWAP1 POP JUMPDEST SWAP2 SWAP1 POP JUMP JUMPDEST DUP1 CALLER PUSH1 0x1 PUSH2 0x10D8 DUP2 DUP5 PUSH2 0x342B JUMP JUMPDEST DUP2 SLOAD DUP2 LT PUSH2 0x10F6 JUMPI PUSH4 0x4E487B71 PUSH1 0xE0 SHL PUSH1 0x0 MSTORE PUSH1 0x32 PUSH1 0x4 MSTORE PUSH1 0x24 PUSH1 0x0 REVERT JUMPDEST PUSH1 0x0 SWAP2 DUP3 MSTORE PUSH1 0x20 SWAP1 SWAP2 KECCAK256 PUSH1 0x2 PUSH1 0x9 SWAP1 SWAP3 MUL ADD ADD SLOAD PUSH1 0x1 PUSH1 0x1 PUSH1 0xA0 SHL SUB AND EQ PUSH2 0x111D JUMPI PUSH1 0x0 DUP1 REVERT JUMPDEST PUSH1 0x1 DUP1 PUSH2 0x112A DUP2 DUP6 PUSH2 0x342B JUMP JUMPDEST DUP2 SLOAD DUP2 LT PUSH2 0x1148 JUMPI PUSH4 0x4E487B71 PUSH1 0xE0 SHL PUSH1 0x0 MSTORE PUSH1 0x32 PUSH1 0x4 MSTORE PUSH1 0x24 PUSH1 0x0 REVERT JUMPDEST SWAP1 PUSH1 0x0 MSTORE PUSH1 0x20 PUSH1 0x0 KECCAK256 SWAP1 PUSH1 0x9 MUL ADD PUSH1 0x8 ADD PUSH1 0x2 SWAP1 SLOAD SWAP1 PUSH2 0x100 EXP SWAP1 DIV PUSH1 0xFF AND PUSH1 0x3 DUP2 GT ISZERO PUSH2 0x1186 JUMPI PUSH4 0x4E487B71 PUSH1 0xE0 SHL PUSH1 0x0 MSTORE PUSH1 0x21 PUSH1 0x4 MSTORE PUSH1 0x24 PUSH1 0x0 REVERT JUMPDEST EQ PUSH2 0x11A3 JUMPI PUSH1 0x40 MLOAD PUSH3 0x461BCD PUSH1 0xE5 SHL DUP2 MSTORE PUSH1 0x4 ADD PUSH2 0x7B4 SWAP1 PUSH2 0x30D4 JUMP JUMPDEST PUSH1 0x0 PUSH1 0x1 PUSH2 0x11B1 DUP2 DUP6 PUSH2 0x342B JUMP JUMPDEST DUP2 SLOAD DUP2 LT PUSH2 0x11CF JUMPI PUSH4 0x4E487B71 PUSH1 0xE0 SHL PUSH1 0x0 MSTORE PUSH1 0x32 PUSH1 0x4 MSTORE PUSH1 0x24 PUSH1 0x0 REVERT JUMPDEST SWAP1 PUSH1 0x0 MSTORE PUSH1 0x20 PUSH1 0x0 KECCAK256 SWAP1 PUSH1 0x9 MUL ADD PUSH1 0x4 ADD SLOAD SWAP1 POP PUSH1 0x1 DUP1 DUP5 PUSH2 0x11F1 SWAP2 SWAP1 PUSH2 0x342B JUMP JUMPDEST DUP2 SLOAD DUP2 LT PUSH2 0x120F JUMPI PUSH4 0x4E487B71 PUSH1 0xE0 SHL PUSH1 0x0 MSTORE PUSH1 0x32 PUSH1 0x4 MSTORE PUSH1 0x24 PUSH1 0x0 REVERT JUMPDEST SWAP1 PUSH1 0x0 MSTORE PUSH1 0x20 PUSH1 0x0 KECCAK256 SWAP1 PUSH1 0x9 MUL ADD PUSH1 0x6 ADD SLOAD PUSH1 0x1 DUP1 DUP6 PUSH2 0x122F SWAP2 SWAP1 PUSH2 0x342B JUMP JUMPDEST DUP2 SLOAD DUP2 LT PUSH2 0x124D JUMPI PUSH4 0x4E487B71 PUSH1 0xE0 SHL PUSH1 0x0 MSTORE PUSH1 0x32 PUSH1 0x4 MSTORE PUSH1 0x24 PUSH1 0x0 REVERT JUMPDEST SWAP1 PUSH1 0x0 MSTORE PUSH1 0x20 PUSH1 0x0 KECCAK256 SWAP1 PUSH1 0x9 MUL ADD PUSH1 0x7 ADD SLOAD GT PUSH2 0x142E JUMPI DUP1 PUSH1 0x5 PUSH1 0x0 PUSH1 0x1 PUSH2 0x1275 DUP2 DUP9 PUSH2 0x342B JUMP JUMPDEST DUP2 SLOAD DUP2 LT PUSH2 0x1293 JUMPI PUSH4 0x4E487B71 PUSH1 0xE0 SHL PUSH1 0x0 MSTORE PUSH1 0x32 PUSH1 0x4 MSTORE PUSH1 0x24 PUSH1 0x0 REVERT JUMPDEST PUSH1 0x0 SWAP2 DUP3 MSTORE PUSH1 0x20 DUP1 DUP4 KECCAK256 PUSH1 0x1 PUSH1 0x9 SWAP1 SWAP4 MUL ADD SWAP2 SWAP1 SWAP2 ADD SLOAD PUSH1 0x1 PUSH1 0x1 PUSH1 0xA0 SHL SUB AND DUP4 MSTORE DUP3 ADD SWAP3 SWAP1 SWAP3 MSTORE PUSH1 0x40 ADD DUP2 KECCAK256 DUP1 SLOAD SWAP1 SWAP2 SWAP1 PUSH2 0x12D0 SWAP1 DUP5 SWAP1 PUSH2 0x342B JUMP JUMPDEST SWAP1 SWAP2 SSTORE POP PUSH1 0x64 SWAP1 POP PUSH2 0x12E3 DUP3 PUSH1 0x14 PUSH2 0x340C JUMP JUMPDEST PUSH2 0x12ED SWAP2 SWAP1 PUSH2 0x33EC JUMP JUMPDEST PUSH1 0x7 PUSH1 0x0 PUSH1 0x1 PUSH2 0x12FD DUP2 DUP9 PUSH2 0x342B JUMP JUMPDEST DUP2 SLOAD DUP2 LT PUSH2 0x131B JUMPI PUSH4 0x4E487B71 PUSH1 0xE0 SHL PUSH1 0x0 MSTORE PUSH1 0x32 PUSH1 0x4 MSTORE PUSH1 0x24 PUSH1 0x0 REVERT JUMPDEST PUSH1 0x0 SWAP2 DUP3 MSTORE PUSH1 0x20 DUP1 DUP4 KECCAK256 PUSH1 0x2 PUSH1 0x9 SWAP1 SWAP4 MUL ADD SWAP2 SWAP1 SWAP2 ADD SLOAD PUSH1 0x1 PUSH1 0x1 PUSH1 0xA0 SHL SUB AND DUP4 MSTORE DUP3 ADD SWAP3 SWAP1 SWAP3 MSTORE PUSH1 0x40 ADD DUP2 KECCAK256 DUP1 SLOAD SWAP1 SWAP2 SWAP1 PUSH2 0x1358 SWAP1 DUP5 SWAP1 PUSH2 0x342B JUMP JUMPDEST SWAP1 SWAP2 SSTORE POP PUSH1 0x64 SWAP1 POP PUSH2 0x136B DUP3 PUSH1 0x5F PUSH2 0x340C JUMP JUMPDEST PUSH2 0x1376 DUP4 PUSH1 0x14 PUSH2 0x340C JUMP JUMPDEST PUSH2 0x1380 SWAP2 SWAP1 PUSH2 0x33D4 JUMP JUMPDEST PUSH2 0x138A SWAP2 SWAP1 PUSH2 0x33EC JUMP JUMPDEST PUSH1 0x6 PUSH1 0x0 PUSH1 0x1 PUSH2 0x139A DUP2 DUP9 PUSH2 0x342B JUMP JUMPDEST DUP2 SLOAD DUP2 LT PUSH2 0x13B8 JUMPI PUSH4 0x4E487B71 PUSH1 0xE0 SHL PUSH1 0x0 MSTORE PUSH1 0x32 PUSH1 0x4 MSTORE PUSH1 0x24 PUSH1 0x0 REVERT JUMPDEST PUSH1 0x0 SWAP2 DUP3 MSTORE PUSH1 0x20 DUP1 DUP4 KECCAK256 PUSH1 0x2 PUSH1 0x9 SWAP1 SWAP4 MUL ADD SWAP2 SWAP1 SWAP2 ADD SLOAD PUSH1 0x1 PUSH1 0x1 PUSH1 0xA0 SHL SUB AND DUP4 MSTORE DUP3 ADD SWAP3 SWAP1 SWAP3 MSTORE PUSH1 0x40 ADD DUP2 KECCAK256 DUP1 SLOAD SWAP1 SWAP2 SWAP1 PUSH2 0x13F5 SWAP1 DUP5 SWAP1 PUSH2 0x33D4 JUMP JUMPDEST SWAP1 SWAP2 SSTORE POP PUSH1 0x64 SWAP1 POP PUSH2 0x1408 DUP3 PUSH1 0x5 PUSH2 0x340C JUMP JUMPDEST PUSH2 0x1412 SWAP2 SWAP1 PUSH2 0x33EC JUMP JUMPDEST PUSH1 0x9 PUSH1 0x0 DUP3 DUP3 SLOAD PUSH2 0x1423 SWAP2 SWAP1 PUSH2 0x33D4 JUMP JUMPDEST SWAP1 SWAP2 SSTORE POP PUSH2 0x194E SWAP1 POP JUMP JUMPDEST PUSH1 0x64 PUSH1 0x1 PUSH2 0x143C DUP2 DUP7 PUSH2 0x342B JUMP JUMPDEST DUP2 SLOAD DUP2 LT PUSH2 0x145A JUMPI PUSH4 0x4E487B71 PUSH1 0xE0 SHL PUSH1 0x0 MSTORE PUSH1 0x32 PUSH1 0x4 MSTORE PUSH1 0x24 PUSH1 0x0 REVERT JUMPDEST SWAP1 PUSH1 0x0 MSTORE PUSH1 0x20 PUSH1 0x0 KECCAK256 SWAP1 PUSH1 0x9 MUL ADD PUSH1 0x5 ADD SLOAD PUSH1 0x14 PUSH2 0x1478 SWAP2 SWAP1 PUSH2 0x340C JUMP JUMPDEST PUSH2 0x1482 SWAP2 SWAP1 PUSH2 0x33EC JUMP JUMPDEST PUSH1 0x1 PUSH2 0x148E DUP2 DUP7 PUSH2 0x342B JUMP JUMPDEST DUP2 SLOAD DUP2 LT PUSH2 0x14AC JUMPI PUSH4 0x4E487B71 PUSH1 0xE0 SHL PUSH1 0x0 MSTORE PUSH1 0x32 PUSH1 0x4 MSTORE PUSH1 0x24 PUSH1 0x0 REVERT JUMPDEST SWAP1 PUSH1 0x0 MSTORE PUSH1 0x20 PUSH1 0x0 KECCAK256 SWAP1 PUSH1 0x9 MUL ADD PUSH1 0x6 ADD SLOAD PUSH1 0x1 DUP1 DUP7 PUSH2 0x14CC SWAP2 SWAP1 PUSH2 0x342B JUMP JUMPDEST DUP2 SLOAD DUP2 LT PUSH2 0x14EA JUMPI PUSH4 0x4E487B71 PUSH1 0xE0 SHL PUSH1 0x0 MSTORE PUSH1 0x32 PUSH1 0x4 MSTORE PUSH1 0x24 PUSH1 0x0 REVERT JUMPDEST SWAP1 PUSH1 0x0 MSTORE PUSH1 0x20 PUSH1 0x0 KECCAK256 SWAP1 PUSH1 0x9 MUL ADD PUSH1 0x7 ADD SLOAD PUSH2 0x1506 SWAP2 SWAP1 PUSH2 0x342B JUMP JUMPDEST GT PUSH2 0x1737 JUMPI DUP1 PUSH1 0x5 PUSH1 0x0 PUSH1 0x1 PUSH2 0x151C DUP2 DUP9 PUSH2 0x342B JUMP JUMPDEST DUP2 SLOAD DUP2 LT PUSH2 0x153A JUMPI PUSH4 0x4E487B71 PUSH1 0xE0 SHL PUSH1 0x0 MSTORE PUSH1 0x32 PUSH1 0x4 MSTORE PUSH1 0x24 PUSH1 0x0 REVERT JUMPDEST PUSH1 0x0 SWAP2 DUP3 MSTORE PUSH1 0x20 DUP1 DUP4 KECCAK256 PUSH1 0x1 PUSH1 0x9 SWAP1 SWAP4 MUL ADD SWAP2 SWAP1 SWAP2 ADD SLOAD PUSH1 0x1 PUSH1 0x1 PUSH1 0xA0 SHL SUB AND DUP4 MSTORE DUP3 ADD SWAP3 SWAP1 SWAP3 MSTORE PUSH1 0x40 ADD DUP2 KECCAK256 DUP1 SLOAD SWAP1 SWAP2 SWAP1 PUSH2 0x1577 SWAP1 DUP5 SWAP1 PUSH2 0x342B JUMP JUMPDEST SWAP1 SWAP2 SSTORE POP PUSH1 0x64 SWAP1 POP PUSH2 0x158A DUP3 PUSH1 0xA PUSH2 0x340C JUMP JUMPDEST PUSH2 0x1594 SWAP2 SWAP1 PUSH2 0x33EC JUMP JUMPDEST PUSH1 0x4 PUSH1 0x0 PUSH1 0x1 PUSH2 0x15A4 DUP2 DUP9 PUSH2 0x342B JUMP JUMPDEST DUP2 SLOAD DUP2 LT PUSH2 0x15C2 JUMPI PUSH4 0x4E487B71 PUSH1 0xE0 SHL PUSH1 0x0 MSTORE PUSH1 0x32 PUSH1 0x4 MSTORE PUSH1 0x24 PUSH1 0x0 REVERT JUMPDEST PUSH1 0x0 SWAP2 DUP3 MSTORE PUSH1 0x20 DUP1 DUP4 KECCAK256 PUSH1 0x1 PUSH1 0x9 SWAP1 SWAP4 MUL ADD SWAP2 SWAP1 SWAP2 ADD SLOAD PUSH1 0x1 PUSH1 0x1 PUSH1 0xA0 SHL SUB AND DUP4 MSTORE DUP3 ADD SWAP3 SWAP1 SWAP3 MSTORE PUSH1 0x40 ADD DUP2 KECCAK256 DUP1 SLOAD SWAP1 SWAP2 SWAP1 PUSH2 0x15FF SWAP1 DUP5 SWAP1 PUSH2 0x33D4 JUMP JUMPDEST SWAP1 SWAP2 SSTORE POP PUSH1 0x64 SWAP1 POP PUSH2 0x1612 DUP3 PUSH1 0x14 PUSH2 0x340C JUMP JUMPDEST PUSH2 0x161C SWAP2 SWAP1 PUSH2 0x33EC JUMP JUMPDEST PUSH1 0x7 PUSH1 0x0 PUSH1 0x1 PUSH2 0x162C DUP2 DUP9 PUSH2 0x342B JUMP JUMPDEST DUP2 SLOAD DUP2 LT PUSH2 0x164A JUMPI PUSH4 0x4E487B71 PUSH1 0xE0 SHL PUSH1 0x0 MSTORE PUSH1 0x32 PUSH1 0x4 MSTORE PUSH1 0x24 PUSH1 0x0 REVERT JUMPDEST PUSH1 0x0 SWAP2 DUP3 MSTORE PUSH1 0x20 DUP1 DUP4 KECCAK256 PUSH1 0x2 PUSH1 0x9 SWAP1 SWAP4 MUL ADD SWAP2 SWAP1 SWAP2 ADD SLOAD PUSH1 0x1 PUSH1 0x1 PUSH1 0xA0 SHL SUB AND DUP4 MSTORE DUP3 ADD SWAP3 SWAP1 SWAP3 MSTORE PUSH1 0x40 ADD DUP2 KECCAK256 DUP1 SLOAD SWAP1 SWAP2 SWAP1 PUSH2 0x1687 SWAP1 DUP5 SWAP1 PUSH2 0x342B JUMP JUMPDEST SWAP1 SWAP2 SSTORE POP PUSH1 0x64 SWAP1 POP PUSH2 0x169A DUP3 PUSH1 0x50 PUSH2 0x340C JUMP JUMPDEST PUSH2 0x16A5 DUP4 PUSH1 0x14 PUSH2 0x340C JUMP JUMPDEST PUSH2 0x16AF SWAP2 SWAP1 PUSH2 0x33D4 JUMP JUMPDEST PUSH2 0x16B9 SWAP2 SWAP1 PUSH2 0x33EC JUMP JUMPDEST PUSH1 0x6 PUSH1 0x0 PUSH1 0x1 PUSH2 0x16C9 DUP2 DUP9 PUSH2 0x342B JUMP JUMPDEST DUP2 SLOAD DUP2 LT PUSH2 0x16E7 JUMPI PUSH4 0x4E487B71 PUSH1 0xE0 SHL PUSH1 0x0 MSTORE PUSH1 0x32 PUSH1 0x4 MSTORE PUSH1 0x24 PUSH1 0x0 REVERT JUMPDEST PUSH1 0x0 SWAP2 DUP3 MSTORE PUSH1 0x20 DUP1 DUP4 KECCAK256 PUSH1 0x2 PUSH1 0x9 SWAP1 SWAP4 MUL ADD SWAP2 SWAP1 SWAP2 ADD SLOAD PUSH1 0x1 PUSH1 0x1 PUSH1 0xA0 SHL SUB AND DUP4 MSTORE DUP3 ADD SWAP3 SWAP1 SWAP3 MSTORE PUSH1 0x40 ADD DUP2 KECCAK256 DUP1 SLOAD SWAP1 SWAP2 SWAP1 PUSH2 0x1724 SWAP1 DUP5 SWAP1 PUSH2 0x33D4 JUMP JUMPDEST SWAP1 SWAP2 SSTORE POP PUSH1 0x64 SWAP1 POP PUSH2 0x1408 DUP3 PUSH1 0xA PUSH2 0x340C JUMP JUMPDEST DUP1 PUSH1 0x5 PUSH1 0x0 PUSH1 0x1 PUSH2 0x1748 DUP2 DUP9 PUSH2 0x342B JUMP JUMPDEST DUP2 SLOAD DUP2 LT PUSH2 0x1766 JUMPI PUSH4 0x4E487B71 PUSH1 0xE0 SHL PUSH1 0x0 MSTORE PUSH1 0x32 PUSH1 0x4 MSTORE PUSH1 0x24 PUSH1 0x0 REVERT JUMPDEST PUSH1 0x0 SWAP2 DUP3 MSTORE PUSH1 0x20 DUP1 DUP4 KECCAK256 PUSH1 0x1 PUSH1 0x9 SWAP1 SWAP4 MUL ADD SWAP2 SWAP1 SWAP2 ADD SLOAD PUSH1 0x1 PUSH1 0x1 PUSH1 0xA0 SHL SUB AND DUP4 MSTORE DUP3 ADD SWAP3 SWAP1 SWAP3 MSTORE PUSH1 0x40 ADD DUP2 KECCAK256 DUP1 SLOAD SWAP1 SWAP2 SWAP1 PUSH2 0x17A3 SWAP1 DUP5 SWAP1 PUSH2 0x342B JUMP JUMPDEST SWAP1 SWAP2 SSTORE POP PUSH1 0x64 SWAP1 POP PUSH2 0x17B6 DUP3 PUSH1 0x1E PUSH2 0x340C JUMP JUMPDEST PUSH2 0x17C0 SWAP2 SWAP1 PUSH2 0x33EC JUMP JUMPDEST PUSH1 0x4 PUSH1 0x0 PUSH1 0x1 PUSH2 0x17D0 DUP2 DUP9 PUSH2 0x342B JUMP JUMPDEST DUP2 SLOAD DUP2 LT PUSH2 0x17EE JUMPI PUSH4 0x4E487B71 PUSH1 0xE0 SHL PUSH1 0x0 MSTORE PUSH1 0x32 PUSH1 0x4 MSTORE PUSH1 0x24 PUSH1 0x0 REVERT JUMPDEST PUSH1 0x0 SWAP2 DUP3 MSTORE PUSH1 0x20 DUP1 DUP4 KECCAK256 PUSH1 0x1 PUSH1 0x9 SWAP1 SWAP4 MUL ADD SWAP2 SWAP1 SWAP2 ADD SLOAD PUSH1 0x1 PUSH1 0x1 PUSH1 0xA0 SHL SUB AND DUP4 MSTORE DUP3 ADD SWAP3 SWAP1 SWAP3 MSTORE PUSH1 0x40 ADD DUP2 KECCAK256 DUP1 SLOAD SWAP1 SWAP2 SWAP1 PUSH2 0x182B SWAP1 DUP5 SWAP1 PUSH2 0x33D4 JUMP JUMPDEST SWAP1 SWAP2 SSTORE POP PUSH1 0x64 SWAP1 POP PUSH2 0x183E DUP3 PUSH1 0x46 PUSH2 0x340C JUMP JUMPDEST PUSH2 0x1848 SWAP2 SWAP1 PUSH2 0x33EC JUMP JUMPDEST PUSH1 0x6 PUSH1 0x0 PUSH1 0x1 PUSH2 0x1858 DUP2 DUP9 PUSH2 0x342B JUMP JUMPDEST DUP2 SLOAD DUP2 LT PUSH2 0x1876 JUMPI PUSH4 0x4E487B71 PUSH1 0xE0 SHL PUSH1 0x0 MSTORE PUSH1 0x32 PUSH1 0x4 MSTORE PUSH1 0x24 PUSH1 0x0 REVERT JUMPDEST PUSH1 0x0 SWAP2 DUP3 MSTORE PUSH1 0x20 DUP1 DUP4 KECCAK256 PUSH1 0x2 PUSH1 0x9 SWAP1 SWAP4 MUL ADD SWAP2 SWAP1 SWAP2 ADD SLOAD PUSH1 0x1 PUSH1 0x1 PUSH1 0xA0 SHL SUB AND DUP4 MSTORE DUP3 ADD SWAP3 SWAP1 SWAP3 MSTORE PUSH1 0x40 ADD DUP2 KECCAK256 DUP1 SLOAD SWAP1 SWAP2 SWAP1 PUSH2 0x18B3 SWAP1 DUP5 SWAP1 PUSH2 0x33D4 JUMP JUMPDEST SWAP1 SWAP2 SSTORE POP PUSH1 0x64 SWAP1 POP PUSH2 0x18C6 DUP3 PUSH1 0x14 PUSH2 0x340C JUMP JUMPDEST PUSH2 0x18D0 SWAP2 SWAP1 PUSH2 0x33EC JUMP JUMPDEST PUSH1 0x7 PUSH1 0x0 PUSH1 0x1 PUSH2 0x18E0 DUP2 DUP9 PUSH2 0x342B JUMP JUMPDEST DUP2 SLOAD DUP2 LT PUSH2 0x18FE JUMPI PUSH4 0x4E487B71 PUSH1 0xE0 SHL PUSH1 0x0 MSTORE PUSH1 0x32 PUSH1 0x4 MSTORE PUSH1 0x24 PUSH1 0x0 REVERT JUMPDEST PUSH1 0x0 SWAP2 DUP3 MSTORE PUSH1 0x20 DUP1 DUP4 KECCAK256 PUSH1 0x2 PUSH1 0x9 SWAP1 SWAP4 MUL ADD SWAP2 SWAP1 SWAP2 ADD SLOAD PUSH1 0x1 PUSH1 0x1 PUSH1 0xA0 SHL SUB AND DUP4 MSTORE DUP3 ADD SWAP3 SWAP1 SWAP3 MSTORE PUSH1 0x40 ADD DUP2 KECCAK256 DUP1 SLOAD SWAP1 SWAP2 SWAP1 PUSH2 0x193B SWAP1 DUP5 SWAP1 PUSH2 0x342B JUMP JUMPDEST SWAP1 SWAP2 SSTORE POP PUSH1 0x64 SWAP1 POP PUSH2 0xFC9 DUP3 PUSH1 0x14 PUSH2 0x340C JUMP JUMPDEST POP POP POP JUMP JUMPDEST DUP1 CALLER PUSH1 0x1 PUSH2 0x1961 DUP2 DUP5 PUSH2 0x342B JUMP JUMPDEST DUP2 SLOAD DUP2 LT PUSH2 0x197F JUMPI PUSH4 0x4E487B71 PUSH1 0xE0 SHL PUSH1 0x0 MSTORE PUSH1 0x32 PUSH1 0x4 MSTORE PUSH1 0x24 PUSH1 0x0 REVERT JUMPDEST PUSH1 0x0 SWAP2 DUP3 MSTORE PUSH1 0x20 SWAP1 SWAP2 KECCAK256 PUSH1 0x1 PUSH1 0x9 SWAP1 SWAP3 MUL ADD ADD SLOAD PUSH1 0x1 PUSH1 0x1 PUSH1 0xA0 SHL SUB AND EQ PUSH2 0x19A6 JUMPI PUSH1 0x0 DUP1 REVERT JUMPDEST PUSH1 0x1 PUSH2 0x19B2 DUP2 DUP5 PUSH2 0x342B JUMP JUMPDEST DUP2 SLOAD DUP2 LT PUSH2 0x19D0 JUMPI PUSH4 0x4E487B71 PUSH1 0xE0 SHL PUSH1 0x0 MSTORE PUSH1 0x32 PUSH1 0x4 MSTORE PUSH1 0x24 PUSH1 0x0 REVERT JUMPDEST PUSH1 0x0 SWAP2 DUP3 MSTORE PUSH1 0x20 SWAP1 SWAP2 KECCAK256 PUSH1 0x8 PUSH1 0x9 SWAP1 SWAP3 MUL ADD ADD SLOAD PUSH1 0xFF PUSH2 0x100 SWAP1 SWAP2 DIV AND ISZERO ISZERO PUSH1 0x1 EQ PUSH2 0x90E JUMPI PUSH1 0x40 MLOAD PUSH3 0x461BCD PUSH1 0xE5 SHL DUP2 MSTORE PUSH1 0x4 ADD PUSH2 0x7B4 SWAP1 PUSH2 0x308D JUMP JUMPDEST PUSH1 0x5 PUSH1 0x20 MSTORE PUSH1 0x0 SWAP1 DUP2 MSTORE PUSH1 0x40 SWAP1 KECCAK256 SLOAD DUP2 JUMP JUMPDEST PUSH1 0xA SLOAD PUSH1 0x1 PUSH1 0x1 PUSH1 0xA0 SHL SUB AND CALLER EQ DUP1 PUSH2 0x1A43 JUMPI POP PUSH1 0xB SLOAD PUSH1 0x1 PUSH1 0x1 PUSH1 0xA0 SHL SUB AND CALLER EQ JUMPDEST PUSH2 0x1A4C JUMPI PUSH1 0x0 DUP1 REVERT JUMPDEST PUSH1 0xA SLOAD PUSH1 0x1 PUSH1 0x1 PUSH1 0xA0 SHL SUB AND PUSH1 0x0 SWAP1 DUP2 MSTORE PUSH1 0x8 PUSH1 0x20 MSTORE PUSH1 0x40 SWAP1 KECCAK256 SLOAD PUSH1 0xFF AND DUP1 ISZERO PUSH2 0x1A90 JUMPI POP PUSH1 0xB SLOAD PUSH1 0x1 PUSH1 0x1 PUSH1 0xA0 SHL SUB AND PUSH1 0x0 SWAP1 DUP2 MSTORE PUSH1 0x8 PUSH1 0x20 MSTORE PUSH1 0x40 SWAP1 KECCAK256 SLOAD PUSH1 0xFF AND JUMPDEST PUSH2 0x1AAC JUMPI PUSH1 0x40 MLOAD PUSH3 0x461BCD PUSH1 0xE5 SHL DUP2 MSTORE PUSH1 0x4 ADD PUSH2 0x7B4 SWAP1 PUSH2 0x32BE JUMP JUMPDEST PUSH1 0xB DUP1 SLOAD SWAP2 ISZERO ISZERO PUSH1 0x1 PUSH1 0xA0 SHL MUL PUSH1 0xFF PUSH1 0xA0 SHL NOT SWAP1 SWAP3 AND SWAP2 SWAP1 SWAP2 OR DUP2 SSTORE PUSH1 0xA SLOAD PUSH1 0x1 PUSH1 0x1 PUSH1 0xA0 SHL SUB SWAP1 DUP2 AND PUSH1 0x0 SWAP1 DUP2 MSTORE PUSH1 0x8 PUSH1 0x20 MSTORE PUSH1 0x40 DUP1 DUP3 KECCAK256 DUP1 SLOAD PUSH1 0xFF NOT SWAP1 DUP2 AND SWAP1 SWAP2 SSTORE SWAP4 SLOAD SWAP1 SWAP3 AND DUP2 MSTORE KECCAK256 DUP1 SLOAD SWAP1 SWAP2 AND SWAP1 SSTORE JUMP JUMPDEST DUP1 CALLER PUSH1 0x1 PUSH2 0x1B0F DUP2 DUP5 PUSH2 0x342B JUMP JUMPDEST DUP2 SLOAD DUP2 LT PUSH2 0x1B2D JUMPI PUSH4 0x4E487B71 PUSH1 0xE0 SHL PUSH1 0x0 MSTORE PUSH1 0x32 PUSH1 0x4 MSTORE PUSH1 0x24 PUSH1 0x0 REVERT JUMPDEST PUSH1 0x0 SWAP2 DUP3 MSTORE PUSH1 0x20 SWAP1 SWAP2 KECCAK256 PUSH1 0x1 PUSH1 0x9 SWAP1 SWAP3 MUL ADD ADD SLOAD PUSH1 0x1 PUSH1 0x1 PUSH1 0xA0 SHL SUB AND EQ PUSH2 0x1B54 JUMPI PUSH1 0x0 DUP1 REVERT JUMPDEST PUSH1 0x1 PUSH2 0x1B60 DUP2 DUP5 PUSH2 0x342B JUMP JUMPDEST DUP2 SLOAD DUP2 LT PUSH2 0x1B7E JUMPI PUSH4 0x4E487B71 PUSH1 0xE0 SHL PUSH1 0x0 MSTORE PUSH1 0x32 PUSH1 0x4 MSTORE PUSH1 0x24 PUSH1 0x0 REVERT JUMPDEST PUSH1 0x0 SWAP2 DUP3 MSTORE PUSH1 0x20 SWAP1 SWAP2 KECCAK256 PUSH1 0x8 PUSH1 0x9 SWAP1 SWAP3 MUL ADD ADD SLOAD PUSH1 0xFF PUSH2 0x100 SWAP1 SWAP2 DIV AND ISZERO ISZERO PUSH1 0x1 EQ PUSH2 0x1BBC JUMPI PUSH1 0x40 MLOAD PUSH3 0x461BCD PUSH1 0xE5 SHL DUP2 MSTORE PUSH1 0x4 ADD PUSH2 0x7B4 SWAP1 PUSH2 0x31C0 JUMP JUMPDEST PUSH1 0x2 PUSH1 0x1 PUSH2 0x91B DUP2 DUP6 PUSH2 0x342B JUMP JUMPDEST PUSH2 0x1BD2 PUSH2 0x2D3B JUMP JUMPDEST DUP1 MLOAD PUSH1 0x20 DUP3 ADD KECCAK256 PUSH32 0xAA684A62CFEC67884698EDCB374CDD8A7421222BFEB8B6570BB1A601A3F00690 DUP2 EQ ISZERO PUSH2 0x1CAA JUMPI CALLER PUSH1 0x0 SWAP1 DUP2 MSTORE PUSH1 0x4 PUSH1 0x20 MSTORE PUSH1 0x40 SWAP1 KECCAK256 SLOAD DUP4 GT ISZERO PUSH2 0x1C1D JUMPI PUSH1 0x0 DUP1 REVERT JUMPDEST CALLER PUSH1 0x0 SWAP1 DUP2 MSTORE PUSH1 0x4 PUSH1 0x20 MSTORE PUSH1 0x40 DUP2 KECCAK256 DUP1 SLOAD DUP6 SWAP3 SWAP1 PUSH2 0x1C3C SWAP1 DUP5 SWAP1 PUSH2 0x342B JUMP JUMPDEST SWAP1 SWAP2 SSTORE POP POP PUSH1 0x40 MLOAD PUSH1 0x0 SWAP1 CALLER SWAP1 DUP6 SWAP1 PUSH2 0x1C54 SWAP1 PUSH2 0x2FF9 JUMP JUMPDEST PUSH1 0x0 PUSH1 0x40 MLOAD DUP1 DUP4 SUB DUP2 DUP6 DUP8 GAS CALL SWAP3 POP POP POP RETURNDATASIZE DUP1 PUSH1 0x0 DUP2 EQ PUSH2 0x1C91 JUMPI PUSH1 0x40 MLOAD SWAP2 POP PUSH1 0x1F NOT PUSH1 0x3F RETURNDATASIZE ADD AND DUP3 ADD PUSH1 0x40 MSTORE RETURNDATASIZE DUP3 MSTORE RETURNDATASIZE PUSH1 0x0 PUSH1 0x20 DUP5 ADD RETURNDATACOPY PUSH2 0x1C96 JUMP JUMPDEST PUSH1 0x60 SWAP2 POP JUMPDEST POP POP SWAP1 POP DUP1 PUSH2 0x1CA4 JUMPI PUSH1 0x0 DUP1 REVERT JUMPDEST POP PUSH2 0x1D77 JUMP JUMPDEST PUSH32 0x8D7680EAD1DA220F978B7468ED8CDA236BAA559F8AF75BFF883132FA60B435A7 DUP2 EQ ISZERO PUSH2 0x1D77 JUMPI CALLER PUSH1 0x0 SWAP1 DUP2 MSTORE PUSH1 0x6 PUSH1 0x20 MSTORE PUSH1 0x40 SWAP1 KECCAK256 SLOAD DUP4 GT ISZERO PUSH2 0x1CEE JUMPI PUSH1 0x0 DUP1 REVERT JUMPDEST CALLER PUSH1 0x0 SWAP1 DUP2 MSTORE PUSH1 0x6 PUSH1 0x20 MSTORE PUSH1 0x40 DUP2 KECCAK256 DUP1 SLOAD DUP6 SWAP3 SWAP1 PUSH2 0x1D0D SWAP1 DUP5 SWAP1 PUSH2 0x342B JUMP JUMPDEST SWAP1 SWAP2 SSTORE POP POP PUSH1 0x40 MLOAD PUSH1 0x0 SWAP1 CALLER SWAP1 DUP6 SWAP1 PUSH2 0x1D25 SWAP1 PUSH2 0x2FF9 JUMP JUMPDEST PUSH1 0x0 PUSH1 0x40 MLOAD DUP1 DUP4 SUB DUP2 DUP6 DUP8 GAS CALL SWAP3 POP POP POP RETURNDATASIZE DUP1 PUSH1 0x0 DUP2 EQ PUSH2 0x1D62 JUMPI PUSH1 0x40 MLOAD SWAP2 POP PUSH1 0x1F NOT PUSH1 0x3F RETURNDATASIZE ADD AND DUP3 ADD PUSH1 0x40 MSTORE RETURNDATASIZE DUP3 MSTORE RETURNDATASIZE PUSH1 0x0 PUSH1 0x20 DUP5 ADD RETURNDATACOPY PUSH2 0x1D67 JUMP JUMPDEST PUSH1 0x60 SWAP2 POP JUMPDEST POP POP SWAP1 POP DUP1 PUSH2 0x1D75 JUMPI PUSH1 0x0 DUP1 REVERT JUMPDEST POP JUMPDEST POP PUSH2 0x1D80 PUSH2 0x2D65 JUMP JUMPDEST POP POP JUMP JUMPDEST CALLER PUSH1 0x1 PUSH2 0x1D91 DUP2 DUP5 PUSH2 0x342B JUMP JUMPDEST DUP2 SLOAD DUP2 LT PUSH2 0x1DAF JUMPI PUSH4 0x4E487B71 PUSH1 0xE0 SHL PUSH1 0x0 MSTORE PUSH1 0x32 PUSH1 0x4 MSTORE PUSH1 0x24 PUSH1 0x0 REVERT JUMPDEST PUSH1 0x0 SWAP2 DUP3 MSTORE PUSH1 0x20 SWAP1 SWAP2 KECCAK256 PUSH1 0x1 PUSH1 0x9 SWAP1 SWAP3 MUL ADD ADD SLOAD PUSH1 0x1 PUSH1 0x1 PUSH1 0xA0 SHL SUB AND EQ DUP1 PUSH2 0x1E1D JUMPI POP CALLER PUSH1 0x1 PUSH2 0x1DE0 DUP2 DUP5 PUSH2 0x342B JUMP JUMPDEST DUP2 SLOAD DUP2 LT PUSH2 0x1DFE JUMPI PUSH4 0x4E487B71 PUSH1 0xE0 SHL PUSH1 0x0 MSTORE PUSH1 0x32 PUSH1 0x4 MSTORE PUSH1 0x24 PUSH1 0x0 REVERT JUMPDEST PUSH1 0x0 SWAP2 DUP3 MSTORE PUSH1 0x20 SWAP1 SWAP2 KECCAK256 PUSH1 0x2 PUSH1 0x9 SWAP1 SWAP3 MUL ADD ADD SLOAD PUSH1 0x1 PUSH1 0x1 PUSH1 0xA0 SHL SUB AND EQ JUMPDEST PUSH2 0x1E39 JUMPI PUSH1 0x40 MLOAD PUSH3 0x461BCD PUSH1 0xE5 SHL DUP2 MSTORE PUSH1 0x4 ADD PUSH2 0x7B4 SWAP1 PUSH2 0x322E JUMP JUMPDEST PUSH1 0x1 PUSH2 0x1E45 DUP2 DUP4 PUSH2 0x342B JUMP JUMPDEST DUP2 SLOAD DUP2 LT PUSH2 0x1E63 JUMPI PUSH4 0x4E487B71 PUSH1 0xE0 SHL PUSH1 0x0 MSTORE PUSH1 0x32 PUSH1 0x4 MSTORE PUSH1 0x24 PUSH1 0x0 REVERT JUMPDEST PUSH1 0x0 SWAP2 DUP3 MSTORE PUSH1 0x20 SWAP1 SWAP2 KECCAK256 PUSH1 0x8 PUSH1 0x9 SWAP1 SWAP3 MUL ADD ADD SLOAD PUSH1 0xFF PUSH2 0x100 SWAP1 SWAP2 DIV AND ISZERO ISZERO PUSH1 0x1 EQ PUSH2 0x1EA1 JUMPI PUSH1 0x40 MLOAD PUSH3 0x461BCD PUSH1 0xE5 SHL DUP2 MSTORE PUSH1 0x4 ADD PUSH2 0x7B4 SWAP1 PUSH2 0x31C0 JUMP JUMPDEST PUSH1 0x3 PUSH1 0x1 PUSH2 0x1EAF DUP2 DUP5 PUSH2 0x342B JUMP JUMPDEST DUP2 SLOAD DUP2 LT PUSH2 0x1ECD JUMPI PUSH4 0x4E487B71 PUSH1 0xE0 SHL PUSH1 0x0 MSTORE PUSH1 0x32 PUSH1 0x4 MSTORE PUSH1 0x24 PUSH1 0x0 REVERT JUMPDEST PUSH1 0x0 SWAP2 DUP3 MSTORE PUSH1 0x20 SWAP1 SWAP2 KECCAK256 PUSH1 0x8 PUSH1 0x9 SWAP1 SWAP3 MUL ADD ADD DUP1 SLOAD PUSH3 0xFF0000 NOT AND PUSH3 0x10000 DUP4 PUSH1 0x3 DUP2 GT ISZERO PUSH2 0x1F0C JUMPI PUSH4 0x4E487B71 PUSH1 0xE0 SHL PUSH1 0x0 MSTORE PUSH1 0x21 PUSH1 0x4 MSTORE PUSH1 0x24 PUSH1 0x0 REVERT JUMPDEST MUL OR SWAP1 SSTORE POP POP JUMP JUMPDEST PUSH1 0x1 PUSH1 0x1 PUSH1 0xA0 SHL SUB DUP2 AND PUSH1 0x0 SWAP1 DUP2 MSTORE PUSH1 0x3 PUSH1 0x20 SWAP1 DUP2 MSTORE PUSH1 0x40 SWAP2 DUP3 SWAP1 KECCAK256 DUP1 SLOAD DUP4 MLOAD DUP2 DUP5 MUL DUP2 ADD DUP5 ADD SWAP1 SWAP5 MSTORE DUP1 DUP5 MSTORE PUSH1 0x60 SWAP4 SWAP3 DUP4 ADD DUP3 DUP3 DUP1 ISZERO PUSH2 0x10BD JUMPI PUSH1 0x20 MUL DUP3 ADD SWAP2 SWAP1 PUSH1 0x0 MSTORE PUSH1 0x20 PUSH1 0x0 KECCAK256 SWAP1 DUP2 SLOAD DUP2 MSTORE PUSH1 0x20 ADD SWAP1 PUSH1 0x1 ADD SWAP1 DUP1 DUP4 GT PUSH2 0x10A9 JUMPI POP POP POP POP POP SWAP1 POP SWAP2 SWAP1 POP JUMP JUMPDEST DUP1 CALLER PUSH1 0x1 PUSH2 0x1F8C DUP2 DUP5 PUSH2 0x342B JUMP JUMPDEST DUP2 SLOAD DUP2 LT PUSH2 0x1FAA JUMPI PUSH4 0x4E487B71 PUSH1 0xE0 SHL PUSH1 0x0 MSTORE PUSH1 0x32 PUSH1 0x4 MSTORE PUSH1 0x24 PUSH1 0x0 REVERT JUMPDEST PUSH1 0x0 SWAP2 DUP3 MSTORE PUSH1 0x20 SWAP1 SWAP2 KECCAK256 PUSH1 0x2 PUSH1 0x9 SWAP1 SWAP3 MUL ADD ADD SLOAD PUSH1 0x1 PUSH1 0x1 PUSH1 0xA0 SHL SUB AND EQ PUSH2 0x1FD1 JUMPI PUSH1 0x0 DUP1 REVERT JUMPDEST PUSH1 0x1 DUP1 PUSH2 0x1FDE DUP2 DUP6 PUSH2 0x342B JUMP JUMPDEST DUP2 SLOAD DUP2 LT PUSH2 0x1FFC JUMPI PUSH4 0x4E487B71 PUSH1 0xE0 SHL PUSH1 0x0 MSTORE PUSH1 0x32 PUSH1 0x4 MSTORE PUSH1 0x24 PUSH1 0x0 REVERT JUMPDEST PUSH1 0x0 SWAP2 DUP3 MSTORE PUSH1 0x20 SWAP1 SWAP2 KECCAK256 PUSH1 0x8 PUSH1 0x9 SWAP1 SWAP3 MUL ADD ADD DUP1 SLOAD SWAP2 ISZERO ISZERO PUSH2 0x100 MUL PUSH2 0xFF00 NOT SWAP1 SWAP3 AND SWAP2 SWAP1 SWAP2 OR SWAP1 SSTORE TIMESTAMP PUSH1 0x1 PUSH2 0x2032 DUP2 DUP6 PUSH2 0x342B JUMP JUMPDEST DUP2 SLOAD DUP2 LT PUSH2 0x2050 JUMPI PUSH4 0x4E487B71 PUSH1 0xE0 SHL PUSH1 0x0 MSTORE PUSH1 0x32 PUSH1 0x4 MSTORE PUSH1 0x24 PUSH1 0x0 REVERT JUMPDEST SWAP1 PUSH1 0x0 MSTORE PUSH1 0x20 PUSH1 0x0 KECCAK256 SWAP1 PUSH1 0x9 MUL ADD PUSH1 0x7 ADD DUP2 SWAP1 SSTORE POP POP POP JUMP JUMPDEST PUSH1 0x0 DUP1 DUP1 PUSH1 0x60 DUP2 DUP1 DUP1 DUP1 DUP1 DUP1 DUP1 PUSH1 0x1 PUSH2 0x2082 DUP2 DUP15 PUSH2 0x342B JUMP JUMPDEST DUP2 SLOAD DUP2 LT PUSH2 0x20A0 JUMPI PUSH4 0x4E487B71 PUSH1 0xE0 SHL PUSH1 0x0 MSTORE PUSH1 0x32 PUSH1 0x4 MSTORE PUSH1 0x24 PUSH1 0x0 REVERT JUMPDEST PUSH1 0x0 SWAP2 DUP3 MSTORE PUSH1 0x20 SWAP1 SWAP2 KECCAK256 PUSH1 0x9 SWAP1 SWAP2 MUL ADD SLOAD SWAP11 POP PUSH1 0x1 PUSH2 0x20BF DUP2 DUP15 PUSH2 0x342B JUMP JUMPDEST DUP2 SLOAD DUP2 LT PUSH2 0x20DD JUMPI PUSH4 0x4E487B71 PUSH1 0xE0 SHL PUSH1 0x0 MSTORE PUSH1 0x32 PUSH1 0x4 MSTORE PUSH1 0x24 PUSH1 0x0 REVERT JUMPDEST PUSH1 0x0 SWAP2 DUP3 MSTORE PUSH1 0x20 SWAP1 SWAP2 KECCAK256 PUSH1 0x1 PUSH1 0x9 SWAP1 SWAP3 MUL ADD DUP2 ADD SLOAD PUSH1 0x1 PUSH1 0x1 PUSH1 0xA0 SHL SUB AND SWAP11 POP PUSH2 0x2107 DUP2 DUP15 PUSH2 0x342B JUMP JUMPDEST DUP2 SLOAD DUP2 LT PUSH2 0x2125 JUMPI PUSH4 0x4E487B71 PUSH1 0xE0 SHL PUSH1 0x0 MSTORE PUSH1 0x32 PUSH1 0x4 MSTORE PUSH1 0x24 PUSH1 0x0 REVERT JUMPDEST PUSH1 0x0 SWAP2 DUP3 MSTORE PUSH1 0x20 SWAP1 SWAP2 KECCAK256 PUSH1 0x2 PUSH1 0x9 SWAP1 SWAP3 MUL ADD ADD SLOAD PUSH1 0x1 PUSH1 0x1 PUSH1 0xA0 SHL SUB AND SWAP9 POP PUSH1 0x1 PUSH2 0x2150 DUP2 DUP15 PUSH2 0x342B JUMP JUMPDEST DUP2 SLOAD DUP2 LT PUSH2 0x216E JUMPI PUSH4 0x4E487B71 PUSH1 0xE0 SHL PUSH1 0x0 MSTORE PUSH1 0x32 PUSH1 0x4 MSTORE PUSH1 0x24 PUSH1 0x0 REVERT JUMPDEST SWAP1 PUSH1 0x0 MSTORE PUSH1 0x20 PUSH1 0x0 KECCAK256 SWAP1 PUSH1 0x9 MUL ADD PUSH1 0x3 ADD DUP1 SLOAD PUSH2 0x218A SWAP1 PUSH2 0x3442 JUMP JUMPDEST DUP1 PUSH1 0x1F ADD PUSH1 0x20 DUP1 SWAP2 DIV MUL PUSH1 0x20 ADD PUSH1 0x40 MLOAD SWAP1 DUP2 ADD PUSH1 0x40 MSTORE DUP1 SWAP3 SWAP2 SWAP1 DUP2 DUP2 MSTORE PUSH1 0x20 ADD DUP3 DUP1 SLOAD PUSH2 0x21B6 SWAP1 PUSH2 0x3442 JUMP JUMPDEST DUP1 ISZERO PUSH2 0x2203 JUMPI DUP1 PUSH1 0x1F LT PUSH2 0x21D8 JUMPI PUSH2 0x100 DUP1 DUP4 SLOAD DIV MUL DUP4 MSTORE SWAP2 PUSH1 0x20 ADD SWAP2 PUSH2 0x2203 JUMP JUMPDEST DUP3 ADD SWAP2 SWAP1 PUSH1 0x0 MSTORE PUSH1 0x20 PUSH1 0x0 KECCAK256 SWAP1 JUMPDEST DUP2 SLOAD DUP2 MSTORE SWAP1 PUSH1 0x1 ADD SWAP1 PUSH1 0x20 ADD DUP1 DUP4 GT PUSH2 0x21E6 JUMPI DUP3 SWAP1 SUB PUSH1 0x1F AND DUP3 ADD SWAP2 JUMPDEST POP POP POP POP POP SWAP8 POP PUSH1 0x1 DUP1 DUP14 PUSH2 0x2218 SWAP2 SWAP1 PUSH2 0x342B JUMP JUMPDEST DUP2 SLOAD DUP2 LT PUSH2 0x2236 JUMPI PUSH4 0x4E487B71 PUSH1 0xE0 SHL PUSH1 0x0 MSTORE PUSH1 0x32 PUSH1 0x4 MSTORE PUSH1 0x24 PUSH1 0x0 REVERT JUMPDEST SWAP1 PUSH1 0x0 MSTORE PUSH1 0x20 PUSH1 0x0 KECCAK256 SWAP1 PUSH1 0x9 MUL ADD PUSH1 0x4 ADD SLOAD SWAP7 POP PUSH1 0x1 DUP1 DUP14 PUSH2 0x2258 SWAP2 SWAP1 PUSH2 0x342B JUMP JUMPDEST DUP2 SLOAD DUP2 LT PUSH2 0x2276 JUMPI PUSH4 0x4E487B71 PUSH1 0xE0 SHL PUSH1 0x0 MSTORE PUSH1 0x32 PUSH1 0x4 MSTORE PUSH1 0x24 PUSH1 0x0 REVERT JUMPDEST SWAP1 PUSH1 0x0 MSTORE PUSH1 0x20 PUSH1 0x0 KECCAK256 SWAP1 PUSH1 0x9 MUL ADD PUSH1 0x5 ADD SLOAD SWAP6 POP PUSH1 0x1 DUP1 DUP14 PUSH2 0x2298 SWAP2 SWAP1 PUSH2 0x342B JUMP JUMPDEST DUP2 SLOAD DUP2 LT PUSH2 0x22B6 JUMPI PUSH4 0x4E487B71 PUSH1 0xE0 SHL PUSH1 0x0 MSTORE PUSH1 0x32 PUSH1 0x4 MSTORE PUSH1 0x24 PUSH1 0x0 REVERT JUMPDEST SWAP1 PUSH1 0x0 MSTORE PUSH1 0x20 PUSH1 0x0 KECCAK256 SWAP1 PUSH1 0x9 MUL ADD PUSH1 0x6 ADD SLOAD SWAP5 POP PUSH1 0x1 DUP1 DUP14 PUSH2 0x22D8 SWAP2 SWAP1 PUSH2 0x342B JUMP JUMPDEST DUP2 SLOAD DUP2 LT PUSH2 0x22F6 JUMPI PUSH4 0x4E487B71 PUSH1 0xE0 SHL PUSH1 0x0 MSTORE PUSH1 0x32 PUSH1 0x4 MSTORE PUSH1 0x24 PUSH1 0x0 REVERT JUMPDEST SWAP1 PUSH1 0x0 MSTORE PUSH1 0x20 PUSH1 0x0 KECCAK256 SWAP1 PUSH1 0x9 MUL ADD PUSH1 0x7 ADD SLOAD SWAP4 POP PUSH1 0x1 DUP1 DUP14 PUSH2 0x2318 SWAP2 SWAP1 PUSH2 0x342B JUMP JUMPDEST DUP2 SLOAD DUP2 LT PUSH2 0x2336 JUMPI PUSH4 0x4E487B71 PUSH1 0xE0 SHL PUSH1 0x0 MSTORE PUSH1 0x32 PUSH1 0x4 MSTORE PUSH1 0x24 PUSH1 0x0 REVERT JUMPDEST PUSH1 0x0 SWAP2 DUP3 MSTORE PUSH1 0x20 SWAP1 SWAP2 KECCAK256 PUSH1 0x8 PUSH1 0x9 SWAP1 SWAP3 MUL ADD ADD SLOAD PUSH1 0xFF AND SWAP3 POP PUSH1 0x1 PUSH2 0x235B DUP2 DUP15 PUSH2 0x342B JUMP JUMPDEST DUP2 SLOAD DUP2 LT PUSH2 0x2379 JUMPI PUSH4 0x4E487B71 PUSH1 0xE0 SHL PUSH1 0x0 MSTORE PUSH1 0x32 PUSH1 0x4 MSTORE PUSH1 0x24 PUSH1 0x0 REVERT JUMPDEST PUSH1 0x0 SWAP2 DUP3 MSTORE PUSH1 0x20 SWAP1 SWAP2 KECCAK256 PUSH1 0x9 SWAP1 SWAP2 MUL ADD PUSH1 0x8 ADD SLOAD PUSH2 0x100 SWAP1 DIV PUSH1 0xFF AND SWAP2 POP PUSH1 0x1 PUSH2 0x23A3 DUP2 DUP15 PUSH2 0x342B JUMP JUMPDEST DUP2 SLOAD DUP2 LT PUSH2 0x23C1 JUMPI PUSH4 0x4E487B71 PUSH1 0xE0 SHL PUSH1 0x0 MSTORE PUSH1 0x32 PUSH1 0x4 MSTORE PUSH1 0x24 PUSH1 0x0 REVERT JUMPDEST SWAP1 PUSH1 0x0 MSTORE PUSH1 0x20 PUSH1 0x0 KECCAK256 SWAP1 PUSH1 0x9 MUL ADD PUSH1 0x8 ADD PUSH1 0x2 SWAP1 SLOAD SWAP1 PUSH2 0x100 EXP SWAP1 DIV PUSH1 0xFF AND SWAP1 POP SWAP2 SWAP4 SWAP6 SWAP8 SWAP10 SWAP12 SWAP1 SWAP3 SWAP5 SWAP7 SWAP9 SWAP11 POP JUMP JUMPDEST CALLER PUSH1 0x0 SWAP1 DUP2 MSTORE PUSH1 0x4 PUSH1 0x20 MSTORE PUSH1 0x40 DUP2 KECCAK256 DUP1 SLOAD DUP5 SWAP3 CALLVALUE SWAP3 SWAP2 PUSH2 0x2412 SWAP1 DUP5 SWAP1 PUSH2 0x33D4 JUMP JUMPDEST SWAP1 SWAP2 SSTORE POP POP CALLVALUE DUP2 GT ISZERO PUSH2 0x271D JUMPI CALLER PUSH1 0x0 SWAP1 DUP2 MSTORE PUSH1 0x4 PUSH1 0x20 MSTORE PUSH1 0x40 SWAP1 KECCAK256 SLOAD DUP2 GT ISZERO PUSH2 0x244E JUMPI PUSH1 0x40 MLOAD PUSH3 0x461BCD PUSH1 0xE5 SHL DUP2 MSTORE PUSH1 0x4 ADD PUSH2 0x7B4 SWAP1 PUSH2 0x31F7 JUMP JUMPDEST PUSH1 0xB SLOAD PUSH1 0x1 PUSH1 0xA0 SHL SWAP1 DIV PUSH1 0xFF AND PUSH2 0x2464 JUMPI PUSH1 0x0 DUP1 REVERT JUMPDEST PUSH1 0x0 DUP3 GT PUSH2 0x2484 JUMPI PUSH1 0x40 MLOAD PUSH3 0x461BCD PUSH1 0xE5 SHL DUP2 MSTORE PUSH1 0x4 ADD PUSH2 0x7B4 SWAP1 PUSH2 0x3152 JUMP JUMPDEST CALLER PUSH1 0x0 SWAP1 DUP2 MSTORE PUSH1 0x4 PUSH1 0x20 MSTORE PUSH1 0x40 DUP2 KECCAK256 DUP1 SLOAD DUP6 SWAP3 SWAP1 PUSH2 0x24A3 SWAP1 DUP5 SWAP1 PUSH2 0x342B JUMP JUMPDEST SWAP1 SWAP2 SSTORE POP POP CALLER PUSH1 0x0 SWAP1 DUP2 MSTORE PUSH1 0x5 PUSH1 0x20 MSTORE PUSH1 0x40 DUP2 KECCAK256 DUP1 SLOAD DUP6 SWAP3 SWAP1 PUSH2 0x24C7 SWAP1 DUP5 SWAP1 PUSH2 0x33D4 JUMP JUMPDEST SWAP1 SWAP2 SSTORE POP POP PUSH1 0x1 DUP1 SLOAD PUSH1 0x0 SWAP2 PUSH2 0x24DD SWAP2 SWAP1 PUSH2 0x33D4 JUMP JUMPDEST SWAP1 POP PUSH1 0x0 PUSH2 0x24EE DUP5 PUSH3 0x15180 PUSH2 0x340C JUMP JUMPDEST PUSH1 0x40 DUP1 MLOAD PUSH2 0x160 DUP2 ADD DUP3 MSTORE DUP5 DUP2 MSTORE CALLER PUSH1 0x20 DUP1 DUP4 ADD SWAP2 DUP3 MSTORE PUSH1 0x0 SWAP4 DUP4 ADD DUP5 DUP2 MSTORE PUSH1 0x60 DUP5 ADD DUP13 DUP2 MSTORE PUSH1 0x80 DUP6 ADD DUP13 SWAP1 MSTORE PUSH1 0xA0 DUP6 ADD DUP8 SWAP1 MSTORE PUSH1 0xC0 DUP6 ADD DUP7 SWAP1 MSTORE PUSH1 0xE0 DUP6 ADD DUP7 SWAP1 MSTORE PUSH1 0x1 PUSH2 0x100 DUP7 ADD DUP2 SWAP1 MSTORE PUSH2 0x120 DUP7 ADD DUP8 SWAP1 MSTORE PUSH2 0x140 DUP7 ADD DUP8 SWAP1 MSTORE DUP1 SLOAD DUP1 DUP3 ADD DUP3 SSTORE SWAP7 MSTORE DUP5 MLOAD PUSH32 0xB10E2D527612073B26EECDFD717E6A320CF44B4AFAC2B0732D9FCBE2B7FA0CF6 PUSH1 0x9 SWAP1 SWAP8 MUL SWAP7 DUP8 ADD SWAP1 DUP2 SSTORE SWAP4 MLOAD PUSH32 0xB10E2D527612073B26EECDFD717E6A320CF44B4AFAC2B0732D9FCBE2B7FA0CF7 DUP8 ADD DUP1 SLOAD PUSH1 0x1 PUSH1 0x1 PUSH1 0xA0 SHL SUB NOT SWAP1 DUP2 AND PUSH1 0x1 PUSH1 0x1 PUSH1 0xA0 SHL SUB SWAP4 DUP5 AND OR SWAP1 SWAP2 SSTORE SWAP3 MLOAD PUSH32 0xB10E2D527612073B26EECDFD717E6A320CF44B4AFAC2B0732D9FCBE2B7FA0CF8 DUP9 ADD DUP1 SLOAD SWAP1 SWAP5 AND SWAP2 AND OR SWAP1 SWAP2 SSTORE MLOAD DUP1 MLOAD SWAP6 SWAP7 POP SWAP3 SWAP5 DUP6 SWAP5 SWAP3 SWAP4 PUSH2 0x262D SWAP4 PUSH32 0xB10E2D527612073B26EECDFD717E6A320CF44B4AFAC2B0732D9FCBE2B7FA0CF9 ADD SWAP3 ADD SWAP1 PUSH2 0x2D6C JUMP JUMPDEST POP PUSH1 0x80 DUP3 ADD MLOAD PUSH1 0x4 DUP3 ADD SSTORE PUSH1 0xA0 DUP3 ADD MLOAD PUSH1 0x5 DUP3 ADD SSTORE PUSH1 0xC0 DUP3 ADD MLOAD PUSH1 0x6 DUP3 ADD SSTORE PUSH1 0xE0 DUP3 ADD MLOAD PUSH1 0x7 DUP3 ADD SSTORE PUSH2 0x100 DUP1 DUP4 ADD MLOAD PUSH1 0x8 DUP4 ADD DUP1 SLOAD PUSH2 0x120 DUP7 ADD MLOAD PUSH1 0xFF NOT SWAP1 SWAP2 AND SWAP3 ISZERO ISZERO SWAP3 SWAP1 SWAP3 OR PUSH2 0xFF00 NOT AND SWAP2 ISZERO ISZERO SWAP1 SWAP3 MUL OR DUP1 DUP3 SSTORE PUSH2 0x140 DUP5 ADD MLOAD SWAP2 SWAP1 PUSH3 0xFF0000 NOT AND PUSH3 0x10000 DUP4 PUSH1 0x3 DUP2 GT ISZERO PUSH2 0x26B7 JUMPI PUSH4 0x4E487B71 PUSH1 0xE0 SHL PUSH1 0x0 MSTORE PUSH1 0x21 PUSH1 0x4 MSTORE PUSH1 0x24 PUSH1 0x0 REVERT JUMPDEST MUL OR SWAP1 SSTORE POP POP CALLER PUSH1 0x0 SWAP1 DUP2 MSTORE PUSH1 0x2 PUSH1 0x20 SWAP1 DUP2 MSTORE PUSH1 0x40 DUP1 DUP4 KECCAK256 DUP1 SLOAD PUSH1 0x1 DUP2 ADD DUP3 SSTORE SWAP1 DUP5 MSTORE SWAP2 SWAP1 SWAP3 KECCAK256 ADD DUP6 SWAP1 SSTORE MLOAD DUP5 SWAP2 POP PUSH32 0x4B1B1A905A6323B91259E1E095B47EE5DBB95009E905491DB7049E6A1C98A874 SWAP1 PUSH2 0x2711 SWAP1 PUSH2 0x3258 JUMP JUMPDEST PUSH1 0x40 MLOAD DUP1 SWAP2 SUB SWAP1 LOG2 POP POP POP JUMPDEST PUSH1 0xB SLOAD PUSH1 0x1 PUSH1 0xA0 SHL SWAP1 DIV PUSH1 0xFF AND PUSH2 0x2733 JUMPI PUSH1 0x0 DUP1 REVERT JUMPDEST PUSH1 0x0 DUP3 GT PUSH2 0x2753 JUMPI PUSH1 0x40 MLOAD PUSH3 0x461BCD PUSH1 0xE5 SHL DUP2 MSTORE PUSH1 0x4 ADD PUSH2 0x7B4 SWAP1 PUSH2 0x3152 JUMP JUMPDEST CALLER PUSH1 0x0 SWAP1 DUP2 MSTORE PUSH1 0x4 PUSH1 0x20 MSTORE PUSH1 0x40 DUP2 KECCAK256 DUP1 SLOAD DUP6 SWAP3 SWAP1 PUSH2 0x2772 SWAP1 DUP5 SWAP1 PUSH2 0x342B JUMP JUMPDEST SWAP1 SWAP2 SSTORE POP POP CALLER PUSH1 0x0 SWAP1 DUP2 MSTORE PUSH1 0x5 PUSH1 0x20 MSTORE PUSH1 0x40 DUP2 KECCAK256 DUP1 SLOAD DUP6 SWAP3 SWAP1 PUSH2 0x2796 SWAP1 DUP5 SWAP1 PUSH2 0x33D4 JUMP JUMPDEST SWAP1 SWAP2 SSTORE POP POP PUSH1 0x1 DUP1 SLOAD PUSH1 0x0 SWAP2 PUSH2 0x27AC SWAP2 SWAP1 PUSH2 0x33D4 JUMP JUMPDEST SWAP1 POP PUSH1 0x0 PUSH2 0x27BD DUP5 PUSH3 0x15180 PUSH2 0x340C JUMP JUMPDEST PUSH1 0x40 DUP1 MLOAD PUSH2 0x160 DUP2 ADD DUP3 MSTORE DUP5 DUP2 MSTORE CALLER PUSH1 0x20 DUP1 DUP4 ADD SWAP2 DUP3 MSTORE PUSH1 0x0 SWAP4 DUP4 ADD DUP5 DUP2 MSTORE PUSH1 0x60 DUP5 ADD DUP13 DUP2 MSTORE PUSH1 0x80 DUP6 ADD DUP13 SWAP1 MSTORE PUSH1 0xA0 DUP6 ADD DUP8 SWAP1 MSTORE PUSH1 0xC0 DUP6 ADD DUP7 SWAP1 MSTORE PUSH1 0xE0 DUP6 ADD DUP7 SWAP1 MSTORE PUSH1 0x1 PUSH2 0x100 DUP7 ADD DUP2 SWAP1 MSTORE PUSH2 0x120 DUP7 ADD DUP8 SWAP1 MSTORE PUSH2 0x140 DUP7 ADD DUP8 SWAP1 MSTORE DUP1 SLOAD DUP1 DUP3 ADD DUP3 SSTORE SWAP7 MSTORE DUP5 MLOAD PUSH32 0xB10E2D527612073B26EECDFD717E6A320CF44B4AFAC2B0732D9FCBE2B7FA0CF6 PUSH1 0x9 SWAP1 SWAP8 MUL SWAP7 DUP8 ADD SWAP1 DUP2 SSTORE SWAP4 MLOAD PUSH32 0xB10E2D527612073B26EECDFD717E6A320CF44B4AFAC2B0732D9FCBE2B7FA0CF7 DUP8 ADD DUP1 SLOAD PUSH1 0x1 PUSH1 0x1 PUSH1 0xA0 SHL SUB NOT SWAP1 DUP2 AND PUSH1 0x1 PUSH1 0x1 PUSH1 0xA0 SHL SUB SWAP4 DUP5 AND OR SWAP1 SWAP2 SSTORE SWAP3 MLOAD PUSH32 0xB10E2D527612073B26EECDFD717E6A320CF44B4AFAC2B0732D9FCBE2B7FA0CF8 DUP9 ADD DUP1 SLOAD SWAP1 SWAP5 AND SWAP2 AND OR SWAP1 SWAP2 SSTORE MLOAD DUP1 MLOAD SWAP6 SWAP7 POP SWAP3 SWAP5 DUP6 SWAP5 SWAP3 SWAP4 PUSH2 0x28FC SWAP4 PUSH32 0xB10E2D527612073B26EECDFD717E6A320CF44B4AFAC2B0732D9FCBE2B7FA0CF9 ADD SWAP3 ADD SWAP1 PUSH2 0x2D6C JUMP JUMPDEST POP PUSH1 0x80 DUP3 ADD MLOAD PUSH1 0x4 DUP3 ADD SSTORE PUSH1 0xA0 DUP3 ADD MLOAD PUSH1 0x5 DUP3 ADD SSTORE PUSH1 0xC0 DUP3 ADD MLOAD PUSH1 0x6 DUP3 ADD SSTORE PUSH1 0xE0 DUP3 ADD MLOAD PUSH1 0x7 DUP3 ADD SSTORE PUSH2 0x100 DUP1 DUP4 ADD MLOAD PUSH1 0x8 DUP4 ADD DUP1 SLOAD PUSH2 0x120 DUP7 ADD MLOAD PUSH1 0xFF NOT SWAP1 SWAP2 AND SWAP3 ISZERO ISZERO SWAP3 SWAP1 SWAP3 OR PUSH2 0xFF00 NOT AND SWAP2 ISZERO ISZERO SWAP1 SWAP3 MUL OR DUP1 DUP3 SSTORE PUSH2 0x140 DUP5 ADD MLOAD SWAP2 SWAP1 PUSH3 0xFF0000 NOT AND PUSH3 0x10000 DUP4 PUSH1 0x3 DUP2 GT ISZERO PUSH2 0x2986 JUMPI PUSH4 0x4E487B71 PUSH1 0xE0 SHL PUSH1 0x0 MSTORE PUSH1 0x21 PUSH1 0x4 MSTORE PUSH1 0x24 PUSH1 0x0 REVERT JUMPDEST MUL OR SWAP1 SSTORE POP POP CALLER PUSH1 0x0 SWAP1 DUP2 MSTORE PUSH1 0x2 PUSH1 0x20 SWAP1 DUP2 MSTORE PUSH1 0x40 DUP1 DUP4 KECCAK256 DUP1 SLOAD PUSH1 0x1 DUP2 ADD DUP3 SSTORE SWAP1 DUP5 MSTORE SWAP2 SWAP1 SWAP3 KECCAK256 ADD DUP6 SWAP1 SSTORE MLOAD DUP5 SWAP2 POP PUSH32 0x4B1B1A905A6323B91259E1E095B47EE5DBB95009E905491DB7049E6A1C98A874 SWAP1 PUSH2 0x29E0 SWAP1 PUSH2 0x3258 JUMP JUMPDEST PUSH1 0x40 MLOAD DUP1 SWAP2 SUB SWAP1 LOG2 POP POP POP POP POP POP POP JUMP JUMPDEST PUSH1 0xB SLOAD PUSH1 0x1 PUSH1 0xA0 SHL SWAP1 DIV PUSH1 0xFF AND PUSH2 0x2A07 JUMPI PUSH1 0x0 DUP1 REVERT JUMPDEST PUSH1 0x1 PUSH2 0x2A13 DUP2 DUP4 PUSH2 0x342B JUMP JUMPDEST DUP2 SLOAD DUP2 LT PUSH2 0x2A31 JUMPI PUSH4 0x4E487B71 PUSH1 0xE0 SHL PUSH1 0x0 MSTORE PUSH1 0x32 PUSH1 0x4 MSTORE PUSH1 0x24 PUSH1 0x0 REVERT JUMPDEST PUSH1 0x0 SWAP2 DUP3 MSTORE PUSH1 0x20 SWAP1 SWAP2 KECCAK256 PUSH1 0x8 PUSH1 0x9 SWAP1 SWAP3 MUL ADD ADD SLOAD PUSH1 0xFF AND PUSH2 0x2A64 JUMPI PUSH1 0x40 MLOAD PUSH3 0x461BCD PUSH1 0xE5 SHL DUP2 MSTORE PUSH1 0x4 ADD PUSH2 0x7B4 SWAP1 PUSH2 0x3103 JUMP JUMPDEST CALLER PUSH1 0x0 SWAP1 DUP2 MSTORE PUSH1 0x6 PUSH1 0x20 MSTORE PUSH1 0x40 DUP2 KECCAK256 DUP1 SLOAD CALLVALUE SWAP3 SWAP1 PUSH2 0x2A83 SWAP1 DUP5 SWAP1 PUSH2 0x33D4 JUMP JUMPDEST SWAP1 SWAP2 SSTORE POP PUSH1 0x0 SWAP1 POP PUSH1 0x64 PUSH1 0x1 PUSH2 0x2A99 DUP2 DUP6 PUSH2 0x342B JUMP JUMPDEST DUP2 SLOAD DUP2 LT PUSH2 0x2AB7 JUMPI PUSH4 0x4E487B71 PUSH1 0xE0 SHL PUSH1 0x0 MSTORE PUSH1 0x32 PUSH1 0x4 MSTORE PUSH1 0x24 PUSH1 0x0 REVERT JUMPDEST SWAP1 PUSH1 0x0 MSTORE PUSH1 0x20 PUSH1 0x0 KECCAK256 SWAP1 PUSH1 0x9 MUL ADD PUSH1 0x4 ADD SLOAD PUSH1 0x14 PUSH2 0x2AD5 SWAP2 SWAP1 PUSH2 0x340C JUMP JUMPDEST PUSH2 0x2ADF SWAP2 SWAP1 PUSH2 0x33EC JUMP JUMPDEST SWAP1 POP DUP1 CALLVALUE LT ISZERO PUSH2 0x2B18 JUMPI CALLER PUSH1 0x0 SWAP1 DUP2 MSTORE PUSH1 0x6 PUSH1 0x20 MSTORE PUSH1 0x40 SWAP1 KECCAK256 SLOAD DUP2 GT ISZERO PUSH2 0x2B18 JUMPI PUSH1 0x40 MLOAD PUSH3 0x461BCD PUSH1 0xE5 SHL DUP2 MSTORE PUSH1 0x4 ADD PUSH2 0x7B4 SWAP1 PUSH2 0x31F7 JUMP JUMPDEST CALLER PUSH1 0x0 SWAP1 DUP2 MSTORE PUSH1 0x6 PUSH1 0x20 MSTORE PUSH1 0x40 DUP2 KECCAK256 DUP1 SLOAD DUP4 SWAP3 SWAP1 PUSH2 0x2B37 SWAP1 DUP5 SWAP1 PUSH2 0x342B JUMP JUMPDEST SWAP1 SWAP2 SSTORE POP POP CALLER PUSH1 0x0 SWAP1 DUP2 MSTORE PUSH1 0x7 PUSH1 0x20 MSTORE PUSH1 0x40 DUP2 KECCAK256 DUP1 SLOAD DUP4 SWAP3 SWAP1 PUSH2 0x2B5B SWAP1 DUP5 SWAP1 PUSH2 0x33D4 JUMP JUMPDEST SWAP1 SWAP2 SSTORE POP TIMESTAMP SWAP1 POP PUSH1 0x1 PUSH2 0x2B6E DUP2 DUP6 PUSH2 0x342B JUMP JUMPDEST DUP2 SLOAD DUP2 LT PUSH2 0x2B8C JUMPI PUSH4 0x4E487B71 PUSH1 0xE0 SHL PUSH1 0x0 MSTORE PUSH1 0x32 PUSH1 0x4 MSTORE PUSH1 0x24 PUSH1 0x0 REVERT JUMPDEST SWAP1 PUSH1 0x0 MSTORE PUSH1 0x20 PUSH1 0x0 KECCAK256 SWAP1 PUSH1 0x9 MUL ADD PUSH1 0x5 ADD SLOAD PUSH2 0x2BA8 SWAP2 SWAP1 PUSH2 0x33D4 JUMP JUMPDEST PUSH1 0x1 PUSH2 0x2BB4 DUP2 DUP6 PUSH2 0x342B JUMP JUMPDEST DUP2 SLOAD DUP2 LT PUSH2 0x2BD2 JUMPI PUSH4 0x4E487B71 PUSH1 0xE0 SHL PUSH1 0x0 MSTORE PUSH1 0x32 PUSH1 0x4 MSTORE PUSH1 0x24 PUSH1 0x0 REVERT JUMPDEST PUSH1 0x0 SWAP2 DUP3 MSTORE PUSH1 0x20 SWAP1 SWAP2 KECCAK256 PUSH1 0x6 PUSH1 0x9 SWAP1 SWAP3 MUL ADD ADD SSTORE CALLER PUSH1 0x1 PUSH2 0x2BF3 DUP2 DUP6 PUSH2 0x342B JUMP JUMPDEST DUP2 SLOAD DUP2 LT PUSH2 0x2C11 JUMPI PUSH4 0x4E487B71 PUSH1 0xE0 SHL PUSH1 0x0 MSTORE PUSH1 0x32 PUSH1 0x4 MSTORE PUSH1 0x24 PUSH1 0x0 REVERT JUMPDEST PUSH1 0x0 SWAP2 DUP3 MSTORE PUSH1 0x20 DUP3 KECCAK256 PUSH1 0x9 SWAP2 SWAP1 SWAP2 MUL ADD PUSH1 0x2 ADD DUP1 SLOAD PUSH1 0x1 PUSH1 0x1 PUSH1 0xA0 SHL SUB NOT AND PUSH1 0x1 PUSH1 0x1 PUSH1 0xA0 SHL SUB SWAP4 SWAP1 SWAP4 AND SWAP3 SWAP1 SWAP3 OR SWAP1 SWAP2 SSTORE PUSH1 0x1 PUSH2 0x2C4F DUP2 DUP6 PUSH2 0x342B JUMP JUMPDEST DUP2 SLOAD DUP2 LT PUSH2 0x2C6D JUMPI PUSH4 0x4E487B71 PUSH1 0xE0 SHL PUSH1 0x0 MSTORE PUSH1 0x32 PUSH1 0x4 MSTORE PUSH1 0x24 PUSH1 0x0 REVERT JUMPDEST PUSH1 0x0 SWAP2 DUP3 MSTORE PUSH1 0x20 DUP1 DUP4 KECCAK256 PUSH1 0x9 SWAP3 SWAP1 SWAP3 MUL SWAP1 SWAP2 ADD PUSH1 0x8 ADD DUP1 SLOAD PUSH1 0xFF NOT AND SWAP4 ISZERO ISZERO SWAP4 SWAP1 SWAP4 OR SWAP1 SWAP3 SSTORE CALLER DUP2 MSTORE PUSH1 0x3 DUP3 MSTORE PUSH1 0x40 DUP2 KECCAK256 DUP1 SLOAD PUSH1 0x1 DUP2 DUP2 ADD DUP4 SSTORE SWAP2 DUP4 MSTORE SWAP3 SWAP1 SWAP2 KECCAK256 SWAP1 SWAP2 ADD DUP4 SWAP1 SSTORE PUSH32 0xC6F3E07C4B20B159A57BDA01879E04CD4D7FAF5D15B913E25B16673DCC0DD2AB SWAP1 PUSH2 0x2CE0 DUP2 DUP6 PUSH2 0x342B JUMP JUMPDEST DUP2 SLOAD DUP2 LT PUSH2 0x2CFE JUMPI PUSH4 0x4E487B71 PUSH1 0xE0 SHL PUSH1 0x0 MSTORE PUSH1 0x32 PUSH1 0x4 MSTORE PUSH1 0x24 PUSH1 0x0 REVERT JUMPDEST SWAP1 PUSH1 0x0 MSTORE PUSH1 0x20 PUSH1 0x0 KECCAK256 SWAP1 PUSH1 0x9 MUL ADD PUSH1 0x6 ADD SLOAD PUSH1 0x40 MLOAD PUSH2 0x2D1D SWAP2 SWAP1 PUSH2 0x32F5 JUMP JUMPDEST PUSH1 0x40 MLOAD DUP1 SWAP2 SUB SWAP1 LOG1 POP POP JUMP JUMPDEST PUSH1 0x4 PUSH1 0x20 MSTORE PUSH1 0x0 SWAP1 DUP2 MSTORE PUSH1 0x40 SWAP1 KECCAK256 SLOAD DUP2 JUMP JUMPDEST PUSH1 0x2 PUSH1 0x0 SLOAD EQ ISZERO PUSH2 0x2D5E JUMPI PUSH1 0x40 MLOAD PUSH3 0x461BCD PUSH1 0xE5 SHL DUP2 MSTORE PUSH1 0x4 ADD PUSH2 0x7B4 SWAP1 PUSH2 0x3287 JUMP JUMPDEST PUSH1 0x2 PUSH1 0x0 SSTORE JUMP JUMPDEST PUSH1 0x1 PUSH1 0x0 SSTORE JUMP JUMPDEST DUP3 DUP1 SLOAD PUSH2 0x2D78 SWAP1 PUSH2 0x3442 JUMP JUMPDEST SWAP1 PUSH1 0x0 MSTORE PUSH1 0x20 PUSH1 0x0 KECCAK256 SWAP1 PUSH1 0x1F ADD PUSH1 0x20 SWAP1 DIV DUP2 ADD SWAP3 DUP3 PUSH2 0x2D9A JUMPI PUSH1 0x0 DUP6 SSTORE PUSH2 0x2DE0 JUMP JUMPDEST DUP3 PUSH1 0x1F LT PUSH2 0x2DB3 JUMPI DUP1 MLOAD PUSH1 0xFF NOT AND DUP4 DUP1 ADD OR DUP6 SSTORE PUSH2 0x2DE0 JUMP JUMPDEST DUP3 DUP1 ADD PUSH1 0x1 ADD DUP6 SSTORE DUP3 ISZERO PUSH2 0x2DE0 JUMPI SWAP2 DUP3 ADD JUMPDEST DUP3 DUP2 GT ISZERO PUSH2 0x2DE0 JUMPI DUP3 MLOAD DUP3 SSTORE SWAP2 PUSH1 0x20 ADD SWAP2 SWAP1 PUSH1 0x1 ADD SWAP1 PUSH2 0x2DC5 JUMP JUMPDEST POP PUSH2 0x2DEC SWAP3 SWAP2 POP PUSH2 0x2DF0 JUMP JUMPDEST POP SWAP1 JUMP JUMPDEST JUMPDEST DUP1 DUP3 GT ISZERO PUSH2 0x2DEC JUMPI PUSH1 0x0 DUP2 SSTORE PUSH1 0x1 ADD PUSH2 0x2DF1 JUMP JUMPDEST DUP1 CALLDATALOAD PUSH1 0x1 PUSH1 0x1 PUSH1 0xA0 SHL SUB DUP2 AND DUP2 EQ PUSH2 0x10C5 JUMPI PUSH1 0x0 DUP1 REVERT JUMPDEST PUSH1 0x0 DUP3 PUSH1 0x1F DUP4 ADD SLT PUSH2 0x2E2C JUMPI DUP1 DUP2 REVERT JUMPDEST DUP2 CALLDATALOAD PUSH8 0xFFFFFFFFFFFFFFFF DUP1 DUP3 GT ISZERO PUSH2 0x2E47 JUMPI PUSH2 0x2E47 PUSH2 0x3493 JUMP JUMPDEST PUSH1 0x40 MLOAD PUSH1 0x1F DUP4 ADD PUSH1 0x1F NOT AND DUP2 ADD PUSH1 0x20 ADD DUP3 DUP2 GT DUP3 DUP3 LT OR ISZERO PUSH2 0x2E6B JUMPI PUSH2 0x2E6B PUSH2 0x3493 JUMP JUMPDEST PUSH1 0x40 MSTORE DUP3 DUP2 MSTORE DUP5 DUP4 ADD PUSH1 0x20 ADD DUP7 LT ISZERO PUSH2 0x2E82 JUMPI DUP4 DUP5 REVERT JUMPDEST DUP3 PUSH1 0x20 DUP7 ADD PUSH1 0x20 DUP4 ADD CALLDATACOPY SWAP2 DUP3 ADD PUSH1 0x20 ADD SWAP3 SWAP1 SWAP3 MSTORE SWAP4 SWAP3 POP POP POP JUMP JUMPDEST PUSH1 0x0 PUSH1 0x20 DUP3 DUP5 SUB SLT ISZERO PUSH2 0x2EAE JUMPI DUP1 DUP2 REVERT JUMPDEST PUSH2 0x2EB7 DUP3 PUSH2 0x2E05 JUMP JUMPDEST SWAP4 SWAP3 POP POP POP JUMP JUMPDEST PUSH1 0x0 DUP1 PUSH1 0x40 DUP4 DUP6 SUB SLT ISZERO PUSH2 0x2ED0 JUMPI DUP1 DUP2 REVERT JUMPDEST PUSH2 0x2ED9 DUP4 PUSH2 0x2E05 JUMP JUMPDEST SWAP5 PUSH1 0x20 SWAP4 SWAP1 SWAP4 ADD CALLDATALOAD SWAP4 POP POP POP JUMP JUMPDEST PUSH1 0x0 PUSH1 0x20 DUP3 DUP5 SUB SLT ISZERO PUSH2 0x2EF8 JUMPI DUP1 DUP2 REVERT JUMPDEST DUP2 CALLDATALOAD DUP1 ISZERO ISZERO DUP2 EQ PUSH2 0x2EB7 JUMPI DUP2 DUP3 REVERT JUMPDEST PUSH1 0x0 DUP1 PUSH1 0x0 PUSH1 0x60 DUP5 DUP7 SUB SLT ISZERO PUSH2 0x2F1B JUMPI DUP1 DUP2 REVERT JUMPDEST DUP4 CALLDATALOAD PUSH8 0xFFFFFFFFFFFFFFFF DUP2 GT ISZERO PUSH2 0x2F31 JUMPI DUP2 DUP3 REVERT JUMPDEST PUSH2 0x2F3D DUP7 DUP3 DUP8 ADD PUSH2 0x2E1C JUMP JUMPDEST SWAP7 PUSH1 0x20 DUP7 ADD CALLDATALOAD SWAP7 POP PUSH1 0x40 SWAP1 SWAP6 ADD CALLDATALOAD SWAP5 SWAP4 POP POP POP POP JUMP JUMPDEST PUSH1 0x0 PUSH1 0x20 DUP3 DUP5 SUB SLT ISZERO PUSH2 0x2F64 JUMPI DUP1 DUP2 REVERT JUMPDEST POP CALLDATALOAD SWAP2 SWAP1 POP JUMP JUMPDEST PUSH1 0x0 DUP1 PUSH1 0x40 DUP4 DUP6 SUB SLT ISZERO PUSH2 0x2F7D JUMPI DUP2 DUP3 REVERT JUMPDEST DUP3 CALLDATALOAD SWAP2 POP PUSH1 0x20 DUP4 ADD CALLDATALOAD PUSH8 0xFFFFFFFFFFFFFFFF DUP2 GT ISZERO PUSH2 0x2F9A JUMPI DUP2 DUP3 REVERT JUMPDEST PUSH2 0x2FA6 DUP6 DUP3 DUP7 ADD PUSH2 0x2E1C JUMP JUMPDEST SWAP2 POP POP SWAP3 POP SWAP3 SWAP1 POP JUMP JUMPDEST PUSH1 0x0 DUP1 PUSH1 0x40 DUP4 DUP6 SUB SLT ISZERO PUSH2 0x2FC2 JUMPI DUP2 DUP3 REVERT JUMPDEST POP POP DUP1 CALLDATALOAD SWAP3 PUSH1 0x20 SWAP1 SWAP2 ADD CALLDATALOAD SWAP2 POP JUMP JUMPDEST ISZERO ISZERO SWAP1 MSTORE JUMP JUMPDEST PUSH1 0x4 DUP2 LT PUSH2 0x2FF5 JUMPI PUSH4 0x4E487B71 PUSH1 0xE0 SHL PUSH1 0x0 MSTORE PUSH1 0x21 PUSH1 0x4 MSTORE PUSH1 0x24 PUSH1 0x0 REVERT JUMPDEST SWAP1 MSTORE JUMP JUMPDEST SWAP1 JUMP JUMPDEST PUSH1 0x1 PUSH1 0x1 PUSH1 0xA0 SHL SUB SWAP2 SWAP1 SWAP2 AND DUP2 MSTORE PUSH1 0x20 ADD SWAP1 JUMP JUMPDEST PUSH1 0x20 DUP1 DUP3 MSTORE DUP3 MLOAD DUP3 DUP3 ADD DUP2 SWAP1 MSTORE PUSH1 0x0 SWAP2 SWAP1 DUP5 DUP3 ADD SWAP1 PUSH1 0x40 DUP6 ADD SWAP1 DUP5 JUMPDEST DUP2 DUP2 LT ISZERO PUSH2 0x3048 JUMPI DUP4 MLOAD DUP4 MSTORE SWAP3 DUP5 ADD SWAP3 SWAP2 DUP5 ADD SWAP2 PUSH1 0x1 ADD PUSH2 0x302C JUMP JUMPDEST POP SWAP1 SWAP7 SWAP6 POP POP POP POP POP POP JUMP JUMPDEST SWAP1 ISZERO ISZERO DUP2 MSTORE PUSH1 0x20 ADD SWAP1 JUMP JUMPDEST PUSH1 0x20 DUP1 DUP3 MSTORE PUSH1 0x14 SWAP1 DUP3 ADD MSTORE PUSH20 0x2330B4B632B2103A379039B2B7321022BA3432B9 PUSH1 0x61 SHL PUSH1 0x40 DUP3 ADD MSTORE PUSH1 0x60 ADD SWAP1 JUMP JUMPDEST PUSH1 0x20 DUP1 DUP3 MSTORE PUSH1 0x27 SWAP1 DUP3 ADD MSTORE PUSH32 0x207468652070726F6A656374206973206E6F7420636F6D706C65746564207761 PUSH1 0x40 DUP3 ADD MSTORE PUSH7 0x6974206D6F7265 PUSH1 0xC8 SHL PUSH1 0x60 DUP3 ADD MSTORE PUSH1 0x80 ADD SWAP1 JUMP JUMPDEST PUSH1 0x20 DUP1 DUP3 MSTORE PUSH1 0x15 SWAP1 DUP3 ADD MSTORE PUSH21 0x20796F752073686F756C642077616974206D6F7265 PUSH1 0x58 SHL PUSH1 0x40 DUP3 ADD MSTORE PUSH1 0x60 ADD SWAP1 JUMP JUMPDEST PUSH1 0x20 DUP1 DUP3 MSTORE PUSH1 0x2F SWAP1 DUP3 ADD MSTORE PUSH32 0x496E76616C69642070726F6A656374204944206F72207468652070726F6A6563 PUSH1 0x40 DUP3 ADD MSTORE PUSH15 0x74206973206E6F7420616374697665 PUSH1 0x88 SHL PUSH1 0x60 DUP3 ADD MSTORE PUSH1 0x80 ADD SWAP1 JUMP JUMPDEST PUSH1 0x20 DUP1 DUP3 MSTORE PUSH1 0x1C SWAP1 DUP3 ADD MSTORE PUSH32 0x4475726174696F6E206D757374206265206D6F7265207468616E203000000000 PUSH1 0x40 DUP3 ADD MSTORE PUSH1 0x60 ADD SWAP1 JUMP JUMPDEST PUSH1 0x20 DUP1 DUP3 MSTORE PUSH1 0x1C SWAP1 DUP3 ADD MSTORE PUSH32 0x796F757220636C69656E74206973206E6F742073617469736669656400000000 PUSH1 0x40 DUP3 ADD MSTORE PUSH1 0x60 ADD SWAP1 JUMP JUMPDEST PUSH1 0x20 DUP1 DUP3 MSTORE PUSH1 0x18 SWAP1 DUP3 ADD MSTORE PUSH32 0x796F75722070656F6A656374206973206E6F7420646F6E650000000000000000 PUSH1 0x40 DUP3 ADD MSTORE PUSH1 0x60 ADD SWAP1 JUMP JUMPDEST PUSH1 0x20 DUP1 DUP3 MSTORE PUSH1 0x1B SWAP1 DUP3 ADD MSTORE PUSH32 0x506C6561736520496E63726561736520796F7572206372656469740000000000 PUSH1 0x40 DUP3 ADD MSTORE PUSH1 0x60 ADD SWAP1 JUMP JUMPDEST PUSH1 0x20 DUP1 DUP3 MSTORE PUSH1 0x10 SWAP1 DUP3 ADD MSTORE PUSH16 0x1DDC9BDB99C81C1C9BDA9958DD081251 PUSH1 0x82 SHL PUSH1 0x40 DUP3 ADD MSTORE PUSH1 0x60 ADD SWAP1 JUMP JUMPDEST PUSH1 0x20 DUP1 DUP3 MSTORE PUSH1 0x15 SWAP1 DUP3 ADD MSTORE PUSH21 0x50726F6A65637420697320416374697665206E6F77 PUSH1 0x58 SHL PUSH1 0x40 DUP3 ADD MSTORE PUSH1 0x60 ADD SWAP1 JUMP JUMPDEST PUSH1 0x20 DUP1 DUP3 MSTORE PUSH1 0x1F SWAP1 DUP3 ADD MSTORE PUSH32 0x5265656E7472616E637947756172643A207265656E7472616E742063616C6C00 PUSH1 0x40 DUP3 ADD MSTORE PUSH1 0x60 ADD SWAP1 JUMP JUMPDEST PUSH1 0x20 DUP1 DUP3 MSTORE PUSH1 0x1D SWAP1 DUP3 ADD MSTORE PUSH32 0x636F6E6669726D6174696F6E206973206E6F7420636F6D706C65746564000000 PUSH1 0x40 DUP3 ADD MSTORE PUSH1 0x60 ADD SWAP1 JUMP JUMPDEST SWAP1 DUP2 MSTORE PUSH1 0x20 ADD SWAP1 JUMP JUMPDEST PUSH1 0x0 PUSH2 0x160 DUP14 DUP4 MSTORE PUSH1 0x20 PUSH1 0x1 DUP1 PUSH1 0xA0 SHL SUB DUP1 DUP16 AND DUP3 DUP7 ADD MSTORE DUP1 DUP15 AND PUSH1 0x40 DUP7 ADD MSTORE POP DUP2 PUSH1 0x60 DUP6 ADD MSTORE DUP12 MLOAD DUP1 DUP4 DUP7 ADD MSTORE DUP4 SWAP3 POP JUMPDEST DUP1 DUP4 LT ISZERO PUSH2 0x334F JUMPI DUP13 DUP4 ADD DUP3 ADD MLOAD DUP6 DUP5 ADD PUSH2 0x180 ADD MSTORE SWAP2 DUP2 ADD SWAP2 PUSH2 0x3330 JUMP JUMPDEST DUP1 DUP4 GT ISZERO PUSH2 0x3361 JUMPI DUP4 PUSH2 0x180 DUP3 DUP8 ADD ADD MSTORE JUMPDEST PUSH2 0x180 PUSH1 0x1F NOT PUSH1 0x1F DUP4 ADD AND DUP7 ADD ADD SWAP4 POP POP POP POP DUP9 PUSH1 0x80 DUP4 ADD MSTORE DUP8 PUSH1 0xA0 DUP4 ADD MSTORE DUP7 PUSH1 0xC0 DUP4 ADD MSTORE DUP6 PUSH1 0xE0 DUP4 ADD MSTORE PUSH2 0x339A PUSH2 0x100 DUP4 ADD DUP7 PUSH2 0x2FD1 JUMP JUMPDEST PUSH2 0x33A8 PUSH2 0x120 DUP4 ADD DUP6 PUSH2 0x2FD1 JUMP JUMPDEST PUSH2 0x33B6 PUSH2 0x140 DUP4 ADD DUP5 PUSH2 0x2FD7 JUMP JUMPDEST SWAP13 SWAP12 POP POP POP POP POP POP POP POP POP POP POP POP JUMP JUMPDEST SWAP2 DUP3 MSTORE PUSH1 0x20 DUP3 ADD MSTORE PUSH1 0x40 ADD SWAP1 JUMP JUMPDEST PUSH1 0x0 DUP3 NOT DUP3 GT ISZERO PUSH2 0x33E7 JUMPI PUSH2 0x33E7 PUSH2 0x347D JUMP JUMPDEST POP ADD SWAP1 JUMP JUMPDEST PUSH1 0x0 DUP3 PUSH2 0x3407 JUMPI PUSH4 0x4E487B71 PUSH1 0xE0 SHL DUP2 MSTORE PUSH1 0x12 PUSH1 0x4 MSTORE PUSH1 0x24 DUP2 REVERT JUMPDEST POP DIV SWAP1 JUMP JUMPDEST PUSH1 0x0 DUP2 PUSH1 0x0 NOT DIV DUP4 GT DUP3 ISZERO ISZERO AND ISZERO PUSH2 0x3426 JUMPI PUSH2 0x3426 PUSH2 0x347D JUMP JUMPDEST POP MUL SWAP1 JUMP JUMPDEST PUSH1 0x0 DUP3 DUP3 LT ISZERO PUSH2 0x343D JUMPI PUSH2 0x343D PUSH2 0x347D JUMP JUMPDEST POP SUB SWAP1 JUMP JUMPDEST PUSH1 0x2 DUP2 DIV PUSH1 0x1 DUP3 AND DUP1 PUSH2 0x3456 JUMPI PUSH1 0x7F DUP3 AND SWAP2 POP JUMPDEST PUSH1 0x20 DUP3 LT DUP2 EQ ISZERO PUSH2 0x3477 JUMPI PUSH4 0x4E487B71 PUSH1 0xE0 SHL PUSH1 0x0 MSTORE PUSH1 0x22 PUSH1 0x4 MSTORE PUSH1 0x24 PUSH1 0x0 REVERT JUMPDEST POP SWAP2 SWAP1 POP JUMP JUMPDEST PUSH4 0x4E487B71 PUSH1 0xE0 SHL PUSH1 0x0 MSTORE PUSH1 0x11 PUSH1 0x4 MSTORE PUSH1 0x24 PUSH1 0x0 REVERT JUMPDEST PUSH4 0x4E487B71 PUSH1 0xE0 SHL PUSH1 0x0 MSTORE PUSH1 0x41 PUSH1 0x4 MSTORE PUSH1 0x24 PUSH1 0x0 REVERT INVALID LOG2 PUSH5 0x6970667358 0x22 SLT KECCAK256 0x26 ADD MUL SWAP7 MSTORE8 0x26 0xB8 CHAINID SWAP5 JUMPDEST ADDMOD SWAP3 0xAF EXP 0x4F PUSH15 0x1A3BC98B568337E07FC00C76F89715 0x2D PUSH5 0x736F6C6343 STOP ADDMOD STOP STOP CALLER ","sha1":"69e1f2e8b0728f9d4469af63009380b87a01d057","source":"// SPDX-License-Identifier: MIT\npragma solidity >=0.8.0;\n\n\nimport \"@openzeppelin/contracts/security/ReentrancyGuard.sol\";\n\n\ncontract WorkChain is ReentrancyGuard {\n\n    event CreatedProject(uint indexed ID, string  message);\n    event DeadLineNotice (uint  deadline);\n  \n\n    \n\n    enum IsAccepted {\n        No,\n        Yes,\n        Dissatisfied,\n        Reviewing\n\n    }\n    struct Project {\n        uint256 projectID;\n        address employer;\n        address employee;\n        string projectDescription;\n        uint256 budget;\n        uint256 projectDuration;\n        uint256 deadLine;\n        uint256 endTime; \n        bool isActive;\n        bool isCompleted;\n        IsAccepted isAccepted;\n    }\n\n\n    Project[] public projects;\n    mapping(address =>uint[]) public employerProjects;\n    mapping(address =>uint[]) public employeeProjects;\n    mapping(address =>uint256) public credits;\n    mapping(address =>uint256) public lockedCredits;\n    mapping(address =>uint256) private employeeCredits;\n    mapping(address =>uint256) public employeeLockedCredits;\n    mapping (address => bool) private ownerStatus;\n    uint256 public treasury ;\n    address public owner1;\n    address public owner2;\n    bool public status = true;\n    \n\n\n\n\n\n\n    modifier checkBalance (uint256 _budget) {\n        credits[msg.sender] += msg.value;\n        if (msg.value < _budget){\n            require (credits[msg.sender]>= _budget, 'Please Increase your credit');\n            _;\n        }\n        _;\n    }\n\n    modifier checkEmployee (uint256 _projectID){\n        require(projects[_projectID - 1].employee == msg.sender);\n        _;\n    }\n    modifier checkEmployer (uint256 _projectID){\n        require(projects[_projectID - 1].employer == msg.sender);\n        _;\n    }\n    modifier onlyOwner() {\n        require (msg.sender == owner1 || msg.sender == owner2);\n        _;\n    }\n    modifier working () {\n        require (status);\n        _;\n    }\n\n    constructor(address _owner1, address _owner2) {\n        owner1 = _owner1;\n        owner2 = _owner2;\n        ownerStatus[owner1] = false;\n        ownerStatus[owner2] = false;\n\n    }\n\n\n\n\n\n\n\n\n    function createProject(string memory _projectDescription, uint256 _budget, uint256 _projectDuration ) \n    public payable checkBalance(_budget) working {\n        require (_projectDuration >0, 'Duration must be more than 0');\n        credits[msg.sender] -= _budget;\n        lockedCredits[msg.sender] += _budget;\n\n        uint256 projectID = projects.length + 1;\n        uint256 projectTime = _projectDuration * 1 days;\n        Project memory NewProject = Project(projectID, msg.sender,address(0), _projectDescription,\n        _budget, projectTime, 0, 0, true, false, IsAccepted.No);\n        projects.push(NewProject);\n        employerProjects[msg.sender].push(projectID);\n        emit CreatedProject(projectID, 'Project is Active now');\n\n    }\n\n    function acceptProject (uint256 _projectID ) public payable working{\n        require(projects[_projectID - 1].isActive,'Invalid project ID or the project is not active');\n        employeeCredits[msg.sender] += msg.value;\n        uint256 guarantee = (projects[_projectID - 1].budget * 20) /100;\n        if (msg.value < guarantee){\n            require (employeeCredits[msg.sender]>= guarantee, 'Please Increase your credit');\n        }\n        employeeCredits[msg.sender] -= guarantee;\n        employeeLockedCredits[msg.sender] += guarantee;\n        projects[_projectID - 1].deadLine = projects[_projectID - 1].projectDuration + block.timestamp;\n        projects[_projectID - 1].employee = msg.sender;\n        projects[_projectID - 1].isActive = false;\n        employeeProjects[msg.sender].push(_projectID);\n        \n\n        emit DeadLineNotice(projects[_projectID - 1].deadLine);\n\n    }\n    function completedProject (uint256 _projectID) public checkEmployee(_projectID) {\n        projects[_projectID - 1].isCompleted = true;\n        projects[_projectID - 1].endTime = block.timestamp;\n        \n    }\n\n    function confirmedProject (uint256 _projectID) public checkEmployer(_projectID){\n        require(projects[_projectID - 1].isCompleted == true,' the project is not completed wait more');\n        projects[_projectID - 1].isAccepted = IsAccepted.Yes;\n        \n\n    }\n\n    function releasePayment(uint256 _projectID) public checkEmployee(_projectID){\n        require(projects[_projectID - 1].isAccepted == IsAccepted.Yes,' you should wait more');\n        uint256 budget = projects[_projectID - 1].budget;\n\n        if (projects[_projectID - 1].endTime <= projects[_projectID - 1].deadLine){\n            lockedCredits[projects[_projectID - 1].employer] -= budget;\n            employeeLockedCredits[projects[_projectID - 1].employee] -= (budget * 20)/100;\n            employeeCredits[projects[_projectID - 1].employee] += ((budget * 20) + (budget * 95)) /100;\n            treasury +=(budget * 5)/100;\n\n        } else if (projects[_projectID - 1].endTime - projects[_projectID - 1].deadLine <= projects[_projectID - 1].projectDuration * 20/100){\n            lockedCredits[projects[_projectID - 1].employer] -= budget;\n            credits[projects[_projectID - 1].employer] += (budget * 10)/100;\n            employeeLockedCredits[projects[_projectID - 1].employee] -= (budget * 20)/100;\n            employeeCredits[projects[_projectID - 1].employee] += ((budget * 20) + (budget * 80)) /100;\n            treasury += (budget * 10)/100;\n\n        } else {\n            lockedCredits[projects[_projectID - 1].employer] -= budget;\n            credits[projects[_projectID - 1].employer] += (budget * 30)/100;\n            employeeCredits[projects[_projectID - 1].employee] += (budget * 70)/100;\n            employeeLockedCredits[projects[_projectID - 1].employee] -= (budget * 20)/100;\n            treasury += (budget * 20)/100;\n\n        }\n    }\n    function notConfirmed (uint256 _projectID) public checkEmployee(_projectID){\n        require(projects[_projectID - 1].isAccepted != IsAccepted.Dissatisfied, 'your client is not satisfied');\n        require(block.timestamp >= projects[_projectID - 1].endTime +1 days );\n        projects[_projectID - 1].isAccepted = IsAccepted.Yes;\n\n    }\n\n    function dissatisfied (uint256 _projectID) public checkEmployer(_projectID){\n        require(projects[_projectID - 1].isCompleted == true, 'your peoject is not done');\n        projects[_projectID - 1].isAccepted = IsAccepted.Dissatisfied;\n\n    }\n\n    function withdraw(uint256 _Amount, string memory _position) public nonReentrant {\n        bytes32 positionHash = keccak256(bytes(_position));\n        if (positionHash == keccak256(\"Employer\")) {\n            require(credits[msg.sender]>= _Amount);\n            credits[msg.sender] -= _Amount;\n            (bool success, ) = msg.sender.call{value: _Amount}(\"\");\n            require(success);\n\n\n        } else if (positionHash == keccak256(\"Employee\")) {\n            require(employeeCredits[msg.sender]>= _Amount);\n            employeeCredits[msg.sender] -= _Amount;\n            (bool success, ) = msg.sender.call{value: _Amount}(\"\");\n            require(success);\n        } \n\n\n    }\n    function review(uint256 _projectID) public {\n        require(projects[_projectID - 1].employer == msg.sender || projects[_projectID - 1].employee == msg.sender,'wrong project ID');\n        require(projects[_projectID - 1].isCompleted == true, 'your peoject is not done');\n        projects[_projectID - 1].isAccepted = IsAccepted.Reviewing;\n\n    }\n\n    function finalDecision (uint256 _projectID, uint256 Proportion ) public onlyOwner{\n        require(Proportion<=70);\n        require(projects[_projectID - 1].isAccepted == IsAccepted.Reviewing);\n        projects[_projectID - 1].isAccepted = IsAccepted.Yes;\n        uint256 budget = projects[_projectID - 1].budget;\n        lockedCredits[projects[_projectID - 1].employer] -= budget;\n        credits[projects[_projectID - 1].employer] += (budget * Proportion)/100;\n        employeeLockedCredits[projects[_projectID - 1].employee] -= (budget * 20)/100;\n        employeeCredits[projects[_projectID - 1].employee] += ((budget * 20) + (budget * (100 - Proportion - 30))) /100;\n        treasury += (budget * 30)/100;\n    }\n\n    function cancelProject (uint256 _projectID) public checkEmployer(_projectID){\n        require(projects[_projectID - 1].isActive == true);\n        projects[_projectID - 1].isActive = false;\n        uint256 budget = projects[_projectID - 1].budget;\n        lockedCredits[projects[_projectID - 1].employer] -= budget;\n        credits[projects[_projectID - 1].employer] += budget;\n\n    }\n\n\n\n    function confirm() public onlyOwner {\n        \n        ownerStatus[msg.sender] = true;\n    }\n\n    function setPause (bool _paused) public onlyOwner {\n        require (ownerStatus[owner1]  && ownerStatus[owner2] ,'confirmation is not completed');\n        status = _paused;\n        ownerStatus[owner1] = false;\n        ownerStatus[owner2] = false;\n\n    }\n\n    function withdrawTreasury () public payable onlyOwner() nonReentrant{\n        require(ownerStatus[owner2] == true);\n        \n        (bool success,) = owner1.call{value:treasury}('');\n        require(success,\"Failed to send Ether\");\n        treasury = 0;\n        \n    }\n\n\n\n    function getProject(uint256 _projectID) view public returns(uint256 projectID,\n        address employer,address employee,string memory projectDescription,\n        uint256 budget, uint256 projectDuration,uint256 deadLine,\n        uint256 endTime,bool isActive,bool isCompleted,IsAccepted isAccepted) {\n        projectID =  projects[_projectID - 1].projectID;\n        employer =  projects[_projectID - 1].employer;\n        employee =  projects[_projectID - 1].employee;\n        projectDescription =  projects[_projectID - 1].projectDescription;\n        budget =  projects[_projectID - 1].budget;\n        projectDuration = projects[_projectID - 1].projectDuration;\n        deadLine= projects[_projectID - 1].deadLine;\n        endTime= projects[_projectID - 1].endTime;\n        isActive =  projects[_projectID - 1].isActive;\n        isCompleted = projects[_projectID - 1].isCompleted;\n        isAccepted = projects[_projectID - 1].isAccepted;\n\n\n    }\n\n    function getEmployeeProjects(address _address) view public returns(uint[] memory){\n        return (employeeProjects[_address]);\n    }\n\n    function  getEmployerProjects(address _address) view public returns(uint[] memory){\n        return (employerProjects[_address]);\n\n\n    }\n    function  getEmployerCreadits(address _address) view public returns(uint,uint){\n        return (credits[_address],lockedCredits[_address]);\n\n    }\n    function  getEmployeeCreadits(address _address) view public returns(uint,uint){\n        return (employeeCredits[_address],employeeLockedCredits[_address]);\n\n    }\n    function  getStatus() view public returns(bool){\n        return (status);\n\n    }\n    function  getTreasury() view public returns(uint256){\n        return (treasury);\n\n    }\n\n\n\n}\n\n\n\n","sourcePath":"contracts/WorkChain.sol","type":"contract","deployment":{"address":"0x5BE69f1cA239e110277cA2144a7c7e1E6f9d40ac","chainid":"11155111","blockHeight":4341973}}