{"abi":[{"inputs":[{"internalType":"address","name":"_owner1","type":"address"},{"internalType":"address","name":"_owner2","type":"address"}],"stateMutability":"nonpayable","type":"constructor","name":"constructor"},{"anonymous":false,"inputs":[{"indexed":false,"internalType":"string","name":"message","type":"string"}],"name":"Completed","type":"event"},{"anonymous":false,"inputs":[{"indexed":false,"internalType":"uint256","name":"ID","type":"uint256"},{"indexed":false,"internalType":"string","name":"message","type":"string"}],"name":"CreatedProject","type":"event"},{"anonymous":false,"inputs":[{"indexed":false,"internalType":"uint256","name":"deadline","type":"uint256"}],"name":"DeadLineNotice","type":"event"},{"anonymous":false,"inputs":[{"indexed":false,"internalType":"string","name":"message","type":"string"}],"name":"See","type":"event"},{"inputs":[{"internalType":"uint256","name":"_ProjectId","type":"uint256"}],"name":"AcceptProject","outputs":[],"stateMutability":"payable","type":"function"},{"inputs":[{"internalType":"uint256","name":"_ProjectId","type":"uint256"}],"name":"CompletedProject","outputs":[],"stateMutability":"nonpayable","type":"function"},{"inputs":[{"internalType":"uint256","name":"_ProjectId","type":"uint256"}],"name":"ConfirmedProject","outputs":[],"stateMutability":"nonpayable","type":"function"},{"inputs":[{"internalType":"string","name":"ProjectDescription","type":"string"},{"internalType":"uint256","name":"Budget","type":"uint256"},{"internalType":"uint256","name":"ProjectDuration","type":"uint256"}],"name":"CreateProject","outputs":[],"stateMutability":"payable","type":"function"},{"inputs":[{"internalType":"uint256","name":"_ProjectId","type":"uint256"}],"name":"Dissatisfied","outputs":[],"stateMutability":"nonpayable","type":"function"},{"inputs":[{"internalType":"address","name":"","type":"address"},{"internalType":"uint256","name":"","type":"uint256"}],"name":"EmployeeProjects","outputs":[{"internalType":"uint256","name":"","type":"uint256"}],"stateMutability":"view","type":"function"},{"inputs":[{"internalType":"address","name":"","type":"address"}],"name":"Employee_lockedCredits","outputs":[{"internalType":"uint256","name":"","type":"uint256"}],"stateMutability":"view","type":"function"},{"inputs":[{"internalType":"address","name":"","type":"address"},{"internalType":"uint256","name":"","type":"uint256"}],"name":"EmployerProjects","outputs":[{"internalType":"uint256","name":"","type":"uint256"}],"stateMutability":"view","type":"function"},{"inputs":[{"internalType":"uint256","name":"_ProjectId","type":"uint256"}],"name":"NotConfirmed","outputs":[],"stateMutability":"nonpayable","type":"function"},{"inputs":[{"internalType":"uint256","name":"_ProjectId","type":"uint256"}],"name":"ReleasePayment","outputs":[],"stateMutability":"nonpayable","type":"function"},{"inputs":[{"internalType":"uint256","name":"_ProjectId","type":"uint256"}],"name":"Review","outputs":[],"stateMutability":"nonpayable","type":"function"},{"inputs":[{"internalType":"uint256","name":"_Amount","type":"uint256"},{"internalType":"string","name":"_position","type":"string"}],"name":"Withdraw","outputs":[],"stateMutability":"nonpayable","type":"function"},{"inputs":[],"name":"WithdrawTreasury","outputs":[],"stateMutability":"payable","type":"function"},{"inputs":[{"internalType":"uint256","name":"_ProjectId","type":"uint256"}],"name":"cancelProject","outputs":[],"stateMutability":"nonpayable","type":"function"},{"inputs":[],"name":"confirm","outputs":[],"stateMutability":"nonpayable","type":"function"},{"inputs":[{"internalType":"address","name":"","type":"address"}],"name":"credits","outputs":[{"internalType":"uint256","name":"","type":"uint256"}],"stateMutability":"view","type":"function"},{"inputs":[{"internalType":"uint256","name":"_ProjectId","type":"uint256"},{"internalType":"uint256","name":"Proportion","type":"uint256"}],"name":"finalDecision","outputs":[],"stateMutability":"nonpayable","type":"function"},{"inputs":[{"internalType":"uint256","name":"_ProjectId","type":"uint256"}],"name":"getProject","outputs":[{"internalType":"uint256","name":"ProjectID","type":"uint256"},{"internalType":"address","name":"Employer","type":"address"},{"internalType":"address","name":"Employee","type":"address"},{"internalType":"string","name":"ProjectDescription","type":"string"},{"internalType":"uint256","name":"Budget","type":"uint256"},{"internalType":"uint256","name":"ProjectDuration","type":"uint256"},{"internalType":"uint256","name":"DeadLine","type":"uint256"},{"internalType":"uint256","name":"EndTime","type":"uint256"},{"internalType":"bool","name":"isActive","type":"bool"},{"internalType":"bool","name":"isCompleted","type":"bool"},{"internalType":"enum WorkChain.IsAccepted","name":"isAccepted","type":"uint8"}],"stateMutability":"view","type":"function"},{"inputs":[{"internalType":"address","name":"_address","type":"address"}],"name":"get_employee_creadits","outputs":[{"internalType":"uint256","name":"","type":"uint256"},{"internalType":"uint256","name":"","type":"uint256"}],"stateMutability":"view","type":"function"},{"inputs":[{"internalType":"address","name":"_address","type":"address"}],"name":"get_employee_projects","outputs":[{"internalType":"uint256[]","name":"","type":"uint256[]"}],"stateMutability":"view","type":"function"},{"inputs":[{"internalType":"address","name":"_address","type":"address"}],"name":"get_employer_creadits","outputs":[{"internalType":"uint256","name":"","type":"uint256"},{"internalType":"uint256","name":"","type":"uint256"}],"stateMutability":"view","type":"function"},{"inputs":[{"internalType":"address","name":"_address","type":"address"}],"name":"get_employer_projects","outputs":[{"internalType":"uint256[]","name":"","type":"uint256[]"}],"stateMutability":"view","type":"function"},{"inputs":[],"name":"get_status","outputs":[{"internalType":"bool","name":"","type":"bool"}],"stateMutability":"view","type":"function"},{"inputs":[],"name":"get_treasury","outputs":[{"internalType":"uint256","name":"","type":"uint256"}],"stateMutability":"view","type":"function"},{"inputs":[{"internalType":"address","name":"","type":"address"}],"name":"lockedCredits","outputs":[{"internalType":"uint256","name":"","type":"uint256"}],"stateMutability":"view","type":"function"},{"inputs":[],"name":"owner1","outputs":[{"internalType":"address","name":"","type":"address"}],"stateMutability":"view","type":"function"},{"inputs":[],"name":"owner2","outputs":[{"internalType":"address","name":"","type":"address"}],"stateMutability":"view","type":"function"},{"inputs":[{"internalType":"uint256","name":"","type":"uint256"}],"name":"projects","outputs":[{"internalType":"uint256","name":"ProjectID","type":"uint256"},{"internalType":"address","name":"Employer","type":"address"},{"internalType":"address","name":"Employee","type":"address"},{"internalType":"string","name":"ProjectDescription","type":"string"},{"internalType":"uint256","name":"Budget","type":"uint256"},{"internalType":"uint256","name":"ProjectDuration","type":"uint256"},{"internalType":"uint256","name":"DeadLine","type":"uint256"},{"internalType":"uint256","name":"EndTime","type":"uint256"},{"internalType":"bool","name":"isActive","type":"bool"},{"internalType":"bool","name":"isCompleted","type":"bool"},{"internalType":"enum WorkChain.IsAccepted","name":"isaccepted","type":"uint8"}],"stateMutability":"view","type":"function"},{"inputs":[{"internalType":"bool","name":"_paused","type":"bool"}],"name":"setPause","outputs":[],"stateMutability":"nonpayable","type":"function"},{"inputs":[],"name":"status","outputs":[{"internalType":"bool","name":"","type":"bool"}],"stateMutability":"view","type":"function"},{"inputs":[],"name":"treasury","outputs":[{"internalType":"uint256","name":"","type":"uint256"}],"stateMutability":"view","type":"function"}],"bytecode":"6080604052600b805460ff60a01b1916600160a01b1790553480156200002457600080fd5b5060405162003702380380620037028339810160408190526200004791620000cc565b60016000908155600a80546001600160a01b03199081166001600160a01b039586161791829055600b80549091169385169390931783558316815260086020526040808220805460ff1990811690915592549093168152919091208054909116905562000103565b80516001600160a01b0381168114620000c757600080fd5b919050565b60008060408385031215620000df578182fd5b620000ea83620000af565b9150620000fa60208401620000af565b90509250929050565b6135ef80620001136000396000f3fe6080604052600436106101d85760003560e01c806385ea616a11610102578063bedb86fb11610095578063f3a873dd11610064578063f3a873dd14610522578063f573361114610542578063f95ff5b414610562578063fe5ff46814610582576101d8565b8063bedb86fb146104a2578063bf3a099f146104c2578063c0b03848146104e2578063f0f3f2c814610502576101d8565b8063affda4ab116100d1578063affda4ab14610414578063b50e8ccd14610442578063b902004114610462578063bcc9735714610482576101d8565b806385ea616a146103b95780638d01ccd9146103ce578063a28e5c3d146103e1578063a2f43a0114610401576101d8565b80633bb9d6341161017a57806361d027b31161014957806361d027b3146103725780637022b58e14610387578063736889141461039c57806382a3b856146103b1576101d8565b80633bb9d634146102f05780635270972514610310578063555b392d146103325780635ddaa77a14610352576101d8565b806324941147116101b6578063249411471461026c57806328599acd1461028e578063326b7558146102ae57806339aaba25146102db576101d8565b80631046a850146101dd578063107046bd14610213578063200d2ed21461024a575b600080fd5b3480156101e957600080fd5b506101fd6101f8366004612f57565b6105a2565b60405161020a91906133cf565b60405180910390f35b34801561021f57600080fd5b5061023361022e366004612fec565b6105d3565b60405161020a9b9a999897969594939291906133d8565b34801561025657600080fd5b5061025f6106da565b60405161020a91906130ed565b34801561027857600080fd5b5061028c610287366004612fec565b6106ea565b005b34801561029a57600080fd5b506101fd6102a9366004612f57565b610903565b3480156102ba57600080fd5b506102ce6102c9366004612f36565b61091f565b60405161020a91906130a9565b3480156102e757600080fd5b5061025f61098c565b3480156102fc57600080fd5b5061028c61030b366004612fec565b61099c565b34801561031c57600080fd5b50610325610b49565b60405161020a9190613095565b34801561033e57600080fd5b5061028c61034d366004613049565b610b58565b34801561035e57600080fd5b5061028c61036d366004613004565b610f12565b34801561037e57600080fd5b506101fd6110cc565b34801561039357600080fd5b5061028c6110d2565b3480156103a857600080fd5b5061032561111a565b61028c611129565b3480156103c557600080fd5b506101fd6111f0565b61028c6103dc366004612fa0565b6111f6565b3480156103ed57600080fd5b5061028c6103fc366004612fec565b6117f6565b61028c61040f366004612fec565b61207f565b34801561042057600080fd5b5061043461042f366004612f36565b6123b7565b60405161020a9291906134d6565b34801561044e57600080fd5b5061028c61045d366004612fec565b6123df565b34801561046e57600080fd5b506101fd61047d366004612f36565b612536565b34801561048e57600080fd5b506102ce61049d366004612f36565b612548565b3480156104ae57600080fd5b5061028c6104bd366004612f80565b6125b2565b3480156104ce57600080fd5b5061028c6104dd366004612fec565b612693565b3480156104ee57600080fd5b5061028c6104fd366004612fec565b61275c565b34801561050e57600080fd5b5061023361051d366004612fec565b612870565b34801561052e57600080fd5b5061028c61053d366004612fec565b612bf8565b34801561054e57600080fd5b5061043461055d366004612f36565b612d88565b34801561056e57600080fd5b506101fd61057d366004612f36565b612db0565b34801561058e57600080fd5b506101fd61059d366004612f36565b612dc2565b600360205281600052604060002081815481106105be57600080fd5b90600052602060002001600091509150505481565b600181815481106105e357600080fd5b600091825260209091206009909102018054600182015460028301546003840180549395506001600160a01b0392831694929091169261062290613552565b80601f016020809104026020016040519081016040528092919081815260200182805461064e90613552565b801561069b5780601f106106705761010080835404028352916020019161069b565b820191906000526020600020905b81548152906001019060200180831161067e57829003601f168201915b505050600484015460058501546006860154600787015460089097015495969295919450925060ff80821691610100810482169162010000909104168b565b600b54600160a01b900460ff1681565b803360016106f8818461353b565b8154811061071657634e487b7160e01b600052603260045260246000fd5b60009182526020909120600160099092020101546001600160a01b03161461073d57600080fd5b6001610749818461353b565b8154811061076757634e487b7160e01b600052603260045260246000fd5b600091825260209091206008600990920201015460ff16151560011461078c57600080fd5b6000600161079a818561353b565b815481106107b857634e487b7160e01b600052603260045260246000fd5b60009182526020822060099190910201600801805460ff19169215159290921790915560016107e7818561353b565b8154811061080557634e487b7160e01b600052603260045260246000fd5b906000526020600020906009020160040154905080600560006001808761082c919061353b565b8154811061084a57634e487b7160e01b600052603260045260246000fd5b60009182526020808320600160099093020191909101546001600160a01b031683528201929092526040018120805490919061088790849061353b565b9091555081905060046000600161089e818861353b565b815481106108bc57634e487b7160e01b600052603260045260246000fd5b60009182526020808320600160099093020191909101546001600160a01b03168352820192909252604001812080549091906108f99084906134e4565b9091555050505050565b600260205281600052604060002081815481106105be57600080fd5b6001600160a01b03811660009081526003602090815260409182902080548351818402810184019094528084526060939283018282801561097f57602002820191906000526020600020905b81548152602001906001019080831161096b575b505050505090505b919050565b600b54600160a01b900460ff1690565b803360016109aa818461353b565b815481106109c857634e487b7160e01b600052603260045260246000fd5b60009182526020909120600260099092020101546001600160a01b0316146109ef57600080fd5b600260016109fd818561353b565b81548110610a1b57634e487b7160e01b600052603260045260246000fd5b906000526020600020906009020160080160029054906101000a900460ff166003811115610a5957634e487b7160e01b600052602160045260246000fd5b1415610a805760405162461bcd60e51b8152600401610a7790613292565b60405180910390fd5b6001610a8c818461353b565b81548110610aaa57634e487b7160e01b600052603260045260246000fd5b90600052602060002090600902016007015462015180610aca91906134e4565b421015610ad657600080fd5b600180610ae3818561353b565b81548110610b0157634e487b7160e01b600052603260045260246000fd5b60009182526020909120600860099092020101805462ff0000191662010000836003811115610b4057634e487b7160e01b600052602160045260246000fd5b02179055505050565b600b546001600160a01b031681565b600a546001600160a01b0316331480610b7b5750600b546001600160a01b031633145b610b8457600080fd5b6046811115610b9257600080fd5b60036001610ba0818561353b565b81548110610bbe57634e487b7160e01b600052603260045260246000fd5b906000526020600020906009020160080160029054906101000a900460ff166003811115610bfc57634e487b7160e01b600052602160045260246000fd5b14610c0657600080fd5b600180610c13818561353b565b81548110610c3157634e487b7160e01b600052603260045260246000fd5b60009182526020909120600860099092020101805462ff0000191662010000836003811115610c7057634e487b7160e01b600052602160045260246000fd5b021790555060006001610c83818561353b565b81548110610ca157634e487b7160e01b600052603260045260246000fd5b9060005260206000209060090201600401549050806005600060018087610cc8919061353b565b81548110610ce657634e487b7160e01b600052603260045260246000fd5b60009182526020808320600160099093020191909101546001600160a01b0316835282019290925260400181208054909190610d2390849061353b565b9091555060649050610d35838361351c565b610d3f91906134fc565b600460006001610d4f818861353b565b81548110610d6d57634e487b7160e01b600052603260045260246000fd5b60009182526020808320600160099093020191909101546001600160a01b0316835282019290925260400181208054909190610daa9084906134e4565b9091555060649050610dbd82601461351c565b610dc791906134fc565b600760006001610dd7818861353b565b81548110610df557634e487b7160e01b600052603260045260246000fd5b60009182526020808320600260099093020191909101546001600160a01b0316835282019290925260400181208054909190610e3290849061353b565b9091555060649050601e610e46848361353b565b610e50919061353b565b610e5a908361351c565b610e6583601461351c565b610e6f91906134e4565b610e7991906134fc565b600660006001610e89818861353b565b81548110610ea757634e487b7160e01b600052603260045260246000fd5b60009182526020808320600260099093020191909101546001600160a01b0316835282019290925260400181208054909190610ee49084906134e4565b9091555060649050610ef782601e61351c565b610f0191906134fc565b600960008282546108f991906134e4565b610f1a612dd4565b805160208201207faa684a62cfec67884698edcb374cdd8a7421222bfeb8b6570bb1a601a3f00690811415610ff25733600090815260046020526040902054831115610f6557600080fd5b3360009081526004602052604081208054859290610f8490849061353b565b909155505060405160009033908590610f9c90613092565b60006040518083038185875af1925050503d8060008114610fd9576040519150601f19603f3d011682016040523d82523d6000602084013e610fde565b606091505b5050905080610fec57600080fd5b506110bf565b7f8d7680ead1da220f978b7468ed8cda236baa559f8af75bff883132fa60b435a78114156110bf573360009081526006602052604090205483111561103657600080fd5b336000908152600660205260408120805485929061105590849061353b565b90915550506040516000903390859061106d90613092565b60006040518083038185875af1925050503d80600081146110aa576040519150601f19603f3d011682016040523d82523d6000602084013e6110af565b606091505b50509050806110bd57600080fd5b505b506110c8612dfe565b5050565b60095481565b600a546001600160a01b03163314806110f55750600b546001600160a01b031633145b6110fe57600080fd5b336000908152600860205260409020805460ff19166001179055565b600a546001600160a01b031681565b600a546001600160a01b031633148061114c5750600b546001600160a01b031633145b61115557600080fd5b61115d612dd4565b600a546009546040516000926001600160a01b0316919061117d90613092565b60006040518083038185875af1925050503d80600081146111ba576040519150601f19603f3d011682016040523d82523d6000602084013e6111bf565b606091505b50509050806111e05760405162461bcd60e51b8152600401610a7790613139565b5060006009556111ee612dfe565b565b60095490565b336000908152600460205260408120805484923492916112179084906134e4565b90915550503481111561152257336000908152600460205260409020548111156112535760405162461bcd60e51b8152600401610a7790613300565b600b54600160a01b900460ff1661126957600080fd5b600082116112895760405162461bcd60e51b8152600401610a779061322c565b33600090815260046020526040812080548592906112a890849061353b565b909155505033600090815260056020526040812080548592906112cc9084906134e4565b9091555050600180546000916112e291906134e4565b905060006112f3846201518061351c565b60408051610160810182528481523360208083019182526000938301848152606084018c8152608085018c905260a0850187905260c0850186905260e08501869052600161010086018190526101208601879052610140860187905280548082018255965284517fb10e2d527612073b26eecdfd717e6a320cf44b4afac2b0732d9fcbe2b7fa0cf6600990970296870190815593517fb10e2d527612073b26eecdfd717e6a320cf44b4afac2b0732d9fcbe2b7fa0cf7870180546001600160a01b03199081166001600160a01b039384161790915592517fb10e2d527612073b26eecdfd717e6a320cf44b4afac2b0732d9fcbe2b7fa0cf888018054909416911617909155518051959650929485949293611432937fb10e2d527612073b26eecdfd717e6a320cf44b4afac2b0732d9fcbe2b7fa0cf901920190612e05565b506080820151600482015560a0820151600582015560c0820151600682015560e082015160078201556101008083015160088301805461012086015160ff199091169215159290921761ff00191691151590920217808255610140840151919062ff00001916620100008360038111156114bc57634e487b7160e01b600052602160045260246000fd5b02179055505033600090815260026020908152604080832080546001810182559084529190922001859055517f4b1b1a905a6323b91259e1e095b47ee5dbb95009e905491db7049e6a1c98a87491506115169085906134a0565b60405180910390a15050505b600b54600160a01b900460ff1661153857600080fd5b600082116115585760405162461bcd60e51b8152600401610a779061322c565b336000908152600460205260408120805485929061157790849061353b565b9091555050336000908152600560205260408120805485929061159b9084906134e4565b9091555050600180546000916115b191906134e4565b905060006115c2846201518061351c565b60408051610160810182528481523360208083019182526000938301848152606084018c8152608085018c905260a0850187905260c0850186905260e08501869052600161010086018190526101208601879052610140860187905280548082018255965284517fb10e2d527612073b26eecdfd717e6a320cf44b4afac2b0732d9fcbe2b7fa0cf6600990970296870190815593517fb10e2d527612073b26eecdfd717e6a320cf44b4afac2b0732d9fcbe2b7fa0cf7870180546001600160a01b03199081166001600160a01b039384161790915592517fb10e2d527612073b26eecdfd717e6a320cf44b4afac2b0732d9fcbe2b7fa0cf888018054909416911617909155518051959650929485949293611701937fb10e2d527612073b26eecdfd717e6a320cf44b4afac2b0732d9fcbe2b7fa0cf901920190612e05565b506080820151600482015560a0820151600582015560c0820151600682015560e082015160078201556101008083015160088301805461012086015160ff199091169215159290921761ff00191691151590920217808255610140840151919062ff000019166201000083600381111561178b57634e487b7160e01b600052602160045260246000fd5b02179055505033600090815260026020908152604080832080546001810182559084529190922001859055517f4b1b1a905a6323b91259e1e095b47ee5dbb95009e905491db7049e6a1c98a87491506117e59085906134a0565b60405180910390a150505050505050565b80336001611804818461353b565b8154811061182257634e487b7160e01b600052603260045260246000fd5b60009182526020909120600260099092020101546001600160a01b03161461184957600080fd5b600180611856818561353b565b8154811061187457634e487b7160e01b600052603260045260246000fd5b906000526020600020906009020160080160029054906101000a900460ff1660038111156118b257634e487b7160e01b600052602160045260246000fd5b146118cf5760405162461bcd60e51b8152600401610a77906131ae565b600060016118dd818561353b565b815481106118fb57634e487b7160e01b600052603260045260246000fd5b90600052602060002090600902016004015490506001808461191d919061353b565b8154811061193b57634e487b7160e01b600052603260045260246000fd5b9060005260206000209060090201600601546001808561195b919061353b565b8154811061197957634e487b7160e01b600052603260045260246000fd5b90600052602060002090600902016007015411611b5a57806005600060016119a1818861353b565b815481106119bf57634e487b7160e01b600052603260045260246000fd5b60009182526020808320600160099093020191909101546001600160a01b03168352820192909252604001812080549091906119fc90849061353b565b9091555060649050611a0f82601461351c565b611a1991906134fc565b600760006001611a29818861353b565b81548110611a4757634e487b7160e01b600052603260045260246000fd5b60009182526020808320600260099093020191909101546001600160a01b0316835282019290925260400181208054909190611a8490849061353b565b9091555060649050611a9782605f61351c565b611aa283601461351c565b611aac91906134e4565b611ab691906134fc565b600660006001611ac6818861353b565b81548110611ae457634e487b7160e01b600052603260045260246000fd5b60009182526020808320600260099093020191909101546001600160a01b0316835282019290925260400181208054909190611b219084906134e4565b9091555060649050611b3482600561351c565b611b3e91906134fc565b60096000828254611b4f91906134e4565b9091555061207a9050565b60646001611b68818661353b565b81548110611b8657634e487b7160e01b600052603260045260246000fd5b9060005260206000209060090201600501546014611ba4919061351c565b611bae91906134fc565b6001611bba818661353b565b81548110611bd857634e487b7160e01b600052603260045260246000fd5b90600052602060002090600902016006015460018086611bf8919061353b565b81548110611c1657634e487b7160e01b600052603260045260246000fd5b906000526020600020906009020160070154611c32919061353b565b11611e635780600560006001611c48818861353b565b81548110611c6657634e487b7160e01b600052603260045260246000fd5b60009182526020808320600160099093020191909101546001600160a01b0316835282019290925260400181208054909190611ca390849061353b565b9091555060649050611cb682600a61351c565b611cc091906134fc565b600460006001611cd0818861353b565b81548110611cee57634e487b7160e01b600052603260045260246000fd5b60009182526020808320600160099093020191909101546001600160a01b0316835282019290925260400181208054909190611d2b9084906134e4565b9091555060649050611d3e82601461351c565b611d4891906134fc565b600760006001611d58818861353b565b81548110611d7657634e487b7160e01b600052603260045260246000fd5b60009182526020808320600260099093020191909101546001600160a01b0316835282019290925260400181208054909190611db390849061353b565b9091555060649050611dc682605061351c565b611dd183601461351c565b611ddb91906134e4565b611de591906134fc565b600660006001611df5818861353b565b81548110611e1357634e487b7160e01b600052603260045260246000fd5b60009182526020808320600260099093020191909101546001600160a01b0316835282019290925260400181208054909190611e509084906134e4565b9091555060649050611b3482600a61351c565b80600560006001611e74818861353b565b81548110611e9257634e487b7160e01b600052603260045260246000fd5b60009182526020808320600160099093020191909101546001600160a01b0316835282019290925260400181208054909190611ecf90849061353b565b9091555060649050611ee282601e61351c565b611eec91906134fc565b600460006001611efc818861353b565b81548110611f1a57634e487b7160e01b600052603260045260246000fd5b60009182526020808320600160099093020191909101546001600160a01b0316835282019290925260400181208054909190611f579084906134e4565b9091555060649050611f6a82604661351c565b611f7491906134fc565b600660006001611f84818861353b565b81548110611fa257634e487b7160e01b600052603260045260246000fd5b60009182526020808320600260099093020191909101546001600160a01b0316835282019290925260400181208054909190611fdf9084906134e4565b9091555060649050611ff282601461351c565b611ffc91906134fc565b60076000600161200c818861353b565b8154811061202a57634e487b7160e01b600052603260045260246000fd5b60009182526020808320600260099093020191909101546001600160a01b031683528201929092526040018120805490919061206790849061353b565b9091555060649050610ef782601461351c565b505050565b600b54600160a01b900460ff1661209557600080fd5b60016120a1818361353b565b815481106120bf57634e487b7160e01b600052603260045260246000fd5b600091825260209091206008600990920201015460ff166120f25760405162461bcd60e51b8152600401610a77906131dd565b33600090815260066020526040812080543492906121119084906134e4565b909155506000905060646001612127818561353b565b8154811061214557634e487b7160e01b600052603260045260246000fd5b9060005260206000209060090201600401546014612163919061351c565b61216d91906134fc565b9050803410156121a657336000908152600660205260409020548111156121a65760405162461bcd60e51b8152600401610a7790613300565b33600090815260066020526040812080548392906121c590849061353b565b909155505033600090815260076020526040812080548392906121e99084906134e4565b9091555042905060016121fc818561353b565b8154811061221a57634e487b7160e01b600052603260045260246000fd5b90600052602060002090600902016005015461223691906134e4565b6001612242818561353b565b8154811061226057634e487b7160e01b600052603260045260246000fd5b6000918252602090912060066009909202010155336001612281818561353b565b8154811061229f57634e487b7160e01b600052603260045260246000fd5b6000918252602082206009919091020160020180546001600160a01b0319166001600160a01b03939093169290921790915560016122dd818561353b565b815481106122fb57634e487b7160e01b600052603260045260246000fd5b60009182526020808320600992909202909101600801805460ff1916931515939093179092553381526003825260408120805460018181018355918352929091209091018390557fc6f3e07c4b20b159a57bda01879e04cd4d7faf5d15b913e25b16673dcc0dd2ab9061236e818561353b565b8154811061238c57634e487b7160e01b600052603260045260246000fd5b9060005260206000209060090201600601546040516123ab91906133cf565b60405180910390a15050565b6001600160a01b03166000908152600660209081526040808320546007909252909120549091565b803360016123ed818461353b565b8154811061240b57634e487b7160e01b600052603260045260246000fd5b60009182526020909120600160099092020101546001600160a01b03161461243257600080fd5b600161243e818461353b565b8154811061245c57634e487b7160e01b600052603260045260246000fd5b600091825260209091206008600990920201015460ff61010090910416151560011461249a5760405162461bcd60e51b8152600401610a7790613167565b6001806124a7818561353b565b815481106124c557634e487b7160e01b600052603260045260246000fd5b60009182526020909120600860099092020101805462ff000019166201000083600381111561250457634e487b7160e01b600052602160045260246000fd5b02179055507f4d2a9189ba870bc995777afa824aeaef603e32e7807917d76f41fa5fa80208e66040516123ab906130f8565b60056020526000908152604090205481565b6001600160a01b03811660009081526002602090815260409182902080548351818402810184019094528084526060939283018282801561097f576020028201919060005260206000209081548152602001906001019080831161096b5750505050509050919050565b600a546001600160a01b03163314806125d55750600b546001600160a01b031633145b6125de57600080fd5b600a546001600160a01b031660009081526008602052604090205460ff1680156126225750600b546001600160a01b031660009081526008602052604090205460ff165b61263e5760405162461bcd60e51b8152600401610a7790613398565b600b8054911515600160a01b0260ff60a01b19909216919091178155600a546001600160a01b03908116600090815260086020526040808220805460ff19908116909155935490921681522080549091169055565b803360016126a1818461353b565b815481106126bf57634e487b7160e01b600052603260045260246000fd5b60009182526020909120600160099092020101546001600160a01b0316146126e657600080fd5b60016126f2818461353b565b8154811061271057634e487b7160e01b600052603260045260246000fd5b600091825260209091206008600990920201015460ff61010090910416151560011461274e5760405162461bcd60e51b8152600401610a77906132c9565b60026001610ae3818561353b565b8033600161276a818461353b565b8154811061278857634e487b7160e01b600052603260045260246000fd5b60009182526020909120600260099092020101546001600160a01b0316146127af57600080fd5b6001806127bc818561353b565b815481106127da57634e487b7160e01b600052603260045260246000fd5b6000918252602090912060086009909202010180549115156101000261ff0019909216919091179055426001612810818561353b565b8154811061282e57634e487b7160e01b600052603260045260246000fd5b9060005260206000209060090201600701819055507fa554c5ece40ddc458252a21d6268e4a67f51cbe8e2f00c818417161c854a817f6040516123ab90613263565b600080806060818080808080806001612889818e61353b565b815481106128a757634e487b7160e01b600052603260045260246000fd5b60009182526020909120600990910201549a5060016128c6818e61353b565b815481106128e457634e487b7160e01b600052603260045260246000fd5b6000918252602090912060016009909202018101546001600160a01b03169a5061290e818e61353b565b8154811061292c57634e487b7160e01b600052603260045260246000fd5b60009182526020909120600260099092020101546001600160a01b031698506001612957818e61353b565b8154811061297557634e487b7160e01b600052603260045260246000fd5b9060005260206000209060090201600301805461299190613552565b80601f01602080910402602001604051908101604052809291908181526020018280546129bd90613552565b8015612a0a5780601f106129df57610100808354040283529160200191612a0a565b820191906000526020600020905b8154815290600101906020018083116129ed57829003601f168201915b505050505097506001808d612a1f919061353b565b81548110612a3d57634e487b7160e01b600052603260045260246000fd5b90600052602060002090600902016004015496506001808d612a5f919061353b565b81548110612a7d57634e487b7160e01b600052603260045260246000fd5b90600052602060002090600902016005015495506001808d612a9f919061353b565b81548110612abd57634e487b7160e01b600052603260045260246000fd5b90600052602060002090600902016006015494506001808d612adf919061353b565b81548110612afd57634e487b7160e01b600052603260045260246000fd5b90600052602060002090600902016007015493506001808d612b1f919061353b565b81548110612b3d57634e487b7160e01b600052603260045260246000fd5b600091825260209091206008600990920201015460ff1692506001612b62818e61353b565b81548110612b8057634e487b7160e01b600052603260045260246000fd5b6000918252602090912060099091020160080154610100900460ff1691506001612baa818e61353b565b81548110612bc857634e487b7160e01b600052603260045260246000fd5b906000526020600020906009020160080160029054906101000a900460ff16905091939597999b90929496989a50565b336001612c05818461353b565b81548110612c2357634e487b7160e01b600052603260045260246000fd5b60009182526020909120600160099092020101546001600160a01b03161480612c915750336001612c54818461353b565b81548110612c7257634e487b7160e01b600052603260045260246000fd5b60009182526020909120600260099092020101546001600160a01b0316145b612cad5760405162461bcd60e51b8152600401610a7790613337565b6001612cb9818361353b565b81548110612cd757634e487b7160e01b600052603260045260246000fd5b600091825260209091206008600990920201015460ff610100909104161515600114612d155760405162461bcd60e51b8152600401610a77906132c9565b60036001612d23818461353b565b81548110612d4157634e487b7160e01b600052603260045260246000fd5b60009182526020909120600860099092020101805462ff0000191662010000836003811115612d8057634e487b7160e01b600052602160045260246000fd5b021790555050565b6001600160a01b03166000908152600460209081526040808320546005909252909120549091565b60076020526000908152604090205481565b60046020526000908152604090205481565b60026000541415612df75760405162461bcd60e51b8152600401610a7790613361565b6002600055565b6001600055565b828054612e1190613552565b90600052602060002090601f016020900481019282612e335760008555612e79565b82601f10612e4c57805160ff1916838001178555612e79565b82800160010185558215612e79579182015b82811115612e79578251825591602001919060010190612e5e565b50612e85929150612e89565b5090565b5b80821115612e855760008155600101612e8a565b80356001600160a01b038116811461098757600080fd5b600082601f830112612ec5578081fd5b813567ffffffffffffffff80821115612ee057612ee06135a3565b604051601f8301601f191681016020018281118282101715612f0457612f046135a3565b604052828152848301602001861015612f1b578384fd5b82602086016020830137918201602001929092529392505050565b600060208284031215612f47578081fd5b612f5082612e9e565b9392505050565b60008060408385031215612f69578081fd5b612f7283612e9e565b946020939093013593505050565b600060208284031215612f91578081fd5b81358015158114612f50578182fd5b600080600060608486031215612fb4578081fd5b833567ffffffffffffffff811115612fca578182fd5b612fd686828701612eb5565b9660208601359650604090950135949350505050565b600060208284031215612ffd578081fd5b5035919050565b60008060408385031215613016578182fd5b82359150602083013567ffffffffffffffff811115613033578182fd5b61303f85828601612eb5565b9150509250929050565b6000806040838503121561305b578182fd5b50508035926020909101359150565b15159052565b6004811061308e57634e487b7160e01b600052602160045260246000fd5b9052565b90565b6001600160a01b0391909116815260200190565b6020808252825182820181905260009190848201906040850190845b818110156130e1578351835292840192918401916001016130c5565b50909695505050505050565b901515815260200190565b60208082526021908201527f73656520796f7520736f6f6e20666f7220746865206e6578742070726f6a65636040820152601d60fa1b606082015260800190565b6020808252601490820152732330b4b632b2103a379039b2b7321022ba3432b960611b604082015260600190565b60208082526027908201527f207468652070726f6a656374206973206e6f7420636f6d706c657465642077616040820152666974206d6f726560c81b606082015260800190565b60208082526015908201527420796f752073686f756c642077616974206d6f726560581b604082015260600190565b6020808252602f908201527f496e76616c69642070726f6a656374204944206f72207468652070726f6a656360408201526e74206973206e6f742061637469766560881b606082015260800190565b6020808252601c908201527f4475726174696f6e206d757374206265206d6f7265207468616e203000000000604082015260600190565b6020808252601590820152743bb0b4ba103337b91031b7b73334b936b0ba34b7b760591b604082015260600190565b6020808252601c908201527f796f757220636c69656e74206973206e6f742073617469736669656400000000604082015260600190565b60208082526018908201527f796f75722070656f6a656374206973206e6f7420646f6e650000000000000000604082015260600190565b6020808252601b908201527f506c6561736520496e63726561736520796f7572206372656469740000000000604082015260600190565b60208082526010908201526f1ddc9bdb99c81c1c9bda9958dd08125160821b604082015260600190565b6020808252601f908201527f5265656e7472616e637947756172643a207265656e7472616e742063616c6c00604082015260600190565b6020808252601d908201527f636f6e6669726d6174696f6e206973206e6f7420636f6d706c65746564000000604082015260600190565b90815260200190565b60006101608d8352602060018060a01b03808f1682860152808e166040860152508160608501528b5180838601528392505b80831015613429578c830182015185840161018001529181019161340a565b8083111561343b578361018082870101525b610180601f19601f83011686010193505050508860808301528760a08301528660c08301528560e083015261347461010083018661306a565b61348261012083018561306a565b613490610140830184613070565b9c9b505050505050505050505050565b9081526040602082018190526015908201527450726f6a65637420697320416374697665206e6f7760581b606082015260800190565b918252602082015260400190565b600082198211156134f7576134f761358d565b500190565b60008261351757634e487b7160e01b81526012600452602481fd5b500490565b60008160001904831182151516156135365761353661358d565b500290565b60008282101561354d5761354d61358d565b500390565b60028104600182168061356657607f821691505b6020821081141561358757634e487b7160e01b600052602260045260246000fd5b50919050565b634e487b7160e01b600052601160045260246000fd5b634e487b7160e01b600052604160045260246000fdfea264697066735822122078da8fca2c92be6e30e40b1f1029550db429f4b47d2358ab6a80d43e314661fd64736f6c63430008000033","bytecodeSha1":"b09465de8fc7f0e0285e88403323859aa3f8148a","compiler":{"evm_version":"istanbul","optimizer":{"enabled":true,"runs":200},"version":"0.8.0+commit.c7dfd78e"},"contractName":"WorkChain","language":"Solidity","natspec":{"kind":"dev","methods":{},"version":1},"opcodes":"PUSH1 0x80 PUSH1 0x40 MSTORE PUSH1 0x4 CALLDATASIZE LT PUSH2 0x1D8 JUMPI PUSH1 0x0 CALLDATALOAD PUSH1 0xE0 SHR DUP1 PUSH4 0x85EA616A GT PUSH2 0x102 JUMPI DUP1 PUSH4 0xBEDB86FB GT PUSH2 0x95 JUMPI DUP1 PUSH4 0xF3A873DD GT PUSH2 0x64 JUMPI DUP1 PUSH4 0xF3A873DD EQ PUSH2 0x522 JUMPI DUP1 PUSH4 0xF5733611 EQ PUSH2 0x542 JUMPI DUP1 PUSH4 0xF95FF5B4 EQ PUSH2 0x562 JUMPI DUP1 PUSH4 0xFE5FF468 EQ PUSH2 0x582 JUMPI PUSH2 0x1D8 JUMP JUMPDEST DUP1 PUSH4 0xBEDB86FB EQ PUSH2 0x4A2 JUMPI DUP1 PUSH4 0xBF3A099F EQ PUSH2 0x4C2 JUMPI DUP1 PUSH4 0xC0B03848 EQ PUSH2 0x4E2 JUMPI DUP1 PUSH4 0xF0F3F2C8 EQ PUSH2 0x502 JUMPI PUSH2 0x1D8 JUMP JUMPDEST DUP1 PUSH4 0xAFFDA4AB GT PUSH2 0xD1 JUMPI DUP1 PUSH4 0xAFFDA4AB EQ PUSH2 0x414 JUMPI DUP1 PUSH4 0xB50E8CCD EQ PUSH2 0x442 JUMPI DUP1 PUSH4 0xB9020041 EQ PUSH2 0x462 JUMPI DUP1 PUSH4 0xBCC97357 EQ PUSH2 0x482 JUMPI PUSH2 0x1D8 JUMP JUMPDEST DUP1 PUSH4 0x85EA616A EQ PUSH2 0x3B9 JUMPI DUP1 PUSH4 0x8D01CCD9 EQ PUSH2 0x3CE JUMPI DUP1 PUSH4 0xA28E5C3D EQ PUSH2 0x3E1 JUMPI DUP1 PUSH4 0xA2F43A01 EQ PUSH2 0x401 JUMPI PUSH2 0x1D8 JUMP JUMPDEST DUP1 PUSH4 0x3BB9D634 GT PUSH2 0x17A JUMPI DUP1 PUSH4 0x61D027B3 GT PUSH2 0x149 JUMPI DUP1 PUSH4 0x61D027B3 EQ PUSH2 0x372 JUMPI DUP1 PUSH4 0x7022B58E EQ PUSH2 0x387 JUMPI DUP1 PUSH4 0x73688914 EQ PUSH2 0x39C JUMPI DUP1 PUSH4 0x82A3B856 EQ PUSH2 0x3B1 JUMPI PUSH2 0x1D8 JUMP JUMPDEST DUP1 PUSH4 0x3BB9D634 EQ PUSH2 0x2F0 JUMPI DUP1 PUSH4 0x52709725 EQ PUSH2 0x310 JUMPI DUP1 PUSH4 0x555B392D EQ PUSH2 0x332 JUMPI DUP1 PUSH4 0x5DDAA77A EQ PUSH2 0x352 JUMPI PUSH2 0x1D8 JUMP JUMPDEST DUP1 PUSH4 0x24941147 GT PUSH2 0x1B6 JUMPI DUP1 PUSH4 0x24941147 EQ PUSH2 0x26C JUMPI DUP1 PUSH4 0x28599ACD EQ PUSH2 0x28E JUMPI DUP1 PUSH4 0x326B7558 EQ PUSH2 0x2AE JUMPI DUP1 PUSH4 0x39AABA25 EQ PUSH2 0x2DB JUMPI PUSH2 0x1D8 JUMP JUMPDEST DUP1 PUSH4 0x1046A850 EQ PUSH2 0x1DD JUMPI DUP1 PUSH4 0x107046BD EQ PUSH2 0x213 JUMPI DUP1 PUSH4 0x200D2ED2 EQ PUSH2 0x24A JUMPI JUMPDEST PUSH1 0x0 DUP1 REVERT JUMPDEST CALLVALUE DUP1 ISZERO PUSH2 0x1E9 JUMPI PUSH1 0x0 DUP1 REVERT JUMPDEST POP PUSH2 0x1FD PUSH2 0x1F8 CALLDATASIZE PUSH1 0x4 PUSH2 0x2F57 JUMP JUMPDEST PUSH2 0x5A2 JUMP JUMPDEST PUSH1 0x40 MLOAD PUSH2 0x20A SWAP2 SWAP1 PUSH2 0x33CF JUMP JUMPDEST PUSH1 0x40 MLOAD DUP1 SWAP2 SUB SWAP1 RETURN JUMPDEST CALLVALUE DUP1 ISZERO PUSH2 0x21F JUMPI PUSH1 0x0 DUP1 REVERT JUMPDEST POP PUSH2 0x233 PUSH2 0x22E CALLDATASIZE PUSH1 0x4 PUSH2 0x2FEC JUMP JUMPDEST PUSH2 0x5D3 JUMP JUMPDEST PUSH1 0x40 MLOAD PUSH2 0x20A SWAP12 SWAP11 SWAP10 SWAP9 SWAP8 SWAP7 SWAP6 SWAP5 SWAP4 SWAP3 SWAP2 SWAP1 PUSH2 0x33D8 JUMP JUMPDEST CALLVALUE DUP1 ISZERO PUSH2 0x256 JUMPI PUSH1 0x0 DUP1 REVERT JUMPDEST POP PUSH2 0x25F PUSH2 0x6DA JUMP JUMPDEST PUSH1 0x40 MLOAD PUSH2 0x20A SWAP2 SWAP1 PUSH2 0x30ED JUMP JUMPDEST CALLVALUE DUP1 ISZERO PUSH2 0x278 JUMPI PUSH1 0x0 DUP1 REVERT JUMPDEST POP PUSH2 0x28C PUSH2 0x287 CALLDATASIZE PUSH1 0x4 PUSH2 0x2FEC JUMP JUMPDEST PUSH2 0x6EA JUMP JUMPDEST STOP JUMPDEST CALLVALUE DUP1 ISZERO PUSH2 0x29A JUMPI PUSH1 0x0 DUP1 REVERT JUMPDEST POP PUSH2 0x1FD PUSH2 0x2A9 CALLDATASIZE PUSH1 0x4 PUSH2 0x2F57 JUMP JUMPDEST PUSH2 0x903 JUMP JUMPDEST CALLVALUE DUP1 ISZERO PUSH2 0x2BA JUMPI PUSH1 0x0 DUP1 REVERT JUMPDEST POP PUSH2 0x2CE PUSH2 0x2C9 CALLDATASIZE PUSH1 0x4 PUSH2 0x2F36 JUMP JUMPDEST PUSH2 0x91F JUMP JUMPDEST PUSH1 0x40 MLOAD PUSH2 0x20A SWAP2 SWAP1 PUSH2 0x30A9 JUMP JUMPDEST CALLVALUE DUP1 ISZERO PUSH2 0x2E7 JUMPI PUSH1 0x0 DUP1 REVERT JUMPDEST POP PUSH2 0x25F PUSH2 0x98C JUMP JUMPDEST CALLVALUE DUP1 ISZERO PUSH2 0x2FC JUMPI PUSH1 0x0 DUP1 REVERT JUMPDEST POP PUSH2 0x28C PUSH2 0x30B CALLDATASIZE PUSH1 0x4 PUSH2 0x2FEC JUMP JUMPDEST PUSH2 0x99C JUMP JUMPDEST CALLVALUE DUP1 ISZERO PUSH2 0x31C JUMPI PUSH1 0x0 DUP1 REVERT JUMPDEST POP PUSH2 0x325 PUSH2 0xB49 JUMP JUMPDEST PUSH1 0x40 MLOAD PUSH2 0x20A SWAP2 SWAP1 PUSH2 0x3095 JUMP JUMPDEST CALLVALUE DUP1 ISZERO PUSH2 0x33E JUMPI PUSH1 0x0 DUP1 REVERT JUMPDEST POP PUSH2 0x28C PUSH2 0x34D CALLDATASIZE PUSH1 0x4 PUSH2 0x3049 JUMP JUMPDEST PUSH2 0xB58 JUMP JUMPDEST CALLVALUE DUP1 ISZERO PUSH2 0x35E JUMPI PUSH1 0x0 DUP1 REVERT JUMPDEST POP PUSH2 0x28C PUSH2 0x36D CALLDATASIZE PUSH1 0x4 PUSH2 0x3004 JUMP JUMPDEST PUSH2 0xF12 JUMP JUMPDEST CALLVALUE DUP1 ISZERO PUSH2 0x37E JUMPI PUSH1 0x0 DUP1 REVERT JUMPDEST POP PUSH2 0x1FD PUSH2 0x10CC JUMP JUMPDEST CALLVALUE DUP1 ISZERO PUSH2 0x393 JUMPI PUSH1 0x0 DUP1 REVERT JUMPDEST POP PUSH2 0x28C PUSH2 0x10D2 JUMP JUMPDEST CALLVALUE DUP1 ISZERO PUSH2 0x3A8 JUMPI PUSH1 0x0 DUP1 REVERT JUMPDEST POP PUSH2 0x325 PUSH2 0x111A JUMP JUMPDEST PUSH2 0x28C PUSH2 0x1129 JUMP JUMPDEST CALLVALUE DUP1 ISZERO PUSH2 0x3C5 JUMPI PUSH1 0x0 DUP1 REVERT JUMPDEST POP PUSH2 0x1FD PUSH2 0x11F0 JUMP JUMPDEST PUSH2 0x28C PUSH2 0x3DC CALLDATASIZE PUSH1 0x4 PUSH2 0x2FA0 JUMP JUMPDEST PUSH2 0x11F6 JUMP JUMPDEST CALLVALUE DUP1 ISZERO PUSH2 0x3ED JUMPI PUSH1 0x0 DUP1 REVERT JUMPDEST POP PUSH2 0x28C PUSH2 0x3FC CALLDATASIZE PUSH1 0x4 PUSH2 0x2FEC JUMP JUMPDEST PUSH2 0x17F6 JUMP JUMPDEST PUSH2 0x28C PUSH2 0x40F CALLDATASIZE PUSH1 0x4 PUSH2 0x2FEC JUMP JUMPDEST PUSH2 0x207F JUMP JUMPDEST CALLVALUE DUP1 ISZERO PUSH2 0x420 JUMPI PUSH1 0x0 DUP1 REVERT JUMPDEST POP PUSH2 0x434 PUSH2 0x42F CALLDATASIZE PUSH1 0x4 PUSH2 0x2F36 JUMP JUMPDEST PUSH2 0x23B7 JUMP JUMPDEST PUSH1 0x40 MLOAD PUSH2 0x20A SWAP3 SWAP2 SWAP1 PUSH2 0x34D6 JUMP JUMPDEST CALLVALUE DUP1 ISZERO PUSH2 0x44E JUMPI PUSH1 0x0 DUP1 REVERT JUMPDEST POP PUSH2 0x28C PUSH2 0x45D CALLDATASIZE PUSH1 0x4 PUSH2 0x2FEC JUMP JUMPDEST PUSH2 0x23DF JUMP JUMPDEST CALLVALUE DUP1 ISZERO PUSH2 0x46E JUMPI PUSH1 0x0 DUP1 REVERT JUMPDEST POP PUSH2 0x1FD PUSH2 0x47D CALLDATASIZE PUSH1 0x4 PUSH2 0x2F36 JUMP JUMPDEST PUSH2 0x2536 JUMP JUMPDEST CALLVALUE DUP1 ISZERO PUSH2 0x48E JUMPI PUSH1 0x0 DUP1 REVERT JUMPDEST POP PUSH2 0x2CE PUSH2 0x49D CALLDATASIZE PUSH1 0x4 PUSH2 0x2F36 JUMP JUMPDEST PUSH2 0x2548 JUMP JUMPDEST CALLVALUE DUP1 ISZERO PUSH2 0x4AE JUMPI PUSH1 0x0 DUP1 REVERT JUMPDEST POP PUSH2 0x28C PUSH2 0x4BD CALLDATASIZE PUSH1 0x4 PUSH2 0x2F80 JUMP JUMPDEST PUSH2 0x25B2 JUMP JUMPDEST CALLVALUE DUP1 ISZERO PUSH2 0x4CE JUMPI PUSH1 0x0 DUP1 REVERT JUMPDEST POP PUSH2 0x28C PUSH2 0x4DD CALLDATASIZE PUSH1 0x4 PUSH2 0x2FEC JUMP JUMPDEST PUSH2 0x2693 JUMP JUMPDEST CALLVALUE DUP1 ISZERO PUSH2 0x4EE JUMPI PUSH1 0x0 DUP1 REVERT JUMPDEST POP PUSH2 0x28C PUSH2 0x4FD CALLDATASIZE PUSH1 0x4 PUSH2 0x2FEC JUMP JUMPDEST PUSH2 0x275C JUMP JUMPDEST CALLVALUE DUP1 ISZERO PUSH2 0x50E JUMPI PUSH1 0x0 DUP1 REVERT JUMPDEST POP PUSH2 0x233 PUSH2 0x51D CALLDATASIZE PUSH1 0x4 PUSH2 0x2FEC JUMP JUMPDEST PUSH2 0x2870 JUMP JUMPDEST CALLVALUE DUP1 ISZERO PUSH2 0x52E JUMPI PUSH1 0x0 DUP1 REVERT JUMPDEST POP PUSH2 0x28C PUSH2 0x53D CALLDATASIZE PUSH1 0x4 PUSH2 0x2FEC JUMP JUMPDEST PUSH2 0x2BF8 JUMP JUMPDEST CALLVALUE DUP1 ISZERO PUSH2 0x54E JUMPI PUSH1 0x0 DUP1 REVERT JUMPDEST POP PUSH2 0x434 PUSH2 0x55D CALLDATASIZE PUSH1 0x4 PUSH2 0x2F36 JUMP JUMPDEST PUSH2 0x2D88 JUMP JUMPDEST CALLVALUE DUP1 ISZERO PUSH2 0x56E JUMPI PUSH1 0x0 DUP1 REVERT JUMPDEST POP PUSH2 0x1FD PUSH2 0x57D CALLDATASIZE PUSH1 0x4 PUSH2 0x2F36 JUMP JUMPDEST PUSH2 0x2DB0 JUMP JUMPDEST CALLVALUE DUP1 ISZERO PUSH2 0x58E JUMPI PUSH1 0x0 DUP1 REVERT JUMPDEST POP PUSH2 0x1FD PUSH2 0x59D CALLDATASIZE PUSH1 0x4 PUSH2 0x2F36 JUMP JUMPDEST PUSH2 0x2DC2 JUMP JUMPDEST PUSH1 0x3 PUSH1 0x20 MSTORE DUP2 PUSH1 0x0 MSTORE PUSH1 0x40 PUSH1 0x0 KECCAK256 DUP2 DUP2 SLOAD DUP2 LT PUSH2 0x5BE JUMPI PUSH1 0x0 DUP1 REVERT JUMPDEST SWAP1 PUSH1 0x0 MSTORE PUSH1 0x20 PUSH1 0x0 KECCAK256 ADD PUSH1 0x0 SWAP2 POP SWAP2 POP POP SLOAD DUP2 JUMP JUMPDEST PUSH1 0x1 DUP2 DUP2 SLOAD DUP2 LT PUSH2 0x5E3 JUMPI PUSH1 0x0 DUP1 REVERT JUMPDEST PUSH1 0x0 SWAP2 DUP3 MSTORE PUSH1 0x20 SWAP1 SWAP2 KECCAK256 PUSH1 0x9 SWAP1 SWAP2 MUL ADD DUP1 SLOAD PUSH1 0x1 DUP3 ADD SLOAD PUSH1 0x2 DUP4 ADD SLOAD PUSH1 0x3 DUP5 ADD DUP1 SLOAD SWAP4 SWAP6 POP PUSH1 0x1 PUSH1 0x1 PUSH1 0xA0 SHL SUB SWAP3 DUP4 AND SWAP5 SWAP3 SWAP1 SWAP2 AND SWAP3 PUSH2 0x622 SWAP1 PUSH2 0x3552 JUMP JUMPDEST DUP1 PUSH1 0x1F ADD PUSH1 0x20 DUP1 SWAP2 DIV MUL PUSH1 0x20 ADD PUSH1 0x40 MLOAD SWAP1 DUP2 ADD PUSH1 0x40 MSTORE DUP1 SWAP3 SWAP2 SWAP1 DUP2 DUP2 MSTORE PUSH1 0x20 ADD DUP3 DUP1 SLOAD PUSH2 0x64E SWAP1 PUSH2 0x3552 JUMP JUMPDEST DUP1 ISZERO PUSH2 0x69B JUMPI DUP1 PUSH1 0x1F LT PUSH2 0x670 JUMPI PUSH2 0x100 DUP1 DUP4 SLOAD DIV MUL DUP4 MSTORE SWAP2 PUSH1 0x20 ADD SWAP2 PUSH2 0x69B JUMP JUMPDEST DUP3 ADD SWAP2 SWAP1 PUSH1 0x0 MSTORE PUSH1 0x20 PUSH1 0x0 KECCAK256 SWAP1 JUMPDEST DUP2 SLOAD DUP2 MSTORE SWAP1 PUSH1 0x1 ADD SWAP1 PUSH1 0x20 ADD DUP1 DUP4 GT PUSH2 0x67E JUMPI DUP3 SWAP1 SUB PUSH1 0x1F AND DUP3 ADD SWAP2 JUMPDEST POP POP POP PUSH1 0x4 DUP5 ADD SLOAD PUSH1 0x5 DUP6 ADD SLOAD PUSH1 0x6 DUP7 ADD SLOAD PUSH1 0x7 DUP8 ADD SLOAD PUSH1 0x8 SWAP1 SWAP8 ADD SLOAD SWAP6 SWAP7 SWAP3 SWAP6 SWAP2 SWAP5 POP SWAP3 POP PUSH1 0xFF DUP1 DUP3 AND SWAP2 PUSH2 0x100 DUP2 DIV DUP3 AND SWAP2 PUSH3 0x10000 SWAP1 SWAP2 DIV AND DUP12 JUMP JUMPDEST PUSH1 0xB SLOAD PUSH1 0x1 PUSH1 0xA0 SHL SWAP1 DIV PUSH1 0xFF AND DUP2 JUMP JUMPDEST DUP1 CALLER PUSH1 0x1 PUSH2 0x6F8 DUP2 DUP5 PUSH2 0x353B JUMP JUMPDEST DUP2 SLOAD DUP2 LT PUSH2 0x716 JUMPI PUSH4 0x4E487B71 PUSH1 0xE0 SHL PUSH1 0x0 MSTORE PUSH1 0x32 PUSH1 0x4 MSTORE PUSH1 0x24 PUSH1 0x0 REVERT JUMPDEST PUSH1 0x0 SWAP2 DUP3 MSTORE PUSH1 0x20 SWAP1 SWAP2 KECCAK256 PUSH1 0x1 PUSH1 0x9 SWAP1 SWAP3 MUL ADD ADD SLOAD PUSH1 0x1 PUSH1 0x1 PUSH1 0xA0 SHL SUB AND EQ PUSH2 0x73D JUMPI PUSH1 0x0 DUP1 REVERT JUMPDEST PUSH1 0x1 PUSH2 0x749 DUP2 DUP5 PUSH2 0x353B JUMP JUMPDEST DUP2 SLOAD DUP2 LT PUSH2 0x767 JUMPI PUSH4 0x4E487B71 PUSH1 0xE0 SHL PUSH1 0x0 MSTORE PUSH1 0x32 PUSH1 0x4 MSTORE PUSH1 0x24 PUSH1 0x0 REVERT JUMPDEST PUSH1 0x0 SWAP2 DUP3 MSTORE PUSH1 0x20 SWAP1 SWAP2 KECCAK256 PUSH1 0x8 PUSH1 0x9 SWAP1 SWAP3 MUL ADD ADD SLOAD PUSH1 0xFF AND ISZERO ISZERO PUSH1 0x1 EQ PUSH2 0x78C JUMPI PUSH1 0x0 DUP1 REVERT JUMPDEST PUSH1 0x0 PUSH1 0x1 PUSH2 0x79A DUP2 DUP6 PUSH2 0x353B JUMP JUMPDEST DUP2 SLOAD DUP2 LT PUSH2 0x7B8 JUMPI PUSH4 0x4E487B71 PUSH1 0xE0 SHL PUSH1 0x0 MSTORE PUSH1 0x32 PUSH1 0x4 MSTORE PUSH1 0x24 PUSH1 0x0 REVERT JUMPDEST PUSH1 0x0 SWAP2 DUP3 MSTORE PUSH1 0x20 DUP3 KECCAK256 PUSH1 0x9 SWAP2 SWAP1 SWAP2 MUL ADD PUSH1 0x8 ADD DUP1 SLOAD PUSH1 0xFF NOT AND SWAP3 ISZERO ISZERO SWAP3 SWAP1 SWAP3 OR SWAP1 SWAP2 SSTORE PUSH1 0x1 PUSH2 0x7E7 DUP2 DUP6 PUSH2 0x353B JUMP JUMPDEST DUP2 SLOAD DUP2 LT PUSH2 0x805 JUMPI PUSH4 0x4E487B71 PUSH1 0xE0 SHL PUSH1 0x0 MSTORE PUSH1 0x32 PUSH1 0x4 MSTORE PUSH1 0x24 PUSH1 0x0 REVERT JUMPDEST SWAP1 PUSH1 0x0 MSTORE PUSH1 0x20 PUSH1 0x0 KECCAK256 SWAP1 PUSH1 0x9 MUL ADD PUSH1 0x4 ADD SLOAD SWAP1 POP DUP1 PUSH1 0x5 PUSH1 0x0 PUSH1 0x1 DUP1 DUP8 PUSH2 0x82C SWAP2 SWAP1 PUSH2 0x353B JUMP JUMPDEST DUP2 SLOAD DUP2 LT PUSH2 0x84A JUMPI PUSH4 0x4E487B71 PUSH1 0xE0 SHL PUSH1 0x0 MSTORE PUSH1 0x32 PUSH1 0x4 MSTORE PUSH1 0x24 PUSH1 0x0 REVERT JUMPDEST PUSH1 0x0 SWAP2 DUP3 MSTORE PUSH1 0x20 DUP1 DUP4 KECCAK256 PUSH1 0x1 PUSH1 0x9 SWAP1 SWAP4 MUL ADD SWAP2 SWAP1 SWAP2 ADD SLOAD PUSH1 0x1 PUSH1 0x1 PUSH1 0xA0 SHL SUB AND DUP4 MSTORE DUP3 ADD SWAP3 SWAP1 SWAP3 MSTORE PUSH1 0x40 ADD DUP2 KECCAK256 DUP1 SLOAD SWAP1 SWAP2 SWAP1 PUSH2 0x887 SWAP1 DUP5 SWAP1 PUSH2 0x353B JUMP JUMPDEST SWAP1 SWAP2 SSTORE POP DUP2 SWAP1 POP PUSH1 0x4 PUSH1 0x0 PUSH1 0x1 PUSH2 0x89E DUP2 DUP9 PUSH2 0x353B JUMP JUMPDEST DUP2 SLOAD DUP2 LT PUSH2 0x8BC JUMPI PUSH4 0x4E487B71 PUSH1 0xE0 SHL PUSH1 0x0 MSTORE PUSH1 0x32 PUSH1 0x4 MSTORE PUSH1 0x24 PUSH1 0x0 REVERT JUMPDEST PUSH1 0x0 SWAP2 DUP3 MSTORE PUSH1 0x20 DUP1 DUP4 KECCAK256 PUSH1 0x1 PUSH1 0x9 SWAP1 SWAP4 MUL ADD SWAP2 SWAP1 SWAP2 ADD SLOAD PUSH1 0x1 PUSH1 0x1 PUSH1 0xA0 SHL SUB AND DUP4 MSTORE DUP3 ADD SWAP3 SWAP1 SWAP3 MSTORE PUSH1 0x40 ADD DUP2 KECCAK256 DUP1 SLOAD SWAP1 SWAP2 SWAP1 PUSH2 0x8F9 SWAP1 DUP5 SWAP1 PUSH2 0x34E4 JUMP JUMPDEST SWAP1 SWAP2 SSTORE POP POP POP POP POP JUMP JUMPDEST PUSH1 0x2 PUSH1 0x20 MSTORE DUP2 PUSH1 0x0 MSTORE PUSH1 0x40 PUSH1 0x0 KECCAK256 DUP2 DUP2 SLOAD DUP2 LT PUSH2 0x5BE JUMPI PUSH1 0x0 DUP1 REVERT JUMPDEST PUSH1 0x1 PUSH1 0x1 PUSH1 0xA0 SHL SUB DUP2 AND PUSH1 0x0 SWAP1 DUP2 MSTORE PUSH1 0x3 PUSH1 0x20 SWAP1 DUP2 MSTORE PUSH1 0x40 SWAP2 DUP3 SWAP1 KECCAK256 DUP1 SLOAD DUP4 MLOAD DUP2 DUP5 MUL DUP2 ADD DUP5 ADD SWAP1 SWAP5 MSTORE DUP1 DUP5 MSTORE PUSH1 0x60 SWAP4 SWAP3 DUP4 ADD DUP3 DUP3 DUP1 ISZERO PUSH2 0x97F JUMPI PUSH1 0x20 MUL DUP3 ADD SWAP2 SWAP1 PUSH1 0x0 MSTORE PUSH1 0x20 PUSH1 0x0 KECCAK256 SWAP1 JUMPDEST DUP2 SLOAD DUP2 MSTORE PUSH1 0x20 ADD SWAP1 PUSH1 0x1 ADD SWAP1 DUP1 DUP4 GT PUSH2 0x96B JUMPI JUMPDEST POP POP POP POP POP SWAP1 POP JUMPDEST SWAP2 SWAP1 POP JUMP JUMPDEST PUSH1 0xB SLOAD PUSH1 0x1 PUSH1 0xA0 SHL SWAP1 DIV PUSH1 0xFF AND SWAP1 JUMP JUMPDEST DUP1 CALLER PUSH1 0x1 PUSH2 0x9AA DUP2 DUP5 PUSH2 0x353B JUMP JUMPDEST DUP2 SLOAD DUP2 LT PUSH2 0x9C8 JUMPI PUSH4 0x4E487B71 PUSH1 0xE0 SHL PUSH1 0x0 MSTORE PUSH1 0x32 PUSH1 0x4 MSTORE PUSH1 0x24 PUSH1 0x0 REVERT JUMPDEST PUSH1 0x0 SWAP2 DUP3 MSTORE PUSH1 0x20 SWAP1 SWAP2 KECCAK256 PUSH1 0x2 PUSH1 0x9 SWAP1 SWAP3 MUL ADD ADD SLOAD PUSH1 0x1 PUSH1 0x1 PUSH1 0xA0 SHL SUB AND EQ PUSH2 0x9EF JUMPI PUSH1 0x0 DUP1 REVERT JUMPDEST PUSH1 0x2 PUSH1 0x1 PUSH2 0x9FD DUP2 DUP6 PUSH2 0x353B JUMP JUMPDEST DUP2 SLOAD DUP2 LT PUSH2 0xA1B JUMPI PUSH4 0x4E487B71 PUSH1 0xE0 SHL PUSH1 0x0 MSTORE PUSH1 0x32 PUSH1 0x4 MSTORE PUSH1 0x24 PUSH1 0x0 REVERT JUMPDEST SWAP1 PUSH1 0x0 MSTORE PUSH1 0x20 PUSH1 0x0 KECCAK256 SWAP1 PUSH1 0x9 MUL ADD PUSH1 0x8 ADD PUSH1 0x2 SWAP1 SLOAD SWAP1 PUSH2 0x100 EXP SWAP1 DIV PUSH1 0xFF AND PUSH1 0x3 DUP2 GT ISZERO PUSH2 0xA59 JUMPI PUSH4 0x4E487B71 PUSH1 0xE0 SHL PUSH1 0x0 MSTORE PUSH1 0x21 PUSH1 0x4 MSTORE PUSH1 0x24 PUSH1 0x0 REVERT JUMPDEST EQ ISZERO PUSH2 0xA80 JUMPI PUSH1 0x40 MLOAD PUSH3 0x461BCD PUSH1 0xE5 SHL DUP2 MSTORE PUSH1 0x4 ADD PUSH2 0xA77 SWAP1 PUSH2 0x3292 JUMP JUMPDEST PUSH1 0x40 MLOAD DUP1 SWAP2 SUB SWAP1 REVERT JUMPDEST PUSH1 0x1 PUSH2 0xA8C DUP2 DUP5 PUSH2 0x353B JUMP JUMPDEST DUP2 SLOAD DUP2 LT PUSH2 0xAAA JUMPI PUSH4 0x4E487B71 PUSH1 0xE0 SHL PUSH1 0x0 MSTORE PUSH1 0x32 PUSH1 0x4 MSTORE PUSH1 0x24 PUSH1 0x0 REVERT JUMPDEST SWAP1 PUSH1 0x0 MSTORE PUSH1 0x20 PUSH1 0x0 KECCAK256 SWAP1 PUSH1 0x9 MUL ADD PUSH1 0x7 ADD SLOAD PUSH3 0x15180 PUSH2 0xACA SWAP2 SWAP1 PUSH2 0x34E4 JUMP JUMPDEST TIMESTAMP LT ISZERO PUSH2 0xAD6 JUMPI PUSH1 0x0 DUP1 REVERT JUMPDEST PUSH1 0x1 DUP1 PUSH2 0xAE3 DUP2 DUP6 PUSH2 0x353B JUMP JUMPDEST DUP2 SLOAD DUP2 LT PUSH2 0xB01 JUMPI PUSH4 0x4E487B71 PUSH1 0xE0 SHL PUSH1 0x0 MSTORE PUSH1 0x32 PUSH1 0x4 MSTORE PUSH1 0x24 PUSH1 0x0 REVERT JUMPDEST PUSH1 0x0 SWAP2 DUP3 MSTORE PUSH1 0x20 SWAP1 SWAP2 KECCAK256 PUSH1 0x8 PUSH1 0x9 SWAP1 SWAP3 MUL ADD ADD DUP1 SLOAD PUSH3 0xFF0000 NOT AND PUSH3 0x10000 DUP4 PUSH1 0x3 DUP2 GT ISZERO PUSH2 0xB40 JUMPI PUSH4 0x4E487B71 PUSH1 0xE0 SHL PUSH1 0x0 MSTORE PUSH1 0x21 PUSH1 0x4 MSTORE PUSH1 0x24 PUSH1 0x0 REVERT JUMPDEST MUL OR SWAP1 SSTORE POP POP POP JUMP JUMPDEST PUSH1 0xB SLOAD PUSH1 0x1 PUSH1 0x1 PUSH1 0xA0 SHL SUB AND DUP2 JUMP JUMPDEST PUSH1 0xA SLOAD PUSH1 0x1 PUSH1 0x1 PUSH1 0xA0 SHL SUB AND CALLER EQ DUP1 PUSH2 0xB7B JUMPI POP PUSH1 0xB SLOAD PUSH1 0x1 PUSH1 0x1 PUSH1 0xA0 SHL SUB AND CALLER EQ JUMPDEST PUSH2 0xB84 JUMPI PUSH1 0x0 DUP1 REVERT JUMPDEST PUSH1 0x46 DUP2 GT ISZERO PUSH2 0xB92 JUMPI PUSH1 0x0 DUP1 REVERT JUMPDEST PUSH1 0x3 PUSH1 0x1 PUSH2 0xBA0 DUP2 DUP6 PUSH2 0x353B JUMP JUMPDEST DUP2 SLOAD DUP2 LT PUSH2 0xBBE JUMPI PUSH4 0x4E487B71 PUSH1 0xE0 SHL PUSH1 0x0 MSTORE PUSH1 0x32 PUSH1 0x4 MSTORE PUSH1 0x24 PUSH1 0x0 REVERT JUMPDEST SWAP1 PUSH1 0x0 MSTORE PUSH1 0x20 PUSH1 0x0 KECCAK256 SWAP1 PUSH1 0x9 MUL ADD PUSH1 0x8 ADD PUSH1 0x2 SWAP1 SLOAD SWAP1 PUSH2 0x100 EXP SWAP1 DIV PUSH1 0xFF AND PUSH1 0x3 DUP2 GT ISZERO PUSH2 0xBFC JUMPI PUSH4 0x4E487B71 PUSH1 0xE0 SHL PUSH1 0x0 MSTORE PUSH1 0x21 PUSH1 0x4 MSTORE PUSH1 0x24 PUSH1 0x0 REVERT JUMPDEST EQ PUSH2 0xC06 JUMPI PUSH1 0x0 DUP1 REVERT JUMPDEST PUSH1 0x1 DUP1 PUSH2 0xC13 DUP2 DUP6 PUSH2 0x353B JUMP JUMPDEST DUP2 SLOAD DUP2 LT PUSH2 0xC31 JUMPI PUSH4 0x4E487B71 PUSH1 0xE0 SHL PUSH1 0x0 MSTORE PUSH1 0x32 PUSH1 0x4 MSTORE PUSH1 0x24 PUSH1 0x0 REVERT JUMPDEST PUSH1 0x0 SWAP2 DUP3 MSTORE PUSH1 0x20 SWAP1 SWAP2 KECCAK256 PUSH1 0x8 PUSH1 0x9 SWAP1 SWAP3 MUL ADD ADD DUP1 SLOAD PUSH3 0xFF0000 NOT AND PUSH3 0x10000 DUP4 PUSH1 0x3 DUP2 GT ISZERO PUSH2 0xC70 JUMPI PUSH4 0x4E487B71 PUSH1 0xE0 SHL PUSH1 0x0 MSTORE PUSH1 0x21 PUSH1 0x4 MSTORE PUSH1 0x24 PUSH1 0x0 REVERT JUMPDEST MUL OR SWAP1 SSTORE POP PUSH1 0x0 PUSH1 0x1 PUSH2 0xC83 DUP2 DUP6 PUSH2 0x353B JUMP JUMPDEST DUP2 SLOAD DUP2 LT PUSH2 0xCA1 JUMPI PUSH4 0x4E487B71 PUSH1 0xE0 SHL PUSH1 0x0 MSTORE PUSH1 0x32 PUSH1 0x4 MSTORE PUSH1 0x24 PUSH1 0x0 REVERT JUMPDEST SWAP1 PUSH1 0x0 MSTORE PUSH1 0x20 PUSH1 0x0 KECCAK256 SWAP1 PUSH1 0x9 MUL ADD PUSH1 0x4 ADD SLOAD SWAP1 POP DUP1 PUSH1 0x5 PUSH1 0x0 PUSH1 0x1 DUP1 DUP8 PUSH2 0xCC8 SWAP2 SWAP1 PUSH2 0x353B JUMP JUMPDEST DUP2 SLOAD DUP2 LT PUSH2 0xCE6 JUMPI PUSH4 0x4E487B71 PUSH1 0xE0 SHL PUSH1 0x0 MSTORE PUSH1 0x32 PUSH1 0x4 MSTORE PUSH1 0x24 PUSH1 0x0 REVERT JUMPDEST PUSH1 0x0 SWAP2 DUP3 MSTORE PUSH1 0x20 DUP1 DUP4 KECCAK256 PUSH1 0x1 PUSH1 0x9 SWAP1 SWAP4 MUL ADD SWAP2 SWAP1 SWAP2 ADD SLOAD PUSH1 0x1 PUSH1 0x1 PUSH1 0xA0 SHL SUB AND DUP4 MSTORE DUP3 ADD SWAP3 SWAP1 SWAP3 MSTORE PUSH1 0x40 ADD DUP2 KECCAK256 DUP1 SLOAD SWAP1 SWAP2 SWAP1 PUSH2 0xD23 SWAP1 DUP5 SWAP1 PUSH2 0x353B JUMP JUMPDEST SWAP1 SWAP2 SSTORE POP PUSH1 0x64 SWAP1 POP PUSH2 0xD35 DUP4 DUP4 PUSH2 0x351C JUMP JUMPDEST PUSH2 0xD3F SWAP2 SWAP1 PUSH2 0x34FC JUMP JUMPDEST PUSH1 0x4 PUSH1 0x0 PUSH1 0x1 PUSH2 0xD4F DUP2 DUP9 PUSH2 0x353B JUMP JUMPDEST DUP2 SLOAD DUP2 LT PUSH2 0xD6D JUMPI PUSH4 0x4E487B71 PUSH1 0xE0 SHL PUSH1 0x0 MSTORE PUSH1 0x32 PUSH1 0x4 MSTORE PUSH1 0x24 PUSH1 0x0 REVERT JUMPDEST PUSH1 0x0 SWAP2 DUP3 MSTORE PUSH1 0x20 DUP1 DUP4 KECCAK256 PUSH1 0x1 PUSH1 0x9 SWAP1 SWAP4 MUL ADD SWAP2 SWAP1 SWAP2 ADD SLOAD PUSH1 0x1 PUSH1 0x1 PUSH1 0xA0 SHL SUB AND DUP4 MSTORE DUP3 ADD SWAP3 SWAP1 SWAP3 MSTORE PUSH1 0x40 ADD DUP2 KECCAK256 DUP1 SLOAD SWAP1 SWAP2 SWAP1 PUSH2 0xDAA SWAP1 DUP5 SWAP1 PUSH2 0x34E4 JUMP JUMPDEST SWAP1 SWAP2 SSTORE POP PUSH1 0x64 SWAP1 POP PUSH2 0xDBD DUP3 PUSH1 0x14 PUSH2 0x351C JUMP JUMPDEST PUSH2 0xDC7 SWAP2 SWAP1 PUSH2 0x34FC JUMP JUMPDEST PUSH1 0x7 PUSH1 0x0 PUSH1 0x1 PUSH2 0xDD7 DUP2 DUP9 PUSH2 0x353B JUMP JUMPDEST DUP2 SLOAD DUP2 LT PUSH2 0xDF5 JUMPI PUSH4 0x4E487B71 PUSH1 0xE0 SHL PUSH1 0x0 MSTORE PUSH1 0x32 PUSH1 0x4 MSTORE PUSH1 0x24 PUSH1 0x0 REVERT JUMPDEST PUSH1 0x0 SWAP2 DUP3 MSTORE PUSH1 0x20 DUP1 DUP4 KECCAK256 PUSH1 0x2 PUSH1 0x9 SWAP1 SWAP4 MUL ADD SWAP2 SWAP1 SWAP2 ADD SLOAD PUSH1 0x1 PUSH1 0x1 PUSH1 0xA0 SHL SUB AND DUP4 MSTORE DUP3 ADD SWAP3 SWAP1 SWAP3 MSTORE PUSH1 0x40 ADD DUP2 KECCAK256 DUP1 SLOAD SWAP1 SWAP2 SWAP1 PUSH2 0xE32 SWAP1 DUP5 SWAP1 PUSH2 0x353B JUMP JUMPDEST SWAP1 SWAP2 SSTORE POP PUSH1 0x64 SWAP1 POP PUSH1 0x1E PUSH2 0xE46 DUP5 DUP4 PUSH2 0x353B JUMP JUMPDEST PUSH2 0xE50 SWAP2 SWAP1 PUSH2 0x353B JUMP JUMPDEST PUSH2 0xE5A SWAP1 DUP4 PUSH2 0x351C JUMP JUMPDEST PUSH2 0xE65 DUP4 PUSH1 0x14 PUSH2 0x351C JUMP JUMPDEST PUSH2 0xE6F SWAP2 SWAP1 PUSH2 0x34E4 JUMP JUMPDEST PUSH2 0xE79 SWAP2 SWAP1 PUSH2 0x34FC JUMP JUMPDEST PUSH1 0x6 PUSH1 0x0 PUSH1 0x1 PUSH2 0xE89 DUP2 DUP9 PUSH2 0x353B JUMP JUMPDEST DUP2 SLOAD DUP2 LT PUSH2 0xEA7 JUMPI PUSH4 0x4E487B71 PUSH1 0xE0 SHL PUSH1 0x0 MSTORE PUSH1 0x32 PUSH1 0x4 MSTORE PUSH1 0x24 PUSH1 0x0 REVERT JUMPDEST PUSH1 0x0 SWAP2 DUP3 MSTORE PUSH1 0x20 DUP1 DUP4 KECCAK256 PUSH1 0x2 PUSH1 0x9 SWAP1 SWAP4 MUL ADD SWAP2 SWAP1 SWAP2 ADD SLOAD PUSH1 0x1 PUSH1 0x1 PUSH1 0xA0 SHL SUB AND DUP4 MSTORE DUP3 ADD SWAP3 SWAP1 SWAP3 MSTORE PUSH1 0x40 ADD DUP2 KECCAK256 DUP1 SLOAD SWAP1 SWAP2 SWAP1 PUSH2 0xEE4 SWAP1 DUP5 SWAP1 PUSH2 0x34E4 JUMP JUMPDEST SWAP1 SWAP2 SSTORE POP PUSH1 0x64 SWAP1 POP PUSH2 0xEF7 DUP3 PUSH1 0x1E PUSH2 0x351C JUMP JUMPDEST PUSH2 0xF01 SWAP2 SWAP1 PUSH2 0x34FC JUMP JUMPDEST PUSH1 0x9 PUSH1 0x0 DUP3 DUP3 SLOAD PUSH2 0x8F9 SWAP2 SWAP1 PUSH2 0x34E4 JUMP JUMPDEST PUSH2 0xF1A PUSH2 0x2DD4 JUMP JUMPDEST DUP1 MLOAD PUSH1 0x20 DUP3 ADD KECCAK256 PUSH32 0xAA684A62CFEC67884698EDCB374CDD8A7421222BFEB8B6570BB1A601A3F00690 DUP2 EQ ISZERO PUSH2 0xFF2 JUMPI CALLER PUSH1 0x0 SWAP1 DUP2 MSTORE PUSH1 0x4 PUSH1 0x20 MSTORE PUSH1 0x40 SWAP1 KECCAK256 SLOAD DUP4 GT ISZERO PUSH2 0xF65 JUMPI PUSH1 0x0 DUP1 REVERT JUMPDEST CALLER PUSH1 0x0 SWAP1 DUP2 MSTORE PUSH1 0x4 PUSH1 0x20 MSTORE PUSH1 0x40 DUP2 KECCAK256 DUP1 SLOAD DUP6 SWAP3 SWAP1 PUSH2 0xF84 SWAP1 DUP5 SWAP1 PUSH2 0x353B JUMP JUMPDEST SWAP1 SWAP2 SSTORE POP POP PUSH1 0x40 MLOAD PUSH1 0x0 SWAP1 CALLER SWAP1 DUP6 SWAP1 PUSH2 0xF9C SWAP1 PUSH2 0x3092 JUMP JUMPDEST PUSH1 0x0 PUSH1 0x40 MLOAD DUP1 DUP4 SUB DUP2 DUP6 DUP8 GAS CALL SWAP3 POP POP POP RETURNDATASIZE DUP1 PUSH1 0x0 DUP2 EQ PUSH2 0xFD9 JUMPI PUSH1 0x40 MLOAD SWAP2 POP PUSH1 0x1F NOT PUSH1 0x3F RETURNDATASIZE ADD AND DUP3 ADD PUSH1 0x40 MSTORE RETURNDATASIZE DUP3 MSTORE RETURNDATASIZE PUSH1 0x0 PUSH1 0x20 DUP5 ADD RETURNDATACOPY PUSH2 0xFDE JUMP JUMPDEST PUSH1 0x60 SWAP2 POP JUMPDEST POP POP SWAP1 POP DUP1 PUSH2 0xFEC JUMPI PUSH1 0x0 DUP1 REVERT JUMPDEST POP PUSH2 0x10BF JUMP JUMPDEST PUSH32 0x8D7680EAD1DA220F978B7468ED8CDA236BAA559F8AF75BFF883132FA60B435A7 DUP2 EQ ISZERO PUSH2 0x10BF JUMPI CALLER PUSH1 0x0 SWAP1 DUP2 MSTORE PUSH1 0x6 PUSH1 0x20 MSTORE PUSH1 0x40 SWAP1 KECCAK256 SLOAD DUP4 GT ISZERO PUSH2 0x1036 JUMPI PUSH1 0x0 DUP1 REVERT JUMPDEST CALLER PUSH1 0x0 SWAP1 DUP2 MSTORE PUSH1 0x6 PUSH1 0x20 MSTORE PUSH1 0x40 DUP2 KECCAK256 DUP1 SLOAD DUP6 SWAP3 SWAP1 PUSH2 0x1055 SWAP1 DUP5 SWAP1 PUSH2 0x353B JUMP JUMPDEST SWAP1 SWAP2 SSTORE POP POP PUSH1 0x40 MLOAD PUSH1 0x0 SWAP1 CALLER SWAP1 DUP6 SWAP1 PUSH2 0x106D SWAP1 PUSH2 0x3092 JUMP JUMPDEST PUSH1 0x0 PUSH1 0x40 MLOAD DUP1 DUP4 SUB DUP2 DUP6 DUP8 GAS CALL SWAP3 POP POP POP RETURNDATASIZE DUP1 PUSH1 0x0 DUP2 EQ PUSH2 0x10AA JUMPI PUSH1 0x40 MLOAD SWAP2 POP PUSH1 0x1F NOT PUSH1 0x3F RETURNDATASIZE ADD AND DUP3 ADD PUSH1 0x40 MSTORE RETURNDATASIZE DUP3 MSTORE RETURNDATASIZE PUSH1 0x0 PUSH1 0x20 DUP5 ADD RETURNDATACOPY PUSH2 0x10AF JUMP JUMPDEST PUSH1 0x60 SWAP2 POP JUMPDEST POP POP SWAP1 POP DUP1 PUSH2 0x10BD JUMPI PUSH1 0x0 DUP1 REVERT JUMPDEST POP JUMPDEST POP PUSH2 0x10C8 PUSH2 0x2DFE JUMP JUMPDEST POP POP JUMP JUMPDEST PUSH1 0x9 SLOAD DUP2 JUMP JUMPDEST PUSH1 0xA SLOAD PUSH1 0x1 PUSH1 0x1 PUSH1 0xA0 SHL SUB AND CALLER EQ DUP1 PUSH2 0x10F5 JUMPI POP PUSH1 0xB SLOAD PUSH1 0x1 PUSH1 0x1 PUSH1 0xA0 SHL SUB AND CALLER EQ JUMPDEST PUSH2 0x10FE JUMPI PUSH1 0x0 DUP1 REVERT JUMPDEST CALLER PUSH1 0x0 SWAP1 DUP2 MSTORE PUSH1 0x8 PUSH1 0x20 MSTORE PUSH1 0x40 SWAP1 KECCAK256 DUP1 SLOAD PUSH1 0xFF NOT AND PUSH1 0x1 OR SWAP1 SSTORE JUMP JUMPDEST PUSH1 0xA SLOAD PUSH1 0x1 PUSH1 0x1 PUSH1 0xA0 SHL SUB AND DUP2 JUMP JUMPDEST PUSH1 0xA SLOAD PUSH1 0x1 PUSH1 0x1 PUSH1 0xA0 SHL SUB AND CALLER EQ DUP1 PUSH2 0x114C JUMPI POP PUSH1 0xB SLOAD PUSH1 0x1 PUSH1 0x1 PUSH1 0xA0 SHL SUB AND CALLER EQ JUMPDEST PUSH2 0x1155 JUMPI PUSH1 0x0 DUP1 REVERT JUMPDEST PUSH2 0x115D PUSH2 0x2DD4 JUMP JUMPDEST PUSH1 0xA SLOAD PUSH1 0x9 SLOAD PUSH1 0x40 MLOAD PUSH1 0x0 SWAP3 PUSH1 0x1 PUSH1 0x1 PUSH1 0xA0 SHL SUB AND SWAP2 SWAP1 PUSH2 0x117D SWAP1 PUSH2 0x3092 JUMP JUMPDEST PUSH1 0x0 PUSH1 0x40 MLOAD DUP1 DUP4 SUB DUP2 DUP6 DUP8 GAS CALL SWAP3 POP POP POP RETURNDATASIZE DUP1 PUSH1 0x0 DUP2 EQ PUSH2 0x11BA JUMPI PUSH1 0x40 MLOAD SWAP2 POP PUSH1 0x1F NOT PUSH1 0x3F RETURNDATASIZE ADD AND DUP3 ADD PUSH1 0x40 MSTORE RETURNDATASIZE DUP3 MSTORE RETURNDATASIZE PUSH1 0x0 PUSH1 0x20 DUP5 ADD RETURNDATACOPY PUSH2 0x11BF JUMP JUMPDEST PUSH1 0x60 SWAP2 POP JUMPDEST POP POP SWAP1 POP DUP1 PUSH2 0x11E0 JUMPI PUSH1 0x40 MLOAD PUSH3 0x461BCD PUSH1 0xE5 SHL DUP2 MSTORE PUSH1 0x4 ADD PUSH2 0xA77 SWAP1 PUSH2 0x3139 JUMP JUMPDEST POP PUSH1 0x0 PUSH1 0x9 SSTORE PUSH2 0x11EE PUSH2 0x2DFE JUMP JUMPDEST JUMP JUMPDEST PUSH1 0x9 SLOAD SWAP1 JUMP JUMPDEST CALLER PUSH1 0x0 SWAP1 DUP2 MSTORE PUSH1 0x4 PUSH1 0x20 MSTORE PUSH1 0x40 DUP2 KECCAK256 DUP1 SLOAD DUP5 SWAP3 CALLVALUE SWAP3 SWAP2 PUSH2 0x1217 SWAP1 DUP5 SWAP1 PUSH2 0x34E4 JUMP JUMPDEST SWAP1 SWAP2 SSTORE POP POP CALLVALUE DUP2 GT ISZERO PUSH2 0x1522 JUMPI CALLER PUSH1 0x0 SWAP1 DUP2 MSTORE PUSH1 0x4 PUSH1 0x20 MSTORE PUSH1 0x40 SWAP1 KECCAK256 SLOAD DUP2 GT ISZERO PUSH2 0x1253 JUMPI PUSH1 0x40 MLOAD PUSH3 0x461BCD PUSH1 0xE5 SHL DUP2 MSTORE PUSH1 0x4 ADD PUSH2 0xA77 SWAP1 PUSH2 0x3300 JUMP JUMPDEST PUSH1 0xB SLOAD PUSH1 0x1 PUSH1 0xA0 SHL SWAP1 DIV PUSH1 0xFF AND PUSH2 0x1269 JUMPI PUSH1 0x0 DUP1 REVERT JUMPDEST PUSH1 0x0 DUP3 GT PUSH2 0x1289 JUMPI PUSH1 0x40 MLOAD PUSH3 0x461BCD PUSH1 0xE5 SHL DUP2 MSTORE PUSH1 0x4 ADD PUSH2 0xA77 SWAP1 PUSH2 0x322C JUMP JUMPDEST CALLER PUSH1 0x0 SWAP1 DUP2 MSTORE PUSH1 0x4 PUSH1 0x20 MSTORE PUSH1 0x40 DUP2 KECCAK256 DUP1 SLOAD DUP6 SWAP3 SWAP1 PUSH2 0x12A8 SWAP1 DUP5 SWAP1 PUSH2 0x353B JUMP JUMPDEST SWAP1 SWAP2 SSTORE POP POP CALLER PUSH1 0x0 SWAP1 DUP2 MSTORE PUSH1 0x5 PUSH1 0x20 MSTORE PUSH1 0x40 DUP2 KECCAK256 DUP1 SLOAD DUP6 SWAP3 SWAP1 PUSH2 0x12CC SWAP1 DUP5 SWAP1 PUSH2 0x34E4 JUMP JUMPDEST SWAP1 SWAP2 SSTORE POP POP PUSH1 0x1 DUP1 SLOAD PUSH1 0x0 SWAP2 PUSH2 0x12E2 SWAP2 SWAP1 PUSH2 0x34E4 JUMP JUMPDEST SWAP1 POP PUSH1 0x0 PUSH2 0x12F3 DUP5 PUSH3 0x15180 PUSH2 0x351C JUMP JUMPDEST PUSH1 0x40 DUP1 MLOAD PUSH2 0x160 DUP2 ADD DUP3 MSTORE DUP5 DUP2 MSTORE CALLER PUSH1 0x20 DUP1 DUP4 ADD SWAP2 DUP3 MSTORE PUSH1 0x0 SWAP4 DUP4 ADD DUP5 DUP2 MSTORE PUSH1 0x60 DUP5 ADD DUP13 DUP2 MSTORE PUSH1 0x80 DUP6 ADD DUP13 SWAP1 MSTORE PUSH1 0xA0 DUP6 ADD DUP8 SWAP1 MSTORE PUSH1 0xC0 DUP6 ADD DUP7 SWAP1 MSTORE PUSH1 0xE0 DUP6 ADD DUP7 SWAP1 MSTORE PUSH1 0x1 PUSH2 0x100 DUP7 ADD DUP2 SWAP1 MSTORE PUSH2 0x120 DUP7 ADD DUP8 SWAP1 MSTORE PUSH2 0x140 DUP7 ADD DUP8 SWAP1 MSTORE DUP1 SLOAD DUP1 DUP3 ADD DUP3 SSTORE SWAP7 MSTORE DUP5 MLOAD PUSH32 0xB10E2D527612073B26EECDFD717E6A320CF44B4AFAC2B0732D9FCBE2B7FA0CF6 PUSH1 0x9 SWAP1 SWAP8 MUL SWAP7 DUP8 ADD SWAP1 DUP2 SSTORE SWAP4 MLOAD PUSH32 0xB10E2D527612073B26EECDFD717E6A320CF44B4AFAC2B0732D9FCBE2B7FA0CF7 DUP8 ADD DUP1 SLOAD PUSH1 0x1 PUSH1 0x1 PUSH1 0xA0 SHL SUB NOT SWAP1 DUP2 AND PUSH1 0x1 PUSH1 0x1 PUSH1 0xA0 SHL SUB SWAP4 DUP5 AND OR SWAP1 SWAP2 SSTORE SWAP3 MLOAD PUSH32 0xB10E2D527612073B26EECDFD717E6A320CF44B4AFAC2B0732D9FCBE2B7FA0CF8 DUP9 ADD DUP1 SLOAD SWAP1 SWAP5 AND SWAP2 AND OR SWAP1 SWAP2 SSTORE MLOAD DUP1 MLOAD SWAP6 SWAP7 POP SWAP3 SWAP5 DUP6 SWAP5 SWAP3 SWAP4 PUSH2 0x1432 SWAP4 PUSH32 0xB10E2D527612073B26EECDFD717E6A320CF44B4AFAC2B0732D9FCBE2B7FA0CF9 ADD SWAP3 ADD SWAP1 PUSH2 0x2E05 JUMP JUMPDEST POP PUSH1 0x80 DUP3 ADD MLOAD PUSH1 0x4 DUP3 ADD SSTORE PUSH1 0xA0 DUP3 ADD MLOAD PUSH1 0x5 DUP3 ADD SSTORE PUSH1 0xC0 DUP3 ADD MLOAD PUSH1 0x6 DUP3 ADD SSTORE PUSH1 0xE0 DUP3 ADD MLOAD PUSH1 0x7 DUP3 ADD SSTORE PUSH2 0x100 DUP1 DUP4 ADD MLOAD PUSH1 0x8 DUP4 ADD DUP1 SLOAD PUSH2 0x120 DUP7 ADD MLOAD PUSH1 0xFF NOT SWAP1 SWAP2 AND SWAP3 ISZERO ISZERO SWAP3 SWAP1 SWAP3 OR PUSH2 0xFF00 NOT AND SWAP2 ISZERO ISZERO SWAP1 SWAP3 MUL OR DUP1 DUP3 SSTORE PUSH2 0x140 DUP5 ADD MLOAD SWAP2 SWAP1 PUSH3 0xFF0000 NOT AND PUSH3 0x10000 DUP4 PUSH1 0x3 DUP2 GT ISZERO PUSH2 0x14BC JUMPI PUSH4 0x4E487B71 PUSH1 0xE0 SHL PUSH1 0x0 MSTORE PUSH1 0x21 PUSH1 0x4 MSTORE PUSH1 0x24 PUSH1 0x0 REVERT JUMPDEST MUL OR SWAP1 SSTORE POP POP CALLER PUSH1 0x0 SWAP1 DUP2 MSTORE PUSH1 0x2 PUSH1 0x20 SWAP1 DUP2 MSTORE PUSH1 0x40 DUP1 DUP4 KECCAK256 DUP1 SLOAD PUSH1 0x1 DUP2 ADD DUP3 SSTORE SWAP1 DUP5 MSTORE SWAP2 SWAP1 SWAP3 KECCAK256 ADD DUP6 SWAP1 SSTORE MLOAD PUSH32 0x4B1B1A905A6323B91259E1E095B47EE5DBB95009E905491DB7049E6A1C98A874 SWAP2 POP PUSH2 0x1516 SWAP1 DUP6 SWAP1 PUSH2 0x34A0 JUMP JUMPDEST PUSH1 0x40 MLOAD DUP1 SWAP2 SUB SWAP1 LOG1 POP POP POP JUMPDEST PUSH1 0xB SLOAD PUSH1 0x1 PUSH1 0xA0 SHL SWAP1 DIV PUSH1 0xFF AND PUSH2 0x1538 JUMPI PUSH1 0x0 DUP1 REVERT JUMPDEST PUSH1 0x0 DUP3 GT PUSH2 0x1558 JUMPI PUSH1 0x40 MLOAD PUSH3 0x461BCD PUSH1 0xE5 SHL DUP2 MSTORE PUSH1 0x4 ADD PUSH2 0xA77 SWAP1 PUSH2 0x322C JUMP JUMPDEST CALLER PUSH1 0x0 SWAP1 DUP2 MSTORE PUSH1 0x4 PUSH1 0x20 MSTORE PUSH1 0x40 DUP2 KECCAK256 DUP1 SLOAD DUP6 SWAP3 SWAP1 PUSH2 0x1577 SWAP1 DUP5 SWAP1 PUSH2 0x353B JUMP JUMPDEST SWAP1 SWAP2 SSTORE POP POP CALLER PUSH1 0x0 SWAP1 DUP2 MSTORE PUSH1 0x5 PUSH1 0x20 MSTORE PUSH1 0x40 DUP2 KECCAK256 DUP1 SLOAD DUP6 SWAP3 SWAP1 PUSH2 0x159B SWAP1 DUP5 SWAP1 PUSH2 0x34E4 JUMP JUMPDEST SWAP1 SWAP2 SSTORE POP POP PUSH1 0x1 DUP1 SLOAD PUSH1 0x0 SWAP2 PUSH2 0x15B1 SWAP2 SWAP1 PUSH2 0x34E4 JUMP JUMPDEST SWAP1 POP PUSH1 0x0 PUSH2 0x15C2 DUP5 PUSH3 0x15180 PUSH2 0x351C JUMP JUMPDEST PUSH1 0x40 DUP1 MLOAD PUSH2 0x160 DUP2 ADD DUP3 MSTORE DUP5 DUP2 MSTORE CALLER PUSH1 0x20 DUP1 DUP4 ADD SWAP2 DUP3 MSTORE PUSH1 0x0 SWAP4 DUP4 ADD DUP5 DUP2 MSTORE PUSH1 0x60 DUP5 ADD DUP13 DUP2 MSTORE PUSH1 0x80 DUP6 ADD DUP13 SWAP1 MSTORE PUSH1 0xA0 DUP6 ADD DUP8 SWAP1 MSTORE PUSH1 0xC0 DUP6 ADD DUP7 SWAP1 MSTORE PUSH1 0xE0 DUP6 ADD DUP7 SWAP1 MSTORE PUSH1 0x1 PUSH2 0x100 DUP7 ADD DUP2 SWAP1 MSTORE PUSH2 0x120 DUP7 ADD DUP8 SWAP1 MSTORE PUSH2 0x140 DUP7 ADD DUP8 SWAP1 MSTORE DUP1 SLOAD DUP1 DUP3 ADD DUP3 SSTORE SWAP7 MSTORE DUP5 MLOAD PUSH32 0xB10E2D527612073B26EECDFD717E6A320CF44B4AFAC2B0732D9FCBE2B7FA0CF6 PUSH1 0x9 SWAP1 SWAP8 MUL SWAP7 DUP8 ADD SWAP1 DUP2 SSTORE SWAP4 MLOAD PUSH32 0xB10E2D527612073B26EECDFD717E6A320CF44B4AFAC2B0732D9FCBE2B7FA0CF7 DUP8 ADD DUP1 SLOAD PUSH1 0x1 PUSH1 0x1 PUSH1 0xA0 SHL SUB NOT SWAP1 DUP2 AND PUSH1 0x1 PUSH1 0x1 PUSH1 0xA0 SHL SUB SWAP4 DUP5 AND OR SWAP1 SWAP2 SSTORE SWAP3 MLOAD PUSH32 0xB10E2D527612073B26EECDFD717E6A320CF44B4AFAC2B0732D9FCBE2B7FA0CF8 DUP9 ADD DUP1 SLOAD SWAP1 SWAP5 AND SWAP2 AND OR SWAP1 SWAP2 SSTORE MLOAD DUP1 MLOAD SWAP6 SWAP7 POP SWAP3 SWAP5 DUP6 SWAP5 SWAP3 SWAP4 PUSH2 0x1701 SWAP4 PUSH32 0xB10E2D527612073B26EECDFD717E6A320CF44B4AFAC2B0732D9FCBE2B7FA0CF9 ADD SWAP3 ADD SWAP1 PUSH2 0x2E05 JUMP JUMPDEST POP PUSH1 0x80 DUP3 ADD MLOAD PUSH1 0x4 DUP3 ADD SSTORE PUSH1 0xA0 DUP3 ADD MLOAD PUSH1 0x5 DUP3 ADD SSTORE PUSH1 0xC0 DUP3 ADD MLOAD PUSH1 0x6 DUP3 ADD SSTORE PUSH1 0xE0 DUP3 ADD MLOAD PUSH1 0x7 DUP3 ADD SSTORE PUSH2 0x100 DUP1 DUP4 ADD MLOAD PUSH1 0x8 DUP4 ADD DUP1 SLOAD PUSH2 0x120 DUP7 ADD MLOAD PUSH1 0xFF NOT SWAP1 SWAP2 AND SWAP3 ISZERO ISZERO SWAP3 SWAP1 SWAP3 OR PUSH2 0xFF00 NOT AND SWAP2 ISZERO ISZERO SWAP1 SWAP3 MUL OR DUP1 DUP3 SSTORE PUSH2 0x140 DUP5 ADD MLOAD SWAP2 SWAP1 PUSH3 0xFF0000 NOT AND PUSH3 0x10000 DUP4 PUSH1 0x3 DUP2 GT ISZERO PUSH2 0x178B JUMPI PUSH4 0x4E487B71 PUSH1 0xE0 SHL PUSH1 0x0 MSTORE PUSH1 0x21 PUSH1 0x4 MSTORE PUSH1 0x24 PUSH1 0x0 REVERT JUMPDEST MUL OR SWAP1 SSTORE POP POP CALLER PUSH1 0x0 SWAP1 DUP2 MSTORE PUSH1 0x2 PUSH1 0x20 SWAP1 DUP2 MSTORE PUSH1 0x40 DUP1 DUP4 KECCAK256 DUP1 SLOAD PUSH1 0x1 DUP2 ADD DUP3 SSTORE SWAP1 DUP5 MSTORE SWAP2 SWAP1 SWAP3 KECCAK256 ADD DUP6 SWAP1 SSTORE MLOAD PUSH32 0x4B1B1A905A6323B91259E1E095B47EE5DBB95009E905491DB7049E6A1C98A874 SWAP2 POP PUSH2 0x17E5 SWAP1 DUP6 SWAP1 PUSH2 0x34A0 JUMP JUMPDEST PUSH1 0x40 MLOAD DUP1 SWAP2 SUB SWAP1 LOG1 POP POP POP POP POP POP POP JUMP JUMPDEST DUP1 CALLER PUSH1 0x1 PUSH2 0x1804 DUP2 DUP5 PUSH2 0x353B JUMP JUMPDEST DUP2 SLOAD DUP2 LT PUSH2 0x1822 JUMPI PUSH4 0x4E487B71 PUSH1 0xE0 SHL PUSH1 0x0 MSTORE PUSH1 0x32 PUSH1 0x4 MSTORE PUSH1 0x24 PUSH1 0x0 REVERT JUMPDEST PUSH1 0x0 SWAP2 DUP3 MSTORE PUSH1 0x20 SWAP1 SWAP2 KECCAK256 PUSH1 0x2 PUSH1 0x9 SWAP1 SWAP3 MUL ADD ADD SLOAD PUSH1 0x1 PUSH1 0x1 PUSH1 0xA0 SHL SUB AND EQ PUSH2 0x1849 JUMPI PUSH1 0x0 DUP1 REVERT JUMPDEST PUSH1 0x1 DUP1 PUSH2 0x1856 DUP2 DUP6 PUSH2 0x353B JUMP JUMPDEST DUP2 SLOAD DUP2 LT PUSH2 0x1874 JUMPI PUSH4 0x4E487B71 PUSH1 0xE0 SHL PUSH1 0x0 MSTORE PUSH1 0x32 PUSH1 0x4 MSTORE PUSH1 0x24 PUSH1 0x0 REVERT JUMPDEST SWAP1 PUSH1 0x0 MSTORE PUSH1 0x20 PUSH1 0x0 KECCAK256 SWAP1 PUSH1 0x9 MUL ADD PUSH1 0x8 ADD PUSH1 0x2 SWAP1 SLOAD SWAP1 PUSH2 0x100 EXP SWAP1 DIV PUSH1 0xFF AND PUSH1 0x3 DUP2 GT ISZERO PUSH2 0x18B2 JUMPI PUSH4 0x4E487B71 PUSH1 0xE0 SHL PUSH1 0x0 MSTORE PUSH1 0x21 PUSH1 0x4 MSTORE PUSH1 0x24 PUSH1 0x0 REVERT JUMPDEST EQ PUSH2 0x18CF JUMPI PUSH1 0x40 MLOAD PUSH3 0x461BCD PUSH1 0xE5 SHL DUP2 MSTORE PUSH1 0x4 ADD PUSH2 0xA77 SWAP1 PUSH2 0x31AE JUMP JUMPDEST PUSH1 0x0 PUSH1 0x1 PUSH2 0x18DD DUP2 DUP6 PUSH2 0x353B JUMP JUMPDEST DUP2 SLOAD DUP2 LT PUSH2 0x18FB JUMPI PUSH4 0x4E487B71 PUSH1 0xE0 SHL PUSH1 0x0 MSTORE PUSH1 0x32 PUSH1 0x4 MSTORE PUSH1 0x24 PUSH1 0x0 REVERT JUMPDEST SWAP1 PUSH1 0x0 MSTORE PUSH1 0x20 PUSH1 0x0 KECCAK256 SWAP1 PUSH1 0x9 MUL ADD PUSH1 0x4 ADD SLOAD SWAP1 POP PUSH1 0x1 DUP1 DUP5 PUSH2 0x191D SWAP2 SWAP1 PUSH2 0x353B JUMP JUMPDEST DUP2 SLOAD DUP2 LT PUSH2 0x193B JUMPI PUSH4 0x4E487B71 PUSH1 0xE0 SHL PUSH1 0x0 MSTORE PUSH1 0x32 PUSH1 0x4 MSTORE PUSH1 0x24 PUSH1 0x0 REVERT JUMPDEST SWAP1 PUSH1 0x0 MSTORE PUSH1 0x20 PUSH1 0x0 KECCAK256 SWAP1 PUSH1 0x9 MUL ADD PUSH1 0x6 ADD SLOAD PUSH1 0x1 DUP1 DUP6 PUSH2 0x195B SWAP2 SWAP1 PUSH2 0x353B JUMP JUMPDEST DUP2 SLOAD DUP2 LT PUSH2 0x1979 JUMPI PUSH4 0x4E487B71 PUSH1 0xE0 SHL PUSH1 0x0 MSTORE PUSH1 0x32 PUSH1 0x4 MSTORE PUSH1 0x24 PUSH1 0x0 REVERT JUMPDEST SWAP1 PUSH1 0x0 MSTORE PUSH1 0x20 PUSH1 0x0 KECCAK256 SWAP1 PUSH1 0x9 MUL ADD PUSH1 0x7 ADD SLOAD GT PUSH2 0x1B5A JUMPI DUP1 PUSH1 0x5 PUSH1 0x0 PUSH1 0x1 PUSH2 0x19A1 DUP2 DUP9 PUSH2 0x353B JUMP JUMPDEST DUP2 SLOAD DUP2 LT PUSH2 0x19BF JUMPI PUSH4 0x4E487B71 PUSH1 0xE0 SHL PUSH1 0x0 MSTORE PUSH1 0x32 PUSH1 0x4 MSTORE PUSH1 0x24 PUSH1 0x0 REVERT JUMPDEST PUSH1 0x0 SWAP2 DUP3 MSTORE PUSH1 0x20 DUP1 DUP4 KECCAK256 PUSH1 0x1 PUSH1 0x9 SWAP1 SWAP4 MUL ADD SWAP2 SWAP1 SWAP2 ADD SLOAD PUSH1 0x1 PUSH1 0x1 PUSH1 0xA0 SHL SUB AND DUP4 MSTORE DUP3 ADD SWAP3 SWAP1 SWAP3 MSTORE PUSH1 0x40 ADD DUP2 KECCAK256 DUP1 SLOAD SWAP1 SWAP2 SWAP1 PUSH2 0x19FC SWAP1 DUP5 SWAP1 PUSH2 0x353B JUMP JUMPDEST SWAP1 SWAP2 SSTORE POP PUSH1 0x64 SWAP1 POP PUSH2 0x1A0F DUP3 PUSH1 0x14 PUSH2 0x351C JUMP JUMPDEST PUSH2 0x1A19 SWAP2 SWAP1 PUSH2 0x34FC JUMP JUMPDEST PUSH1 0x7 PUSH1 0x0 PUSH1 0x1 PUSH2 0x1A29 DUP2 DUP9 PUSH2 0x353B JUMP JUMPDEST DUP2 SLOAD DUP2 LT PUSH2 0x1A47 JUMPI PUSH4 0x4E487B71 PUSH1 0xE0 SHL PUSH1 0x0 MSTORE PUSH1 0x32 PUSH1 0x4 MSTORE PUSH1 0x24 PUSH1 0x0 REVERT JUMPDEST PUSH1 0x0 SWAP2 DUP3 MSTORE PUSH1 0x20 DUP1 DUP4 KECCAK256 PUSH1 0x2 PUSH1 0x9 SWAP1 SWAP4 MUL ADD SWAP2 SWAP1 SWAP2 ADD SLOAD PUSH1 0x1 PUSH1 0x1 PUSH1 0xA0 SHL SUB AND DUP4 MSTORE DUP3 ADD SWAP3 SWAP1 SWAP3 MSTORE PUSH1 0x40 ADD DUP2 KECCAK256 DUP1 SLOAD SWAP1 SWAP2 SWAP1 PUSH2 0x1A84 SWAP1 DUP5 SWAP1 PUSH2 0x353B JUMP JUMPDEST SWAP1 SWAP2 SSTORE POP PUSH1 0x64 SWAP1 POP PUSH2 0x1A97 DUP3 PUSH1 0x5F PUSH2 0x351C JUMP JUMPDEST PUSH2 0x1AA2 DUP4 PUSH1 0x14 PUSH2 0x351C JUMP JUMPDEST PUSH2 0x1AAC SWAP2 SWAP1 PUSH2 0x34E4 JUMP JUMPDEST PUSH2 0x1AB6 SWAP2 SWAP1 PUSH2 0x34FC JUMP JUMPDEST PUSH1 0x6 PUSH1 0x0 PUSH1 0x1 PUSH2 0x1AC6 DUP2 DUP9 PUSH2 0x353B JUMP JUMPDEST DUP2 SLOAD DUP2 LT PUSH2 0x1AE4 JUMPI PUSH4 0x4E487B71 PUSH1 0xE0 SHL PUSH1 0x0 MSTORE PUSH1 0x32 PUSH1 0x4 MSTORE PUSH1 0x24 PUSH1 0x0 REVERT JUMPDEST PUSH1 0x0 SWAP2 DUP3 MSTORE PUSH1 0x20 DUP1 DUP4 KECCAK256 PUSH1 0x2 PUSH1 0x9 SWAP1 SWAP4 MUL ADD SWAP2 SWAP1 SWAP2 ADD SLOAD PUSH1 0x1 PUSH1 0x1 PUSH1 0xA0 SHL SUB AND DUP4 MSTORE DUP3 ADD SWAP3 SWAP1 SWAP3 MSTORE PUSH1 0x40 ADD DUP2 KECCAK256 DUP1 SLOAD SWAP1 SWAP2 SWAP1 PUSH2 0x1B21 SWAP1 DUP5 SWAP1 PUSH2 0x34E4 JUMP JUMPDEST SWAP1 SWAP2 SSTORE POP PUSH1 0x64 SWAP1 POP PUSH2 0x1B34 DUP3 PUSH1 0x5 PUSH2 0x351C JUMP JUMPDEST PUSH2 0x1B3E SWAP2 SWAP1 PUSH2 0x34FC JUMP JUMPDEST PUSH1 0x9 PUSH1 0x0 DUP3 DUP3 SLOAD PUSH2 0x1B4F SWAP2 SWAP1 PUSH2 0x34E4 JUMP JUMPDEST SWAP1 SWAP2 SSTORE POP PUSH2 0x207A SWAP1 POP JUMP JUMPDEST PUSH1 0x64 PUSH1 0x1 PUSH2 0x1B68 DUP2 DUP7 PUSH2 0x353B JUMP JUMPDEST DUP2 SLOAD DUP2 LT PUSH2 0x1B86 JUMPI PUSH4 0x4E487B71 PUSH1 0xE0 SHL PUSH1 0x0 MSTORE PUSH1 0x32 PUSH1 0x4 MSTORE PUSH1 0x24 PUSH1 0x0 REVERT JUMPDEST SWAP1 PUSH1 0x0 MSTORE PUSH1 0x20 PUSH1 0x0 KECCAK256 SWAP1 PUSH1 0x9 MUL ADD PUSH1 0x5 ADD SLOAD PUSH1 0x14 PUSH2 0x1BA4 SWAP2 SWAP1 PUSH2 0x351C JUMP JUMPDEST PUSH2 0x1BAE SWAP2 SWAP1 PUSH2 0x34FC JUMP JUMPDEST PUSH1 0x1 PUSH2 0x1BBA DUP2 DUP7 PUSH2 0x353B JUMP JUMPDEST DUP2 SLOAD DUP2 LT PUSH2 0x1BD8 JUMPI PUSH4 0x4E487B71 PUSH1 0xE0 SHL PUSH1 0x0 MSTORE PUSH1 0x32 PUSH1 0x4 MSTORE PUSH1 0x24 PUSH1 0x0 REVERT JUMPDEST SWAP1 PUSH1 0x0 MSTORE PUSH1 0x20 PUSH1 0x0 KECCAK256 SWAP1 PUSH1 0x9 MUL ADD PUSH1 0x6 ADD SLOAD PUSH1 0x1 DUP1 DUP7 PUSH2 0x1BF8 SWAP2 SWAP1 PUSH2 0x353B JUMP JUMPDEST DUP2 SLOAD DUP2 LT PUSH2 0x1C16 JUMPI PUSH4 0x4E487B71 PUSH1 0xE0 SHL PUSH1 0x0 MSTORE PUSH1 0x32 PUSH1 0x4 MSTORE PUSH1 0x24 PUSH1 0x0 REVERT JUMPDEST SWAP1 PUSH1 0x0 MSTORE PUSH1 0x20 PUSH1 0x0 KECCAK256 SWAP1 PUSH1 0x9 MUL ADD PUSH1 0x7 ADD SLOAD PUSH2 0x1C32 SWAP2 SWAP1 PUSH2 0x353B JUMP JUMPDEST GT PUSH2 0x1E63 JUMPI DUP1 PUSH1 0x5 PUSH1 0x0 PUSH1 0x1 PUSH2 0x1C48 DUP2 DUP9 PUSH2 0x353B JUMP JUMPDEST DUP2 SLOAD DUP2 LT PUSH2 0x1C66 JUMPI PUSH4 0x4E487B71 PUSH1 0xE0 SHL PUSH1 0x0 MSTORE PUSH1 0x32 PUSH1 0x4 MSTORE PUSH1 0x24 PUSH1 0x0 REVERT JUMPDEST PUSH1 0x0 SWAP2 DUP3 MSTORE PUSH1 0x20 DUP1 DUP4 KECCAK256 PUSH1 0x1 PUSH1 0x9 SWAP1 SWAP4 MUL ADD SWAP2 SWAP1 SWAP2 ADD SLOAD PUSH1 0x1 PUSH1 0x1 PUSH1 0xA0 SHL SUB AND DUP4 MSTORE DUP3 ADD SWAP3 SWAP1 SWAP3 MSTORE PUSH1 0x40 ADD DUP2 KECCAK256 DUP1 SLOAD SWAP1 SWAP2 SWAP1 PUSH2 0x1CA3 SWAP1 DUP5 SWAP1 PUSH2 0x353B JUMP JUMPDEST SWAP1 SWAP2 SSTORE POP PUSH1 0x64 SWAP1 POP PUSH2 0x1CB6 DUP3 PUSH1 0xA PUSH2 0x351C JUMP JUMPDEST PUSH2 0x1CC0 SWAP2 SWAP1 PUSH2 0x34FC JUMP JUMPDEST PUSH1 0x4 PUSH1 0x0 PUSH1 0x1 PUSH2 0x1CD0 DUP2 DUP9 PUSH2 0x353B JUMP JUMPDEST DUP2 SLOAD DUP2 LT PUSH2 0x1CEE JUMPI PUSH4 0x4E487B71 PUSH1 0xE0 SHL PUSH1 0x0 MSTORE PUSH1 0x32 PUSH1 0x4 MSTORE PUSH1 0x24 PUSH1 0x0 REVERT JUMPDEST PUSH1 0x0 SWAP2 DUP3 MSTORE PUSH1 0x20 DUP1 DUP4 KECCAK256 PUSH1 0x1 PUSH1 0x9 SWAP1 SWAP4 MUL ADD SWAP2 SWAP1 SWAP2 ADD SLOAD PUSH1 0x1 PUSH1 0x1 PUSH1 0xA0 SHL SUB AND DUP4 MSTORE DUP3 ADD SWAP3 SWAP1 SWAP3 MSTORE PUSH1 0x40 ADD DUP2 KECCAK256 DUP1 SLOAD SWAP1 SWAP2 SWAP1 PUSH2 0x1D2B SWAP1 DUP5 SWAP1 PUSH2 0x34E4 JUMP JUMPDEST SWAP1 SWAP2 SSTORE POP PUSH1 0x64 SWAP1 POP PUSH2 0x1D3E DUP3 PUSH1 0x14 PUSH2 0x351C JUMP JUMPDEST PUSH2 0x1D48 SWAP2 SWAP1 PUSH2 0x34FC JUMP JUMPDEST PUSH1 0x7 PUSH1 0x0 PUSH1 0x1 PUSH2 0x1D58 DUP2 DUP9 PUSH2 0x353B JUMP JUMPDEST DUP2 SLOAD DUP2 LT PUSH2 0x1D76 JUMPI PUSH4 0x4E487B71 PUSH1 0xE0 SHL PUSH1 0x0 MSTORE PUSH1 0x32 PUSH1 0x4 MSTORE PUSH1 0x24 PUSH1 0x0 REVERT JUMPDEST PUSH1 0x0 SWAP2 DUP3 MSTORE PUSH1 0x20 DUP1 DUP4 KECCAK256 PUSH1 0x2 PUSH1 0x9 SWAP1 SWAP4 MUL ADD SWAP2 SWAP1 SWAP2 ADD SLOAD PUSH1 0x1 PUSH1 0x1 PUSH1 0xA0 SHL SUB AND DUP4 MSTORE DUP3 ADD SWAP3 SWAP1 SWAP3 MSTORE PUSH1 0x40 ADD DUP2 KECCAK256 DUP1 SLOAD SWAP1 SWAP2 SWAP1 PUSH2 0x1DB3 SWAP1 DUP5 SWAP1 PUSH2 0x353B JUMP JUMPDEST SWAP1 SWAP2 SSTORE POP PUSH1 0x64 SWAP1 POP PUSH2 0x1DC6 DUP3 PUSH1 0x50 PUSH2 0x351C JUMP JUMPDEST PUSH2 0x1DD1 DUP4 PUSH1 0x14 PUSH2 0x351C JUMP JUMPDEST PUSH2 0x1DDB SWAP2 SWAP1 PUSH2 0x34E4 JUMP JUMPDEST PUSH2 0x1DE5 SWAP2 SWAP1 PUSH2 0x34FC JUMP JUMPDEST PUSH1 0x6 PUSH1 0x0 PUSH1 0x1 PUSH2 0x1DF5 DUP2 DUP9 PUSH2 0x353B JUMP JUMPDEST DUP2 SLOAD DUP2 LT PUSH2 0x1E13 JUMPI PUSH4 0x4E487B71 PUSH1 0xE0 SHL PUSH1 0x0 MSTORE PUSH1 0x32 PUSH1 0x4 MSTORE PUSH1 0x24 PUSH1 0x0 REVERT JUMPDEST PUSH1 0x0 SWAP2 DUP3 MSTORE PUSH1 0x20 DUP1 DUP4 KECCAK256 PUSH1 0x2 PUSH1 0x9 SWAP1 SWAP4 MUL ADD SWAP2 SWAP1 SWAP2 ADD SLOAD PUSH1 0x1 PUSH1 0x1 PUSH1 0xA0 SHL SUB AND DUP4 MSTORE DUP3 ADD SWAP3 SWAP1 SWAP3 MSTORE PUSH1 0x40 ADD DUP2 KECCAK256 DUP1 SLOAD SWAP1 SWAP2 SWAP1 PUSH2 0x1E50 SWAP1 DUP5 SWAP1 PUSH2 0x34E4 JUMP JUMPDEST SWAP1 SWAP2 SSTORE POP PUSH1 0x64 SWAP1 POP PUSH2 0x1B34 DUP3 PUSH1 0xA PUSH2 0x351C JUMP JUMPDEST DUP1 PUSH1 0x5 PUSH1 0x0 PUSH1 0x1 PUSH2 0x1E74 DUP2 DUP9 PUSH2 0x353B JUMP JUMPDEST DUP2 SLOAD DUP2 LT PUSH2 0x1E92 JUMPI PUSH4 0x4E487B71 PUSH1 0xE0 SHL PUSH1 0x0 MSTORE PUSH1 0x32 PUSH1 0x4 MSTORE PUSH1 0x24 PUSH1 0x0 REVERT JUMPDEST PUSH1 0x0 SWAP2 DUP3 MSTORE PUSH1 0x20 DUP1 DUP4 KECCAK256 PUSH1 0x1 PUSH1 0x9 SWAP1 SWAP4 MUL ADD SWAP2 SWAP1 SWAP2 ADD SLOAD PUSH1 0x1 PUSH1 0x1 PUSH1 0xA0 SHL SUB AND DUP4 MSTORE DUP3 ADD SWAP3 SWAP1 SWAP3 MSTORE PUSH1 0x40 ADD DUP2 KECCAK256 DUP1 SLOAD SWAP1 SWAP2 SWAP1 PUSH2 0x1ECF SWAP1 DUP5 SWAP1 PUSH2 0x353B JUMP JUMPDEST SWAP1 SWAP2 SSTORE POP PUSH1 0x64 SWAP1 POP PUSH2 0x1EE2 DUP3 PUSH1 0x1E PUSH2 0x351C JUMP JUMPDEST PUSH2 0x1EEC SWAP2 SWAP1 PUSH2 0x34FC JUMP JUMPDEST PUSH1 0x4 PUSH1 0x0 PUSH1 0x1 PUSH2 0x1EFC DUP2 DUP9 PUSH2 0x353B JUMP JUMPDEST DUP2 SLOAD DUP2 LT PUSH2 0x1F1A JUMPI PUSH4 0x4E487B71 PUSH1 0xE0 SHL PUSH1 0x0 MSTORE PUSH1 0x32 PUSH1 0x4 MSTORE PUSH1 0x24 PUSH1 0x0 REVERT JUMPDEST PUSH1 0x0 SWAP2 DUP3 MSTORE PUSH1 0x20 DUP1 DUP4 KECCAK256 PUSH1 0x1 PUSH1 0x9 SWAP1 SWAP4 MUL ADD SWAP2 SWAP1 SWAP2 ADD SLOAD PUSH1 0x1 PUSH1 0x1 PUSH1 0xA0 SHL SUB AND DUP4 MSTORE DUP3 ADD SWAP3 SWAP1 SWAP3 MSTORE PUSH1 0x40 ADD DUP2 KECCAK256 DUP1 SLOAD SWAP1 SWAP2 SWAP1 PUSH2 0x1F57 SWAP1 DUP5 SWAP1 PUSH2 0x34E4 JUMP JUMPDEST SWAP1 SWAP2 SSTORE POP PUSH1 0x64 SWAP1 POP PUSH2 0x1F6A DUP3 PUSH1 0x46 PUSH2 0x351C JUMP JUMPDEST PUSH2 0x1F74 SWAP2 SWAP1 PUSH2 0x34FC JUMP JUMPDEST PUSH1 0x6 PUSH1 0x0 PUSH1 0x1 PUSH2 0x1F84 DUP2 DUP9 PUSH2 0x353B JUMP JUMPDEST DUP2 SLOAD DUP2 LT PUSH2 0x1FA2 JUMPI PUSH4 0x4E487B71 PUSH1 0xE0 SHL PUSH1 0x0 MSTORE PUSH1 0x32 PUSH1 0x4 MSTORE PUSH1 0x24 PUSH1 0x0 REVERT JUMPDEST PUSH1 0x0 SWAP2 DUP3 MSTORE PUSH1 0x20 DUP1 DUP4 KECCAK256 PUSH1 0x2 PUSH1 0x9 SWAP1 SWAP4 MUL ADD SWAP2 SWAP1 SWAP2 ADD SLOAD PUSH1 0x1 PUSH1 0x1 PUSH1 0xA0 SHL SUB AND DUP4 MSTORE DUP3 ADD SWAP3 SWAP1 SWAP3 MSTORE PUSH1 0x40 ADD DUP2 KECCAK256 DUP1 SLOAD SWAP1 SWAP2 SWAP1 PUSH2 0x1FDF SWAP1 DUP5 SWAP1 PUSH2 0x34E4 JUMP JUMPDEST SWAP1 SWAP2 SSTORE POP PUSH1 0x64 SWAP1 POP PUSH2 0x1FF2 DUP3 PUSH1 0x14 PUSH2 0x351C JUMP JUMPDEST PUSH2 0x1FFC SWAP2 SWAP1 PUSH2 0x34FC JUMP JUMPDEST PUSH1 0x7 PUSH1 0x0 PUSH1 0x1 PUSH2 0x200C DUP2 DUP9 PUSH2 0x353B JUMP JUMPDEST DUP2 SLOAD DUP2 LT PUSH2 0x202A JUMPI PUSH4 0x4E487B71 PUSH1 0xE0 SHL PUSH1 0x0 MSTORE PUSH1 0x32 PUSH1 0x4 MSTORE PUSH1 0x24 PUSH1 0x0 REVERT JUMPDEST PUSH1 0x0 SWAP2 DUP3 MSTORE PUSH1 0x20 DUP1 DUP4 KECCAK256 PUSH1 0x2 PUSH1 0x9 SWAP1 SWAP4 MUL ADD SWAP2 SWAP1 SWAP2 ADD SLOAD PUSH1 0x1 PUSH1 0x1 PUSH1 0xA0 SHL SUB AND DUP4 MSTORE DUP3 ADD SWAP3 SWAP1 SWAP3 MSTORE PUSH1 0x40 ADD DUP2 KECCAK256 DUP1 SLOAD SWAP1 SWAP2 SWAP1 PUSH2 0x2067 SWAP1 DUP5 SWAP1 PUSH2 0x353B JUMP JUMPDEST SWAP1 SWAP2 SSTORE POP PUSH1 0x64 SWAP1 POP PUSH2 0xEF7 DUP3 PUSH1 0x14 PUSH2 0x351C JUMP JUMPDEST POP POP POP JUMP JUMPDEST PUSH1 0xB SLOAD PUSH1 0x1 PUSH1 0xA0 SHL SWAP1 DIV PUSH1 0xFF AND PUSH2 0x2095 JUMPI PUSH1 0x0 DUP1 REVERT JUMPDEST PUSH1 0x1 PUSH2 0x20A1 DUP2 DUP4 PUSH2 0x353B JUMP JUMPDEST DUP2 SLOAD DUP2 LT PUSH2 0x20BF JUMPI PUSH4 0x4E487B71 PUSH1 0xE0 SHL PUSH1 0x0 MSTORE PUSH1 0x32 PUSH1 0x4 MSTORE PUSH1 0x24 PUSH1 0x0 REVERT JUMPDEST PUSH1 0x0 SWAP2 DUP3 MSTORE PUSH1 0x20 SWAP1 SWAP2 KECCAK256 PUSH1 0x8 PUSH1 0x9 SWAP1 SWAP3 MUL ADD ADD SLOAD PUSH1 0xFF AND PUSH2 0x20F2 JUMPI PUSH1 0x40 MLOAD PUSH3 0x461BCD PUSH1 0xE5 SHL DUP2 MSTORE PUSH1 0x4 ADD PUSH2 0xA77 SWAP1 PUSH2 0x31DD JUMP JUMPDEST CALLER PUSH1 0x0 SWAP1 DUP2 MSTORE PUSH1 0x6 PUSH1 0x20 MSTORE PUSH1 0x40 DUP2 KECCAK256 DUP1 SLOAD CALLVALUE SWAP3 SWAP1 PUSH2 0x2111 SWAP1 DUP5 SWAP1 PUSH2 0x34E4 JUMP JUMPDEST SWAP1 SWAP2 SSTORE POP PUSH1 0x0 SWAP1 POP PUSH1 0x64 PUSH1 0x1 PUSH2 0x2127 DUP2 DUP6 PUSH2 0x353B JUMP JUMPDEST DUP2 SLOAD DUP2 LT PUSH2 0x2145 JUMPI PUSH4 0x4E487B71 PUSH1 0xE0 SHL PUSH1 0x0 MSTORE PUSH1 0x32 PUSH1 0x4 MSTORE PUSH1 0x24 PUSH1 0x0 REVERT JUMPDEST SWAP1 PUSH1 0x0 MSTORE PUSH1 0x20 PUSH1 0x0 KECCAK256 SWAP1 PUSH1 0x9 MUL ADD PUSH1 0x4 ADD SLOAD PUSH1 0x14 PUSH2 0x2163 SWAP2 SWAP1 PUSH2 0x351C JUMP JUMPDEST PUSH2 0x216D SWAP2 SWAP1 PUSH2 0x34FC JUMP JUMPDEST SWAP1 POP DUP1 CALLVALUE LT ISZERO PUSH2 0x21A6 JUMPI CALLER PUSH1 0x0 SWAP1 DUP2 MSTORE PUSH1 0x6 PUSH1 0x20 MSTORE PUSH1 0x40 SWAP1 KECCAK256 SLOAD DUP2 GT ISZERO PUSH2 0x21A6 JUMPI PUSH1 0x40 MLOAD PUSH3 0x461BCD PUSH1 0xE5 SHL DUP2 MSTORE PUSH1 0x4 ADD PUSH2 0xA77 SWAP1 PUSH2 0x3300 JUMP JUMPDEST CALLER PUSH1 0x0 SWAP1 DUP2 MSTORE PUSH1 0x6 PUSH1 0x20 MSTORE PUSH1 0x40 DUP2 KECCAK256 DUP1 SLOAD DUP4 SWAP3 SWAP1 PUSH2 0x21C5 SWAP1 DUP5 SWAP1 PUSH2 0x353B JUMP JUMPDEST SWAP1 SWAP2 SSTORE POP POP CALLER PUSH1 0x0 SWAP1 DUP2 MSTORE PUSH1 0x7 PUSH1 0x20 MSTORE PUSH1 0x40 DUP2 KECCAK256 DUP1 SLOAD DUP4 SWAP3 SWAP1 PUSH2 0x21E9 SWAP1 DUP5 SWAP1 PUSH2 0x34E4 JUMP JUMPDEST SWAP1 SWAP2 SSTORE POP TIMESTAMP SWAP1 POP PUSH1 0x1 PUSH2 0x21FC DUP2 DUP6 PUSH2 0x353B JUMP JUMPDEST DUP2 SLOAD DUP2 LT PUSH2 0x221A JUMPI PUSH4 0x4E487B71 PUSH1 0xE0 SHL PUSH1 0x0 MSTORE PUSH1 0x32 PUSH1 0x4 MSTORE PUSH1 0x24 PUSH1 0x0 REVERT JUMPDEST SWAP1 PUSH1 0x0 MSTORE PUSH1 0x20 PUSH1 0x0 KECCAK256 SWAP1 PUSH1 0x9 MUL ADD PUSH1 0x5 ADD SLOAD PUSH2 0x2236 SWAP2 SWAP1 PUSH2 0x34E4 JUMP JUMPDEST PUSH1 0x1 PUSH2 0x2242 DUP2 DUP6 PUSH2 0x353B JUMP JUMPDEST DUP2 SLOAD DUP2 LT PUSH2 0x2260 JUMPI PUSH4 0x4E487B71 PUSH1 0xE0 SHL PUSH1 0x0 MSTORE PUSH1 0x32 PUSH1 0x4 MSTORE PUSH1 0x24 PUSH1 0x0 REVERT JUMPDEST PUSH1 0x0 SWAP2 DUP3 MSTORE PUSH1 0x20 SWAP1 SWAP2 KECCAK256 PUSH1 0x6 PUSH1 0x9 SWAP1 SWAP3 MUL ADD ADD SSTORE CALLER PUSH1 0x1 PUSH2 0x2281 DUP2 DUP6 PUSH2 0x353B JUMP JUMPDEST DUP2 SLOAD DUP2 LT PUSH2 0x229F JUMPI PUSH4 0x4E487B71 PUSH1 0xE0 SHL PUSH1 0x0 MSTORE PUSH1 0x32 PUSH1 0x4 MSTORE PUSH1 0x24 PUSH1 0x0 REVERT JUMPDEST PUSH1 0x0 SWAP2 DUP3 MSTORE PUSH1 0x20 DUP3 KECCAK256 PUSH1 0x9 SWAP2 SWAP1 SWAP2 MUL ADD PUSH1 0x2 ADD DUP1 SLOAD PUSH1 0x1 PUSH1 0x1 PUSH1 0xA0 SHL SUB NOT AND PUSH1 0x1 PUSH1 0x1 PUSH1 0xA0 SHL SUB SWAP4 SWAP1 SWAP4 AND SWAP3 SWAP1 SWAP3 OR SWAP1 SWAP2 SSTORE PUSH1 0x1 PUSH2 0x22DD DUP2 DUP6 PUSH2 0x353B JUMP JUMPDEST DUP2 SLOAD DUP2 LT PUSH2 0x22FB JUMPI PUSH4 0x4E487B71 PUSH1 0xE0 SHL PUSH1 0x0 MSTORE PUSH1 0x32 PUSH1 0x4 MSTORE PUSH1 0x24 PUSH1 0x0 REVERT JUMPDEST PUSH1 0x0 SWAP2 DUP3 MSTORE PUSH1 0x20 DUP1 DUP4 KECCAK256 PUSH1 0x9 SWAP3 SWAP1 SWAP3 MUL SWAP1 SWAP2 ADD PUSH1 0x8 ADD DUP1 SLOAD PUSH1 0xFF NOT AND SWAP4 ISZERO ISZERO SWAP4 SWAP1 SWAP4 OR SWAP1 SWAP3 SSTORE CALLER DUP2 MSTORE PUSH1 0x3 DUP3 MSTORE PUSH1 0x40 DUP2 KECCAK256 DUP1 SLOAD PUSH1 0x1 DUP2 DUP2 ADD DUP4 SSTORE SWAP2 DUP4 MSTORE SWAP3 SWAP1 SWAP2 KECCAK256 SWAP1 SWAP2 ADD DUP4 SWAP1 SSTORE PUSH32 0xC6F3E07C4B20B159A57BDA01879E04CD4D7FAF5D15B913E25B16673DCC0DD2AB SWAP1 PUSH2 0x236E DUP2 DUP6 PUSH2 0x353B JUMP JUMPDEST DUP2 SLOAD DUP2 LT PUSH2 0x238C JUMPI PUSH4 0x4E487B71 PUSH1 0xE0 SHL PUSH1 0x0 MSTORE PUSH1 0x32 PUSH1 0x4 MSTORE PUSH1 0x24 PUSH1 0x0 REVERT JUMPDEST SWAP1 PUSH1 0x0 MSTORE PUSH1 0x20 PUSH1 0x0 KECCAK256 SWAP1 PUSH1 0x9 MUL ADD PUSH1 0x6 ADD SLOAD PUSH1 0x40 MLOAD PUSH2 0x23AB SWAP2 SWAP1 PUSH2 0x33CF JUMP JUMPDEST PUSH1 0x40 MLOAD DUP1 SWAP2 SUB SWAP1 LOG1 POP POP JUMP JUMPDEST PUSH1 0x1 PUSH1 0x1 PUSH1 0xA0 SHL SUB AND PUSH1 0x0 SWAP1 DUP2 MSTORE PUSH1 0x6 PUSH1 0x20 SWAP1 DUP2 MSTORE PUSH1 0x40 DUP1 DUP4 KECCAK256 SLOAD PUSH1 0x7 SWAP1 SWAP3 MSTORE SWAP1 SWAP2 KECCAK256 SLOAD SWAP1 SWAP2 JUMP JUMPDEST DUP1 CALLER PUSH1 0x1 PUSH2 0x23ED DUP2 DUP5 PUSH2 0x353B JUMP JUMPDEST DUP2 SLOAD DUP2 LT PUSH2 0x240B JUMPI PUSH4 0x4E487B71 PUSH1 0xE0 SHL PUSH1 0x0 MSTORE PUSH1 0x32 PUSH1 0x4 MSTORE PUSH1 0x24 PUSH1 0x0 REVERT JUMPDEST PUSH1 0x0 SWAP2 DUP3 MSTORE PUSH1 0x20 SWAP1 SWAP2 KECCAK256 PUSH1 0x1 PUSH1 0x9 SWAP1 SWAP3 MUL ADD ADD SLOAD PUSH1 0x1 PUSH1 0x1 PUSH1 0xA0 SHL SUB AND EQ PUSH2 0x2432 JUMPI PUSH1 0x0 DUP1 REVERT JUMPDEST PUSH1 0x1 PUSH2 0x243E DUP2 DUP5 PUSH2 0x353B JUMP JUMPDEST DUP2 SLOAD DUP2 LT PUSH2 0x245C JUMPI PUSH4 0x4E487B71 PUSH1 0xE0 SHL PUSH1 0x0 MSTORE PUSH1 0x32 PUSH1 0x4 MSTORE PUSH1 0x24 PUSH1 0x0 REVERT JUMPDEST PUSH1 0x0 SWAP2 DUP3 MSTORE PUSH1 0x20 SWAP1 SWAP2 KECCAK256 PUSH1 0x8 PUSH1 0x9 SWAP1 SWAP3 MUL ADD ADD SLOAD PUSH1 0xFF PUSH2 0x100 SWAP1 SWAP2 DIV AND ISZERO ISZERO PUSH1 0x1 EQ PUSH2 0x249A JUMPI PUSH1 0x40 MLOAD PUSH3 0x461BCD PUSH1 0xE5 SHL DUP2 MSTORE PUSH1 0x4 ADD PUSH2 0xA77 SWAP1 PUSH2 0x3167 JUMP JUMPDEST PUSH1 0x1 DUP1 PUSH2 0x24A7 DUP2 DUP6 PUSH2 0x353B JUMP JUMPDEST DUP2 SLOAD DUP2 LT PUSH2 0x24C5 JUMPI PUSH4 0x4E487B71 PUSH1 0xE0 SHL PUSH1 0x0 MSTORE PUSH1 0x32 PUSH1 0x4 MSTORE PUSH1 0x24 PUSH1 0x0 REVERT JUMPDEST PUSH1 0x0 SWAP2 DUP3 MSTORE PUSH1 0x20 SWAP1 SWAP2 KECCAK256 PUSH1 0x8 PUSH1 0x9 SWAP1 SWAP3 MUL ADD ADD DUP1 SLOAD PUSH3 0xFF0000 NOT AND PUSH3 0x10000 DUP4 PUSH1 0x3 DUP2 GT ISZERO PUSH2 0x2504 JUMPI PUSH4 0x4E487B71 PUSH1 0xE0 SHL PUSH1 0x0 MSTORE PUSH1 0x21 PUSH1 0x4 MSTORE PUSH1 0x24 PUSH1 0x0 REVERT JUMPDEST MUL OR SWAP1 SSTORE POP PUSH32 0x4D2A9189BA870BC995777AFA824AEAEF603E32E7807917D76F41FA5FA80208E6 PUSH1 0x40 MLOAD PUSH2 0x23AB SWAP1 PUSH2 0x30F8 JUMP JUMPDEST PUSH1 0x5 PUSH1 0x20 MSTORE PUSH1 0x0 SWAP1 DUP2 MSTORE PUSH1 0x40 SWAP1 KECCAK256 SLOAD DUP2 JUMP JUMPDEST PUSH1 0x1 PUSH1 0x1 PUSH1 0xA0 SHL SUB DUP2 AND PUSH1 0x0 SWAP1 DUP2 MSTORE PUSH1 0x2 PUSH1 0x20 SWAP1 DUP2 MSTORE PUSH1 0x40 SWAP2 DUP3 SWAP1 KECCAK256 DUP1 SLOAD DUP4 MLOAD DUP2 DUP5 MUL DUP2 ADD DUP5 ADD SWAP1 SWAP5 MSTORE DUP1 DUP5 MSTORE PUSH1 0x60 SWAP4 SWAP3 DUP4 ADD DUP3 DUP3 DUP1 ISZERO PUSH2 0x97F JUMPI PUSH1 0x20 MUL DUP3 ADD SWAP2 SWAP1 PUSH1 0x0 MSTORE PUSH1 0x20 PUSH1 0x0 KECCAK256 SWAP1 DUP2 SLOAD DUP2 MSTORE PUSH1 0x20 ADD SWAP1 PUSH1 0x1 ADD SWAP1 DUP1 DUP4 GT PUSH2 0x96B JUMPI POP POP POP POP POP SWAP1 POP SWAP2 SWAP1 POP JUMP JUMPDEST PUSH1 0xA SLOAD PUSH1 0x1 PUSH1 0x1 PUSH1 0xA0 SHL SUB AND CALLER EQ DUP1 PUSH2 0x25D5 JUMPI POP PUSH1 0xB SLOAD PUSH1 0x1 PUSH1 0x1 PUSH1 0xA0 SHL SUB AND CALLER EQ JUMPDEST PUSH2 0x25DE JUMPI PUSH1 0x0 DUP1 REVERT JUMPDEST PUSH1 0xA SLOAD PUSH1 0x1 PUSH1 0x1 PUSH1 0xA0 SHL SUB AND PUSH1 0x0 SWAP1 DUP2 MSTORE PUSH1 0x8 PUSH1 0x20 MSTORE PUSH1 0x40 SWAP1 KECCAK256 SLOAD PUSH1 0xFF AND DUP1 ISZERO PUSH2 0x2622 JUMPI POP PUSH1 0xB SLOAD PUSH1 0x1 PUSH1 0x1 PUSH1 0xA0 SHL SUB AND PUSH1 0x0 SWAP1 DUP2 MSTORE PUSH1 0x8 PUSH1 0x20 MSTORE PUSH1 0x40 SWAP1 KECCAK256 SLOAD PUSH1 0xFF AND JUMPDEST PUSH2 0x263E JUMPI PUSH1 0x40 MLOAD PUSH3 0x461BCD PUSH1 0xE5 SHL DUP2 MSTORE PUSH1 0x4 ADD PUSH2 0xA77 SWAP1 PUSH2 0x3398 JUMP JUMPDEST PUSH1 0xB DUP1 SLOAD SWAP2 ISZERO ISZERO PUSH1 0x1 PUSH1 0xA0 SHL MUL PUSH1 0xFF PUSH1 0xA0 SHL NOT SWAP1 SWAP3 AND SWAP2 SWAP1 SWAP2 OR DUP2 SSTORE PUSH1 0xA SLOAD PUSH1 0x1 PUSH1 0x1 PUSH1 0xA0 SHL SUB SWAP1 DUP2 AND PUSH1 0x0 SWAP1 DUP2 MSTORE PUSH1 0x8 PUSH1 0x20 MSTORE PUSH1 0x40 DUP1 DUP3 KECCAK256 DUP1 SLOAD PUSH1 0xFF NOT SWAP1 DUP2 AND SWAP1 SWAP2 SSTORE SWAP4 SLOAD SWAP1 SWAP3 AND DUP2 MSTORE KECCAK256 DUP1 SLOAD SWAP1 SWAP2 AND SWAP1 SSTORE JUMP JUMPDEST DUP1 CALLER PUSH1 0x1 PUSH2 0x26A1 DUP2 DUP5 PUSH2 0x353B JUMP JUMPDEST DUP2 SLOAD DUP2 LT PUSH2 0x26BF JUMPI PUSH4 0x4E487B71 PUSH1 0xE0 SHL PUSH1 0x0 MSTORE PUSH1 0x32 PUSH1 0x4 MSTORE PUSH1 0x24 PUSH1 0x0 REVERT JUMPDEST PUSH1 0x0 SWAP2 DUP3 MSTORE PUSH1 0x20 SWAP1 SWAP2 KECCAK256 PUSH1 0x1 PUSH1 0x9 SWAP1 SWAP3 MUL ADD ADD SLOAD PUSH1 0x1 PUSH1 0x1 PUSH1 0xA0 SHL SUB AND EQ PUSH2 0x26E6 JUMPI PUSH1 0x0 DUP1 REVERT JUMPDEST PUSH1 0x1 PUSH2 0x26F2 DUP2 DUP5 PUSH2 0x353B JUMP JUMPDEST DUP2 SLOAD DUP2 LT PUSH2 0x2710 JUMPI PUSH4 0x4E487B71 PUSH1 0xE0 SHL PUSH1 0x0 MSTORE PUSH1 0x32 PUSH1 0x4 MSTORE PUSH1 0x24 PUSH1 0x0 REVERT JUMPDEST PUSH1 0x0 SWAP2 DUP3 MSTORE PUSH1 0x20 SWAP1 SWAP2 KECCAK256 PUSH1 0x8 PUSH1 0x9 SWAP1 SWAP3 MUL ADD ADD SLOAD PUSH1 0xFF PUSH2 0x100 SWAP1 SWAP2 DIV AND ISZERO ISZERO PUSH1 0x1 EQ PUSH2 0x274E JUMPI PUSH1 0x40 MLOAD PUSH3 0x461BCD PUSH1 0xE5 SHL DUP2 MSTORE PUSH1 0x4 ADD PUSH2 0xA77 SWAP1 PUSH2 0x32C9 JUMP JUMPDEST PUSH1 0x2 PUSH1 0x1 PUSH2 0xAE3 DUP2 DUP6 PUSH2 0x353B JUMP JUMPDEST DUP1 CALLER PUSH1 0x1 PUSH2 0x276A DUP2 DUP5 PUSH2 0x353B JUMP JUMPDEST DUP2 SLOAD DUP2 LT PUSH2 0x2788 JUMPI PUSH4 0x4E487B71 PUSH1 0xE0 SHL PUSH1 0x0 MSTORE PUSH1 0x32 PUSH1 0x4 MSTORE PUSH1 0x24 PUSH1 0x0 REVERT JUMPDEST PUSH1 0x0 SWAP2 DUP3 MSTORE PUSH1 0x20 SWAP1 SWAP2 KECCAK256 PUSH1 0x2 PUSH1 0x9 SWAP1 SWAP3 MUL ADD ADD SLOAD PUSH1 0x1 PUSH1 0x1 PUSH1 0xA0 SHL SUB AND EQ PUSH2 0x27AF JUMPI PUSH1 0x0 DUP1 REVERT JUMPDEST PUSH1 0x1 DUP1 PUSH2 0x27BC DUP2 DUP6 PUSH2 0x353B JUMP JUMPDEST DUP2 SLOAD DUP2 LT PUSH2 0x27DA JUMPI PUSH4 0x4E487B71 PUSH1 0xE0 SHL PUSH1 0x0 MSTORE PUSH1 0x32 PUSH1 0x4 MSTORE PUSH1 0x24 PUSH1 0x0 REVERT JUMPDEST PUSH1 0x0 SWAP2 DUP3 MSTORE PUSH1 0x20 SWAP1 SWAP2 KECCAK256 PUSH1 0x8 PUSH1 0x9 SWAP1 SWAP3 MUL ADD ADD DUP1 SLOAD SWAP2 ISZERO ISZERO PUSH2 0x100 MUL PUSH2 0xFF00 NOT SWAP1 SWAP3 AND SWAP2 SWAP1 SWAP2 OR SWAP1 SSTORE TIMESTAMP PUSH1 0x1 PUSH2 0x2810 DUP2 DUP6 PUSH2 0x353B JUMP JUMPDEST DUP2 SLOAD DUP2 LT PUSH2 0x282E JUMPI PUSH4 0x4E487B71 PUSH1 0xE0 SHL PUSH1 0x0 MSTORE PUSH1 0x32 PUSH1 0x4 MSTORE PUSH1 0x24 PUSH1 0x0 REVERT JUMPDEST SWAP1 PUSH1 0x0 MSTORE PUSH1 0x20 PUSH1 0x0 KECCAK256 SWAP1 PUSH1 0x9 MUL ADD PUSH1 0x7 ADD DUP2 SWAP1 SSTORE POP PUSH32 0xA554C5ECE40DDC458252A21D6268E4A67F51CBE8E2F00C818417161C854A817F PUSH1 0x40 MLOAD PUSH2 0x23AB SWAP1 PUSH2 0x3263 JUMP JUMPDEST PUSH1 0x0 DUP1 DUP1 PUSH1 0x60 DUP2 DUP1 DUP1 DUP1 DUP1 DUP1 DUP1 PUSH1 0x1 PUSH2 0x2889 DUP2 DUP15 PUSH2 0x353B JUMP JUMPDEST DUP2 SLOAD DUP2 LT PUSH2 0x28A7 JUMPI PUSH4 0x4E487B71 PUSH1 0xE0 SHL PUSH1 0x0 MSTORE PUSH1 0x32 PUSH1 0x4 MSTORE PUSH1 0x24 PUSH1 0x0 REVERT JUMPDEST PUSH1 0x0 SWAP2 DUP3 MSTORE PUSH1 0x20 SWAP1 SWAP2 KECCAK256 PUSH1 0x9 SWAP1 SWAP2 MUL ADD SLOAD SWAP11 POP PUSH1 0x1 PUSH2 0x28C6 DUP2 DUP15 PUSH2 0x353B JUMP JUMPDEST DUP2 SLOAD DUP2 LT PUSH2 0x28E4 JUMPI PUSH4 0x4E487B71 PUSH1 0xE0 SHL PUSH1 0x0 MSTORE PUSH1 0x32 PUSH1 0x4 MSTORE PUSH1 0x24 PUSH1 0x0 REVERT JUMPDEST PUSH1 0x0 SWAP2 DUP3 MSTORE PUSH1 0x20 SWAP1 SWAP2 KECCAK256 PUSH1 0x1 PUSH1 0x9 SWAP1 SWAP3 MUL ADD DUP2 ADD SLOAD PUSH1 0x1 PUSH1 0x1 PUSH1 0xA0 SHL SUB AND SWAP11 POP PUSH2 0x290E DUP2 DUP15 PUSH2 0x353B JUMP JUMPDEST DUP2 SLOAD DUP2 LT PUSH2 0x292C JUMPI PUSH4 0x4E487B71 PUSH1 0xE0 SHL PUSH1 0x0 MSTORE PUSH1 0x32 PUSH1 0x4 MSTORE PUSH1 0x24 PUSH1 0x0 REVERT JUMPDEST PUSH1 0x0 SWAP2 DUP3 MSTORE PUSH1 0x20 SWAP1 SWAP2 KECCAK256 PUSH1 0x2 PUSH1 0x9 SWAP1 SWAP3 MUL ADD ADD SLOAD PUSH1 0x1 PUSH1 0x1 PUSH1 0xA0 SHL SUB AND SWAP9 POP PUSH1 0x1 PUSH2 0x2957 DUP2 DUP15 PUSH2 0x353B JUMP JUMPDEST DUP2 SLOAD DUP2 LT PUSH2 0x2975 JUMPI PUSH4 0x4E487B71 PUSH1 0xE0 SHL PUSH1 0x0 MSTORE PUSH1 0x32 PUSH1 0x4 MSTORE PUSH1 0x24 PUSH1 0x0 REVERT JUMPDEST SWAP1 PUSH1 0x0 MSTORE PUSH1 0x20 PUSH1 0x0 KECCAK256 SWAP1 PUSH1 0x9 MUL ADD PUSH1 0x3 ADD DUP1 SLOAD PUSH2 0x2991 SWAP1 PUSH2 0x3552 JUMP JUMPDEST DUP1 PUSH1 0x1F ADD PUSH1 0x20 DUP1 SWAP2 DIV MUL PUSH1 0x20 ADD PUSH1 0x40 MLOAD SWAP1 DUP2 ADD PUSH1 0x40 MSTORE DUP1 SWAP3 SWAP2 SWAP1 DUP2 DUP2 MSTORE PUSH1 0x20 ADD DUP3 DUP1 SLOAD PUSH2 0x29BD SWAP1 PUSH2 0x3552 JUMP JUMPDEST DUP1 ISZERO PUSH2 0x2A0A JUMPI DUP1 PUSH1 0x1F LT PUSH2 0x29DF JUMPI PUSH2 0x100 DUP1 DUP4 SLOAD DIV MUL DUP4 MSTORE SWAP2 PUSH1 0x20 ADD SWAP2 PUSH2 0x2A0A JUMP JUMPDEST DUP3 ADD SWAP2 SWAP1 PUSH1 0x0 MSTORE PUSH1 0x20 PUSH1 0x0 KECCAK256 SWAP1 JUMPDEST DUP2 SLOAD DUP2 MSTORE SWAP1 PUSH1 0x1 ADD SWAP1 PUSH1 0x20 ADD DUP1 DUP4 GT PUSH2 0x29ED JUMPI DUP3 SWAP1 SUB PUSH1 0x1F AND DUP3 ADD SWAP2 JUMPDEST POP POP POP POP POP SWAP8 POP PUSH1 0x1 DUP1 DUP14 PUSH2 0x2A1F SWAP2 SWAP1 PUSH2 0x353B JUMP JUMPDEST DUP2 SLOAD DUP2 LT PUSH2 0x2A3D JUMPI PUSH4 0x4E487B71 PUSH1 0xE0 SHL PUSH1 0x0 MSTORE PUSH1 0x32 PUSH1 0x4 MSTORE PUSH1 0x24 PUSH1 0x0 REVERT JUMPDEST SWAP1 PUSH1 0x0 MSTORE PUSH1 0x20 PUSH1 0x0 KECCAK256 SWAP1 PUSH1 0x9 MUL ADD PUSH1 0x4 ADD SLOAD SWAP7 POP PUSH1 0x1 DUP1 DUP14 PUSH2 0x2A5F SWAP2 SWAP1 PUSH2 0x353B JUMP JUMPDEST DUP2 SLOAD DUP2 LT PUSH2 0x2A7D JUMPI PUSH4 0x4E487B71 PUSH1 0xE0 SHL PUSH1 0x0 MSTORE PUSH1 0x32 PUSH1 0x4 MSTORE PUSH1 0x24 PUSH1 0x0 REVERT JUMPDEST SWAP1 PUSH1 0x0 MSTORE PUSH1 0x20 PUSH1 0x0 KECCAK256 SWAP1 PUSH1 0x9 MUL ADD PUSH1 0x5 ADD SLOAD SWAP6 POP PUSH1 0x1 DUP1 DUP14 PUSH2 0x2A9F SWAP2 SWAP1 PUSH2 0x353B JUMP JUMPDEST DUP2 SLOAD DUP2 LT PUSH2 0x2ABD JUMPI PUSH4 0x4E487B71 PUSH1 0xE0 SHL PUSH1 0x0 MSTORE PUSH1 0x32 PUSH1 0x4 MSTORE PUSH1 0x24 PUSH1 0x0 REVERT JUMPDEST SWAP1 PUSH1 0x0 MSTORE PUSH1 0x20 PUSH1 0x0 KECCAK256 SWAP1 PUSH1 0x9 MUL ADD PUSH1 0x6 ADD SLOAD SWAP5 POP PUSH1 0x1 DUP1 DUP14 PUSH2 0x2ADF SWAP2 SWAP1 PUSH2 0x353B JUMP JUMPDEST DUP2 SLOAD DUP2 LT PUSH2 0x2AFD JUMPI PUSH4 0x4E487B71 PUSH1 0xE0 SHL PUSH1 0x0 MSTORE PUSH1 0x32 PUSH1 0x4 MSTORE PUSH1 0x24 PUSH1 0x0 REVERT JUMPDEST SWAP1 PUSH1 0x0 MSTORE PUSH1 0x20 PUSH1 0x0 KECCAK256 SWAP1 PUSH1 0x9 MUL ADD PUSH1 0x7 ADD SLOAD SWAP4 POP PUSH1 0x1 DUP1 DUP14 PUSH2 0x2B1F SWAP2 SWAP1 PUSH2 0x353B JUMP JUMPDEST DUP2 SLOAD DUP2 LT PUSH2 0x2B3D JUMPI PUSH4 0x4E487B71 PUSH1 0xE0 SHL PUSH1 0x0 MSTORE PUSH1 0x32 PUSH1 0x4 MSTORE PUSH1 0x24 PUSH1 0x0 REVERT JUMPDEST PUSH1 0x0 SWAP2 DUP3 MSTORE PUSH1 0x20 SWAP1 SWAP2 KECCAK256 PUSH1 0x8 PUSH1 0x9 SWAP1 SWAP3 MUL ADD ADD SLOAD PUSH1 0xFF AND SWAP3 POP PUSH1 0x1 PUSH2 0x2B62 DUP2 DUP15 PUSH2 0x353B JUMP JUMPDEST DUP2 SLOAD DUP2 LT PUSH2 0x2B80 JUMPI PUSH4 0x4E487B71 PUSH1 0xE0 SHL PUSH1 0x0 MSTORE PUSH1 0x32 PUSH1 0x4 MSTORE PUSH1 0x24 PUSH1 0x0 REVERT JUMPDEST PUSH1 0x0 SWAP2 DUP3 MSTORE PUSH1 0x20 SWAP1 SWAP2 KECCAK256 PUSH1 0x9 SWAP1 SWAP2 MUL ADD PUSH1 0x8 ADD SLOAD PUSH2 0x100 SWAP1 DIV PUSH1 0xFF AND SWAP2 POP PUSH1 0x1 PUSH2 0x2BAA DUP2 DUP15 PUSH2 0x353B JUMP JUMPDEST DUP2 SLOAD DUP2 LT PUSH2 0x2BC8 JUMPI PUSH4 0x4E487B71 PUSH1 0xE0 SHL PUSH1 0x0 MSTORE PUSH1 0x32 PUSH1 0x4 MSTORE PUSH1 0x24 PUSH1 0x0 REVERT JUMPDEST SWAP1 PUSH1 0x0 MSTORE PUSH1 0x20 PUSH1 0x0 KECCAK256 SWAP1 PUSH1 0x9 MUL ADD PUSH1 0x8 ADD PUSH1 0x2 SWAP1 SLOAD SWAP1 PUSH2 0x100 EXP SWAP1 DIV PUSH1 0xFF AND SWAP1 POP SWAP2 SWAP4 SWAP6 SWAP8 SWAP10 SWAP12 SWAP1 SWAP3 SWAP5 SWAP7 SWAP9 SWAP11 POP JUMP JUMPDEST CALLER PUSH1 0x1 PUSH2 0x2C05 DUP2 DUP5 PUSH2 0x353B JUMP JUMPDEST DUP2 SLOAD DUP2 LT PUSH2 0x2C23 JUMPI PUSH4 0x4E487B71 PUSH1 0xE0 SHL PUSH1 0x0 MSTORE PUSH1 0x32 PUSH1 0x4 MSTORE PUSH1 0x24 PUSH1 0x0 REVERT JUMPDEST PUSH1 0x0 SWAP2 DUP3 MSTORE PUSH1 0x20 SWAP1 SWAP2 KECCAK256 PUSH1 0x1 PUSH1 0x9 SWAP1 SWAP3 MUL ADD ADD SLOAD PUSH1 0x1 PUSH1 0x1 PUSH1 0xA0 SHL SUB AND EQ DUP1 PUSH2 0x2C91 JUMPI POP CALLER PUSH1 0x1 PUSH2 0x2C54 DUP2 DUP5 PUSH2 0x353B JUMP JUMPDEST DUP2 SLOAD DUP2 LT PUSH2 0x2C72 JUMPI PUSH4 0x4E487B71 PUSH1 0xE0 SHL PUSH1 0x0 MSTORE PUSH1 0x32 PUSH1 0x4 MSTORE PUSH1 0x24 PUSH1 0x0 REVERT JUMPDEST PUSH1 0x0 SWAP2 DUP3 MSTORE PUSH1 0x20 SWAP1 SWAP2 KECCAK256 PUSH1 0x2 PUSH1 0x9 SWAP1 SWAP3 MUL ADD ADD SLOAD PUSH1 0x1 PUSH1 0x1 PUSH1 0xA0 SHL SUB AND EQ JUMPDEST PUSH2 0x2CAD JUMPI PUSH1 0x40 MLOAD PUSH3 0x461BCD PUSH1 0xE5 SHL DUP2 MSTORE PUSH1 0x4 ADD PUSH2 0xA77 SWAP1 PUSH2 0x3337 JUMP JUMPDEST PUSH1 0x1 PUSH2 0x2CB9 DUP2 DUP4 PUSH2 0x353B JUMP JUMPDEST DUP2 SLOAD DUP2 LT PUSH2 0x2CD7 JUMPI PUSH4 0x4E487B71 PUSH1 0xE0 SHL PUSH1 0x0 MSTORE PUSH1 0x32 PUSH1 0x4 MSTORE PUSH1 0x24 PUSH1 0x0 REVERT JUMPDEST PUSH1 0x0 SWAP2 DUP3 MSTORE PUSH1 0x20 SWAP1 SWAP2 KECCAK256 PUSH1 0x8 PUSH1 0x9 SWAP1 SWAP3 MUL ADD ADD SLOAD PUSH1 0xFF PUSH2 0x100 SWAP1 SWAP2 DIV AND ISZERO ISZERO PUSH1 0x1 EQ PUSH2 0x2D15 JUMPI PUSH1 0x40 MLOAD PUSH3 0x461BCD PUSH1 0xE5 SHL DUP2 MSTORE PUSH1 0x4 ADD PUSH2 0xA77 SWAP1 PUSH2 0x32C9 JUMP JUMPDEST PUSH1 0x3 PUSH1 0x1 PUSH2 0x2D23 DUP2 DUP5 PUSH2 0x353B JUMP JUMPDEST DUP2 SLOAD DUP2 LT PUSH2 0x2D41 JUMPI PUSH4 0x4E487B71 PUSH1 0xE0 SHL PUSH1 0x0 MSTORE PUSH1 0x32 PUSH1 0x4 MSTORE PUSH1 0x24 PUSH1 0x0 REVERT JUMPDEST PUSH1 0x0 SWAP2 DUP3 MSTORE PUSH1 0x20 SWAP1 SWAP2 KECCAK256 PUSH1 0x8 PUSH1 0x9 SWAP1 SWAP3 MUL ADD ADD DUP1 SLOAD PUSH3 0xFF0000 NOT AND PUSH3 0x10000 DUP4 PUSH1 0x3 DUP2 GT ISZERO PUSH2 0x2D80 JUMPI PUSH4 0x4E487B71 PUSH1 0xE0 SHL PUSH1 0x0 MSTORE PUSH1 0x21 PUSH1 0x4 MSTORE PUSH1 0x24 PUSH1 0x0 REVERT JUMPDEST MUL OR SWAP1 SSTORE POP POP JUMP JUMPDEST PUSH1 0x1 PUSH1 0x1 PUSH1 0xA0 SHL SUB AND PUSH1 0x0 SWAP1 DUP2 MSTORE PUSH1 0x4 PUSH1 0x20 SWAP1 DUP2 MSTORE PUSH1 0x40 DUP1 DUP4 KECCAK256 SLOAD PUSH1 0x5 SWAP1 SWAP3 MSTORE SWAP1 SWAP2 KECCAK256 SLOAD SWAP1 SWAP2 JUMP JUMPDEST PUSH1 0x7 PUSH1 0x20 MSTORE PUSH1 0x0 SWAP1 DUP2 MSTORE PUSH1 0x40 SWAP1 KECCAK256 SLOAD DUP2 JUMP JUMPDEST PUSH1 0x4 PUSH1 0x20 MSTORE PUSH1 0x0 SWAP1 DUP2 MSTORE PUSH1 0x40 SWAP1 KECCAK256 SLOAD DUP2 JUMP JUMPDEST PUSH1 0x2 PUSH1 0x0 SLOAD EQ ISZERO PUSH2 0x2DF7 JUMPI PUSH1 0x40 MLOAD PUSH3 0x461BCD PUSH1 0xE5 SHL DUP2 MSTORE PUSH1 0x4 ADD PUSH2 0xA77 SWAP1 PUSH2 0x3361 JUMP JUMPDEST PUSH1 0x2 PUSH1 0x0 SSTORE JUMP JUMPDEST PUSH1 0x1 PUSH1 0x0 SSTORE JUMP JUMPDEST DUP3 DUP1 SLOAD PUSH2 0x2E11 SWAP1 PUSH2 0x3552 JUMP JUMPDEST SWAP1 PUSH1 0x0 MSTORE PUSH1 0x20 PUSH1 0x0 KECCAK256 SWAP1 PUSH1 0x1F ADD PUSH1 0x20 SWAP1 DIV DUP2 ADD SWAP3 DUP3 PUSH2 0x2E33 JUMPI PUSH1 0x0 DUP6 SSTORE PUSH2 0x2E79 JUMP JUMPDEST DUP3 PUSH1 0x1F LT PUSH2 0x2E4C JUMPI DUP1 MLOAD PUSH1 0xFF NOT AND DUP4 DUP1 ADD OR DUP6 SSTORE PUSH2 0x2E79 JUMP JUMPDEST DUP3 DUP1 ADD PUSH1 0x1 ADD DUP6 SSTORE DUP3 ISZERO PUSH2 0x2E79 JUMPI SWAP2 DUP3 ADD JUMPDEST DUP3 DUP2 GT ISZERO PUSH2 0x2E79 JUMPI DUP3 MLOAD DUP3 SSTORE SWAP2 PUSH1 0x20 ADD SWAP2 SWAP1 PUSH1 0x1 ADD SWAP1 PUSH2 0x2E5E JUMP JUMPDEST POP PUSH2 0x2E85 SWAP3 SWAP2 POP PUSH2 0x2E89 JUMP JUMPDEST POP SWAP1 JUMP JUMPDEST JUMPDEST DUP1 DUP3 GT ISZERO PUSH2 0x2E85 JUMPI PUSH1 0x0 DUP2 SSTORE PUSH1 0x1 ADD PUSH2 0x2E8A JUMP JUMPDEST DUP1 CALLDATALOAD PUSH1 0x1 PUSH1 0x1 PUSH1 0xA0 SHL SUB DUP2 AND DUP2 EQ PUSH2 0x987 JUMPI PUSH1 0x0 DUP1 REVERT JUMPDEST PUSH1 0x0 DUP3 PUSH1 0x1F DUP4 ADD SLT PUSH2 0x2EC5 JUMPI DUP1 DUP2 REVERT JUMPDEST DUP2 CALLDATALOAD PUSH8 0xFFFFFFFFFFFFFFFF DUP1 DUP3 GT ISZERO PUSH2 0x2EE0 JUMPI PUSH2 0x2EE0 PUSH2 0x35A3 JUMP JUMPDEST PUSH1 0x40 MLOAD PUSH1 0x1F DUP4 ADD PUSH1 0x1F NOT AND DUP2 ADD PUSH1 0x20 ADD DUP3 DUP2 GT DUP3 DUP3 LT OR ISZERO PUSH2 0x2F04 JUMPI PUSH2 0x2F04 PUSH2 0x35A3 JUMP JUMPDEST PUSH1 0x40 MSTORE DUP3 DUP2 MSTORE DUP5 DUP4 ADD PUSH1 0x20 ADD DUP7 LT ISZERO PUSH2 0x2F1B JUMPI DUP4 DUP5 REVERT JUMPDEST DUP3 PUSH1 0x20 DUP7 ADD PUSH1 0x20 DUP4 ADD CALLDATACOPY SWAP2 DUP3 ADD PUSH1 0x20 ADD SWAP3 SWAP1 SWAP3 MSTORE SWAP4 SWAP3 POP POP POP JUMP JUMPDEST PUSH1 0x0 PUSH1 0x20 DUP3 DUP5 SUB SLT ISZERO PUSH2 0x2F47 JUMPI DUP1 DUP2 REVERT JUMPDEST PUSH2 0x2F50 DUP3 PUSH2 0x2E9E JUMP JUMPDEST SWAP4 SWAP3 POP POP POP JUMP JUMPDEST PUSH1 0x0 DUP1 PUSH1 0x40 DUP4 DUP6 SUB SLT ISZERO PUSH2 0x2F69 JUMPI DUP1 DUP2 REVERT JUMPDEST PUSH2 0x2F72 DUP4 PUSH2 0x2E9E JUMP JUMPDEST SWAP5 PUSH1 0x20 SWAP4 SWAP1 SWAP4 ADD CALLDATALOAD SWAP4 POP POP POP JUMP JUMPDEST PUSH1 0x0 PUSH1 0x20 DUP3 DUP5 SUB SLT ISZERO PUSH2 0x2F91 JUMPI DUP1 DUP2 REVERT JUMPDEST DUP2 CALLDATALOAD DUP1 ISZERO ISZERO DUP2 EQ PUSH2 0x2F50 JUMPI DUP2 DUP3 REVERT JUMPDEST PUSH1 0x0 DUP1 PUSH1 0x0 PUSH1 0x60 DUP5 DUP7 SUB SLT ISZERO PUSH2 0x2FB4 JUMPI DUP1 DUP2 REVERT JUMPDEST DUP4 CALLDATALOAD PUSH8 0xFFFFFFFFFFFFFFFF DUP2 GT ISZERO PUSH2 0x2FCA JUMPI DUP2 DUP3 REVERT JUMPDEST PUSH2 0x2FD6 DUP7 DUP3 DUP8 ADD PUSH2 0x2EB5 JUMP JUMPDEST SWAP7 PUSH1 0x20 DUP7 ADD CALLDATALOAD SWAP7 POP PUSH1 0x40 SWAP1 SWAP6 ADD CALLDATALOAD SWAP5 SWAP4 POP POP POP POP JUMP JUMPDEST PUSH1 0x0 PUSH1 0x20 DUP3 DUP5 SUB SLT ISZERO PUSH2 0x2FFD JUMPI DUP1 DUP2 REVERT JUMPDEST POP CALLDATALOAD SWAP2 SWAP1 POP JUMP JUMPDEST PUSH1 0x0 DUP1 PUSH1 0x40 DUP4 DUP6 SUB SLT ISZERO PUSH2 0x3016 JUMPI DUP2 DUP3 REVERT JUMPDEST DUP3 CALLDATALOAD SWAP2 POP PUSH1 0x20 DUP4 ADD CALLDATALOAD PUSH8 0xFFFFFFFFFFFFFFFF DUP2 GT ISZERO PUSH2 0x3033 JUMPI DUP2 DUP3 REVERT JUMPDEST PUSH2 0x303F DUP6 DUP3 DUP7 ADD PUSH2 0x2EB5 JUMP JUMPDEST SWAP2 POP POP SWAP3 POP SWAP3 SWAP1 POP JUMP JUMPDEST PUSH1 0x0 DUP1 PUSH1 0x40 DUP4 DUP6 SUB SLT ISZERO PUSH2 0x305B JUMPI DUP2 DUP3 REVERT JUMPDEST POP POP DUP1 CALLDATALOAD SWAP3 PUSH1 0x20 SWAP1 SWAP2 ADD CALLDATALOAD SWAP2 POP JUMP JUMPDEST ISZERO ISZERO SWAP1 MSTORE JUMP JUMPDEST PUSH1 0x4 DUP2 LT PUSH2 0x308E JUMPI PUSH4 0x4E487B71 PUSH1 0xE0 SHL PUSH1 0x0 MSTORE PUSH1 0x21 PUSH1 0x4 MSTORE PUSH1 0x24 PUSH1 0x0 REVERT JUMPDEST SWAP1 MSTORE JUMP JUMPDEST SWAP1 JUMP JUMPDEST PUSH1 0x1 PUSH1 0x1 PUSH1 0xA0 SHL SUB SWAP2 SWAP1 SWAP2 AND DUP2 MSTORE PUSH1 0x20 ADD SWAP1 JUMP JUMPDEST PUSH1 0x20 DUP1 DUP3 MSTORE DUP3 MLOAD DUP3 DUP3 ADD DUP2 SWAP1 MSTORE PUSH1 0x0 SWAP2 SWAP1 DUP5 DUP3 ADD SWAP1 PUSH1 0x40 DUP6 ADD SWAP1 DUP5 JUMPDEST DUP2 DUP2 LT ISZERO PUSH2 0x30E1 JUMPI DUP4 MLOAD DUP4 MSTORE SWAP3 DUP5 ADD SWAP3 SWAP2 DUP5 ADD SWAP2 PUSH1 0x1 ADD PUSH2 0x30C5 JUMP JUMPDEST POP SWAP1 SWAP7 SWAP6 POP POP POP POP POP POP JUMP JUMPDEST SWAP1 ISZERO ISZERO DUP2 MSTORE PUSH1 0x20 ADD SWAP1 JUMP JUMPDEST PUSH1 0x20 DUP1 DUP3 MSTORE PUSH1 0x21 SWAP1 DUP3 ADD MSTORE PUSH32 0x73656520796F7520736F6F6E20666F7220746865206E6578742070726F6A6563 PUSH1 0x40 DUP3 ADD MSTORE PUSH1 0x1D PUSH1 0xFA SHL PUSH1 0x60 DUP3 ADD MSTORE PUSH1 0x80 ADD SWAP1 JUMP JUMPDEST PUSH1 0x20 DUP1 DUP3 MSTORE PUSH1 0x14 SWAP1 DUP3 ADD MSTORE PUSH20 0x2330B4B632B2103A379039B2B7321022BA3432B9 PUSH1 0x61 SHL PUSH1 0x40 DUP3 ADD MSTORE PUSH1 0x60 ADD SWAP1 JUMP JUMPDEST PUSH1 0x20 DUP1 DUP3 MSTORE PUSH1 0x27 SWAP1 DUP3 ADD MSTORE PUSH32 0x207468652070726F6A656374206973206E6F7420636F6D706C65746564207761 PUSH1 0x40 DUP3 ADD MSTORE PUSH7 0x6974206D6F7265 PUSH1 0xC8 SHL PUSH1 0x60 DUP3 ADD MSTORE PUSH1 0x80 ADD SWAP1 JUMP JUMPDEST PUSH1 0x20 DUP1 DUP3 MSTORE PUSH1 0x15 SWAP1 DUP3 ADD MSTORE PUSH21 0x20796F752073686F756C642077616974206D6F7265 PUSH1 0x58 SHL PUSH1 0x40 DUP3 ADD MSTORE PUSH1 0x60 ADD SWAP1 JUMP JUMPDEST PUSH1 0x20 DUP1 DUP3 MSTORE PUSH1 0x2F SWAP1 DUP3 ADD MSTORE PUSH32 0x496E76616C69642070726F6A656374204944206F72207468652070726F6A6563 PUSH1 0x40 DUP3 ADD MSTORE PUSH15 0x74206973206E6F7420616374697665 PUSH1 0x88 SHL PUSH1 0x60 DUP3 ADD MSTORE PUSH1 0x80 ADD SWAP1 JUMP JUMPDEST PUSH1 0x20 DUP1 DUP3 MSTORE PUSH1 0x1C SWAP1 DUP3 ADD MSTORE PUSH32 0x4475726174696F6E206D757374206265206D6F7265207468616E203000000000 PUSH1 0x40 DUP3 ADD MSTORE PUSH1 0x60 ADD SWAP1 JUMP JUMPDEST PUSH1 0x20 DUP1 DUP3 MSTORE PUSH1 0x15 SWAP1 DUP3 ADD MSTORE PUSH21 0x3BB0B4BA103337B91031B7B73334B936B0BA34B7B7 PUSH1 0x59 SHL PUSH1 0x40 DUP3 ADD MSTORE PUSH1 0x60 ADD SWAP1 JUMP JUMPDEST PUSH1 0x20 DUP1 DUP3 MSTORE PUSH1 0x1C SWAP1 DUP3 ADD MSTORE PUSH32 0x796F757220636C69656E74206973206E6F742073617469736669656400000000 PUSH1 0x40 DUP3 ADD MSTORE PUSH1 0x60 ADD SWAP1 JUMP JUMPDEST PUSH1 0x20 DUP1 DUP3 MSTORE PUSH1 0x18 SWAP1 DUP3 ADD MSTORE PUSH32 0x796F75722070656F6A656374206973206E6F7420646F6E650000000000000000 PUSH1 0x40 DUP3 ADD MSTORE PUSH1 0x60 ADD SWAP1 JUMP JUMPDEST PUSH1 0x20 DUP1 DUP3 MSTORE PUSH1 0x1B SWAP1 DUP3 ADD MSTORE PUSH32 0x506C6561736520496E63726561736520796F7572206372656469740000000000 PUSH1 0x40 DUP3 ADD MSTORE PUSH1 0x60 ADD SWAP1 JUMP JUMPDEST PUSH1 0x20 DUP1 DUP3 MSTORE PUSH1 0x10 SWAP1 DUP3 ADD MSTORE PUSH16 0x1DDC9BDB99C81C1C9BDA9958DD081251 PUSH1 0x82 SHL PUSH1 0x40 DUP3 ADD MSTORE PUSH1 0x60 ADD SWAP1 JUMP JUMPDEST PUSH1 0x20 DUP1 DUP3 MSTORE PUSH1 0x1F SWAP1 DUP3 ADD MSTORE PUSH32 0x5265656E7472616E637947756172643A207265656E7472616E742063616C6C00 PUSH1 0x40 DUP3 ADD MSTORE PUSH1 0x60 ADD SWAP1 JUMP JUMPDEST PUSH1 0x20 DUP1 DUP3 MSTORE PUSH1 0x1D SWAP1 DUP3 ADD MSTORE PUSH32 0x636F6E6669726D6174696F6E206973206E6F7420636F6D706C65746564000000 PUSH1 0x40 DUP3 ADD MSTORE PUSH1 0x60 ADD SWAP1 JUMP JUMPDEST SWAP1 DUP2 MSTORE PUSH1 0x20 ADD SWAP1 JUMP JUMPDEST PUSH1 0x0 PUSH2 0x160 DUP14 DUP4 MSTORE PUSH1 0x20 PUSH1 0x1 DUP1 PUSH1 0xA0 SHL SUB DUP1 DUP16 AND DUP3 DUP7 ADD MSTORE DUP1 DUP15 AND PUSH1 0x40 DUP7 ADD MSTORE POP DUP2 PUSH1 0x60 DUP6 ADD MSTORE DUP12 MLOAD DUP1 DUP4 DUP7 ADD MSTORE DUP4 SWAP3 POP JUMPDEST DUP1 DUP4 LT ISZERO PUSH2 0x3429 JUMPI DUP13 DUP4 ADD DUP3 ADD MLOAD DUP6 DUP5 ADD PUSH2 0x180 ADD MSTORE SWAP2 DUP2 ADD SWAP2 PUSH2 0x340A JUMP JUMPDEST DUP1 DUP4 GT ISZERO PUSH2 0x343B JUMPI DUP4 PUSH2 0x180 DUP3 DUP8 ADD ADD MSTORE JUMPDEST PUSH2 0x180 PUSH1 0x1F NOT PUSH1 0x1F DUP4 ADD AND DUP7 ADD ADD SWAP4 POP POP POP POP DUP9 PUSH1 0x80 DUP4 ADD MSTORE DUP8 PUSH1 0xA0 DUP4 ADD MSTORE DUP7 PUSH1 0xC0 DUP4 ADD MSTORE DUP6 PUSH1 0xE0 DUP4 ADD MSTORE PUSH2 0x3474 PUSH2 0x100 DUP4 ADD DUP7 PUSH2 0x306A JUMP JUMPDEST PUSH2 0x3482 PUSH2 0x120 DUP4 ADD DUP6 PUSH2 0x306A JUMP JUMPDEST PUSH2 0x3490 PUSH2 0x140 DUP4 ADD DUP5 PUSH2 0x3070 JUMP JUMPDEST SWAP13 SWAP12 POP POP POP POP POP POP POP POP POP POP POP POP JUMP JUMPDEST SWAP1 DUP2 MSTORE PUSH1 0x40 PUSH1 0x20 DUP3 ADD DUP2 SWAP1 MSTORE PUSH1 0x15 SWAP1 DUP3 ADD MSTORE PUSH21 0x50726F6A65637420697320416374697665206E6F77 PUSH1 0x58 SHL PUSH1 0x60 DUP3 ADD MSTORE PUSH1 0x80 ADD SWAP1 JUMP JUMPDEST SWAP2 DUP3 MSTORE PUSH1 0x20 DUP3 ADD MSTORE PUSH1 0x40 ADD SWAP1 JUMP JUMPDEST PUSH1 0x0 DUP3 NOT DUP3 GT ISZERO PUSH2 0x34F7 JUMPI PUSH2 0x34F7 PUSH2 0x358D JUMP JUMPDEST POP ADD SWAP1 JUMP JUMPDEST PUSH1 0x0 DUP3 PUSH2 0x3517 JUMPI PUSH4 0x4E487B71 PUSH1 0xE0 SHL DUP2 MSTORE PUSH1 0x12 PUSH1 0x4 MSTORE PUSH1 0x24 DUP2 REVERT JUMPDEST POP DIV SWAP1 JUMP JUMPDEST PUSH1 0x0 DUP2 PUSH1 0x0 NOT DIV DUP4 GT DUP3 ISZERO ISZERO AND ISZERO PUSH2 0x3536 JUMPI PUSH2 0x3536 PUSH2 0x358D JUMP JUMPDEST POP MUL SWAP1 JUMP JUMPDEST PUSH1 0x0 DUP3 DUP3 LT ISZERO PUSH2 0x354D JUMPI PUSH2 0x354D PUSH2 0x358D JUMP JUMPDEST POP SUB SWAP1 JUMP JUMPDEST PUSH1 0x2 DUP2 DIV PUSH1 0x1 DUP3 AND DUP1 PUSH2 0x3566 JUMPI PUSH1 0x7F DUP3 AND SWAP2 POP JUMPDEST PUSH1 0x20 DUP3 LT DUP2 EQ ISZERO PUSH2 0x3587 JUMPI PUSH4 0x4E487B71 PUSH1 0xE0 SHL PUSH1 0x0 MSTORE PUSH1 0x22 PUSH1 0x4 MSTORE PUSH1 0x24 PUSH1 0x0 REVERT JUMPDEST POP SWAP2 SWAP1 POP JUMP JUMPDEST PUSH4 0x4E487B71 PUSH1 0xE0 SHL PUSH1 0x0 MSTORE PUSH1 0x11 PUSH1 0x4 MSTORE PUSH1 0x24 PUSH1 0x0 REVERT JUMPDEST PUSH4 0x4E487B71 PUSH1 0xE0 SHL PUSH1 0x0 MSTORE PUSH1 0x41 PUSH1 0x4 MSTORE PUSH1 0x24 PUSH1 0x0 REVERT INVALID LOG2 PUSH5 0x6970667358 0x22 SLT KECCAK256 PUSH25 0xDA8FCA2C92BE6E30E40B1F1029550DB429F4B47D2358AB6A80 0xD4 RETURNDATACOPY BALANCE CHAINID PUSH2 0xFD64 PUSH20 0x6F6C634300080000330000000000000000000000 ","sha1":"87248e3c4896b90038697e0a74debe49c2a64a52","source":"// SPDX-License-Identifier: MIT\npragma solidity >=0.8.0;\n\n\nimport \"@openzeppelin/contracts/security/ReentrancyGuard.sol\";\n\n\ncontract WorkChain is ReentrancyGuard {\n\n    event CreatedProject(uint ID, string  message);\n    event DeadLineNotice (uint deadline);\n    event Completed(string message);\n    event See (string message);\n\n    enum IsAccepted {\n        no,\n        yes,\n        dissatisfied,\n        Reviewing\n\n    }\n    struct Project {\n        uint256 ProjectID;\n        address Employer;\n        address Employee;\n        string ProjectDescription;\n        uint256 Budget;\n        uint256 ProjectDuration;\n        uint256 DeadLine;\n        uint256 EndTime; \n        bool isActive;\n        bool isCompleted;\n        IsAccepted isaccepted;\n    }\n\n\n    Project[] public projects;\n    mapping(address =>uint[]) public EmployerProjects;\n    mapping(address =>uint[]) public EmployeeProjects;\n    mapping(address =>uint256) public credits;\n    mapping(address =>uint256) public lockedCredits;\n    mapping(address =>uint256) private Employee_credits;\n    mapping(address =>uint256) public Employee_lockedCredits;\n    mapping (address => bool) private OwnerStatus;\n    uint256 public treasury ;\n    address public owner1;\n    address public owner2;\n    bool public status = true;\n    \n\n\n\n\n\n\n    modifier CheckBalance (uint256 Budget) {\n        credits[msg.sender] += msg.value;\n        if (msg.value < Budget){\n            require (credits[msg.sender]>= Budget, 'Please Increase your credit');\n            _;\n        }\n        _;\n    }\n\n    modifier CheckEmployee (uint256 _projectId){\n        require(projects[_projectId - 1].Employee == msg.sender);\n        _;\n    }\n    modifier CheckEmployer (uint256 _projectId){\n        require(projects[_projectId - 1].Employer == msg.sender);\n        _;\n    }\n    modifier onlyowner() {\n        require (msg.sender == owner1 || msg.sender == owner2);\n        _;\n    }\n    modifier working () {\n        require (status);\n        _;\n    }\n\n    constructor(address _owner1, address _owner2) {\n        owner1 = _owner1;\n        owner2 = _owner2;\n        OwnerStatus[owner1] = false;\n        OwnerStatus[owner2] = false;\n\n    }\n\n\n\n\n\n\n\n\n    function CreateProject(string memory ProjectDescription, uint256 Budget, uint256 ProjectDuration ) \n    public payable CheckBalance(Budget) working {\n        require (ProjectDuration >0, 'Duration must be more than 0');\n        credits[msg.sender] -= Budget;\n        lockedCredits[msg.sender] += Budget;\n\n        uint256 ProjectId = projects.length + 1;\n        uint256 projectTime = ProjectDuration * 1 days;\n        Project memory NewProject = Project(ProjectId, msg.sender,address(0), ProjectDescription,\n        Budget, projectTime, 0, 0, true, false, IsAccepted.no);\n        projects.push(NewProject);\n        EmployerProjects[msg.sender].push(ProjectId);\n        emit CreatedProject(ProjectId, 'Project is Active now');\n\n    }\n\n    function AcceptProject (uint256 _ProjectId ) public payable working{\n        require(projects[_ProjectId - 1].isActive,'Invalid project ID or the project is not active');\n        Employee_credits[msg.sender] += msg.value;\n        uint256 guarantee = (projects[_ProjectId - 1].Budget * 20) /100;\n        if (msg.value < guarantee){\n            require (Employee_credits[msg.sender]>= guarantee, 'Please Increase your credit');\n        }\n        Employee_credits[msg.sender] -= guarantee;\n        Employee_lockedCredits[msg.sender] += guarantee;\n        projects[_ProjectId - 1].DeadLine = projects[_ProjectId - 1].ProjectDuration + block.timestamp;\n        projects[_ProjectId - 1].Employee = msg.sender;\n        projects[_ProjectId - 1].isActive = false;\n        EmployeeProjects[msg.sender].push(_ProjectId);\n        \n\n        emit DeadLineNotice(projects[_ProjectId - 1].DeadLine);\n\n    }\n    function CompletedProject (uint256 _ProjectId) public CheckEmployee(_ProjectId) {\n        projects[_ProjectId - 1].isCompleted = true;\n        projects[_ProjectId - 1].EndTime = block.timestamp;\n        emit Completed('wait for confirmation');\n    }\n\n    function ConfirmedProject (uint256 _ProjectId) public CheckEmployer(_ProjectId){\n        require(projects[_ProjectId - 1].isCompleted == true,' the project is not completed wait more');\n        projects[_ProjectId - 1].isaccepted = IsAccepted.yes;\n        emit See('see you soon for the next project');\n\n    }\n\n    function ReleasePayment(uint256 _ProjectId) public CheckEmployee(_ProjectId){\n        require(projects[_ProjectId - 1].isaccepted == IsAccepted.yes,' you should wait more');\n        uint256 budget = projects[_ProjectId - 1].Budget;\n\n        if (projects[_ProjectId - 1].EndTime <= projects[_ProjectId - 1].DeadLine){\n            lockedCredits[projects[_ProjectId - 1].Employer] -= budget;\n            Employee_lockedCredits[projects[_ProjectId - 1].Employee] -= (budget * 20)/100;\n            Employee_credits[projects[_ProjectId - 1].Employee] += ((budget * 20) + (budget * 95)) /100;\n            treasury +=(budget * 5)/100;\n\n        } else if (projects[_ProjectId - 1].EndTime - projects[_ProjectId - 1].DeadLine <= projects[_ProjectId - 1].ProjectDuration * 20/100){\n            lockedCredits[projects[_ProjectId - 1].Employer] -= budget;\n            credits[projects[_ProjectId - 1].Employer] += (budget * 10)/100;\n            Employee_lockedCredits[projects[_ProjectId - 1].Employee] -= (budget * 20)/100;\n            Employee_credits[projects[_ProjectId - 1].Employee] += ((budget * 20) + (budget * 80)) /100;\n            treasury += (budget * 10)/100;\n\n        } else {\n            lockedCredits[projects[_ProjectId - 1].Employer] -= budget;\n            credits[projects[_ProjectId - 1].Employer] += (budget * 30)/100;\n            Employee_credits[projects[_ProjectId - 1].Employee] += (budget * 70)/100;\n            Employee_lockedCredits[projects[_ProjectId - 1].Employee] -= (budget * 20)/100;\n            treasury += (budget * 20)/100;\n\n        }\n    }\n    function NotConfirmed (uint256 _ProjectId) public CheckEmployee(_ProjectId){\n        require(projects[_ProjectId - 1].isaccepted != IsAccepted.dissatisfied, 'your client is not satisfied');\n        require(block.timestamp >= projects[_ProjectId - 1].EndTime +1 days );\n        projects[_ProjectId - 1].isaccepted = IsAccepted.yes;\n\n    }\n\n    function Dissatisfied (uint256 _ProjectId) public CheckEmployer(_ProjectId){\n        require(projects[_ProjectId - 1].isCompleted == true, 'your peoject is not done');\n        projects[_ProjectId - 1].isaccepted = IsAccepted.dissatisfied;\n\n    }\n\n    function Withdraw(uint256 _Amount, string memory _position) public nonReentrant {\n        bytes32 positionHash = keccak256(bytes(_position));\n        if (positionHash == keccak256(\"Employer\")) {\n            require(credits[msg.sender]>= _Amount);\n            credits[msg.sender] -= _Amount;\n            (bool success, ) = msg.sender.call{value: _Amount}(\"\");\n            require(success);\n\n\n        } else if (positionHash == keccak256(\"Employee\")) {\n            require(Employee_credits[msg.sender]>= _Amount);\n            Employee_credits[msg.sender] -= _Amount;\n            (bool success, ) = msg.sender.call{value: _Amount}(\"\");\n            require(success);\n        } \n\n\n    }\n    function Review(uint256 _ProjectId) public {\n        require(projects[_ProjectId - 1].Employer == msg.sender || projects[_ProjectId - 1].Employee == msg.sender,'wrong project ID');\n        require(projects[_ProjectId - 1].isCompleted == true, 'your peoject is not done');\n        projects[_ProjectId - 1].isaccepted = IsAccepted.Reviewing;\n\n    }\n\n    function finalDecision (uint256 _ProjectId, uint256 Proportion ) public onlyowner{\n        require(Proportion<=70);\n        require(projects[_ProjectId - 1].isaccepted == IsAccepted.Reviewing);\n        projects[_ProjectId - 1].isaccepted = IsAccepted.yes;\n        uint256 budget = projects[_ProjectId - 1].Budget;\n        lockedCredits[projects[_ProjectId - 1].Employer] -= budget;\n        credits[projects[_ProjectId - 1].Employer] += (budget * Proportion)/100;\n        Employee_lockedCredits[projects[_ProjectId - 1].Employee] -= (budget * 20)/100;\n        Employee_credits[projects[_ProjectId - 1].Employee] += ((budget * 20) + (budget * (100 - Proportion - 30))) /100;\n        treasury += (budget * 30)/100;\n    }\n\n    function cancelProject (uint256 _ProjectId) public CheckEmployer(_ProjectId){\n        require(projects[_ProjectId - 1].isActive == true);\n        projects[_ProjectId - 1].isActive = false;\n        uint256 budget = projects[_ProjectId - 1].Budget;\n        lockedCredits[projects[_ProjectId - 1].Employer] -= budget;\n        credits[projects[_ProjectId - 1].Employer] += budget;\n\n    }\n\n\n\n    function confirm() public onlyowner {\n        \n        OwnerStatus[msg.sender] = true;\n    }\n\n    function setPause (bool _paused) public onlyowner {\n        require (OwnerStatus[owner1]  && OwnerStatus[owner2] ,'confirmation is not completed');\n        status = _paused;\n        OwnerStatus[owner1] = false;\n        OwnerStatus[owner2] = false;\n\n    }\n\n    function WithdrawTreasury () public payable onlyowner() nonReentrant{\n        \n        (bool success,) = owner1.call{value:treasury}('');\n        require(success,\"Failed to send Ether\");\n        treasury = 0;\n        \n    }\n\n\n\n    function getProject(uint256 _ProjectId) view public returns(uint256 ProjectID,\n        address Employer,address Employee,string memory ProjectDescription,\n        uint256 Budget, uint256 ProjectDuration,uint256 DeadLine,\n        uint256 EndTime,bool isActive,bool isCompleted,IsAccepted isAccepted) {\n        ProjectID =  projects[_ProjectId - 1].ProjectID;\n        Employer =  projects[_ProjectId - 1].Employer;\n        Employee =  projects[_ProjectId - 1].Employee;\n        ProjectDescription =  projects[_ProjectId - 1].ProjectDescription;\n        Budget =  projects[_ProjectId - 1].Budget;\n        ProjectDuration = projects[_ProjectId - 1].ProjectDuration;\n        DeadLine= projects[_ProjectId - 1].DeadLine;\n        EndTime= projects[_ProjectId - 1].EndTime;\n        isActive =  projects[_ProjectId - 1].isActive;\n        isCompleted = projects[_ProjectId - 1].isCompleted;\n        isAccepted = projects[_ProjectId - 1].isaccepted;\n\n\n    }\n\n    function get_employee_projects(address _address) view public returns(uint[] memory){\n        return (EmployeeProjects[_address]);\n    }\n\n    function  get_employer_projects(address _address) view public returns(uint[] memory){\n        return (EmployerProjects[_address]);\n\n\n    }\n    function  get_employer_creadits(address _address) view public returns(uint,uint){\n        return (credits[_address],lockedCredits[_address]);\n\n    }\n    function  get_employee_creadits(address _address) view public returns(uint,uint){\n        return (Employee_credits[_address],Employee_lockedCredits[_address]);\n\n    }\n    function  get_status() view public returns(bool){\n        return (status);\n\n    }\n    function  get_treasury() view public returns(uint256){\n        return (treasury);\n\n    }\n\n\n\n}\n\n\n\n","sourcePath":"contracts/WorkChain.sol","type":"contract","deployment":{"address":"0x5c857bc9ffEc7437aC7465Acc1d58B70f9f359BB","chainid":"11155111","blockHeight":4341094}}