{"abi":[{"inputs":[{"internalType":"address","name":"_owner1","type":"address"},{"internalType":"address","name":"_owner2","type":"address"}],"stateMutability":"nonpayable","type":"constructor","name":"constructor"},{"anonymous":false,"inputs":[{"indexed":true,"internalType":"uint256","name":"ID","type":"uint256"},{"indexed":false,"internalType":"string","name":"message","type":"string"}],"name":"CreatedProject","type":"event"},{"anonymous":false,"inputs":[{"indexed":false,"internalType":"uint256","name":"deadline","type":"uint256"}],"name":"DeadLineNotice","type":"event"},{"inputs":[{"internalType":"uint256","name":"_projectID","type":"uint256"}],"name":"acceptProject","outputs":[],"stateMutability":"payable","type":"function"},{"inputs":[{"internalType":"uint256","name":"_projectID","type":"uint256"}],"name":"cancelProject","outputs":[],"stateMutability":"nonpayable","type":"function"},{"inputs":[{"internalType":"uint256","name":"_projectID","type":"uint256"}],"name":"completedProject","outputs":[],"stateMutability":"nonpayable","type":"function"},{"inputs":[],"name":"confirm","outputs":[],"stateMutability":"nonpayable","type":"function"},{"inputs":[{"internalType":"uint256","name":"_projectID","type":"uint256"}],"name":"confirmedProject","outputs":[],"stateMutability":"nonpayable","type":"function"},{"inputs":[{"internalType":"string","name":"_projectDescription","type":"string"},{"internalType":"uint256","name":"_budget","type":"uint256"},{"internalType":"uint256","name":"_projectDuration","type":"uint256"}],"name":"createProject","outputs":[],"stateMutability":"payable","type":"function"},{"inputs":[{"internalType":"address","name":"","type":"address"}],"name":"credits","outputs":[{"internalType":"uint256","name":"","type":"uint256"}],"stateMutability":"view","type":"function"},{"inputs":[{"internalType":"uint256","name":"_projectID","type":"uint256"}],"name":"dissatisfied","outputs":[],"stateMutability":"nonpayable","type":"function"},{"inputs":[{"internalType":"address","name":"","type":"address"}],"name":"employeeLockedCredits","outputs":[{"internalType":"uint256","name":"","type":"uint256"}],"stateMutability":"view","type":"function"},{"inputs":[{"internalType":"address","name":"","type":"address"},{"internalType":"uint256","name":"","type":"uint256"}],"name":"employeeProjects","outputs":[{"internalType":"uint256","name":"","type":"uint256"}],"stateMutability":"view","type":"function"},{"inputs":[{"internalType":"address","name":"","type":"address"},{"internalType":"uint256","name":"","type":"uint256"}],"name":"employerProjects","outputs":[{"internalType":"uint256","name":"","type":"uint256"}],"stateMutability":"view","type":"function"},{"inputs":[{"internalType":"uint256","name":"_projectID","type":"uint256"},{"internalType":"uint256","name":"Proportion","type":"uint256"}],"name":"finalDecision","outputs":[],"stateMutability":"nonpayable","type":"function"},{"inputs":[{"internalType":"address","name":"_address","type":"address"}],"name":"getEmployeeCreadits","outputs":[{"internalType":"uint256","name":"","type":"uint256"},{"internalType":"uint256","name":"","type":"uint256"}],"stateMutability":"view","type":"function"},{"inputs":[{"internalType":"address","name":"_address","type":"address"}],"name":"getEmployeeProjects","outputs":[{"internalType":"uint256[]","name":"","type":"uint256[]"}],"stateMutability":"view","type":"function"},{"inputs":[{"internalType":"address","name":"_address","type":"address"}],"name":"getEmployerCreadits","outputs":[{"internalType":"uint256","name":"","type":"uint256"},{"internalType":"uint256","name":"","type":"uint256"}],"stateMutability":"view","type":"function"},{"inputs":[{"internalType":"address","name":"_address","type":"address"}],"name":"getEmployerProjects","outputs":[{"internalType":"uint256[]","name":"","type":"uint256[]"}],"stateMutability":"view","type":"function"},{"inputs":[{"internalType":"uint256","name":"_projectID","type":"uint256"}],"name":"getProject","outputs":[{"internalType":"uint256","name":"projectID","type":"uint256"},{"internalType":"address","name":"employer","type":"address"},{"internalType":"address","name":"employee","type":"address"},{"internalType":"string","name":"projectDescription","type":"string"},{"internalType":"uint256","name":"budget","type":"uint256"},{"internalType":"uint256","name":"projectDuration","type":"uint256"},{"internalType":"uint256","name":"deadLine","type":"uint256"},{"internalType":"uint256","name":"endTime","type":"uint256"},{"internalType":"bool","name":"isActive","type":"bool"},{"internalType":"bool","name":"isCompleted","type":"bool"},{"internalType":"enum WorkChain.IsAccepted","name":"isAccepted","type":"uint8"}],"stateMutability":"view","type":"function"},{"inputs":[],"name":"getStatus","outputs":[{"internalType":"bool","name":"","type":"bool"}],"stateMutability":"view","type":"function"},{"inputs":[],"name":"getTreasury","outputs":[{"internalType":"uint256","name":"","type":"uint256"}],"stateMutability":"view","type":"function"},{"inputs":[{"internalType":"address","name":"","type":"address"}],"name":"lockedCredits","outputs":[{"internalType":"uint256","name":"","type":"uint256"}],"stateMutability":"view","type":"function"},{"inputs":[{"internalType":"uint256","name":"_projectID","type":"uint256"}],"name":"notConfirmed","outputs":[],"stateMutability":"nonpayable","type":"function"},{"inputs":[],"name":"owner1","outputs":[{"internalType":"address","name":"","type":"address"}],"stateMutability":"view","type":"function"},{"inputs":[],"name":"owner2","outputs":[{"internalType":"address","name":"","type":"address"}],"stateMutability":"view","type":"function"},{"inputs":[{"internalType":"uint256","name":"","type":"uint256"}],"name":"projects","outputs":[{"internalType":"uint256","name":"projectID","type":"uint256"},{"internalType":"address","name":"employer","type":"address"},{"internalType":"address","name":"employee","type":"address"},{"internalType":"string","name":"projectDescription","type":"string"},{"internalType":"uint256","name":"budget","type":"uint256"},{"internalType":"uint256","name":"projectDuration","type":"uint256"},{"internalType":"uint256","name":"deadLine","type":"uint256"},{"internalType":"uint256","name":"endTime","type":"uint256"},{"internalType":"bool","name":"isActive","type":"bool"},{"internalType":"bool","name":"isCompleted","type":"bool"},{"internalType":"enum WorkChain.IsAccepted","name":"isAccepted","type":"uint8"}],"stateMutability":"view","type":"function"},{"inputs":[{"internalType":"uint256","name":"_projectID","type":"uint256"}],"name":"releasePayment","outputs":[],"stateMutability":"nonpayable","type":"function"},{"inputs":[{"internalType":"uint256","name":"_projectID","type":"uint256"}],"name":"review","outputs":[],"stateMutability":"nonpayable","type":"function"},{"inputs":[{"internalType":"bool","name":"_paused","type":"bool"}],"name":"setPause","outputs":[],"stateMutability":"nonpayable","type":"function"},{"inputs":[],"name":"status","outputs":[{"internalType":"bool","name":"","type":"bool"}],"stateMutability":"view","type":"function"},{"inputs":[],"name":"treasury","outputs":[{"internalType":"uint256","name":"","type":"uint256"}],"stateMutability":"view","type":"function"},{"inputs":[{"internalType":"uint256","name":"_Amount","type":"uint256"},{"internalType":"string","name":"_position","type":"string"}],"name":"withdraw","outputs":[],"stateMutability":"nonpayable","type":"function"},{"inputs":[],"name":"withdrawTreasury","outputs":[],"stateMutability":"payable","type":"function"}],"bytecode":"6080604052600b805460ff60a01b1916600160a01b1790553480156200002457600080fd5b5060405162003607380380620036078339810160408190526200004791620000cc565b60016000908155600a80546001600160a01b03199081166001600160a01b039586161791829055600b80549091169385169390931783558316815260086020526040808220805460ff1990811690915592549093168152919091208054909116905562000103565b80516001600160a01b0381168114620000c757600080fd5b919050565b60008060408385031215620000df578182fd5b620000ea83620000af565b9150620000fa60208401620000af565b90509250929050565b6134f480620001136000396000f3fe6080604052600436106101d85760003560e01c80637022b58e11610102578063dc048cf211610095578063f0f3f2c811610064578063f0f3f2c81461053c578063f3a6ac5f1461055c578063fd1d5ea91461056f578063fe5ff46814610582576101d8565b8063dc048cf2146104bc578063e1e96c9b146104dc578063e443fb90146104fc578063eb4c81261461051c576101d8565b8063ac7ba18e116100d1578063ac7ba18e1461043c578063b90200411461045c578063bedb86fb1461047c578063cddf6b271461049c576101d8565b80637022b58e146103c557806373688914146103da57806381373720146103ef57806388685cd91461041c576101d8565b80632ade136c1161017a5780635270972511610149578063527097251461034e578063555b392d1461037057806361d027b3146103905780636cfbec81146103a5576101d8565b80632ade136c146102e45780633b19e84a146103045780633ff31b48146103195780634e69d56014610339576101d8565b8063200d2ed2116101b6578063200d2ed21461025557806320d9e36a146102775780632494114714610297578063264ed709146102b7576101d8565b80630a5403ef146101dd578063107046bd14610214578063166bab951461024b575b600080fd5b3480156101e957600080fd5b506101fd6101f8366004612eb2565b6105a2565b60405161020b9291906133db565b60405180910390f35b34801561022057600080fd5b5061023461022f366004612f68565b6105ca565b60405161020b9b9a99989796959493929190613313565b6102536106d1565b005b34801561026157600080fd5b5061026a6107e2565b60405161020b9190613069565b34801561028357600080fd5b50610253610292366004612f68565b6107f2565b3480156102a357600080fd5b506102536102b2366004612f68565b610996565b3480156102c357600080fd5b506102d76102d2366004612eb2565b610baf565b60405161020b919061330a565b3480156102f057600080fd5b506101fd6102ff366004612eb2565b610bc1565b34801561031057600080fd5b506102d7610be9565b34801561032557600080fd5b506102d7610334366004612ed3565b610bef565b34801561034557600080fd5b5061026a610c20565b34801561035a57600080fd5b50610363610c30565b60405161020b9190613011565b34801561037c57600080fd5b5061025361038b366004612fc5565b610c3f565b34801561039c57600080fd5b506102d7610ff9565b3480156103b157600080fd5b506102d76103c0366004612ed3565b610fff565b3480156103d157600080fd5b5061025361101b565b3480156103e657600080fd5b50610363611063565b3480156103fb57600080fd5b5061040f61040a366004612eb2565b611072565b60405161020b9190613025565b34801561042857600080fd5b50610253610437366004612f68565b6110df565b34801561044857600080fd5b50610253610457366004612f68565b611968565b34801561046857600080fd5b506102d7610477366004612eb2565b611a23565b34801561048857600080fd5b50610253610497366004612efc565b611a35565b3480156104a857600080fd5b506102536104b7366004612f68565b611b16565b3480156104c857600080fd5b506102536104d7366004612f80565b611bdf565b3480156104e857600080fd5b506102536104f7366004612f68565b611d99565b34801561050857600080fd5b5061040f610517366004612eb2565b611f29565b34801561052857600080fd5b50610253610537366004612f68565b611f93565b34801561054857600080fd5b50610234610557366004612f68565b61207e565b61025361056a366004612f1c565b612406565b61025361057d366004612f68565b612a06565b34801561058e57600080fd5b506102d761059d366004612eb2565b612d3e565b6001600160a01b03166000908152600460209081526040808320546005909252909120549091565b600181815481106105da57600080fd5b600091825260209091206009909102018054600182015460028301546003840180549395506001600160a01b0392831694929091169261061990613457565b80601f016020809104026020016040519081016040528092919081815260200182805461064590613457565b80156106925780601f1061066757610100808354040283529160200191610692565b820191906000526020600020905b81548152906001019060200180831161067557829003601f168201915b505050600484015460058501546006860154600787015460089097015495969295919450925060ff80821691610100810482169162010000909104168b565b600a546001600160a01b03163314806106f45750600b546001600160a01b031633145b6106fd57600080fd5b610705612d50565b600b546001600160a01b031660009081526008602052604090205460ff1615156001148061073d5750600b546001600160a01b031633145b61074657600080fd5b600a546009546040516000926001600160a01b031691906107669061300e565b60006040518083038185875af1925050503d80600081146107a3576040519150601f19603f3d011682016040523d82523d6000602084013e6107a8565b606091505b50509050806107d25760405162461bcd60e51b81526004016107c990613074565b60405180910390fd5b5060006009556107e0612d7a565b565b600b54600160a01b900460ff1681565b803360016108008184613440565b8154811061081e57634e487b7160e01b600052603260045260246000fd5b60009182526020909120600260099092020101546001600160a01b03161461084557600080fd5b600260016108538185613440565b8154811061087157634e487b7160e01b600052603260045260246000fd5b906000526020600020906009020160080160029054906101000a900460ff1660038111156108af57634e487b7160e01b600052602160045260246000fd5b14156108cd5760405162461bcd60e51b81526004016107c99061319e565b60016108d98184613440565b815481106108f757634e487b7160e01b600052603260045260246000fd5b9060005260206000209060090201600701546201518061091791906133e9565b42101561092357600080fd5b6001806109308185613440565b8154811061094e57634e487b7160e01b600052603260045260246000fd5b60009182526020909120600860099092020101805462ff000019166201000083600381111561098d57634e487b7160e01b600052602160045260246000fd5b02179055505050565b803360016109a48184613440565b815481106109c257634e487b7160e01b600052603260045260246000fd5b60009182526020909120600160099092020101546001600160a01b0316146109e957600080fd5b60016109f58184613440565b81548110610a1357634e487b7160e01b600052603260045260246000fd5b600091825260209091206008600990920201015460ff161515600114610a3857600080fd5b60006001610a468185613440565b81548110610a6457634e487b7160e01b600052603260045260246000fd5b60009182526020822060099190910201600801805460ff1916921515929092179091556001610a938185613440565b81548110610ab157634e487b7160e01b600052603260045260246000fd5b9060005260206000209060090201600401549050806005600060018087610ad89190613440565b81548110610af657634e487b7160e01b600052603260045260246000fd5b60009182526020808320600160099093020191909101546001600160a01b0316835282019290925260400181208054909190610b33908490613440565b90915550819050600460006001610b4a8188613440565b81548110610b6857634e487b7160e01b600052603260045260246000fd5b60009182526020808320600160099093020191909101546001600160a01b0316835282019290925260400181208054909190610ba59084906133e9565b9091555050505050565b60076020526000908152604090205481565b6001600160a01b03166000908152600660209081526040808320546007909252909120549091565b60095490565b60036020528160005260406000208181548110610c0b57600080fd5b90600052602060002001600091509150505481565b600b54600160a01b900460ff1690565b600b546001600160a01b031681565b600a546001600160a01b0316331480610c625750600b546001600160a01b031633145b610c6b57600080fd5b6046811115610c7957600080fd5b60036001610c878185613440565b81548110610ca557634e487b7160e01b600052603260045260246000fd5b906000526020600020906009020160080160029054906101000a900460ff166003811115610ce357634e487b7160e01b600052602160045260246000fd5b14610ced57600080fd5b600180610cfa8185613440565b81548110610d1857634e487b7160e01b600052603260045260246000fd5b60009182526020909120600860099092020101805462ff0000191662010000836003811115610d5757634e487b7160e01b600052602160045260246000fd5b021790555060006001610d6a8185613440565b81548110610d8857634e487b7160e01b600052603260045260246000fd5b9060005260206000209060090201600401549050806005600060018087610daf9190613440565b81548110610dcd57634e487b7160e01b600052603260045260246000fd5b60009182526020808320600160099093020191909101546001600160a01b0316835282019290925260400181208054909190610e0a908490613440565b9091555060649050610e1c8383613421565b610e269190613401565b600460006001610e368188613440565b81548110610e5457634e487b7160e01b600052603260045260246000fd5b60009182526020808320600160099093020191909101546001600160a01b0316835282019290925260400181208054909190610e919084906133e9565b9091555060649050610ea4826014613421565b610eae9190613401565b600760006001610ebe8188613440565b81548110610edc57634e487b7160e01b600052603260045260246000fd5b60009182526020808320600260099093020191909101546001600160a01b0316835282019290925260400181208054909190610f19908490613440565b9091555060649050601e610f2d8483613440565b610f379190613440565b610f419083613421565b610f4c836014613421565b610f5691906133e9565b610f609190613401565b600660006001610f708188613440565b81548110610f8e57634e487b7160e01b600052603260045260246000fd5b60009182526020808320600260099093020191909101546001600160a01b0316835282019290925260400181208054909190610fcb9084906133e9565b9091555060649050610fde82601e613421565b610fe89190613401565b60096000828254610ba591906133e9565b60095481565b60026020528160005260406000208181548110610c0b57600080fd5b600a546001600160a01b031633148061103e5750600b546001600160a01b031633145b61104757600080fd5b336000908152600860205260409020805460ff19166001179055565b600a546001600160a01b031681565b6001600160a01b0381166000908152600260209081526040918290208054835181840281018401909452808452606093928301828280156110d257602002820191906000526020600020905b8154815260200190600101908083116110be575b505050505090505b919050565b803360016110ed8184613440565b8154811061110b57634e487b7160e01b600052603260045260246000fd5b60009182526020909120600260099092020101546001600160a01b03161461113257600080fd5b60018061113f8185613440565b8154811061115d57634e487b7160e01b600052603260045260246000fd5b906000526020600020906009020160080160029054906101000a900460ff16600381111561119b57634e487b7160e01b600052602160045260246000fd5b146111b85760405162461bcd60e51b81526004016107c9906130e9565b600060016111c68185613440565b815481106111e457634e487b7160e01b600052603260045260246000fd5b9060005260206000209060090201600401549050600180846112069190613440565b8154811061122457634e487b7160e01b600052603260045260246000fd5b906000526020600020906009020160060154600180856112449190613440565b8154811061126257634e487b7160e01b600052603260045260246000fd5b90600052602060002090600902016007015411611443578060056000600161128a8188613440565b815481106112a857634e487b7160e01b600052603260045260246000fd5b60009182526020808320600160099093020191909101546001600160a01b03168352820192909252604001812080549091906112e5908490613440565b90915550606490506112f8826014613421565b6113029190613401565b6007600060016113128188613440565b8154811061133057634e487b7160e01b600052603260045260246000fd5b60009182526020808320600260099093020191909101546001600160a01b031683528201929092526040018120805490919061136d908490613440565b909155506064905061138082605f613421565b61138b836014613421565b61139591906133e9565b61139f9190613401565b6006600060016113af8188613440565b815481106113cd57634e487b7160e01b600052603260045260246000fd5b60009182526020808320600260099093020191909101546001600160a01b031683528201929092526040018120805490919061140a9084906133e9565b909155506064905061141d826005613421565b6114279190613401565b6009600082825461143891906133e9565b909155506119639050565b606460016114518186613440565b8154811061146f57634e487b7160e01b600052603260045260246000fd5b906000526020600020906009020160050154601461148d9190613421565b6114979190613401565b60016114a38186613440565b815481106114c157634e487b7160e01b600052603260045260246000fd5b906000526020600020906009020160060154600180866114e19190613440565b815481106114ff57634e487b7160e01b600052603260045260246000fd5b90600052602060002090600902016007015461151b9190613440565b1161174c57806005600060016115318188613440565b8154811061154f57634e487b7160e01b600052603260045260246000fd5b60009182526020808320600160099093020191909101546001600160a01b031683528201929092526040018120805490919061158c908490613440565b909155506064905061159f82600a613421565b6115a99190613401565b6004600060016115b98188613440565b815481106115d757634e487b7160e01b600052603260045260246000fd5b60009182526020808320600160099093020191909101546001600160a01b03168352820192909252604001812080549091906116149084906133e9565b9091555060649050611627826014613421565b6116319190613401565b6007600060016116418188613440565b8154811061165f57634e487b7160e01b600052603260045260246000fd5b60009182526020808320600260099093020191909101546001600160a01b031683528201929092526040018120805490919061169c908490613440565b90915550606490506116af826050613421565b6116ba836014613421565b6116c491906133e9565b6116ce9190613401565b6006600060016116de8188613440565b815481106116fc57634e487b7160e01b600052603260045260246000fd5b60009182526020808320600260099093020191909101546001600160a01b03168352820192909252604001812080549091906117399084906133e9565b909155506064905061141d82600a613421565b8060056000600161175d8188613440565b8154811061177b57634e487b7160e01b600052603260045260246000fd5b60009182526020808320600160099093020191909101546001600160a01b03168352820192909252604001812080549091906117b8908490613440565b90915550606490506117cb82601e613421565b6117d59190613401565b6004600060016117e58188613440565b8154811061180357634e487b7160e01b600052603260045260246000fd5b60009182526020808320600160099093020191909101546001600160a01b03168352820192909252604001812080549091906118409084906133e9565b9091555060649050611853826046613421565b61185d9190613401565b60066000600161186d8188613440565b8154811061188b57634e487b7160e01b600052603260045260246000fd5b60009182526020808320600260099093020191909101546001600160a01b03168352820192909252604001812080549091906118c89084906133e9565b90915550606490506118db826014613421565b6118e59190613401565b6007600060016118f58188613440565b8154811061191357634e487b7160e01b600052603260045260246000fd5b60009182526020808320600260099093020191909101546001600160a01b0316835282019290925260400181208054909190611950908490613440565b9091555060649050610fde826014613421565b505050565b803360016119768184613440565b8154811061199457634e487b7160e01b600052603260045260246000fd5b60009182526020909120600160099092020101546001600160a01b0316146119bb57600080fd5b60016119c78184613440565b815481106119e557634e487b7160e01b600052603260045260246000fd5b600091825260209091206008600990920201015460ff6101009091041615156001146109235760405162461bcd60e51b81526004016107c9906130a2565b60056020526000908152604090205481565b600a546001600160a01b0316331480611a585750600b546001600160a01b031633145b611a6157600080fd5b600a546001600160a01b031660009081526008602052604090205460ff168015611aa55750600b546001600160a01b031660009081526008602052604090205460ff165b611ac15760405162461bcd60e51b81526004016107c9906132d3565b600b8054911515600160a01b0260ff60a01b19909216919091178155600a546001600160a01b03908116600090815260086020526040808220805460ff19908116909155935490921681522080549091169055565b80336001611b248184613440565b81548110611b4257634e487b7160e01b600052603260045260246000fd5b60009182526020909120600160099092020101546001600160a01b031614611b6957600080fd5b6001611b758184613440565b81548110611b9357634e487b7160e01b600052603260045260246000fd5b600091825260209091206008600990920201015460ff610100909104161515600114611bd15760405162461bcd60e51b81526004016107c9906131d5565b600260016109308185613440565b611be7612d50565b805160208201207faa684a62cfec67884698edcb374cdd8a7421222bfeb8b6570bb1a601a3f00690811415611cbf5733600090815260046020526040902054831115611c3257600080fd5b3360009081526004602052604081208054859290611c51908490613440565b909155505060405160009033908590611c699061300e565b60006040518083038185875af1925050503d8060008114611ca6576040519150601f19603f3d011682016040523d82523d6000602084013e611cab565b606091505b5050905080611cb957600080fd5b50611d8c565b7f8d7680ead1da220f978b7468ed8cda236baa559f8af75bff883132fa60b435a7811415611d8c5733600090815260066020526040902054831115611d0357600080fd5b3360009081526006602052604081208054859290611d22908490613440565b909155505060405160009033908590611d3a9061300e565b60006040518083038185875af1925050503d8060008114611d77576040519150601f19603f3d011682016040523d82523d6000602084013e611d7c565b606091505b5050905080611d8a57600080fd5b505b50611d95612d7a565b5050565b336001611da68184613440565b81548110611dc457634e487b7160e01b600052603260045260246000fd5b60009182526020909120600160099092020101546001600160a01b03161480611e325750336001611df58184613440565b81548110611e1357634e487b7160e01b600052603260045260246000fd5b60009182526020909120600260099092020101546001600160a01b0316145b611e4e5760405162461bcd60e51b81526004016107c990613243565b6001611e5a8183613440565b81548110611e7857634e487b7160e01b600052603260045260246000fd5b600091825260209091206008600990920201015460ff610100909104161515600114611eb65760405162461bcd60e51b81526004016107c9906131d5565b60036001611ec48184613440565b81548110611ee257634e487b7160e01b600052603260045260246000fd5b60009182526020909120600860099092020101805462ff0000191662010000836003811115611f2157634e487b7160e01b600052602160045260246000fd5b021790555050565b6001600160a01b0381166000908152600360209081526040918290208054835181840281018401909452808452606093928301828280156110d257602002820191906000526020600020908154815260200190600101908083116110be5750505050509050919050565b80336001611fa18184613440565b81548110611fbf57634e487b7160e01b600052603260045260246000fd5b60009182526020909120600260099092020101546001600160a01b031614611fe657600080fd5b600180611ff38185613440565b8154811061201157634e487b7160e01b600052603260045260246000fd5b6000918252602090912060086009909202010180549115156101000261ff00199092169190911790554260016120478185613440565b8154811061206557634e487b7160e01b600052603260045260246000fd5b9060005260206000209060090201600701819055505050565b600080806060818080808080806001612097818e613440565b815481106120b557634e487b7160e01b600052603260045260246000fd5b60009182526020909120600990910201549a5060016120d4818e613440565b815481106120f257634e487b7160e01b600052603260045260246000fd5b6000918252602090912060016009909202018101546001600160a01b03169a5061211c818e613440565b8154811061213a57634e487b7160e01b600052603260045260246000fd5b60009182526020909120600260099092020101546001600160a01b031698506001612165818e613440565b8154811061218357634e487b7160e01b600052603260045260246000fd5b9060005260206000209060090201600301805461219f90613457565b80601f01602080910402602001604051908101604052809291908181526020018280546121cb90613457565b80156122185780601f106121ed57610100808354040283529160200191612218565b820191906000526020600020905b8154815290600101906020018083116121fb57829003601f168201915b505050505097506001808d61222d9190613440565b8154811061224b57634e487b7160e01b600052603260045260246000fd5b90600052602060002090600902016004015496506001808d61226d9190613440565b8154811061228b57634e487b7160e01b600052603260045260246000fd5b90600052602060002090600902016005015495506001808d6122ad9190613440565b815481106122cb57634e487b7160e01b600052603260045260246000fd5b90600052602060002090600902016006015494506001808d6122ed9190613440565b8154811061230b57634e487b7160e01b600052603260045260246000fd5b90600052602060002090600902016007015493506001808d61232d9190613440565b8154811061234b57634e487b7160e01b600052603260045260246000fd5b600091825260209091206008600990920201015460ff1692506001612370818e613440565b8154811061238e57634e487b7160e01b600052603260045260246000fd5b6000918252602090912060099091020160080154610100900460ff16915060016123b8818e613440565b815481106123d657634e487b7160e01b600052603260045260246000fd5b906000526020600020906009020160080160029054906101000a900460ff16905091939597999b90929496989a50565b336000908152600460205260408120805484923492916124279084906133e9565b90915550503481111561273257336000908152600460205260409020548111156124635760405162461bcd60e51b81526004016107c99061320c565b600b54600160a01b900460ff1661247957600080fd5b600082116124995760405162461bcd60e51b81526004016107c990613167565b33600090815260046020526040812080548592906124b8908490613440565b909155505033600090815260056020526040812080548592906124dc9084906133e9565b9091555050600180546000916124f291906133e9565b905060006125038462015180613421565b60408051610160810182528481523360208083019182526000938301848152606084018c8152608085018c905260a0850187905260c0850186905260e08501869052600161010086018190526101208601879052610140860187905280548082018255965284517fb10e2d527612073b26eecdfd717e6a320cf44b4afac2b0732d9fcbe2b7fa0cf6600990970296870190815593517fb10e2d527612073b26eecdfd717e6a320cf44b4afac2b0732d9fcbe2b7fa0cf7870180546001600160a01b03199081166001600160a01b039384161790915592517fb10e2d527612073b26eecdfd717e6a320cf44b4afac2b0732d9fcbe2b7fa0cf888018054909416911617909155518051959650929485949293612642937fb10e2d527612073b26eecdfd717e6a320cf44b4afac2b0732d9fcbe2b7fa0cf901920190612d81565b506080820151600482015560a0820151600582015560c0820151600682015560e082015160078201556101008083015160088301805461012086015160ff199091169215159290921761ff00191691151590920217808255610140840151919062ff00001916620100008360038111156126cc57634e487b7160e01b600052602160045260246000fd5b02179055505033600090815260026020908152604080832080546001810182559084529190922001859055518491507f4b1b1a905a6323b91259e1e095b47ee5dbb95009e905491db7049e6a1c98a874906127269061326d565b60405180910390a25050505b600b54600160a01b900460ff1661274857600080fd5b600082116127685760405162461bcd60e51b81526004016107c990613167565b3360009081526004602052604081208054859290612787908490613440565b909155505033600090815260056020526040812080548592906127ab9084906133e9565b9091555050600180546000916127c191906133e9565b905060006127d28462015180613421565b60408051610160810182528481523360208083019182526000938301848152606084018c8152608085018c905260a0850187905260c0850186905260e08501869052600161010086018190526101208601879052610140860187905280548082018255965284517fb10e2d527612073b26eecdfd717e6a320cf44b4afac2b0732d9fcbe2b7fa0cf6600990970296870190815593517fb10e2d527612073b26eecdfd717e6a320cf44b4afac2b0732d9fcbe2b7fa0cf7870180546001600160a01b03199081166001600160a01b039384161790915592517fb10e2d527612073b26eecdfd717e6a320cf44b4afac2b0732d9fcbe2b7fa0cf888018054909416911617909155518051959650929485949293612911937fb10e2d527612073b26eecdfd717e6a320cf44b4afac2b0732d9fcbe2b7fa0cf901920190612d81565b506080820151600482015560a0820151600582015560c0820151600682015560e082015160078201556101008083015160088301805461012086015160ff199091169215159290921761ff00191691151590920217808255610140840151919062ff000019166201000083600381111561299b57634e487b7160e01b600052602160045260246000fd5b02179055505033600090815260026020908152604080832080546001810182559084529190922001859055518491507f4b1b1a905a6323b91259e1e095b47ee5dbb95009e905491db7049e6a1c98a874906129f59061326d565b60405180910390a250505050505050565b600b54600160a01b900460ff16612a1c57600080fd5b6001612a288183613440565b81548110612a4657634e487b7160e01b600052603260045260246000fd5b600091825260209091206008600990920201015460ff16612a795760405162461bcd60e51b81526004016107c990613118565b3360009081526006602052604081208054349290612a989084906133e9565b909155506000905060646001612aae8185613440565b81548110612acc57634e487b7160e01b600052603260045260246000fd5b9060005260206000209060090201600401546014612aea9190613421565b612af49190613401565b905080341015612b2d5733600090815260066020526040902054811115612b2d5760405162461bcd60e51b81526004016107c99061320c565b3360009081526006602052604081208054839290612b4c908490613440565b90915550503360009081526007602052604081208054839290612b709084906133e9565b909155504290506001612b838185613440565b81548110612ba157634e487b7160e01b600052603260045260246000fd5b906000526020600020906009020160050154612bbd91906133e9565b6001612bc98185613440565b81548110612be757634e487b7160e01b600052603260045260246000fd5b6000918252602090912060066009909202010155336001612c088185613440565b81548110612c2657634e487b7160e01b600052603260045260246000fd5b6000918252602082206009919091020160020180546001600160a01b0319166001600160a01b0393909316929092179091556001612c648185613440565b81548110612c8257634e487b7160e01b600052603260045260246000fd5b60009182526020808320600992909202909101600801805460ff1916931515939093179092553381526003825260408120805460018181018355918352929091209091018390557fc6f3e07c4b20b159a57bda01879e04cd4d7faf5d15b913e25b16673dcc0dd2ab90612cf58185613440565b81548110612d1357634e487b7160e01b600052603260045260246000fd5b906000526020600020906009020160060154604051612d32919061330a565b60405180910390a15050565b60046020526000908152604090205481565b60026000541415612d735760405162461bcd60e51b81526004016107c99061329c565b6002600055565b6001600055565b828054612d8d90613457565b90600052602060002090601f016020900481019282612daf5760008555612df5565b82601f10612dc857805160ff1916838001178555612df5565b82800160010185558215612df5579182015b82811115612df5578251825591602001919060010190612dda565b50612e01929150612e05565b5090565b5b80821115612e015760008155600101612e06565b80356001600160a01b03811681146110da57600080fd5b600082601f830112612e41578081fd5b813567ffffffffffffffff80821115612e5c57612e5c6134a8565b604051601f8301601f191681016020018281118282101715612e8057612e806134a8565b604052828152848301602001861015612e97578384fd5b82602086016020830137918201602001929092529392505050565b600060208284031215612ec3578081fd5b612ecc82612e1a565b9392505050565b60008060408385031215612ee5578081fd5b612eee83612e1a565b946020939093013593505050565b600060208284031215612f0d578081fd5b81358015158114612ecc578182fd5b600080600060608486031215612f30578081fd5b833567ffffffffffffffff811115612f46578182fd5b612f5286828701612e31565b9660208601359650604090950135949350505050565b600060208284031215612f79578081fd5b5035919050565b60008060408385031215612f92578182fd5b82359150602083013567ffffffffffffffff811115612faf578182fd5b612fbb85828601612e31565b9150509250929050565b60008060408385031215612fd7578182fd5b50508035926020909101359150565b15159052565b6004811061300a57634e487b7160e01b600052602160045260246000fd5b9052565b90565b6001600160a01b0391909116815260200190565b6020808252825182820181905260009190848201906040850190845b8181101561305d57835183529284019291840191600101613041565b50909695505050505050565b901515815260200190565b6020808252601490820152732330b4b632b2103a379039b2b7321022ba3432b960611b604082015260600190565b60208082526027908201527f207468652070726f6a656374206973206e6f7420636f6d706c657465642077616040820152666974206d6f726560c81b606082015260800190565b60208082526015908201527420796f752073686f756c642077616974206d6f726560581b604082015260600190565b6020808252602f908201527f496e76616c69642070726f6a656374204944206f72207468652070726f6a656360408201526e74206973206e6f742061637469766560881b606082015260800190565b6020808252601c908201527f4475726174696f6e206d757374206265206d6f7265207468616e203000000000604082015260600190565b6020808252601c908201527f796f757220636c69656e74206973206e6f742073617469736669656400000000604082015260600190565b60208082526018908201527f796f75722070656f6a656374206973206e6f7420646f6e650000000000000000604082015260600190565b6020808252601b908201527f506c6561736520496e63726561736520796f7572206372656469740000000000604082015260600190565b60208082526010908201526f1ddc9bdb99c81c1c9bda9958dd08125160821b604082015260600190565b60208082526015908201527450726f6a65637420697320416374697665206e6f7760581b604082015260600190565b6020808252601f908201527f5265656e7472616e637947756172643a207265656e7472616e742063616c6c00604082015260600190565b6020808252601d908201527f636f6e6669726d6174696f6e206973206e6f7420636f6d706c65746564000000604082015260600190565b90815260200190565b60006101608d8352602060018060a01b03808f1682860152808e166040860152508160608501528b5180838601528392505b80831015613364578c8301820151858401610180015291810191613345565b80831115613376578361018082870101525b610180601f19601f83011686010193505050508860808301528760a08301528660c08301528560e08301526133af610100830186612fe6565b6133bd610120830185612fe6565b6133cb610140830184612fec565b9c9b505050505050505050505050565b918252602082015260400190565b600082198211156133fc576133fc613492565b500190565b60008261341c57634e487b7160e01b81526012600452602481fd5b500490565b600081600019048311821515161561343b5761343b613492565b500290565b60008282101561345257613452613492565b500390565b60028104600182168061346b57607f821691505b6020821081141561348c57634e487b7160e01b600052602260045260246000fd5b50919050565b634e487b7160e01b600052601160045260246000fd5b634e487b7160e01b600052604160045260246000fdfea264697066735822122002c98e86eb8866d2d621d294a418304474301cb66b3c0e485303fff50df5e14464736f6c63430008000033","bytecodeSha1":"f868c5169f543b5c338da27711017cc952cda137","compiler":{"evm_version":"istanbul","optimizer":{"enabled":true,"runs":200},"version":"0.8.0+commit.c7dfd78e"},"contractName":"WorkChain","language":"Solidity","natspec":{"kind":"dev","methods":{},"version":1},"opcodes":"PUSH1 0x80 PUSH1 0x40 MSTORE PUSH1 0x4 CALLDATASIZE LT PUSH2 0x1D8 JUMPI PUSH1 0x0 CALLDATALOAD PUSH1 0xE0 SHR DUP1 PUSH4 0x7022B58E GT PUSH2 0x102 JUMPI DUP1 PUSH4 0xDC048CF2 GT PUSH2 0x95 JUMPI DUP1 PUSH4 0xF0F3F2C8 GT PUSH2 0x64 JUMPI DUP1 PUSH4 0xF0F3F2C8 EQ PUSH2 0x53C JUMPI DUP1 PUSH4 0xF3A6AC5F EQ PUSH2 0x55C JUMPI DUP1 PUSH4 0xFD1D5EA9 EQ PUSH2 0x56F JUMPI DUP1 PUSH4 0xFE5FF468 EQ PUSH2 0x582 JUMPI PUSH2 0x1D8 JUMP JUMPDEST DUP1 PUSH4 0xDC048CF2 EQ PUSH2 0x4BC JUMPI DUP1 PUSH4 0xE1E96C9B EQ PUSH2 0x4DC JUMPI DUP1 PUSH4 0xE443FB90 EQ PUSH2 0x4FC JUMPI DUP1 PUSH4 0xEB4C8126 EQ PUSH2 0x51C JUMPI PUSH2 0x1D8 JUMP JUMPDEST DUP1 PUSH4 0xAC7BA18E GT PUSH2 0xD1 JUMPI DUP1 PUSH4 0xAC7BA18E EQ PUSH2 0x43C JUMPI DUP1 PUSH4 0xB9020041 EQ PUSH2 0x45C JUMPI DUP1 PUSH4 0xBEDB86FB EQ PUSH2 0x47C JUMPI DUP1 PUSH4 0xCDDF6B27 EQ PUSH2 0x49C JUMPI PUSH2 0x1D8 JUMP JUMPDEST DUP1 PUSH4 0x7022B58E EQ PUSH2 0x3C5 JUMPI DUP1 PUSH4 0x73688914 EQ PUSH2 0x3DA JUMPI DUP1 PUSH4 0x81373720 EQ PUSH2 0x3EF JUMPI DUP1 PUSH4 0x88685CD9 EQ PUSH2 0x41C JUMPI PUSH2 0x1D8 JUMP JUMPDEST DUP1 PUSH4 0x2ADE136C GT PUSH2 0x17A JUMPI DUP1 PUSH4 0x52709725 GT PUSH2 0x149 JUMPI DUP1 PUSH4 0x52709725 EQ PUSH2 0x34E JUMPI DUP1 PUSH4 0x555B392D EQ PUSH2 0x370 JUMPI DUP1 PUSH4 0x61D027B3 EQ PUSH2 0x390 JUMPI DUP1 PUSH4 0x6CFBEC81 EQ PUSH2 0x3A5 JUMPI PUSH2 0x1D8 JUMP JUMPDEST DUP1 PUSH4 0x2ADE136C EQ PUSH2 0x2E4 JUMPI DUP1 PUSH4 0x3B19E84A EQ PUSH2 0x304 JUMPI DUP1 PUSH4 0x3FF31B48 EQ PUSH2 0x319 JUMPI DUP1 PUSH4 0x4E69D560 EQ PUSH2 0x339 JUMPI PUSH2 0x1D8 JUMP JUMPDEST DUP1 PUSH4 0x200D2ED2 GT PUSH2 0x1B6 JUMPI DUP1 PUSH4 0x200D2ED2 EQ PUSH2 0x255 JUMPI DUP1 PUSH4 0x20D9E36A EQ PUSH2 0x277 JUMPI DUP1 PUSH4 0x24941147 EQ PUSH2 0x297 JUMPI DUP1 PUSH4 0x264ED709 EQ PUSH2 0x2B7 JUMPI PUSH2 0x1D8 JUMP JUMPDEST DUP1 PUSH4 0xA5403EF EQ PUSH2 0x1DD JUMPI DUP1 PUSH4 0x107046BD EQ PUSH2 0x214 JUMPI DUP1 PUSH4 0x166BAB95 EQ PUSH2 0x24B JUMPI JUMPDEST PUSH1 0x0 DUP1 REVERT JUMPDEST CALLVALUE DUP1 ISZERO PUSH2 0x1E9 JUMPI PUSH1 0x0 DUP1 REVERT JUMPDEST POP PUSH2 0x1FD PUSH2 0x1F8 CALLDATASIZE PUSH1 0x4 PUSH2 0x2EB2 JUMP JUMPDEST PUSH2 0x5A2 JUMP JUMPDEST PUSH1 0x40 MLOAD PUSH2 0x20B SWAP3 SWAP2 SWAP1 PUSH2 0x33DB JUMP JUMPDEST PUSH1 0x40 MLOAD DUP1 SWAP2 SUB SWAP1 RETURN JUMPDEST CALLVALUE DUP1 ISZERO PUSH2 0x220 JUMPI PUSH1 0x0 DUP1 REVERT JUMPDEST POP PUSH2 0x234 PUSH2 0x22F CALLDATASIZE PUSH1 0x4 PUSH2 0x2F68 JUMP JUMPDEST PUSH2 0x5CA JUMP JUMPDEST PUSH1 0x40 MLOAD PUSH2 0x20B SWAP12 SWAP11 SWAP10 SWAP9 SWAP8 SWAP7 SWAP6 SWAP5 SWAP4 SWAP3 SWAP2 SWAP1 PUSH2 0x3313 JUMP JUMPDEST PUSH2 0x253 PUSH2 0x6D1 JUMP JUMPDEST STOP JUMPDEST CALLVALUE DUP1 ISZERO PUSH2 0x261 JUMPI PUSH1 0x0 DUP1 REVERT JUMPDEST POP PUSH2 0x26A PUSH2 0x7E2 JUMP JUMPDEST PUSH1 0x40 MLOAD PUSH2 0x20B SWAP2 SWAP1 PUSH2 0x3069 JUMP JUMPDEST CALLVALUE DUP1 ISZERO PUSH2 0x283 JUMPI PUSH1 0x0 DUP1 REVERT JUMPDEST POP PUSH2 0x253 PUSH2 0x292 CALLDATASIZE PUSH1 0x4 PUSH2 0x2F68 JUMP JUMPDEST PUSH2 0x7F2 JUMP JUMPDEST CALLVALUE DUP1 ISZERO PUSH2 0x2A3 JUMPI PUSH1 0x0 DUP1 REVERT JUMPDEST POP PUSH2 0x253 PUSH2 0x2B2 CALLDATASIZE PUSH1 0x4 PUSH2 0x2F68 JUMP JUMPDEST PUSH2 0x996 JUMP JUMPDEST CALLVALUE DUP1 ISZERO PUSH2 0x2C3 JUMPI PUSH1 0x0 DUP1 REVERT JUMPDEST POP PUSH2 0x2D7 PUSH2 0x2D2 CALLDATASIZE PUSH1 0x4 PUSH2 0x2EB2 JUMP JUMPDEST PUSH2 0xBAF JUMP JUMPDEST PUSH1 0x40 MLOAD PUSH2 0x20B SWAP2 SWAP1 PUSH2 0x330A JUMP JUMPDEST CALLVALUE DUP1 ISZERO PUSH2 0x2F0 JUMPI PUSH1 0x0 DUP1 REVERT JUMPDEST POP PUSH2 0x1FD PUSH2 0x2FF CALLDATASIZE PUSH1 0x4 PUSH2 0x2EB2 JUMP JUMPDEST PUSH2 0xBC1 JUMP JUMPDEST CALLVALUE DUP1 ISZERO PUSH2 0x310 JUMPI PUSH1 0x0 DUP1 REVERT JUMPDEST POP PUSH2 0x2D7 PUSH2 0xBE9 JUMP JUMPDEST CALLVALUE DUP1 ISZERO PUSH2 0x325 JUMPI PUSH1 0x0 DUP1 REVERT JUMPDEST POP PUSH2 0x2D7 PUSH2 0x334 CALLDATASIZE PUSH1 0x4 PUSH2 0x2ED3 JUMP JUMPDEST PUSH2 0xBEF JUMP JUMPDEST CALLVALUE DUP1 ISZERO PUSH2 0x345 JUMPI PUSH1 0x0 DUP1 REVERT JUMPDEST POP PUSH2 0x26A PUSH2 0xC20 JUMP JUMPDEST CALLVALUE DUP1 ISZERO PUSH2 0x35A JUMPI PUSH1 0x0 DUP1 REVERT JUMPDEST POP PUSH2 0x363 PUSH2 0xC30 JUMP JUMPDEST PUSH1 0x40 MLOAD PUSH2 0x20B SWAP2 SWAP1 PUSH2 0x3011 JUMP JUMPDEST CALLVALUE DUP1 ISZERO PUSH2 0x37C JUMPI PUSH1 0x0 DUP1 REVERT JUMPDEST POP PUSH2 0x253 PUSH2 0x38B CALLDATASIZE PUSH1 0x4 PUSH2 0x2FC5 JUMP JUMPDEST PUSH2 0xC3F JUMP JUMPDEST CALLVALUE DUP1 ISZERO PUSH2 0x39C JUMPI PUSH1 0x0 DUP1 REVERT JUMPDEST POP PUSH2 0x2D7 PUSH2 0xFF9 JUMP JUMPDEST CALLVALUE DUP1 ISZERO PUSH2 0x3B1 JUMPI PUSH1 0x0 DUP1 REVERT JUMPDEST POP PUSH2 0x2D7 PUSH2 0x3C0 CALLDATASIZE PUSH1 0x4 PUSH2 0x2ED3 JUMP JUMPDEST PUSH2 0xFFF JUMP JUMPDEST CALLVALUE DUP1 ISZERO PUSH2 0x3D1 JUMPI PUSH1 0x0 DUP1 REVERT JUMPDEST POP PUSH2 0x253 PUSH2 0x101B JUMP JUMPDEST CALLVALUE DUP1 ISZERO PUSH2 0x3E6 JUMPI PUSH1 0x0 DUP1 REVERT JUMPDEST POP PUSH2 0x363 PUSH2 0x1063 JUMP JUMPDEST CALLVALUE DUP1 ISZERO PUSH2 0x3FB JUMPI PUSH1 0x0 DUP1 REVERT JUMPDEST POP PUSH2 0x40F PUSH2 0x40A CALLDATASIZE PUSH1 0x4 PUSH2 0x2EB2 JUMP JUMPDEST PUSH2 0x1072 JUMP JUMPDEST PUSH1 0x40 MLOAD PUSH2 0x20B SWAP2 SWAP1 PUSH2 0x3025 JUMP JUMPDEST CALLVALUE DUP1 ISZERO PUSH2 0x428 JUMPI PUSH1 0x0 DUP1 REVERT JUMPDEST POP PUSH2 0x253 PUSH2 0x437 CALLDATASIZE PUSH1 0x4 PUSH2 0x2F68 JUMP JUMPDEST PUSH2 0x10DF JUMP JUMPDEST CALLVALUE DUP1 ISZERO PUSH2 0x448 JUMPI PUSH1 0x0 DUP1 REVERT JUMPDEST POP PUSH2 0x253 PUSH2 0x457 CALLDATASIZE PUSH1 0x4 PUSH2 0x2F68 JUMP JUMPDEST PUSH2 0x1968 JUMP JUMPDEST CALLVALUE DUP1 ISZERO PUSH2 0x468 JUMPI PUSH1 0x0 DUP1 REVERT JUMPDEST POP PUSH2 0x2D7 PUSH2 0x477 CALLDATASIZE PUSH1 0x4 PUSH2 0x2EB2 JUMP JUMPDEST PUSH2 0x1A23 JUMP JUMPDEST CALLVALUE DUP1 ISZERO PUSH2 0x488 JUMPI PUSH1 0x0 DUP1 REVERT JUMPDEST POP PUSH2 0x253 PUSH2 0x497 CALLDATASIZE PUSH1 0x4 PUSH2 0x2EFC JUMP JUMPDEST PUSH2 0x1A35 JUMP JUMPDEST CALLVALUE DUP1 ISZERO PUSH2 0x4A8 JUMPI PUSH1 0x0 DUP1 REVERT JUMPDEST POP PUSH2 0x253 PUSH2 0x4B7 CALLDATASIZE PUSH1 0x4 PUSH2 0x2F68 JUMP JUMPDEST PUSH2 0x1B16 JUMP JUMPDEST CALLVALUE DUP1 ISZERO PUSH2 0x4C8 JUMPI PUSH1 0x0 DUP1 REVERT JUMPDEST POP PUSH2 0x253 PUSH2 0x4D7 CALLDATASIZE PUSH1 0x4 PUSH2 0x2F80 JUMP JUMPDEST PUSH2 0x1BDF JUMP JUMPDEST CALLVALUE DUP1 ISZERO PUSH2 0x4E8 JUMPI PUSH1 0x0 DUP1 REVERT JUMPDEST POP PUSH2 0x253 PUSH2 0x4F7 CALLDATASIZE PUSH1 0x4 PUSH2 0x2F68 JUMP JUMPDEST PUSH2 0x1D99 JUMP JUMPDEST CALLVALUE DUP1 ISZERO PUSH2 0x508 JUMPI PUSH1 0x0 DUP1 REVERT JUMPDEST POP PUSH2 0x40F PUSH2 0x517 CALLDATASIZE PUSH1 0x4 PUSH2 0x2EB2 JUMP JUMPDEST PUSH2 0x1F29 JUMP JUMPDEST CALLVALUE DUP1 ISZERO PUSH2 0x528 JUMPI PUSH1 0x0 DUP1 REVERT JUMPDEST POP PUSH2 0x253 PUSH2 0x537 CALLDATASIZE PUSH1 0x4 PUSH2 0x2F68 JUMP JUMPDEST PUSH2 0x1F93 JUMP JUMPDEST CALLVALUE DUP1 ISZERO PUSH2 0x548 JUMPI PUSH1 0x0 DUP1 REVERT JUMPDEST POP PUSH2 0x234 PUSH2 0x557 CALLDATASIZE PUSH1 0x4 PUSH2 0x2F68 JUMP JUMPDEST PUSH2 0x207E JUMP JUMPDEST PUSH2 0x253 PUSH2 0x56A CALLDATASIZE PUSH1 0x4 PUSH2 0x2F1C JUMP JUMPDEST PUSH2 0x2406 JUMP JUMPDEST PUSH2 0x253 PUSH2 0x57D CALLDATASIZE PUSH1 0x4 PUSH2 0x2F68 JUMP JUMPDEST PUSH2 0x2A06 JUMP JUMPDEST CALLVALUE DUP1 ISZERO PUSH2 0x58E JUMPI PUSH1 0x0 DUP1 REVERT JUMPDEST POP PUSH2 0x2D7 PUSH2 0x59D CALLDATASIZE PUSH1 0x4 PUSH2 0x2EB2 JUMP JUMPDEST PUSH2 0x2D3E JUMP JUMPDEST PUSH1 0x1 PUSH1 0x1 PUSH1 0xA0 SHL SUB AND PUSH1 0x0 SWAP1 DUP2 MSTORE PUSH1 0x4 PUSH1 0x20 SWAP1 DUP2 MSTORE PUSH1 0x40 DUP1 DUP4 KECCAK256 SLOAD PUSH1 0x5 SWAP1 SWAP3 MSTORE SWAP1 SWAP2 KECCAK256 SLOAD SWAP1 SWAP2 JUMP JUMPDEST PUSH1 0x1 DUP2 DUP2 SLOAD DUP2 LT PUSH2 0x5DA JUMPI PUSH1 0x0 DUP1 REVERT JUMPDEST PUSH1 0x0 SWAP2 DUP3 MSTORE PUSH1 0x20 SWAP1 SWAP2 KECCAK256 PUSH1 0x9 SWAP1 SWAP2 MUL ADD DUP1 SLOAD PUSH1 0x1 DUP3 ADD SLOAD PUSH1 0x2 DUP4 ADD SLOAD PUSH1 0x3 DUP5 ADD DUP1 SLOAD SWAP4 SWAP6 POP PUSH1 0x1 PUSH1 0x1 PUSH1 0xA0 SHL SUB SWAP3 DUP4 AND SWAP5 SWAP3 SWAP1 SWAP2 AND SWAP3 PUSH2 0x619 SWAP1 PUSH2 0x3457 JUMP JUMPDEST DUP1 PUSH1 0x1F ADD PUSH1 0x20 DUP1 SWAP2 DIV MUL PUSH1 0x20 ADD PUSH1 0x40 MLOAD SWAP1 DUP2 ADD PUSH1 0x40 MSTORE DUP1 SWAP3 SWAP2 SWAP1 DUP2 DUP2 MSTORE PUSH1 0x20 ADD DUP3 DUP1 SLOAD PUSH2 0x645 SWAP1 PUSH2 0x3457 JUMP JUMPDEST DUP1 ISZERO PUSH2 0x692 JUMPI DUP1 PUSH1 0x1F LT PUSH2 0x667 JUMPI PUSH2 0x100 DUP1 DUP4 SLOAD DIV MUL DUP4 MSTORE SWAP2 PUSH1 0x20 ADD SWAP2 PUSH2 0x692 JUMP JUMPDEST DUP3 ADD SWAP2 SWAP1 PUSH1 0x0 MSTORE PUSH1 0x20 PUSH1 0x0 KECCAK256 SWAP1 JUMPDEST DUP2 SLOAD DUP2 MSTORE SWAP1 PUSH1 0x1 ADD SWAP1 PUSH1 0x20 ADD DUP1 DUP4 GT PUSH2 0x675 JUMPI DUP3 SWAP1 SUB PUSH1 0x1F AND DUP3 ADD SWAP2 JUMPDEST POP POP POP PUSH1 0x4 DUP5 ADD SLOAD PUSH1 0x5 DUP6 ADD SLOAD PUSH1 0x6 DUP7 ADD SLOAD PUSH1 0x7 DUP8 ADD SLOAD PUSH1 0x8 SWAP1 SWAP8 ADD SLOAD SWAP6 SWAP7 SWAP3 SWAP6 SWAP2 SWAP5 POP SWAP3 POP PUSH1 0xFF DUP1 DUP3 AND SWAP2 PUSH2 0x100 DUP2 DIV DUP3 AND SWAP2 PUSH3 0x10000 SWAP1 SWAP2 DIV AND DUP12 JUMP JUMPDEST PUSH1 0xA SLOAD PUSH1 0x1 PUSH1 0x1 PUSH1 0xA0 SHL SUB AND CALLER EQ DUP1 PUSH2 0x6F4 JUMPI POP PUSH1 0xB SLOAD PUSH1 0x1 PUSH1 0x1 PUSH1 0xA0 SHL SUB AND CALLER EQ JUMPDEST PUSH2 0x6FD JUMPI PUSH1 0x0 DUP1 REVERT JUMPDEST PUSH2 0x705 PUSH2 0x2D50 JUMP JUMPDEST PUSH1 0xB SLOAD PUSH1 0x1 PUSH1 0x1 PUSH1 0xA0 SHL SUB AND PUSH1 0x0 SWAP1 DUP2 MSTORE PUSH1 0x8 PUSH1 0x20 MSTORE PUSH1 0x40 SWAP1 KECCAK256 SLOAD PUSH1 0xFF AND ISZERO ISZERO PUSH1 0x1 EQ DUP1 PUSH2 0x73D JUMPI POP PUSH1 0xB SLOAD PUSH1 0x1 PUSH1 0x1 PUSH1 0xA0 SHL SUB AND CALLER EQ JUMPDEST PUSH2 0x746 JUMPI PUSH1 0x0 DUP1 REVERT JUMPDEST PUSH1 0xA SLOAD PUSH1 0x9 SLOAD PUSH1 0x40 MLOAD PUSH1 0x0 SWAP3 PUSH1 0x1 PUSH1 0x1 PUSH1 0xA0 SHL SUB AND SWAP2 SWAP1 PUSH2 0x766 SWAP1 PUSH2 0x300E JUMP JUMPDEST PUSH1 0x0 PUSH1 0x40 MLOAD DUP1 DUP4 SUB DUP2 DUP6 DUP8 GAS CALL SWAP3 POP POP POP RETURNDATASIZE DUP1 PUSH1 0x0 DUP2 EQ PUSH2 0x7A3 JUMPI PUSH1 0x40 MLOAD SWAP2 POP PUSH1 0x1F NOT PUSH1 0x3F RETURNDATASIZE ADD AND DUP3 ADD PUSH1 0x40 MSTORE RETURNDATASIZE DUP3 MSTORE RETURNDATASIZE PUSH1 0x0 PUSH1 0x20 DUP5 ADD RETURNDATACOPY PUSH2 0x7A8 JUMP JUMPDEST PUSH1 0x60 SWAP2 POP JUMPDEST POP POP SWAP1 POP DUP1 PUSH2 0x7D2 JUMPI PUSH1 0x40 MLOAD PUSH3 0x461BCD PUSH1 0xE5 SHL DUP2 MSTORE PUSH1 0x4 ADD PUSH2 0x7C9 SWAP1 PUSH2 0x3074 JUMP JUMPDEST PUSH1 0x40 MLOAD DUP1 SWAP2 SUB SWAP1 REVERT JUMPDEST POP PUSH1 0x0 PUSH1 0x9 SSTORE PUSH2 0x7E0 PUSH2 0x2D7A JUMP JUMPDEST JUMP JUMPDEST PUSH1 0xB SLOAD PUSH1 0x1 PUSH1 0xA0 SHL SWAP1 DIV PUSH1 0xFF AND DUP2 JUMP JUMPDEST DUP1 CALLER PUSH1 0x1 PUSH2 0x800 DUP2 DUP5 PUSH2 0x3440 JUMP JUMPDEST DUP2 SLOAD DUP2 LT PUSH2 0x81E JUMPI PUSH4 0x4E487B71 PUSH1 0xE0 SHL PUSH1 0x0 MSTORE PUSH1 0x32 PUSH1 0x4 MSTORE PUSH1 0x24 PUSH1 0x0 REVERT JUMPDEST PUSH1 0x0 SWAP2 DUP3 MSTORE PUSH1 0x20 SWAP1 SWAP2 KECCAK256 PUSH1 0x2 PUSH1 0x9 SWAP1 SWAP3 MUL ADD ADD SLOAD PUSH1 0x1 PUSH1 0x1 PUSH1 0xA0 SHL SUB AND EQ PUSH2 0x845 JUMPI PUSH1 0x0 DUP1 REVERT JUMPDEST PUSH1 0x2 PUSH1 0x1 PUSH2 0x853 DUP2 DUP6 PUSH2 0x3440 JUMP JUMPDEST DUP2 SLOAD DUP2 LT PUSH2 0x871 JUMPI PUSH4 0x4E487B71 PUSH1 0xE0 SHL PUSH1 0x0 MSTORE PUSH1 0x32 PUSH1 0x4 MSTORE PUSH1 0x24 PUSH1 0x0 REVERT JUMPDEST SWAP1 PUSH1 0x0 MSTORE PUSH1 0x20 PUSH1 0x0 KECCAK256 SWAP1 PUSH1 0x9 MUL ADD PUSH1 0x8 ADD PUSH1 0x2 SWAP1 SLOAD SWAP1 PUSH2 0x100 EXP SWAP1 DIV PUSH1 0xFF AND PUSH1 0x3 DUP2 GT ISZERO PUSH2 0x8AF JUMPI PUSH4 0x4E487B71 PUSH1 0xE0 SHL PUSH1 0x0 MSTORE PUSH1 0x21 PUSH1 0x4 MSTORE PUSH1 0x24 PUSH1 0x0 REVERT JUMPDEST EQ ISZERO PUSH2 0x8CD JUMPI PUSH1 0x40 MLOAD PUSH3 0x461BCD PUSH1 0xE5 SHL DUP2 MSTORE PUSH1 0x4 ADD PUSH2 0x7C9 SWAP1 PUSH2 0x319E JUMP JUMPDEST PUSH1 0x1 PUSH2 0x8D9 DUP2 DUP5 PUSH2 0x3440 JUMP JUMPDEST DUP2 SLOAD DUP2 LT PUSH2 0x8F7 JUMPI PUSH4 0x4E487B71 PUSH1 0xE0 SHL PUSH1 0x0 MSTORE PUSH1 0x32 PUSH1 0x4 MSTORE PUSH1 0x24 PUSH1 0x0 REVERT JUMPDEST SWAP1 PUSH1 0x0 MSTORE PUSH1 0x20 PUSH1 0x0 KECCAK256 SWAP1 PUSH1 0x9 MUL ADD PUSH1 0x7 ADD SLOAD PUSH3 0x15180 PUSH2 0x917 SWAP2 SWAP1 PUSH2 0x33E9 JUMP JUMPDEST TIMESTAMP LT ISZERO PUSH2 0x923 JUMPI PUSH1 0x0 DUP1 REVERT JUMPDEST PUSH1 0x1 DUP1 PUSH2 0x930 DUP2 DUP6 PUSH2 0x3440 JUMP JUMPDEST DUP2 SLOAD DUP2 LT PUSH2 0x94E JUMPI PUSH4 0x4E487B71 PUSH1 0xE0 SHL PUSH1 0x0 MSTORE PUSH1 0x32 PUSH1 0x4 MSTORE PUSH1 0x24 PUSH1 0x0 REVERT JUMPDEST PUSH1 0x0 SWAP2 DUP3 MSTORE PUSH1 0x20 SWAP1 SWAP2 KECCAK256 PUSH1 0x8 PUSH1 0x9 SWAP1 SWAP3 MUL ADD ADD DUP1 SLOAD PUSH3 0xFF0000 NOT AND PUSH3 0x10000 DUP4 PUSH1 0x3 DUP2 GT ISZERO PUSH2 0x98D JUMPI PUSH4 0x4E487B71 PUSH1 0xE0 SHL PUSH1 0x0 MSTORE PUSH1 0x21 PUSH1 0x4 MSTORE PUSH1 0x24 PUSH1 0x0 REVERT JUMPDEST MUL OR SWAP1 SSTORE POP POP POP JUMP JUMPDEST DUP1 CALLER PUSH1 0x1 PUSH2 0x9A4 DUP2 DUP5 PUSH2 0x3440 JUMP JUMPDEST DUP2 SLOAD DUP2 LT PUSH2 0x9C2 JUMPI PUSH4 0x4E487B71 PUSH1 0xE0 SHL PUSH1 0x0 MSTORE PUSH1 0x32 PUSH1 0x4 MSTORE PUSH1 0x24 PUSH1 0x0 REVERT JUMPDEST PUSH1 0x0 SWAP2 DUP3 MSTORE PUSH1 0x20 SWAP1 SWAP2 KECCAK256 PUSH1 0x1 PUSH1 0x9 SWAP1 SWAP3 MUL ADD ADD SLOAD PUSH1 0x1 PUSH1 0x1 PUSH1 0xA0 SHL SUB AND EQ PUSH2 0x9E9 JUMPI PUSH1 0x0 DUP1 REVERT JUMPDEST PUSH1 0x1 PUSH2 0x9F5 DUP2 DUP5 PUSH2 0x3440 JUMP JUMPDEST DUP2 SLOAD DUP2 LT PUSH2 0xA13 JUMPI PUSH4 0x4E487B71 PUSH1 0xE0 SHL PUSH1 0x0 MSTORE PUSH1 0x32 PUSH1 0x4 MSTORE PUSH1 0x24 PUSH1 0x0 REVERT JUMPDEST PUSH1 0x0 SWAP2 DUP3 MSTORE PUSH1 0x20 SWAP1 SWAP2 KECCAK256 PUSH1 0x8 PUSH1 0x9 SWAP1 SWAP3 MUL ADD ADD SLOAD PUSH1 0xFF AND ISZERO ISZERO PUSH1 0x1 EQ PUSH2 0xA38 JUMPI PUSH1 0x0 DUP1 REVERT JUMPDEST PUSH1 0x0 PUSH1 0x1 PUSH2 0xA46 DUP2 DUP6 PUSH2 0x3440 JUMP JUMPDEST DUP2 SLOAD DUP2 LT PUSH2 0xA64 JUMPI PUSH4 0x4E487B71 PUSH1 0xE0 SHL PUSH1 0x0 MSTORE PUSH1 0x32 PUSH1 0x4 MSTORE PUSH1 0x24 PUSH1 0x0 REVERT JUMPDEST PUSH1 0x0 SWAP2 DUP3 MSTORE PUSH1 0x20 DUP3 KECCAK256 PUSH1 0x9 SWAP2 SWAP1 SWAP2 MUL ADD PUSH1 0x8 ADD DUP1 SLOAD PUSH1 0xFF NOT AND SWAP3 ISZERO ISZERO SWAP3 SWAP1 SWAP3 OR SWAP1 SWAP2 SSTORE PUSH1 0x1 PUSH2 0xA93 DUP2 DUP6 PUSH2 0x3440 JUMP JUMPDEST DUP2 SLOAD DUP2 LT PUSH2 0xAB1 JUMPI PUSH4 0x4E487B71 PUSH1 0xE0 SHL PUSH1 0x0 MSTORE PUSH1 0x32 PUSH1 0x4 MSTORE PUSH1 0x24 PUSH1 0x0 REVERT JUMPDEST SWAP1 PUSH1 0x0 MSTORE PUSH1 0x20 PUSH1 0x0 KECCAK256 SWAP1 PUSH1 0x9 MUL ADD PUSH1 0x4 ADD SLOAD SWAP1 POP DUP1 PUSH1 0x5 PUSH1 0x0 PUSH1 0x1 DUP1 DUP8 PUSH2 0xAD8 SWAP2 SWAP1 PUSH2 0x3440 JUMP JUMPDEST DUP2 SLOAD DUP2 LT PUSH2 0xAF6 JUMPI PUSH4 0x4E487B71 PUSH1 0xE0 SHL PUSH1 0x0 MSTORE PUSH1 0x32 PUSH1 0x4 MSTORE PUSH1 0x24 PUSH1 0x0 REVERT JUMPDEST PUSH1 0x0 SWAP2 DUP3 MSTORE PUSH1 0x20 DUP1 DUP4 KECCAK256 PUSH1 0x1 PUSH1 0x9 SWAP1 SWAP4 MUL ADD SWAP2 SWAP1 SWAP2 ADD SLOAD PUSH1 0x1 PUSH1 0x1 PUSH1 0xA0 SHL SUB AND DUP4 MSTORE DUP3 ADD SWAP3 SWAP1 SWAP3 MSTORE PUSH1 0x40 ADD DUP2 KECCAK256 DUP1 SLOAD SWAP1 SWAP2 SWAP1 PUSH2 0xB33 SWAP1 DUP5 SWAP1 PUSH2 0x3440 JUMP JUMPDEST SWAP1 SWAP2 SSTORE POP DUP2 SWAP1 POP PUSH1 0x4 PUSH1 0x0 PUSH1 0x1 PUSH2 0xB4A DUP2 DUP9 PUSH2 0x3440 JUMP JUMPDEST DUP2 SLOAD DUP2 LT PUSH2 0xB68 JUMPI PUSH4 0x4E487B71 PUSH1 0xE0 SHL PUSH1 0x0 MSTORE PUSH1 0x32 PUSH1 0x4 MSTORE PUSH1 0x24 PUSH1 0x0 REVERT JUMPDEST PUSH1 0x0 SWAP2 DUP3 MSTORE PUSH1 0x20 DUP1 DUP4 KECCAK256 PUSH1 0x1 PUSH1 0x9 SWAP1 SWAP4 MUL ADD SWAP2 SWAP1 SWAP2 ADD SLOAD PUSH1 0x1 PUSH1 0x1 PUSH1 0xA0 SHL SUB AND DUP4 MSTORE DUP3 ADD SWAP3 SWAP1 SWAP3 MSTORE PUSH1 0x40 ADD DUP2 KECCAK256 DUP1 SLOAD SWAP1 SWAP2 SWAP1 PUSH2 0xBA5 SWAP1 DUP5 SWAP1 PUSH2 0x33E9 JUMP JUMPDEST SWAP1 SWAP2 SSTORE POP POP POP POP POP JUMP JUMPDEST PUSH1 0x7 PUSH1 0x20 MSTORE PUSH1 0x0 SWAP1 DUP2 MSTORE PUSH1 0x40 SWAP1 KECCAK256 SLOAD DUP2 JUMP JUMPDEST PUSH1 0x1 PUSH1 0x1 PUSH1 0xA0 SHL SUB AND PUSH1 0x0 SWAP1 DUP2 MSTORE PUSH1 0x6 PUSH1 0x20 SWAP1 DUP2 MSTORE PUSH1 0x40 DUP1 DUP4 KECCAK256 SLOAD PUSH1 0x7 SWAP1 SWAP3 MSTORE SWAP1 SWAP2 KECCAK256 SLOAD SWAP1 SWAP2 JUMP JUMPDEST PUSH1 0x9 SLOAD SWAP1 JUMP JUMPDEST PUSH1 0x3 PUSH1 0x20 MSTORE DUP2 PUSH1 0x0 MSTORE PUSH1 0x40 PUSH1 0x0 KECCAK256 DUP2 DUP2 SLOAD DUP2 LT PUSH2 0xC0B JUMPI PUSH1 0x0 DUP1 REVERT JUMPDEST SWAP1 PUSH1 0x0 MSTORE PUSH1 0x20 PUSH1 0x0 KECCAK256 ADD PUSH1 0x0 SWAP2 POP SWAP2 POP POP SLOAD DUP2 JUMP JUMPDEST PUSH1 0xB SLOAD PUSH1 0x1 PUSH1 0xA0 SHL SWAP1 DIV PUSH1 0xFF AND SWAP1 JUMP JUMPDEST PUSH1 0xB SLOAD PUSH1 0x1 PUSH1 0x1 PUSH1 0xA0 SHL SUB AND DUP2 JUMP JUMPDEST PUSH1 0xA SLOAD PUSH1 0x1 PUSH1 0x1 PUSH1 0xA0 SHL SUB AND CALLER EQ DUP1 PUSH2 0xC62 JUMPI POP PUSH1 0xB SLOAD PUSH1 0x1 PUSH1 0x1 PUSH1 0xA0 SHL SUB AND CALLER EQ JUMPDEST PUSH2 0xC6B JUMPI PUSH1 0x0 DUP1 REVERT JUMPDEST PUSH1 0x46 DUP2 GT ISZERO PUSH2 0xC79 JUMPI PUSH1 0x0 DUP1 REVERT JUMPDEST PUSH1 0x3 PUSH1 0x1 PUSH2 0xC87 DUP2 DUP6 PUSH2 0x3440 JUMP JUMPDEST DUP2 SLOAD DUP2 LT PUSH2 0xCA5 JUMPI PUSH4 0x4E487B71 PUSH1 0xE0 SHL PUSH1 0x0 MSTORE PUSH1 0x32 PUSH1 0x4 MSTORE PUSH1 0x24 PUSH1 0x0 REVERT JUMPDEST SWAP1 PUSH1 0x0 MSTORE PUSH1 0x20 PUSH1 0x0 KECCAK256 SWAP1 PUSH1 0x9 MUL ADD PUSH1 0x8 ADD PUSH1 0x2 SWAP1 SLOAD SWAP1 PUSH2 0x100 EXP SWAP1 DIV PUSH1 0xFF AND PUSH1 0x3 DUP2 GT ISZERO PUSH2 0xCE3 JUMPI PUSH4 0x4E487B71 PUSH1 0xE0 SHL PUSH1 0x0 MSTORE PUSH1 0x21 PUSH1 0x4 MSTORE PUSH1 0x24 PUSH1 0x0 REVERT JUMPDEST EQ PUSH2 0xCED JUMPI PUSH1 0x0 DUP1 REVERT JUMPDEST PUSH1 0x1 DUP1 PUSH2 0xCFA DUP2 DUP6 PUSH2 0x3440 JUMP JUMPDEST DUP2 SLOAD DUP2 LT PUSH2 0xD18 JUMPI PUSH4 0x4E487B71 PUSH1 0xE0 SHL PUSH1 0x0 MSTORE PUSH1 0x32 PUSH1 0x4 MSTORE PUSH1 0x24 PUSH1 0x0 REVERT JUMPDEST PUSH1 0x0 SWAP2 DUP3 MSTORE PUSH1 0x20 SWAP1 SWAP2 KECCAK256 PUSH1 0x8 PUSH1 0x9 SWAP1 SWAP3 MUL ADD ADD DUP1 SLOAD PUSH3 0xFF0000 NOT AND PUSH3 0x10000 DUP4 PUSH1 0x3 DUP2 GT ISZERO PUSH2 0xD57 JUMPI PUSH4 0x4E487B71 PUSH1 0xE0 SHL PUSH1 0x0 MSTORE PUSH1 0x21 PUSH1 0x4 MSTORE PUSH1 0x24 PUSH1 0x0 REVERT JUMPDEST MUL OR SWAP1 SSTORE POP PUSH1 0x0 PUSH1 0x1 PUSH2 0xD6A DUP2 DUP6 PUSH2 0x3440 JUMP JUMPDEST DUP2 SLOAD DUP2 LT PUSH2 0xD88 JUMPI PUSH4 0x4E487B71 PUSH1 0xE0 SHL PUSH1 0x0 MSTORE PUSH1 0x32 PUSH1 0x4 MSTORE PUSH1 0x24 PUSH1 0x0 REVERT JUMPDEST SWAP1 PUSH1 0x0 MSTORE PUSH1 0x20 PUSH1 0x0 KECCAK256 SWAP1 PUSH1 0x9 MUL ADD PUSH1 0x4 ADD SLOAD SWAP1 POP DUP1 PUSH1 0x5 PUSH1 0x0 PUSH1 0x1 DUP1 DUP8 PUSH2 0xDAF SWAP2 SWAP1 PUSH2 0x3440 JUMP JUMPDEST DUP2 SLOAD DUP2 LT PUSH2 0xDCD JUMPI PUSH4 0x4E487B71 PUSH1 0xE0 SHL PUSH1 0x0 MSTORE PUSH1 0x32 PUSH1 0x4 MSTORE PUSH1 0x24 PUSH1 0x0 REVERT JUMPDEST PUSH1 0x0 SWAP2 DUP3 MSTORE PUSH1 0x20 DUP1 DUP4 KECCAK256 PUSH1 0x1 PUSH1 0x9 SWAP1 SWAP4 MUL ADD SWAP2 SWAP1 SWAP2 ADD SLOAD PUSH1 0x1 PUSH1 0x1 PUSH1 0xA0 SHL SUB AND DUP4 MSTORE DUP3 ADD SWAP3 SWAP1 SWAP3 MSTORE PUSH1 0x40 ADD DUP2 KECCAK256 DUP1 SLOAD SWAP1 SWAP2 SWAP1 PUSH2 0xE0A SWAP1 DUP5 SWAP1 PUSH2 0x3440 JUMP JUMPDEST SWAP1 SWAP2 SSTORE POP PUSH1 0x64 SWAP1 POP PUSH2 0xE1C DUP4 DUP4 PUSH2 0x3421 JUMP JUMPDEST PUSH2 0xE26 SWAP2 SWAP1 PUSH2 0x3401 JUMP JUMPDEST PUSH1 0x4 PUSH1 0x0 PUSH1 0x1 PUSH2 0xE36 DUP2 DUP9 PUSH2 0x3440 JUMP JUMPDEST DUP2 SLOAD DUP2 LT PUSH2 0xE54 JUMPI PUSH4 0x4E487B71 PUSH1 0xE0 SHL PUSH1 0x0 MSTORE PUSH1 0x32 PUSH1 0x4 MSTORE PUSH1 0x24 PUSH1 0x0 REVERT JUMPDEST PUSH1 0x0 SWAP2 DUP3 MSTORE PUSH1 0x20 DUP1 DUP4 KECCAK256 PUSH1 0x1 PUSH1 0x9 SWAP1 SWAP4 MUL ADD SWAP2 SWAP1 SWAP2 ADD SLOAD PUSH1 0x1 PUSH1 0x1 PUSH1 0xA0 SHL SUB AND DUP4 MSTORE DUP3 ADD SWAP3 SWAP1 SWAP3 MSTORE PUSH1 0x40 ADD DUP2 KECCAK256 DUP1 SLOAD SWAP1 SWAP2 SWAP1 PUSH2 0xE91 SWAP1 DUP5 SWAP1 PUSH2 0x33E9 JUMP JUMPDEST SWAP1 SWAP2 SSTORE POP PUSH1 0x64 SWAP1 POP PUSH2 0xEA4 DUP3 PUSH1 0x14 PUSH2 0x3421 JUMP JUMPDEST PUSH2 0xEAE SWAP2 SWAP1 PUSH2 0x3401 JUMP JUMPDEST PUSH1 0x7 PUSH1 0x0 PUSH1 0x1 PUSH2 0xEBE DUP2 DUP9 PUSH2 0x3440 JUMP JUMPDEST DUP2 SLOAD DUP2 LT PUSH2 0xEDC JUMPI PUSH4 0x4E487B71 PUSH1 0xE0 SHL PUSH1 0x0 MSTORE PUSH1 0x32 PUSH1 0x4 MSTORE PUSH1 0x24 PUSH1 0x0 REVERT JUMPDEST PUSH1 0x0 SWAP2 DUP3 MSTORE PUSH1 0x20 DUP1 DUP4 KECCAK256 PUSH1 0x2 PUSH1 0x9 SWAP1 SWAP4 MUL ADD SWAP2 SWAP1 SWAP2 ADD SLOAD PUSH1 0x1 PUSH1 0x1 PUSH1 0xA0 SHL SUB AND DUP4 MSTORE DUP3 ADD SWAP3 SWAP1 SWAP3 MSTORE PUSH1 0x40 ADD DUP2 KECCAK256 DUP1 SLOAD SWAP1 SWAP2 SWAP1 PUSH2 0xF19 SWAP1 DUP5 SWAP1 PUSH2 0x3440 JUMP JUMPDEST SWAP1 SWAP2 SSTORE POP PUSH1 0x64 SWAP1 POP PUSH1 0x1E PUSH2 0xF2D DUP5 DUP4 PUSH2 0x3440 JUMP JUMPDEST PUSH2 0xF37 SWAP2 SWAP1 PUSH2 0x3440 JUMP JUMPDEST PUSH2 0xF41 SWAP1 DUP4 PUSH2 0x3421 JUMP JUMPDEST PUSH2 0xF4C DUP4 PUSH1 0x14 PUSH2 0x3421 JUMP JUMPDEST PUSH2 0xF56 SWAP2 SWAP1 PUSH2 0x33E9 JUMP JUMPDEST PUSH2 0xF60 SWAP2 SWAP1 PUSH2 0x3401 JUMP JUMPDEST PUSH1 0x6 PUSH1 0x0 PUSH1 0x1 PUSH2 0xF70 DUP2 DUP9 PUSH2 0x3440 JUMP JUMPDEST DUP2 SLOAD DUP2 LT PUSH2 0xF8E JUMPI PUSH4 0x4E487B71 PUSH1 0xE0 SHL PUSH1 0x0 MSTORE PUSH1 0x32 PUSH1 0x4 MSTORE PUSH1 0x24 PUSH1 0x0 REVERT JUMPDEST PUSH1 0x0 SWAP2 DUP3 MSTORE PUSH1 0x20 DUP1 DUP4 KECCAK256 PUSH1 0x2 PUSH1 0x9 SWAP1 SWAP4 MUL ADD SWAP2 SWAP1 SWAP2 ADD SLOAD PUSH1 0x1 PUSH1 0x1 PUSH1 0xA0 SHL SUB AND DUP4 MSTORE DUP3 ADD SWAP3 SWAP1 SWAP3 MSTORE PUSH1 0x40 ADD DUP2 KECCAK256 DUP1 SLOAD SWAP1 SWAP2 SWAP1 PUSH2 0xFCB SWAP1 DUP5 SWAP1 PUSH2 0x33E9 JUMP JUMPDEST SWAP1 SWAP2 SSTORE POP PUSH1 0x64 SWAP1 POP PUSH2 0xFDE DUP3 PUSH1 0x1E PUSH2 0x3421 JUMP JUMPDEST PUSH2 0xFE8 SWAP2 SWAP1 PUSH2 0x3401 JUMP JUMPDEST PUSH1 0x9 PUSH1 0x0 DUP3 DUP3 SLOAD PUSH2 0xBA5 SWAP2 SWAP1 PUSH2 0x33E9 JUMP JUMPDEST PUSH1 0x9 SLOAD DUP2 JUMP JUMPDEST PUSH1 0x2 PUSH1 0x20 MSTORE DUP2 PUSH1 0x0 MSTORE PUSH1 0x40 PUSH1 0x0 KECCAK256 DUP2 DUP2 SLOAD DUP2 LT PUSH2 0xC0B JUMPI PUSH1 0x0 DUP1 REVERT JUMPDEST PUSH1 0xA SLOAD PUSH1 0x1 PUSH1 0x1 PUSH1 0xA0 SHL SUB AND CALLER EQ DUP1 PUSH2 0x103E JUMPI POP PUSH1 0xB SLOAD PUSH1 0x1 PUSH1 0x1 PUSH1 0xA0 SHL SUB AND CALLER EQ JUMPDEST PUSH2 0x1047 JUMPI PUSH1 0x0 DUP1 REVERT JUMPDEST CALLER PUSH1 0x0 SWAP1 DUP2 MSTORE PUSH1 0x8 PUSH1 0x20 MSTORE PUSH1 0x40 SWAP1 KECCAK256 DUP1 SLOAD PUSH1 0xFF NOT AND PUSH1 0x1 OR SWAP1 SSTORE JUMP JUMPDEST PUSH1 0xA SLOAD PUSH1 0x1 PUSH1 0x1 PUSH1 0xA0 SHL SUB AND DUP2 JUMP JUMPDEST PUSH1 0x1 PUSH1 0x1 PUSH1 0xA0 SHL SUB DUP2 AND PUSH1 0x0 SWAP1 DUP2 MSTORE PUSH1 0x2 PUSH1 0x20 SWAP1 DUP2 MSTORE PUSH1 0x40 SWAP2 DUP3 SWAP1 KECCAK256 DUP1 SLOAD DUP4 MLOAD DUP2 DUP5 MUL DUP2 ADD DUP5 ADD SWAP1 SWAP5 MSTORE DUP1 DUP5 MSTORE PUSH1 0x60 SWAP4 SWAP3 DUP4 ADD DUP3 DUP3 DUP1 ISZERO PUSH2 0x10D2 JUMPI PUSH1 0x20 MUL DUP3 ADD SWAP2 SWAP1 PUSH1 0x0 MSTORE PUSH1 0x20 PUSH1 0x0 KECCAK256 SWAP1 JUMPDEST DUP2 SLOAD DUP2 MSTORE PUSH1 0x20 ADD SWAP1 PUSH1 0x1 ADD SWAP1 DUP1 DUP4 GT PUSH2 0x10BE JUMPI JUMPDEST POP POP POP POP POP SWAP1 POP JUMPDEST SWAP2 SWAP1 POP JUMP JUMPDEST DUP1 CALLER PUSH1 0x1 PUSH2 0x10ED DUP2 DUP5 PUSH2 0x3440 JUMP JUMPDEST DUP2 SLOAD DUP2 LT PUSH2 0x110B JUMPI PUSH4 0x4E487B71 PUSH1 0xE0 SHL PUSH1 0x0 MSTORE PUSH1 0x32 PUSH1 0x4 MSTORE PUSH1 0x24 PUSH1 0x0 REVERT JUMPDEST PUSH1 0x0 SWAP2 DUP3 MSTORE PUSH1 0x20 SWAP1 SWAP2 KECCAK256 PUSH1 0x2 PUSH1 0x9 SWAP1 SWAP3 MUL ADD ADD SLOAD PUSH1 0x1 PUSH1 0x1 PUSH1 0xA0 SHL SUB AND EQ PUSH2 0x1132 JUMPI PUSH1 0x0 DUP1 REVERT JUMPDEST PUSH1 0x1 DUP1 PUSH2 0x113F DUP2 DUP6 PUSH2 0x3440 JUMP JUMPDEST DUP2 SLOAD DUP2 LT PUSH2 0x115D JUMPI PUSH4 0x4E487B71 PUSH1 0xE0 SHL PUSH1 0x0 MSTORE PUSH1 0x32 PUSH1 0x4 MSTORE PUSH1 0x24 PUSH1 0x0 REVERT JUMPDEST SWAP1 PUSH1 0x0 MSTORE PUSH1 0x20 PUSH1 0x0 KECCAK256 SWAP1 PUSH1 0x9 MUL ADD PUSH1 0x8 ADD PUSH1 0x2 SWAP1 SLOAD SWAP1 PUSH2 0x100 EXP SWAP1 DIV PUSH1 0xFF AND PUSH1 0x3 DUP2 GT ISZERO PUSH2 0x119B JUMPI PUSH4 0x4E487B71 PUSH1 0xE0 SHL PUSH1 0x0 MSTORE PUSH1 0x21 PUSH1 0x4 MSTORE PUSH1 0x24 PUSH1 0x0 REVERT JUMPDEST EQ PUSH2 0x11B8 JUMPI PUSH1 0x40 MLOAD PUSH3 0x461BCD PUSH1 0xE5 SHL DUP2 MSTORE PUSH1 0x4 ADD PUSH2 0x7C9 SWAP1 PUSH2 0x30E9 JUMP JUMPDEST PUSH1 0x0 PUSH1 0x1 PUSH2 0x11C6 DUP2 DUP6 PUSH2 0x3440 JUMP JUMPDEST DUP2 SLOAD DUP2 LT PUSH2 0x11E4 JUMPI PUSH4 0x4E487B71 PUSH1 0xE0 SHL PUSH1 0x0 MSTORE PUSH1 0x32 PUSH1 0x4 MSTORE PUSH1 0x24 PUSH1 0x0 REVERT JUMPDEST SWAP1 PUSH1 0x0 MSTORE PUSH1 0x20 PUSH1 0x0 KECCAK256 SWAP1 PUSH1 0x9 MUL ADD PUSH1 0x4 ADD SLOAD SWAP1 POP PUSH1 0x1 DUP1 DUP5 PUSH2 0x1206 SWAP2 SWAP1 PUSH2 0x3440 JUMP JUMPDEST DUP2 SLOAD DUP2 LT PUSH2 0x1224 JUMPI PUSH4 0x4E487B71 PUSH1 0xE0 SHL PUSH1 0x0 MSTORE PUSH1 0x32 PUSH1 0x4 MSTORE PUSH1 0x24 PUSH1 0x0 REVERT JUMPDEST SWAP1 PUSH1 0x0 MSTORE PUSH1 0x20 PUSH1 0x0 KECCAK256 SWAP1 PUSH1 0x9 MUL ADD PUSH1 0x6 ADD SLOAD PUSH1 0x1 DUP1 DUP6 PUSH2 0x1244 SWAP2 SWAP1 PUSH2 0x3440 JUMP JUMPDEST DUP2 SLOAD DUP2 LT PUSH2 0x1262 JUMPI PUSH4 0x4E487B71 PUSH1 0xE0 SHL PUSH1 0x0 MSTORE PUSH1 0x32 PUSH1 0x4 MSTORE PUSH1 0x24 PUSH1 0x0 REVERT JUMPDEST SWAP1 PUSH1 0x0 MSTORE PUSH1 0x20 PUSH1 0x0 KECCAK256 SWAP1 PUSH1 0x9 MUL ADD PUSH1 0x7 ADD SLOAD GT PUSH2 0x1443 JUMPI DUP1 PUSH1 0x5 PUSH1 0x0 PUSH1 0x1 PUSH2 0x128A DUP2 DUP9 PUSH2 0x3440 JUMP JUMPDEST DUP2 SLOAD DUP2 LT PUSH2 0x12A8 JUMPI PUSH4 0x4E487B71 PUSH1 0xE0 SHL PUSH1 0x0 MSTORE PUSH1 0x32 PUSH1 0x4 MSTORE PUSH1 0x24 PUSH1 0x0 REVERT JUMPDEST PUSH1 0x0 SWAP2 DUP3 MSTORE PUSH1 0x20 DUP1 DUP4 KECCAK256 PUSH1 0x1 PUSH1 0x9 SWAP1 SWAP4 MUL ADD SWAP2 SWAP1 SWAP2 ADD SLOAD PUSH1 0x1 PUSH1 0x1 PUSH1 0xA0 SHL SUB AND DUP4 MSTORE DUP3 ADD SWAP3 SWAP1 SWAP3 MSTORE PUSH1 0x40 ADD DUP2 KECCAK256 DUP1 SLOAD SWAP1 SWAP2 SWAP1 PUSH2 0x12E5 SWAP1 DUP5 SWAP1 PUSH2 0x3440 JUMP JUMPDEST SWAP1 SWAP2 SSTORE POP PUSH1 0x64 SWAP1 POP PUSH2 0x12F8 DUP3 PUSH1 0x14 PUSH2 0x3421 JUMP JUMPDEST PUSH2 0x1302 SWAP2 SWAP1 PUSH2 0x3401 JUMP JUMPDEST PUSH1 0x7 PUSH1 0x0 PUSH1 0x1 PUSH2 0x1312 DUP2 DUP9 PUSH2 0x3440 JUMP JUMPDEST DUP2 SLOAD DUP2 LT PUSH2 0x1330 JUMPI PUSH4 0x4E487B71 PUSH1 0xE0 SHL PUSH1 0x0 MSTORE PUSH1 0x32 PUSH1 0x4 MSTORE PUSH1 0x24 PUSH1 0x0 REVERT JUMPDEST PUSH1 0x0 SWAP2 DUP3 MSTORE PUSH1 0x20 DUP1 DUP4 KECCAK256 PUSH1 0x2 PUSH1 0x9 SWAP1 SWAP4 MUL ADD SWAP2 SWAP1 SWAP2 ADD SLOAD PUSH1 0x1 PUSH1 0x1 PUSH1 0xA0 SHL SUB AND DUP4 MSTORE DUP3 ADD SWAP3 SWAP1 SWAP3 MSTORE PUSH1 0x40 ADD DUP2 KECCAK256 DUP1 SLOAD SWAP1 SWAP2 SWAP1 PUSH2 0x136D SWAP1 DUP5 SWAP1 PUSH2 0x3440 JUMP JUMPDEST SWAP1 SWAP2 SSTORE POP PUSH1 0x64 SWAP1 POP PUSH2 0x1380 DUP3 PUSH1 0x5F PUSH2 0x3421 JUMP JUMPDEST PUSH2 0x138B DUP4 PUSH1 0x14 PUSH2 0x3421 JUMP JUMPDEST PUSH2 0x1395 SWAP2 SWAP1 PUSH2 0x33E9 JUMP JUMPDEST PUSH2 0x139F SWAP2 SWAP1 PUSH2 0x3401 JUMP JUMPDEST PUSH1 0x6 PUSH1 0x0 PUSH1 0x1 PUSH2 0x13AF DUP2 DUP9 PUSH2 0x3440 JUMP JUMPDEST DUP2 SLOAD DUP2 LT PUSH2 0x13CD JUMPI PUSH4 0x4E487B71 PUSH1 0xE0 SHL PUSH1 0x0 MSTORE PUSH1 0x32 PUSH1 0x4 MSTORE PUSH1 0x24 PUSH1 0x0 REVERT JUMPDEST PUSH1 0x0 SWAP2 DUP3 MSTORE PUSH1 0x20 DUP1 DUP4 KECCAK256 PUSH1 0x2 PUSH1 0x9 SWAP1 SWAP4 MUL ADD SWAP2 SWAP1 SWAP2 ADD SLOAD PUSH1 0x1 PUSH1 0x1 PUSH1 0xA0 SHL SUB AND DUP4 MSTORE DUP3 ADD SWAP3 SWAP1 SWAP3 MSTORE PUSH1 0x40 ADD DUP2 KECCAK256 DUP1 SLOAD SWAP1 SWAP2 SWAP1 PUSH2 0x140A SWAP1 DUP5 SWAP1 PUSH2 0x33E9 JUMP JUMPDEST SWAP1 SWAP2 SSTORE POP PUSH1 0x64 SWAP1 POP PUSH2 0x141D DUP3 PUSH1 0x5 PUSH2 0x3421 JUMP JUMPDEST PUSH2 0x1427 SWAP2 SWAP1 PUSH2 0x3401 JUMP JUMPDEST PUSH1 0x9 PUSH1 0x0 DUP3 DUP3 SLOAD PUSH2 0x1438 SWAP2 SWAP1 PUSH2 0x33E9 JUMP JUMPDEST SWAP1 SWAP2 SSTORE POP PUSH2 0x1963 SWAP1 POP JUMP JUMPDEST PUSH1 0x64 PUSH1 0x1 PUSH2 0x1451 DUP2 DUP7 PUSH2 0x3440 JUMP JUMPDEST DUP2 SLOAD DUP2 LT PUSH2 0x146F JUMPI PUSH4 0x4E487B71 PUSH1 0xE0 SHL PUSH1 0x0 MSTORE PUSH1 0x32 PUSH1 0x4 MSTORE PUSH1 0x24 PUSH1 0x0 REVERT JUMPDEST SWAP1 PUSH1 0x0 MSTORE PUSH1 0x20 PUSH1 0x0 KECCAK256 SWAP1 PUSH1 0x9 MUL ADD PUSH1 0x5 ADD SLOAD PUSH1 0x14 PUSH2 0x148D SWAP2 SWAP1 PUSH2 0x3421 JUMP JUMPDEST PUSH2 0x1497 SWAP2 SWAP1 PUSH2 0x3401 JUMP JUMPDEST PUSH1 0x1 PUSH2 0x14A3 DUP2 DUP7 PUSH2 0x3440 JUMP JUMPDEST DUP2 SLOAD DUP2 LT PUSH2 0x14C1 JUMPI PUSH4 0x4E487B71 PUSH1 0xE0 SHL PUSH1 0x0 MSTORE PUSH1 0x32 PUSH1 0x4 MSTORE PUSH1 0x24 PUSH1 0x0 REVERT JUMPDEST SWAP1 PUSH1 0x0 MSTORE PUSH1 0x20 PUSH1 0x0 KECCAK256 SWAP1 PUSH1 0x9 MUL ADD PUSH1 0x6 ADD SLOAD PUSH1 0x1 DUP1 DUP7 PUSH2 0x14E1 SWAP2 SWAP1 PUSH2 0x3440 JUMP JUMPDEST DUP2 SLOAD DUP2 LT PUSH2 0x14FF JUMPI PUSH4 0x4E487B71 PUSH1 0xE0 SHL PUSH1 0x0 MSTORE PUSH1 0x32 PUSH1 0x4 MSTORE PUSH1 0x24 PUSH1 0x0 REVERT JUMPDEST SWAP1 PUSH1 0x0 MSTORE PUSH1 0x20 PUSH1 0x0 KECCAK256 SWAP1 PUSH1 0x9 MUL ADD PUSH1 0x7 ADD SLOAD PUSH2 0x151B SWAP2 SWAP1 PUSH2 0x3440 JUMP JUMPDEST GT PUSH2 0x174C JUMPI DUP1 PUSH1 0x5 PUSH1 0x0 PUSH1 0x1 PUSH2 0x1531 DUP2 DUP9 PUSH2 0x3440 JUMP JUMPDEST DUP2 SLOAD DUP2 LT PUSH2 0x154F JUMPI PUSH4 0x4E487B71 PUSH1 0xE0 SHL PUSH1 0x0 MSTORE PUSH1 0x32 PUSH1 0x4 MSTORE PUSH1 0x24 PUSH1 0x0 REVERT JUMPDEST PUSH1 0x0 SWAP2 DUP3 MSTORE PUSH1 0x20 DUP1 DUP4 KECCAK256 PUSH1 0x1 PUSH1 0x9 SWAP1 SWAP4 MUL ADD SWAP2 SWAP1 SWAP2 ADD SLOAD PUSH1 0x1 PUSH1 0x1 PUSH1 0xA0 SHL SUB AND DUP4 MSTORE DUP3 ADD SWAP3 SWAP1 SWAP3 MSTORE PUSH1 0x40 ADD DUP2 KECCAK256 DUP1 SLOAD SWAP1 SWAP2 SWAP1 PUSH2 0x158C SWAP1 DUP5 SWAP1 PUSH2 0x3440 JUMP JUMPDEST SWAP1 SWAP2 SSTORE POP PUSH1 0x64 SWAP1 POP PUSH2 0x159F DUP3 PUSH1 0xA PUSH2 0x3421 JUMP JUMPDEST PUSH2 0x15A9 SWAP2 SWAP1 PUSH2 0x3401 JUMP JUMPDEST PUSH1 0x4 PUSH1 0x0 PUSH1 0x1 PUSH2 0x15B9 DUP2 DUP9 PUSH2 0x3440 JUMP JUMPDEST DUP2 SLOAD DUP2 LT PUSH2 0x15D7 JUMPI PUSH4 0x4E487B71 PUSH1 0xE0 SHL PUSH1 0x0 MSTORE PUSH1 0x32 PUSH1 0x4 MSTORE PUSH1 0x24 PUSH1 0x0 REVERT JUMPDEST PUSH1 0x0 SWAP2 DUP3 MSTORE PUSH1 0x20 DUP1 DUP4 KECCAK256 PUSH1 0x1 PUSH1 0x9 SWAP1 SWAP4 MUL ADD SWAP2 SWAP1 SWAP2 ADD SLOAD PUSH1 0x1 PUSH1 0x1 PUSH1 0xA0 SHL SUB AND DUP4 MSTORE DUP3 ADD SWAP3 SWAP1 SWAP3 MSTORE PUSH1 0x40 ADD DUP2 KECCAK256 DUP1 SLOAD SWAP1 SWAP2 SWAP1 PUSH2 0x1614 SWAP1 DUP5 SWAP1 PUSH2 0x33E9 JUMP JUMPDEST SWAP1 SWAP2 SSTORE POP PUSH1 0x64 SWAP1 POP PUSH2 0x1627 DUP3 PUSH1 0x14 PUSH2 0x3421 JUMP JUMPDEST PUSH2 0x1631 SWAP2 SWAP1 PUSH2 0x3401 JUMP JUMPDEST PUSH1 0x7 PUSH1 0x0 PUSH1 0x1 PUSH2 0x1641 DUP2 DUP9 PUSH2 0x3440 JUMP JUMPDEST DUP2 SLOAD DUP2 LT PUSH2 0x165F JUMPI PUSH4 0x4E487B71 PUSH1 0xE0 SHL PUSH1 0x0 MSTORE PUSH1 0x32 PUSH1 0x4 MSTORE PUSH1 0x24 PUSH1 0x0 REVERT JUMPDEST PUSH1 0x0 SWAP2 DUP3 MSTORE PUSH1 0x20 DUP1 DUP4 KECCAK256 PUSH1 0x2 PUSH1 0x9 SWAP1 SWAP4 MUL ADD SWAP2 SWAP1 SWAP2 ADD SLOAD PUSH1 0x1 PUSH1 0x1 PUSH1 0xA0 SHL SUB AND DUP4 MSTORE DUP3 ADD SWAP3 SWAP1 SWAP3 MSTORE PUSH1 0x40 ADD DUP2 KECCAK256 DUP1 SLOAD SWAP1 SWAP2 SWAP1 PUSH2 0x169C SWAP1 DUP5 SWAP1 PUSH2 0x3440 JUMP JUMPDEST SWAP1 SWAP2 SSTORE POP PUSH1 0x64 SWAP1 POP PUSH2 0x16AF DUP3 PUSH1 0x50 PUSH2 0x3421 JUMP JUMPDEST PUSH2 0x16BA DUP4 PUSH1 0x14 PUSH2 0x3421 JUMP JUMPDEST PUSH2 0x16C4 SWAP2 SWAP1 PUSH2 0x33E9 JUMP JUMPDEST PUSH2 0x16CE SWAP2 SWAP1 PUSH2 0x3401 JUMP JUMPDEST PUSH1 0x6 PUSH1 0x0 PUSH1 0x1 PUSH2 0x16DE DUP2 DUP9 PUSH2 0x3440 JUMP JUMPDEST DUP2 SLOAD DUP2 LT PUSH2 0x16FC JUMPI PUSH4 0x4E487B71 PUSH1 0xE0 SHL PUSH1 0x0 MSTORE PUSH1 0x32 PUSH1 0x4 MSTORE PUSH1 0x24 PUSH1 0x0 REVERT JUMPDEST PUSH1 0x0 SWAP2 DUP3 MSTORE PUSH1 0x20 DUP1 DUP4 KECCAK256 PUSH1 0x2 PUSH1 0x9 SWAP1 SWAP4 MUL ADD SWAP2 SWAP1 SWAP2 ADD SLOAD PUSH1 0x1 PUSH1 0x1 PUSH1 0xA0 SHL SUB AND DUP4 MSTORE DUP3 ADD SWAP3 SWAP1 SWAP3 MSTORE PUSH1 0x40 ADD DUP2 KECCAK256 DUP1 SLOAD SWAP1 SWAP2 SWAP1 PUSH2 0x1739 SWAP1 DUP5 SWAP1 PUSH2 0x33E9 JUMP JUMPDEST SWAP1 SWAP2 SSTORE POP PUSH1 0x64 SWAP1 POP PUSH2 0x141D DUP3 PUSH1 0xA PUSH2 0x3421 JUMP JUMPDEST DUP1 PUSH1 0x5 PUSH1 0x0 PUSH1 0x1 PUSH2 0x175D DUP2 DUP9 PUSH2 0x3440 JUMP JUMPDEST DUP2 SLOAD DUP2 LT PUSH2 0x177B JUMPI PUSH4 0x4E487B71 PUSH1 0xE0 SHL PUSH1 0x0 MSTORE PUSH1 0x32 PUSH1 0x4 MSTORE PUSH1 0x24 PUSH1 0x0 REVERT JUMPDEST PUSH1 0x0 SWAP2 DUP3 MSTORE PUSH1 0x20 DUP1 DUP4 KECCAK256 PUSH1 0x1 PUSH1 0x9 SWAP1 SWAP4 MUL ADD SWAP2 SWAP1 SWAP2 ADD SLOAD PUSH1 0x1 PUSH1 0x1 PUSH1 0xA0 SHL SUB AND DUP4 MSTORE DUP3 ADD SWAP3 SWAP1 SWAP3 MSTORE PUSH1 0x40 ADD DUP2 KECCAK256 DUP1 SLOAD SWAP1 SWAP2 SWAP1 PUSH2 0x17B8 SWAP1 DUP5 SWAP1 PUSH2 0x3440 JUMP JUMPDEST SWAP1 SWAP2 SSTORE POP PUSH1 0x64 SWAP1 POP PUSH2 0x17CB DUP3 PUSH1 0x1E PUSH2 0x3421 JUMP JUMPDEST PUSH2 0x17D5 SWAP2 SWAP1 PUSH2 0x3401 JUMP JUMPDEST PUSH1 0x4 PUSH1 0x0 PUSH1 0x1 PUSH2 0x17E5 DUP2 DUP9 PUSH2 0x3440 JUMP JUMPDEST DUP2 SLOAD DUP2 LT PUSH2 0x1803 JUMPI PUSH4 0x4E487B71 PUSH1 0xE0 SHL PUSH1 0x0 MSTORE PUSH1 0x32 PUSH1 0x4 MSTORE PUSH1 0x24 PUSH1 0x0 REVERT JUMPDEST PUSH1 0x0 SWAP2 DUP3 MSTORE PUSH1 0x20 DUP1 DUP4 KECCAK256 PUSH1 0x1 PUSH1 0x9 SWAP1 SWAP4 MUL ADD SWAP2 SWAP1 SWAP2 ADD SLOAD PUSH1 0x1 PUSH1 0x1 PUSH1 0xA0 SHL SUB AND DUP4 MSTORE DUP3 ADD SWAP3 SWAP1 SWAP3 MSTORE PUSH1 0x40 ADD DUP2 KECCAK256 DUP1 SLOAD SWAP1 SWAP2 SWAP1 PUSH2 0x1840 SWAP1 DUP5 SWAP1 PUSH2 0x33E9 JUMP JUMPDEST SWAP1 SWAP2 SSTORE POP PUSH1 0x64 SWAP1 POP PUSH2 0x1853 DUP3 PUSH1 0x46 PUSH2 0x3421 JUMP JUMPDEST PUSH2 0x185D SWAP2 SWAP1 PUSH2 0x3401 JUMP JUMPDEST PUSH1 0x6 PUSH1 0x0 PUSH1 0x1 PUSH2 0x186D DUP2 DUP9 PUSH2 0x3440 JUMP JUMPDEST DUP2 SLOAD DUP2 LT PUSH2 0x188B JUMPI PUSH4 0x4E487B71 PUSH1 0xE0 SHL PUSH1 0x0 MSTORE PUSH1 0x32 PUSH1 0x4 MSTORE PUSH1 0x24 PUSH1 0x0 REVERT JUMPDEST PUSH1 0x0 SWAP2 DUP3 MSTORE PUSH1 0x20 DUP1 DUP4 KECCAK256 PUSH1 0x2 PUSH1 0x9 SWAP1 SWAP4 MUL ADD SWAP2 SWAP1 SWAP2 ADD SLOAD PUSH1 0x1 PUSH1 0x1 PUSH1 0xA0 SHL SUB AND DUP4 MSTORE DUP3 ADD SWAP3 SWAP1 SWAP3 MSTORE PUSH1 0x40 ADD DUP2 KECCAK256 DUP1 SLOAD SWAP1 SWAP2 SWAP1 PUSH2 0x18C8 SWAP1 DUP5 SWAP1 PUSH2 0x33E9 JUMP JUMPDEST SWAP1 SWAP2 SSTORE POP PUSH1 0x64 SWAP1 POP PUSH2 0x18DB DUP3 PUSH1 0x14 PUSH2 0x3421 JUMP JUMPDEST PUSH2 0x18E5 SWAP2 SWAP1 PUSH2 0x3401 JUMP JUMPDEST PUSH1 0x7 PUSH1 0x0 PUSH1 0x1 PUSH2 0x18F5 DUP2 DUP9 PUSH2 0x3440 JUMP JUMPDEST DUP2 SLOAD DUP2 LT PUSH2 0x1913 JUMPI PUSH4 0x4E487B71 PUSH1 0xE0 SHL PUSH1 0x0 MSTORE PUSH1 0x32 PUSH1 0x4 MSTORE PUSH1 0x24 PUSH1 0x0 REVERT JUMPDEST PUSH1 0x0 SWAP2 DUP3 MSTORE PUSH1 0x20 DUP1 DUP4 KECCAK256 PUSH1 0x2 PUSH1 0x9 SWAP1 SWAP4 MUL ADD SWAP2 SWAP1 SWAP2 ADD SLOAD PUSH1 0x1 PUSH1 0x1 PUSH1 0xA0 SHL SUB AND DUP4 MSTORE DUP3 ADD SWAP3 SWAP1 SWAP3 MSTORE PUSH1 0x40 ADD DUP2 KECCAK256 DUP1 SLOAD SWAP1 SWAP2 SWAP1 PUSH2 0x1950 SWAP1 DUP5 SWAP1 PUSH2 0x3440 JUMP JUMPDEST SWAP1 SWAP2 SSTORE POP PUSH1 0x64 SWAP1 POP PUSH2 0xFDE DUP3 PUSH1 0x14 PUSH2 0x3421 JUMP JUMPDEST POP POP POP JUMP JUMPDEST DUP1 CALLER PUSH1 0x1 PUSH2 0x1976 DUP2 DUP5 PUSH2 0x3440 JUMP JUMPDEST DUP2 SLOAD DUP2 LT PUSH2 0x1994 JUMPI PUSH4 0x4E487B71 PUSH1 0xE0 SHL PUSH1 0x0 MSTORE PUSH1 0x32 PUSH1 0x4 MSTORE PUSH1 0x24 PUSH1 0x0 REVERT JUMPDEST PUSH1 0x0 SWAP2 DUP3 MSTORE PUSH1 0x20 SWAP1 SWAP2 KECCAK256 PUSH1 0x1 PUSH1 0x9 SWAP1 SWAP3 MUL ADD ADD SLOAD PUSH1 0x1 PUSH1 0x1 PUSH1 0xA0 SHL SUB AND EQ PUSH2 0x19BB JUMPI PUSH1 0x0 DUP1 REVERT JUMPDEST PUSH1 0x1 PUSH2 0x19C7 DUP2 DUP5 PUSH2 0x3440 JUMP JUMPDEST DUP2 SLOAD DUP2 LT PUSH2 0x19E5 JUMPI PUSH4 0x4E487B71 PUSH1 0xE0 SHL PUSH1 0x0 MSTORE PUSH1 0x32 PUSH1 0x4 MSTORE PUSH1 0x24 PUSH1 0x0 REVERT JUMPDEST PUSH1 0x0 SWAP2 DUP3 MSTORE PUSH1 0x20 SWAP1 SWAP2 KECCAK256 PUSH1 0x8 PUSH1 0x9 SWAP1 SWAP3 MUL ADD ADD SLOAD PUSH1 0xFF PUSH2 0x100 SWAP1 SWAP2 DIV AND ISZERO ISZERO PUSH1 0x1 EQ PUSH2 0x923 JUMPI PUSH1 0x40 MLOAD PUSH3 0x461BCD PUSH1 0xE5 SHL DUP2 MSTORE PUSH1 0x4 ADD PUSH2 0x7C9 SWAP1 PUSH2 0x30A2 JUMP JUMPDEST PUSH1 0x5 PUSH1 0x20 MSTORE PUSH1 0x0 SWAP1 DUP2 MSTORE PUSH1 0x40 SWAP1 KECCAK256 SLOAD DUP2 JUMP JUMPDEST PUSH1 0xA SLOAD PUSH1 0x1 PUSH1 0x1 PUSH1 0xA0 SHL SUB AND CALLER EQ DUP1 PUSH2 0x1A58 JUMPI POP PUSH1 0xB SLOAD PUSH1 0x1 PUSH1 0x1 PUSH1 0xA0 SHL SUB AND CALLER EQ JUMPDEST PUSH2 0x1A61 JUMPI PUSH1 0x0 DUP1 REVERT JUMPDEST PUSH1 0xA SLOAD PUSH1 0x1 PUSH1 0x1 PUSH1 0xA0 SHL SUB AND PUSH1 0x0 SWAP1 DUP2 MSTORE PUSH1 0x8 PUSH1 0x20 MSTORE PUSH1 0x40 SWAP1 KECCAK256 SLOAD PUSH1 0xFF AND DUP1 ISZERO PUSH2 0x1AA5 JUMPI POP PUSH1 0xB SLOAD PUSH1 0x1 PUSH1 0x1 PUSH1 0xA0 SHL SUB AND PUSH1 0x0 SWAP1 DUP2 MSTORE PUSH1 0x8 PUSH1 0x20 MSTORE PUSH1 0x40 SWAP1 KECCAK256 SLOAD PUSH1 0xFF AND JUMPDEST PUSH2 0x1AC1 JUMPI PUSH1 0x40 MLOAD PUSH3 0x461BCD PUSH1 0xE5 SHL DUP2 MSTORE PUSH1 0x4 ADD PUSH2 0x7C9 SWAP1 PUSH2 0x32D3 JUMP JUMPDEST PUSH1 0xB DUP1 SLOAD SWAP2 ISZERO ISZERO PUSH1 0x1 PUSH1 0xA0 SHL MUL PUSH1 0xFF PUSH1 0xA0 SHL NOT SWAP1 SWAP3 AND SWAP2 SWAP1 SWAP2 OR DUP2 SSTORE PUSH1 0xA SLOAD PUSH1 0x1 PUSH1 0x1 PUSH1 0xA0 SHL SUB SWAP1 DUP2 AND PUSH1 0x0 SWAP1 DUP2 MSTORE PUSH1 0x8 PUSH1 0x20 MSTORE PUSH1 0x40 DUP1 DUP3 KECCAK256 DUP1 SLOAD PUSH1 0xFF NOT SWAP1 DUP2 AND SWAP1 SWAP2 SSTORE SWAP4 SLOAD SWAP1 SWAP3 AND DUP2 MSTORE KECCAK256 DUP1 SLOAD SWAP1 SWAP2 AND SWAP1 SSTORE JUMP JUMPDEST DUP1 CALLER PUSH1 0x1 PUSH2 0x1B24 DUP2 DUP5 PUSH2 0x3440 JUMP JUMPDEST DUP2 SLOAD DUP2 LT PUSH2 0x1B42 JUMPI PUSH4 0x4E487B71 PUSH1 0xE0 SHL PUSH1 0x0 MSTORE PUSH1 0x32 PUSH1 0x4 MSTORE PUSH1 0x24 PUSH1 0x0 REVERT JUMPDEST PUSH1 0x0 SWAP2 DUP3 MSTORE PUSH1 0x20 SWAP1 SWAP2 KECCAK256 PUSH1 0x1 PUSH1 0x9 SWAP1 SWAP3 MUL ADD ADD SLOAD PUSH1 0x1 PUSH1 0x1 PUSH1 0xA0 SHL SUB AND EQ PUSH2 0x1B69 JUMPI PUSH1 0x0 DUP1 REVERT JUMPDEST PUSH1 0x1 PUSH2 0x1B75 DUP2 DUP5 PUSH2 0x3440 JUMP JUMPDEST DUP2 SLOAD DUP2 LT PUSH2 0x1B93 JUMPI PUSH4 0x4E487B71 PUSH1 0xE0 SHL PUSH1 0x0 MSTORE PUSH1 0x32 PUSH1 0x4 MSTORE PUSH1 0x24 PUSH1 0x0 REVERT JUMPDEST PUSH1 0x0 SWAP2 DUP3 MSTORE PUSH1 0x20 SWAP1 SWAP2 KECCAK256 PUSH1 0x8 PUSH1 0x9 SWAP1 SWAP3 MUL ADD ADD SLOAD PUSH1 0xFF PUSH2 0x100 SWAP1 SWAP2 DIV AND ISZERO ISZERO PUSH1 0x1 EQ PUSH2 0x1BD1 JUMPI PUSH1 0x40 MLOAD PUSH3 0x461BCD PUSH1 0xE5 SHL DUP2 MSTORE PUSH1 0x4 ADD PUSH2 0x7C9 SWAP1 PUSH2 0x31D5 JUMP JUMPDEST PUSH1 0x2 PUSH1 0x1 PUSH2 0x930 DUP2 DUP6 PUSH2 0x3440 JUMP JUMPDEST PUSH2 0x1BE7 PUSH2 0x2D50 JUMP JUMPDEST DUP1 MLOAD PUSH1 0x20 DUP3 ADD KECCAK256 PUSH32 0xAA684A62CFEC67884698EDCB374CDD8A7421222BFEB8B6570BB1A601A3F00690 DUP2 EQ ISZERO PUSH2 0x1CBF JUMPI CALLER PUSH1 0x0 SWAP1 DUP2 MSTORE PUSH1 0x4 PUSH1 0x20 MSTORE PUSH1 0x40 SWAP1 KECCAK256 SLOAD DUP4 GT ISZERO PUSH2 0x1C32 JUMPI PUSH1 0x0 DUP1 REVERT JUMPDEST CALLER PUSH1 0x0 SWAP1 DUP2 MSTORE PUSH1 0x4 PUSH1 0x20 MSTORE PUSH1 0x40 DUP2 KECCAK256 DUP1 SLOAD DUP6 SWAP3 SWAP1 PUSH2 0x1C51 SWAP1 DUP5 SWAP1 PUSH2 0x3440 JUMP JUMPDEST SWAP1 SWAP2 SSTORE POP POP PUSH1 0x40 MLOAD PUSH1 0x0 SWAP1 CALLER SWAP1 DUP6 SWAP1 PUSH2 0x1C69 SWAP1 PUSH2 0x300E JUMP JUMPDEST PUSH1 0x0 PUSH1 0x40 MLOAD DUP1 DUP4 SUB DUP2 DUP6 DUP8 GAS CALL SWAP3 POP POP POP RETURNDATASIZE DUP1 PUSH1 0x0 DUP2 EQ PUSH2 0x1CA6 JUMPI PUSH1 0x40 MLOAD SWAP2 POP PUSH1 0x1F NOT PUSH1 0x3F RETURNDATASIZE ADD AND DUP3 ADD PUSH1 0x40 MSTORE RETURNDATASIZE DUP3 MSTORE RETURNDATASIZE PUSH1 0x0 PUSH1 0x20 DUP5 ADD RETURNDATACOPY PUSH2 0x1CAB JUMP JUMPDEST PUSH1 0x60 SWAP2 POP JUMPDEST POP POP SWAP1 POP DUP1 PUSH2 0x1CB9 JUMPI PUSH1 0x0 DUP1 REVERT JUMPDEST POP PUSH2 0x1D8C JUMP JUMPDEST PUSH32 0x8D7680EAD1DA220F978B7468ED8CDA236BAA559F8AF75BFF883132FA60B435A7 DUP2 EQ ISZERO PUSH2 0x1D8C JUMPI CALLER PUSH1 0x0 SWAP1 DUP2 MSTORE PUSH1 0x6 PUSH1 0x20 MSTORE PUSH1 0x40 SWAP1 KECCAK256 SLOAD DUP4 GT ISZERO PUSH2 0x1D03 JUMPI PUSH1 0x0 DUP1 REVERT JUMPDEST CALLER PUSH1 0x0 SWAP1 DUP2 MSTORE PUSH1 0x6 PUSH1 0x20 MSTORE PUSH1 0x40 DUP2 KECCAK256 DUP1 SLOAD DUP6 SWAP3 SWAP1 PUSH2 0x1D22 SWAP1 DUP5 SWAP1 PUSH2 0x3440 JUMP JUMPDEST SWAP1 SWAP2 SSTORE POP POP PUSH1 0x40 MLOAD PUSH1 0x0 SWAP1 CALLER SWAP1 DUP6 SWAP1 PUSH2 0x1D3A SWAP1 PUSH2 0x300E JUMP JUMPDEST PUSH1 0x0 PUSH1 0x40 MLOAD DUP1 DUP4 SUB DUP2 DUP6 DUP8 GAS CALL SWAP3 POP POP POP RETURNDATASIZE DUP1 PUSH1 0x0 DUP2 EQ PUSH2 0x1D77 JUMPI PUSH1 0x40 MLOAD SWAP2 POP PUSH1 0x1F NOT PUSH1 0x3F RETURNDATASIZE ADD AND DUP3 ADD PUSH1 0x40 MSTORE RETURNDATASIZE DUP3 MSTORE RETURNDATASIZE PUSH1 0x0 PUSH1 0x20 DUP5 ADD RETURNDATACOPY PUSH2 0x1D7C JUMP JUMPDEST PUSH1 0x60 SWAP2 POP JUMPDEST POP POP SWAP1 POP DUP1 PUSH2 0x1D8A JUMPI PUSH1 0x0 DUP1 REVERT JUMPDEST POP JUMPDEST POP PUSH2 0x1D95 PUSH2 0x2D7A JUMP JUMPDEST POP POP JUMP JUMPDEST CALLER PUSH1 0x1 PUSH2 0x1DA6 DUP2 DUP5 PUSH2 0x3440 JUMP JUMPDEST DUP2 SLOAD DUP2 LT PUSH2 0x1DC4 JUMPI PUSH4 0x4E487B71 PUSH1 0xE0 SHL PUSH1 0x0 MSTORE PUSH1 0x32 PUSH1 0x4 MSTORE PUSH1 0x24 PUSH1 0x0 REVERT JUMPDEST PUSH1 0x0 SWAP2 DUP3 MSTORE PUSH1 0x20 SWAP1 SWAP2 KECCAK256 PUSH1 0x1 PUSH1 0x9 SWAP1 SWAP3 MUL ADD ADD SLOAD PUSH1 0x1 PUSH1 0x1 PUSH1 0xA0 SHL SUB AND EQ DUP1 PUSH2 0x1E32 JUMPI POP CALLER PUSH1 0x1 PUSH2 0x1DF5 DUP2 DUP5 PUSH2 0x3440 JUMP JUMPDEST DUP2 SLOAD DUP2 LT PUSH2 0x1E13 JUMPI PUSH4 0x4E487B71 PUSH1 0xE0 SHL PUSH1 0x0 MSTORE PUSH1 0x32 PUSH1 0x4 MSTORE PUSH1 0x24 PUSH1 0x0 REVERT JUMPDEST PUSH1 0x0 SWAP2 DUP3 MSTORE PUSH1 0x20 SWAP1 SWAP2 KECCAK256 PUSH1 0x2 PUSH1 0x9 SWAP1 SWAP3 MUL ADD ADD SLOAD PUSH1 0x1 PUSH1 0x1 PUSH1 0xA0 SHL SUB AND EQ JUMPDEST PUSH2 0x1E4E JUMPI PUSH1 0x40 MLOAD PUSH3 0x461BCD PUSH1 0xE5 SHL DUP2 MSTORE PUSH1 0x4 ADD PUSH2 0x7C9 SWAP1 PUSH2 0x3243 JUMP JUMPDEST PUSH1 0x1 PUSH2 0x1E5A DUP2 DUP4 PUSH2 0x3440 JUMP JUMPDEST DUP2 SLOAD DUP2 LT PUSH2 0x1E78 JUMPI PUSH4 0x4E487B71 PUSH1 0xE0 SHL PUSH1 0x0 MSTORE PUSH1 0x32 PUSH1 0x4 MSTORE PUSH1 0x24 PUSH1 0x0 REVERT JUMPDEST PUSH1 0x0 SWAP2 DUP3 MSTORE PUSH1 0x20 SWAP1 SWAP2 KECCAK256 PUSH1 0x8 PUSH1 0x9 SWAP1 SWAP3 MUL ADD ADD SLOAD PUSH1 0xFF PUSH2 0x100 SWAP1 SWAP2 DIV AND ISZERO ISZERO PUSH1 0x1 EQ PUSH2 0x1EB6 JUMPI PUSH1 0x40 MLOAD PUSH3 0x461BCD PUSH1 0xE5 SHL DUP2 MSTORE PUSH1 0x4 ADD PUSH2 0x7C9 SWAP1 PUSH2 0x31D5 JUMP JUMPDEST PUSH1 0x3 PUSH1 0x1 PUSH2 0x1EC4 DUP2 DUP5 PUSH2 0x3440 JUMP JUMPDEST DUP2 SLOAD DUP2 LT PUSH2 0x1EE2 JUMPI PUSH4 0x4E487B71 PUSH1 0xE0 SHL PUSH1 0x0 MSTORE PUSH1 0x32 PUSH1 0x4 MSTORE PUSH1 0x24 PUSH1 0x0 REVERT JUMPDEST PUSH1 0x0 SWAP2 DUP3 MSTORE PUSH1 0x20 SWAP1 SWAP2 KECCAK256 PUSH1 0x8 PUSH1 0x9 SWAP1 SWAP3 MUL ADD ADD DUP1 SLOAD PUSH3 0xFF0000 NOT AND PUSH3 0x10000 DUP4 PUSH1 0x3 DUP2 GT ISZERO PUSH2 0x1F21 JUMPI PUSH4 0x4E487B71 PUSH1 0xE0 SHL PUSH1 0x0 MSTORE PUSH1 0x21 PUSH1 0x4 MSTORE PUSH1 0x24 PUSH1 0x0 REVERT JUMPDEST MUL OR SWAP1 SSTORE POP POP JUMP JUMPDEST PUSH1 0x1 PUSH1 0x1 PUSH1 0xA0 SHL SUB DUP2 AND PUSH1 0x0 SWAP1 DUP2 MSTORE PUSH1 0x3 PUSH1 0x20 SWAP1 DUP2 MSTORE PUSH1 0x40 SWAP2 DUP3 SWAP1 KECCAK256 DUP1 SLOAD DUP4 MLOAD DUP2 DUP5 MUL DUP2 ADD DUP5 ADD SWAP1 SWAP5 MSTORE DUP1 DUP5 MSTORE PUSH1 0x60 SWAP4 SWAP3 DUP4 ADD DUP3 DUP3 DUP1 ISZERO PUSH2 0x10D2 JUMPI PUSH1 0x20 MUL DUP3 ADD SWAP2 SWAP1 PUSH1 0x0 MSTORE PUSH1 0x20 PUSH1 0x0 KECCAK256 SWAP1 DUP2 SLOAD DUP2 MSTORE PUSH1 0x20 ADD SWAP1 PUSH1 0x1 ADD SWAP1 DUP1 DUP4 GT PUSH2 0x10BE JUMPI POP POP POP POP POP SWAP1 POP SWAP2 SWAP1 POP JUMP JUMPDEST DUP1 CALLER PUSH1 0x1 PUSH2 0x1FA1 DUP2 DUP5 PUSH2 0x3440 JUMP JUMPDEST DUP2 SLOAD DUP2 LT PUSH2 0x1FBF JUMPI PUSH4 0x4E487B71 PUSH1 0xE0 SHL PUSH1 0x0 MSTORE PUSH1 0x32 PUSH1 0x4 MSTORE PUSH1 0x24 PUSH1 0x0 REVERT JUMPDEST PUSH1 0x0 SWAP2 DUP3 MSTORE PUSH1 0x20 SWAP1 SWAP2 KECCAK256 PUSH1 0x2 PUSH1 0x9 SWAP1 SWAP3 MUL ADD ADD SLOAD PUSH1 0x1 PUSH1 0x1 PUSH1 0xA0 SHL SUB AND EQ PUSH2 0x1FE6 JUMPI PUSH1 0x0 DUP1 REVERT JUMPDEST PUSH1 0x1 DUP1 PUSH2 0x1FF3 DUP2 DUP6 PUSH2 0x3440 JUMP JUMPDEST DUP2 SLOAD DUP2 LT PUSH2 0x2011 JUMPI PUSH4 0x4E487B71 PUSH1 0xE0 SHL PUSH1 0x0 MSTORE PUSH1 0x32 PUSH1 0x4 MSTORE PUSH1 0x24 PUSH1 0x0 REVERT JUMPDEST PUSH1 0x0 SWAP2 DUP3 MSTORE PUSH1 0x20 SWAP1 SWAP2 KECCAK256 PUSH1 0x8 PUSH1 0x9 SWAP1 SWAP3 MUL ADD ADD DUP1 SLOAD SWAP2 ISZERO ISZERO PUSH2 0x100 MUL PUSH2 0xFF00 NOT SWAP1 SWAP3 AND SWAP2 SWAP1 SWAP2 OR SWAP1 SSTORE TIMESTAMP PUSH1 0x1 PUSH2 0x2047 DUP2 DUP6 PUSH2 0x3440 JUMP JUMPDEST DUP2 SLOAD DUP2 LT PUSH2 0x2065 JUMPI PUSH4 0x4E487B71 PUSH1 0xE0 SHL PUSH1 0x0 MSTORE PUSH1 0x32 PUSH1 0x4 MSTORE PUSH1 0x24 PUSH1 0x0 REVERT JUMPDEST SWAP1 PUSH1 0x0 MSTORE PUSH1 0x20 PUSH1 0x0 KECCAK256 SWAP1 PUSH1 0x9 MUL ADD PUSH1 0x7 ADD DUP2 SWAP1 SSTORE POP POP POP JUMP JUMPDEST PUSH1 0x0 DUP1 DUP1 PUSH1 0x60 DUP2 DUP1 DUP1 DUP1 DUP1 DUP1 DUP1 PUSH1 0x1 PUSH2 0x2097 DUP2 DUP15 PUSH2 0x3440 JUMP JUMPDEST DUP2 SLOAD DUP2 LT PUSH2 0x20B5 JUMPI PUSH4 0x4E487B71 PUSH1 0xE0 SHL PUSH1 0x0 MSTORE PUSH1 0x32 PUSH1 0x4 MSTORE PUSH1 0x24 PUSH1 0x0 REVERT JUMPDEST PUSH1 0x0 SWAP2 DUP3 MSTORE PUSH1 0x20 SWAP1 SWAP2 KECCAK256 PUSH1 0x9 SWAP1 SWAP2 MUL ADD SLOAD SWAP11 POP PUSH1 0x1 PUSH2 0x20D4 DUP2 DUP15 PUSH2 0x3440 JUMP JUMPDEST DUP2 SLOAD DUP2 LT PUSH2 0x20F2 JUMPI PUSH4 0x4E487B71 PUSH1 0xE0 SHL PUSH1 0x0 MSTORE PUSH1 0x32 PUSH1 0x4 MSTORE PUSH1 0x24 PUSH1 0x0 REVERT JUMPDEST PUSH1 0x0 SWAP2 DUP3 MSTORE PUSH1 0x20 SWAP1 SWAP2 KECCAK256 PUSH1 0x1 PUSH1 0x9 SWAP1 SWAP3 MUL ADD DUP2 ADD SLOAD PUSH1 0x1 PUSH1 0x1 PUSH1 0xA0 SHL SUB AND SWAP11 POP PUSH2 0x211C DUP2 DUP15 PUSH2 0x3440 JUMP JUMPDEST DUP2 SLOAD DUP2 LT PUSH2 0x213A JUMPI PUSH4 0x4E487B71 PUSH1 0xE0 SHL PUSH1 0x0 MSTORE PUSH1 0x32 PUSH1 0x4 MSTORE PUSH1 0x24 PUSH1 0x0 REVERT JUMPDEST PUSH1 0x0 SWAP2 DUP3 MSTORE PUSH1 0x20 SWAP1 SWAP2 KECCAK256 PUSH1 0x2 PUSH1 0x9 SWAP1 SWAP3 MUL ADD ADD SLOAD PUSH1 0x1 PUSH1 0x1 PUSH1 0xA0 SHL SUB AND SWAP9 POP PUSH1 0x1 PUSH2 0x2165 DUP2 DUP15 PUSH2 0x3440 JUMP JUMPDEST DUP2 SLOAD DUP2 LT PUSH2 0x2183 JUMPI PUSH4 0x4E487B71 PUSH1 0xE0 SHL PUSH1 0x0 MSTORE PUSH1 0x32 PUSH1 0x4 MSTORE PUSH1 0x24 PUSH1 0x0 REVERT JUMPDEST SWAP1 PUSH1 0x0 MSTORE PUSH1 0x20 PUSH1 0x0 KECCAK256 SWAP1 PUSH1 0x9 MUL ADD PUSH1 0x3 ADD DUP1 SLOAD PUSH2 0x219F SWAP1 PUSH2 0x3457 JUMP JUMPDEST DUP1 PUSH1 0x1F ADD PUSH1 0x20 DUP1 SWAP2 DIV MUL PUSH1 0x20 ADD PUSH1 0x40 MLOAD SWAP1 DUP2 ADD PUSH1 0x40 MSTORE DUP1 SWAP3 SWAP2 SWAP1 DUP2 DUP2 MSTORE PUSH1 0x20 ADD DUP3 DUP1 SLOAD PUSH2 0x21CB SWAP1 PUSH2 0x3457 JUMP JUMPDEST DUP1 ISZERO PUSH2 0x2218 JUMPI DUP1 PUSH1 0x1F LT PUSH2 0x21ED JUMPI PUSH2 0x100 DUP1 DUP4 SLOAD DIV MUL DUP4 MSTORE SWAP2 PUSH1 0x20 ADD SWAP2 PUSH2 0x2218 JUMP JUMPDEST DUP3 ADD SWAP2 SWAP1 PUSH1 0x0 MSTORE PUSH1 0x20 PUSH1 0x0 KECCAK256 SWAP1 JUMPDEST DUP2 SLOAD DUP2 MSTORE SWAP1 PUSH1 0x1 ADD SWAP1 PUSH1 0x20 ADD DUP1 DUP4 GT PUSH2 0x21FB JUMPI DUP3 SWAP1 SUB PUSH1 0x1F AND DUP3 ADD SWAP2 JUMPDEST POP POP POP POP POP SWAP8 POP PUSH1 0x1 DUP1 DUP14 PUSH2 0x222D SWAP2 SWAP1 PUSH2 0x3440 JUMP JUMPDEST DUP2 SLOAD DUP2 LT PUSH2 0x224B JUMPI PUSH4 0x4E487B71 PUSH1 0xE0 SHL PUSH1 0x0 MSTORE PUSH1 0x32 PUSH1 0x4 MSTORE PUSH1 0x24 PUSH1 0x0 REVERT JUMPDEST SWAP1 PUSH1 0x0 MSTORE PUSH1 0x20 PUSH1 0x0 KECCAK256 SWAP1 PUSH1 0x9 MUL ADD PUSH1 0x4 ADD SLOAD SWAP7 POP PUSH1 0x1 DUP1 DUP14 PUSH2 0x226D SWAP2 SWAP1 PUSH2 0x3440 JUMP JUMPDEST DUP2 SLOAD DUP2 LT PUSH2 0x228B JUMPI PUSH4 0x4E487B71 PUSH1 0xE0 SHL PUSH1 0x0 MSTORE PUSH1 0x32 PUSH1 0x4 MSTORE PUSH1 0x24 PUSH1 0x0 REVERT JUMPDEST SWAP1 PUSH1 0x0 MSTORE PUSH1 0x20 PUSH1 0x0 KECCAK256 SWAP1 PUSH1 0x9 MUL ADD PUSH1 0x5 ADD SLOAD SWAP6 POP PUSH1 0x1 DUP1 DUP14 PUSH2 0x22AD SWAP2 SWAP1 PUSH2 0x3440 JUMP JUMPDEST DUP2 SLOAD DUP2 LT PUSH2 0x22CB JUMPI PUSH4 0x4E487B71 PUSH1 0xE0 SHL PUSH1 0x0 MSTORE PUSH1 0x32 PUSH1 0x4 MSTORE PUSH1 0x24 PUSH1 0x0 REVERT JUMPDEST SWAP1 PUSH1 0x0 MSTORE PUSH1 0x20 PUSH1 0x0 KECCAK256 SWAP1 PUSH1 0x9 MUL ADD PUSH1 0x6 ADD SLOAD SWAP5 POP PUSH1 0x1 DUP1 DUP14 PUSH2 0x22ED SWAP2 SWAP1 PUSH2 0x3440 JUMP JUMPDEST DUP2 SLOAD DUP2 LT PUSH2 0x230B JUMPI PUSH4 0x4E487B71 PUSH1 0xE0 SHL PUSH1 0x0 MSTORE PUSH1 0x32 PUSH1 0x4 MSTORE PUSH1 0x24 PUSH1 0x0 REVERT JUMPDEST SWAP1 PUSH1 0x0 MSTORE PUSH1 0x20 PUSH1 0x0 KECCAK256 SWAP1 PUSH1 0x9 MUL ADD PUSH1 0x7 ADD SLOAD SWAP4 POP PUSH1 0x1 DUP1 DUP14 PUSH2 0x232D SWAP2 SWAP1 PUSH2 0x3440 JUMP JUMPDEST DUP2 SLOAD DUP2 LT PUSH2 0x234B JUMPI PUSH4 0x4E487B71 PUSH1 0xE0 SHL PUSH1 0x0 MSTORE PUSH1 0x32 PUSH1 0x4 MSTORE PUSH1 0x24 PUSH1 0x0 REVERT JUMPDEST PUSH1 0x0 SWAP2 DUP3 MSTORE PUSH1 0x20 SWAP1 SWAP2 KECCAK256 PUSH1 0x8 PUSH1 0x9 SWAP1 SWAP3 MUL ADD ADD SLOAD PUSH1 0xFF AND SWAP3 POP PUSH1 0x1 PUSH2 0x2370 DUP2 DUP15 PUSH2 0x3440 JUMP JUMPDEST DUP2 SLOAD DUP2 LT PUSH2 0x238E JUMPI PUSH4 0x4E487B71 PUSH1 0xE0 SHL PUSH1 0x0 MSTORE PUSH1 0x32 PUSH1 0x4 MSTORE PUSH1 0x24 PUSH1 0x0 REVERT JUMPDEST PUSH1 0x0 SWAP2 DUP3 MSTORE PUSH1 0x20 SWAP1 SWAP2 KECCAK256 PUSH1 0x9 SWAP1 SWAP2 MUL ADD PUSH1 0x8 ADD SLOAD PUSH2 0x100 SWAP1 DIV PUSH1 0xFF AND SWAP2 POP PUSH1 0x1 PUSH2 0x23B8 DUP2 DUP15 PUSH2 0x3440 JUMP JUMPDEST DUP2 SLOAD DUP2 LT PUSH2 0x23D6 JUMPI PUSH4 0x4E487B71 PUSH1 0xE0 SHL PUSH1 0x0 MSTORE PUSH1 0x32 PUSH1 0x4 MSTORE PUSH1 0x24 PUSH1 0x0 REVERT JUMPDEST SWAP1 PUSH1 0x0 MSTORE PUSH1 0x20 PUSH1 0x0 KECCAK256 SWAP1 PUSH1 0x9 MUL ADD PUSH1 0x8 ADD PUSH1 0x2 SWAP1 SLOAD SWAP1 PUSH2 0x100 EXP SWAP1 DIV PUSH1 0xFF AND SWAP1 POP SWAP2 SWAP4 SWAP6 SWAP8 SWAP10 SWAP12 SWAP1 SWAP3 SWAP5 SWAP7 SWAP9 SWAP11 POP JUMP JUMPDEST CALLER PUSH1 0x0 SWAP1 DUP2 MSTORE PUSH1 0x4 PUSH1 0x20 MSTORE PUSH1 0x40 DUP2 KECCAK256 DUP1 SLOAD DUP5 SWAP3 CALLVALUE SWAP3 SWAP2 PUSH2 0x2427 SWAP1 DUP5 SWAP1 PUSH2 0x33E9 JUMP JUMPDEST SWAP1 SWAP2 SSTORE POP POP CALLVALUE DUP2 GT ISZERO PUSH2 0x2732 JUMPI CALLER PUSH1 0x0 SWAP1 DUP2 MSTORE PUSH1 0x4 PUSH1 0x20 MSTORE PUSH1 0x40 SWAP1 KECCAK256 SLOAD DUP2 GT ISZERO PUSH2 0x2463 JUMPI PUSH1 0x40 MLOAD PUSH3 0x461BCD PUSH1 0xE5 SHL DUP2 MSTORE PUSH1 0x4 ADD PUSH2 0x7C9 SWAP1 PUSH2 0x320C JUMP JUMPDEST PUSH1 0xB SLOAD PUSH1 0x1 PUSH1 0xA0 SHL SWAP1 DIV PUSH1 0xFF AND PUSH2 0x2479 JUMPI PUSH1 0x0 DUP1 REVERT JUMPDEST PUSH1 0x0 DUP3 GT PUSH2 0x2499 JUMPI PUSH1 0x40 MLOAD PUSH3 0x461BCD PUSH1 0xE5 SHL DUP2 MSTORE PUSH1 0x4 ADD PUSH2 0x7C9 SWAP1 PUSH2 0x3167 JUMP JUMPDEST CALLER PUSH1 0x0 SWAP1 DUP2 MSTORE PUSH1 0x4 PUSH1 0x20 MSTORE PUSH1 0x40 DUP2 KECCAK256 DUP1 SLOAD DUP6 SWAP3 SWAP1 PUSH2 0x24B8 SWAP1 DUP5 SWAP1 PUSH2 0x3440 JUMP JUMPDEST SWAP1 SWAP2 SSTORE POP POP CALLER PUSH1 0x0 SWAP1 DUP2 MSTORE PUSH1 0x5 PUSH1 0x20 MSTORE PUSH1 0x40 DUP2 KECCAK256 DUP1 SLOAD DUP6 SWAP3 SWAP1 PUSH2 0x24DC SWAP1 DUP5 SWAP1 PUSH2 0x33E9 JUMP JUMPDEST SWAP1 SWAP2 SSTORE POP POP PUSH1 0x1 DUP1 SLOAD PUSH1 0x0 SWAP2 PUSH2 0x24F2 SWAP2 SWAP1 PUSH2 0x33E9 JUMP JUMPDEST SWAP1 POP PUSH1 0x0 PUSH2 0x2503 DUP5 PUSH3 0x15180 PUSH2 0x3421 JUMP JUMPDEST PUSH1 0x40 DUP1 MLOAD PUSH2 0x160 DUP2 ADD DUP3 MSTORE DUP5 DUP2 MSTORE CALLER PUSH1 0x20 DUP1 DUP4 ADD SWAP2 DUP3 MSTORE PUSH1 0x0 SWAP4 DUP4 ADD DUP5 DUP2 MSTORE PUSH1 0x60 DUP5 ADD DUP13 DUP2 MSTORE PUSH1 0x80 DUP6 ADD DUP13 SWAP1 MSTORE PUSH1 0xA0 DUP6 ADD DUP8 SWAP1 MSTORE PUSH1 0xC0 DUP6 ADD DUP7 SWAP1 MSTORE PUSH1 0xE0 DUP6 ADD DUP7 SWAP1 MSTORE PUSH1 0x1 PUSH2 0x100 DUP7 ADD DUP2 SWAP1 MSTORE PUSH2 0x120 DUP7 ADD DUP8 SWAP1 MSTORE PUSH2 0x140 DUP7 ADD DUP8 SWAP1 MSTORE DUP1 SLOAD DUP1 DUP3 ADD DUP3 SSTORE SWAP7 MSTORE DUP5 MLOAD PUSH32 0xB10E2D527612073B26EECDFD717E6A320CF44B4AFAC2B0732D9FCBE2B7FA0CF6 PUSH1 0x9 SWAP1 SWAP8 MUL SWAP7 DUP8 ADD SWAP1 DUP2 SSTORE SWAP4 MLOAD PUSH32 0xB10E2D527612073B26EECDFD717E6A320CF44B4AFAC2B0732D9FCBE2B7FA0CF7 DUP8 ADD DUP1 SLOAD PUSH1 0x1 PUSH1 0x1 PUSH1 0xA0 SHL SUB NOT SWAP1 DUP2 AND PUSH1 0x1 PUSH1 0x1 PUSH1 0xA0 SHL SUB SWAP4 DUP5 AND OR SWAP1 SWAP2 SSTORE SWAP3 MLOAD PUSH32 0xB10E2D527612073B26EECDFD717E6A320CF44B4AFAC2B0732D9FCBE2B7FA0CF8 DUP9 ADD DUP1 SLOAD SWAP1 SWAP5 AND SWAP2 AND OR SWAP1 SWAP2 SSTORE MLOAD DUP1 MLOAD SWAP6 SWAP7 POP SWAP3 SWAP5 DUP6 SWAP5 SWAP3 SWAP4 PUSH2 0x2642 SWAP4 PUSH32 0xB10E2D527612073B26EECDFD717E6A320CF44B4AFAC2B0732D9FCBE2B7FA0CF9 ADD SWAP3 ADD SWAP1 PUSH2 0x2D81 JUMP JUMPDEST POP PUSH1 0x80 DUP3 ADD MLOAD PUSH1 0x4 DUP3 ADD SSTORE PUSH1 0xA0 DUP3 ADD MLOAD PUSH1 0x5 DUP3 ADD SSTORE PUSH1 0xC0 DUP3 ADD MLOAD PUSH1 0x6 DUP3 ADD SSTORE PUSH1 0xE0 DUP3 ADD MLOAD PUSH1 0x7 DUP3 ADD SSTORE PUSH2 0x100 DUP1 DUP4 ADD MLOAD PUSH1 0x8 DUP4 ADD DUP1 SLOAD PUSH2 0x120 DUP7 ADD MLOAD PUSH1 0xFF NOT SWAP1 SWAP2 AND SWAP3 ISZERO ISZERO SWAP3 SWAP1 SWAP3 OR PUSH2 0xFF00 NOT AND SWAP2 ISZERO ISZERO SWAP1 SWAP3 MUL OR DUP1 DUP3 SSTORE PUSH2 0x140 DUP5 ADD MLOAD SWAP2 SWAP1 PUSH3 0xFF0000 NOT AND PUSH3 0x10000 DUP4 PUSH1 0x3 DUP2 GT ISZERO PUSH2 0x26CC JUMPI PUSH4 0x4E487B71 PUSH1 0xE0 SHL PUSH1 0x0 MSTORE PUSH1 0x21 PUSH1 0x4 MSTORE PUSH1 0x24 PUSH1 0x0 REVERT JUMPDEST MUL OR SWAP1 SSTORE POP POP CALLER PUSH1 0x0 SWAP1 DUP2 MSTORE PUSH1 0x2 PUSH1 0x20 SWAP1 DUP2 MSTORE PUSH1 0x40 DUP1 DUP4 KECCAK256 DUP1 SLOAD PUSH1 0x1 DUP2 ADD DUP3 SSTORE SWAP1 DUP5 MSTORE SWAP2 SWAP1 SWAP3 KECCAK256 ADD DUP6 SWAP1 SSTORE MLOAD DUP5 SWAP2 POP PUSH32 0x4B1B1A905A6323B91259E1E095B47EE5DBB95009E905491DB7049E6A1C98A874 SWAP1 PUSH2 0x2726 SWAP1 PUSH2 0x326D JUMP JUMPDEST PUSH1 0x40 MLOAD DUP1 SWAP2 SUB SWAP1 LOG2 POP POP POP JUMPDEST PUSH1 0xB SLOAD PUSH1 0x1 PUSH1 0xA0 SHL SWAP1 DIV PUSH1 0xFF AND PUSH2 0x2748 JUMPI PUSH1 0x0 DUP1 REVERT JUMPDEST PUSH1 0x0 DUP3 GT PUSH2 0x2768 JUMPI PUSH1 0x40 MLOAD PUSH3 0x461BCD PUSH1 0xE5 SHL DUP2 MSTORE PUSH1 0x4 ADD PUSH2 0x7C9 SWAP1 PUSH2 0x3167 JUMP JUMPDEST CALLER PUSH1 0x0 SWAP1 DUP2 MSTORE PUSH1 0x4 PUSH1 0x20 MSTORE PUSH1 0x40 DUP2 KECCAK256 DUP1 SLOAD DUP6 SWAP3 SWAP1 PUSH2 0x2787 SWAP1 DUP5 SWAP1 PUSH2 0x3440 JUMP JUMPDEST SWAP1 SWAP2 SSTORE POP POP CALLER PUSH1 0x0 SWAP1 DUP2 MSTORE PUSH1 0x5 PUSH1 0x20 MSTORE PUSH1 0x40 DUP2 KECCAK256 DUP1 SLOAD DUP6 SWAP3 SWAP1 PUSH2 0x27AB SWAP1 DUP5 SWAP1 PUSH2 0x33E9 JUMP JUMPDEST SWAP1 SWAP2 SSTORE POP POP PUSH1 0x1 DUP1 SLOAD PUSH1 0x0 SWAP2 PUSH2 0x27C1 SWAP2 SWAP1 PUSH2 0x33E9 JUMP JUMPDEST SWAP1 POP PUSH1 0x0 PUSH2 0x27D2 DUP5 PUSH3 0x15180 PUSH2 0x3421 JUMP JUMPDEST PUSH1 0x40 DUP1 MLOAD PUSH2 0x160 DUP2 ADD DUP3 MSTORE DUP5 DUP2 MSTORE CALLER PUSH1 0x20 DUP1 DUP4 ADD SWAP2 DUP3 MSTORE PUSH1 0x0 SWAP4 DUP4 ADD DUP5 DUP2 MSTORE PUSH1 0x60 DUP5 ADD DUP13 DUP2 MSTORE PUSH1 0x80 DUP6 ADD DUP13 SWAP1 MSTORE PUSH1 0xA0 DUP6 ADD DUP8 SWAP1 MSTORE PUSH1 0xC0 DUP6 ADD DUP7 SWAP1 MSTORE PUSH1 0xE0 DUP6 ADD DUP7 SWAP1 MSTORE PUSH1 0x1 PUSH2 0x100 DUP7 ADD DUP2 SWAP1 MSTORE PUSH2 0x120 DUP7 ADD DUP8 SWAP1 MSTORE PUSH2 0x140 DUP7 ADD DUP8 SWAP1 MSTORE DUP1 SLOAD DUP1 DUP3 ADD DUP3 SSTORE SWAP7 MSTORE DUP5 MLOAD PUSH32 0xB10E2D527612073B26EECDFD717E6A320CF44B4AFAC2B0732D9FCBE2B7FA0CF6 PUSH1 0x9 SWAP1 SWAP8 MUL SWAP7 DUP8 ADD SWAP1 DUP2 SSTORE SWAP4 MLOAD PUSH32 0xB10E2D527612073B26EECDFD717E6A320CF44B4AFAC2B0732D9FCBE2B7FA0CF7 DUP8 ADD DUP1 SLOAD PUSH1 0x1 PUSH1 0x1 PUSH1 0xA0 SHL SUB NOT SWAP1 DUP2 AND PUSH1 0x1 PUSH1 0x1 PUSH1 0xA0 SHL SUB SWAP4 DUP5 AND OR SWAP1 SWAP2 SSTORE SWAP3 MLOAD PUSH32 0xB10E2D527612073B26EECDFD717E6A320CF44B4AFAC2B0732D9FCBE2B7FA0CF8 DUP9 ADD DUP1 SLOAD SWAP1 SWAP5 AND SWAP2 AND OR SWAP1 SWAP2 SSTORE MLOAD DUP1 MLOAD SWAP6 SWAP7 POP SWAP3 SWAP5 DUP6 SWAP5 SWAP3 SWAP4 PUSH2 0x2911 SWAP4 PUSH32 0xB10E2D527612073B26EECDFD717E6A320CF44B4AFAC2B0732D9FCBE2B7FA0CF9 ADD SWAP3 ADD SWAP1 PUSH2 0x2D81 JUMP JUMPDEST POP PUSH1 0x80 DUP3 ADD MLOAD PUSH1 0x4 DUP3 ADD SSTORE PUSH1 0xA0 DUP3 ADD MLOAD PUSH1 0x5 DUP3 ADD SSTORE PUSH1 0xC0 DUP3 ADD MLOAD PUSH1 0x6 DUP3 ADD SSTORE PUSH1 0xE0 DUP3 ADD MLOAD PUSH1 0x7 DUP3 ADD SSTORE PUSH2 0x100 DUP1 DUP4 ADD MLOAD PUSH1 0x8 DUP4 ADD DUP1 SLOAD PUSH2 0x120 DUP7 ADD MLOAD PUSH1 0xFF NOT SWAP1 SWAP2 AND SWAP3 ISZERO ISZERO SWAP3 SWAP1 SWAP3 OR PUSH2 0xFF00 NOT AND SWAP2 ISZERO ISZERO SWAP1 SWAP3 MUL OR DUP1 DUP3 SSTORE PUSH2 0x140 DUP5 ADD MLOAD SWAP2 SWAP1 PUSH3 0xFF0000 NOT AND PUSH3 0x10000 DUP4 PUSH1 0x3 DUP2 GT ISZERO PUSH2 0x299B JUMPI PUSH4 0x4E487B71 PUSH1 0xE0 SHL PUSH1 0x0 MSTORE PUSH1 0x21 PUSH1 0x4 MSTORE PUSH1 0x24 PUSH1 0x0 REVERT JUMPDEST MUL OR SWAP1 SSTORE POP POP CALLER PUSH1 0x0 SWAP1 DUP2 MSTORE PUSH1 0x2 PUSH1 0x20 SWAP1 DUP2 MSTORE PUSH1 0x40 DUP1 DUP4 KECCAK256 DUP1 SLOAD PUSH1 0x1 DUP2 ADD DUP3 SSTORE SWAP1 DUP5 MSTORE SWAP2 SWAP1 SWAP3 KECCAK256 ADD DUP6 SWAP1 SSTORE MLOAD DUP5 SWAP2 POP PUSH32 0x4B1B1A905A6323B91259E1E095B47EE5DBB95009E905491DB7049E6A1C98A874 SWAP1 PUSH2 0x29F5 SWAP1 PUSH2 0x326D JUMP JUMPDEST PUSH1 0x40 MLOAD DUP1 SWAP2 SUB SWAP1 LOG2 POP POP POP POP POP POP POP JUMP JUMPDEST PUSH1 0xB SLOAD PUSH1 0x1 PUSH1 0xA0 SHL SWAP1 DIV PUSH1 0xFF AND PUSH2 0x2A1C JUMPI PUSH1 0x0 DUP1 REVERT JUMPDEST PUSH1 0x1 PUSH2 0x2A28 DUP2 DUP4 PUSH2 0x3440 JUMP JUMPDEST DUP2 SLOAD DUP2 LT PUSH2 0x2A46 JUMPI PUSH4 0x4E487B71 PUSH1 0xE0 SHL PUSH1 0x0 MSTORE PUSH1 0x32 PUSH1 0x4 MSTORE PUSH1 0x24 PUSH1 0x0 REVERT JUMPDEST PUSH1 0x0 SWAP2 DUP3 MSTORE PUSH1 0x20 SWAP1 SWAP2 KECCAK256 PUSH1 0x8 PUSH1 0x9 SWAP1 SWAP3 MUL ADD ADD SLOAD PUSH1 0xFF AND PUSH2 0x2A79 JUMPI PUSH1 0x40 MLOAD PUSH3 0x461BCD PUSH1 0xE5 SHL DUP2 MSTORE PUSH1 0x4 ADD PUSH2 0x7C9 SWAP1 PUSH2 0x3118 JUMP JUMPDEST CALLER PUSH1 0x0 SWAP1 DUP2 MSTORE PUSH1 0x6 PUSH1 0x20 MSTORE PUSH1 0x40 DUP2 KECCAK256 DUP1 SLOAD CALLVALUE SWAP3 SWAP1 PUSH2 0x2A98 SWAP1 DUP5 SWAP1 PUSH2 0x33E9 JUMP JUMPDEST SWAP1 SWAP2 SSTORE POP PUSH1 0x0 SWAP1 POP PUSH1 0x64 PUSH1 0x1 PUSH2 0x2AAE DUP2 DUP6 PUSH2 0x3440 JUMP JUMPDEST DUP2 SLOAD DUP2 LT PUSH2 0x2ACC JUMPI PUSH4 0x4E487B71 PUSH1 0xE0 SHL PUSH1 0x0 MSTORE PUSH1 0x32 PUSH1 0x4 MSTORE PUSH1 0x24 PUSH1 0x0 REVERT JUMPDEST SWAP1 PUSH1 0x0 MSTORE PUSH1 0x20 PUSH1 0x0 KECCAK256 SWAP1 PUSH1 0x9 MUL ADD PUSH1 0x4 ADD SLOAD PUSH1 0x14 PUSH2 0x2AEA SWAP2 SWAP1 PUSH2 0x3421 JUMP JUMPDEST PUSH2 0x2AF4 SWAP2 SWAP1 PUSH2 0x3401 JUMP JUMPDEST SWAP1 POP DUP1 CALLVALUE LT ISZERO PUSH2 0x2B2D JUMPI CALLER PUSH1 0x0 SWAP1 DUP2 MSTORE PUSH1 0x6 PUSH1 0x20 MSTORE PUSH1 0x40 SWAP1 KECCAK256 SLOAD DUP2 GT ISZERO PUSH2 0x2B2D JUMPI PUSH1 0x40 MLOAD PUSH3 0x461BCD PUSH1 0xE5 SHL DUP2 MSTORE PUSH1 0x4 ADD PUSH2 0x7C9 SWAP1 PUSH2 0x320C JUMP JUMPDEST CALLER PUSH1 0x0 SWAP1 DUP2 MSTORE PUSH1 0x6 PUSH1 0x20 MSTORE PUSH1 0x40 DUP2 KECCAK256 DUP1 SLOAD DUP4 SWAP3 SWAP1 PUSH2 0x2B4C SWAP1 DUP5 SWAP1 PUSH2 0x3440 JUMP JUMPDEST SWAP1 SWAP2 SSTORE POP POP CALLER PUSH1 0x0 SWAP1 DUP2 MSTORE PUSH1 0x7 PUSH1 0x20 MSTORE PUSH1 0x40 DUP2 KECCAK256 DUP1 SLOAD DUP4 SWAP3 SWAP1 PUSH2 0x2B70 SWAP1 DUP5 SWAP1 PUSH2 0x33E9 JUMP JUMPDEST SWAP1 SWAP2 SSTORE POP TIMESTAMP SWAP1 POP PUSH1 0x1 PUSH2 0x2B83 DUP2 DUP6 PUSH2 0x3440 JUMP JUMPDEST DUP2 SLOAD DUP2 LT PUSH2 0x2BA1 JUMPI PUSH4 0x4E487B71 PUSH1 0xE0 SHL PUSH1 0x0 MSTORE PUSH1 0x32 PUSH1 0x4 MSTORE PUSH1 0x24 PUSH1 0x0 REVERT JUMPDEST SWAP1 PUSH1 0x0 MSTORE PUSH1 0x20 PUSH1 0x0 KECCAK256 SWAP1 PUSH1 0x9 MUL ADD PUSH1 0x5 ADD SLOAD PUSH2 0x2BBD SWAP2 SWAP1 PUSH2 0x33E9 JUMP JUMPDEST PUSH1 0x1 PUSH2 0x2BC9 DUP2 DUP6 PUSH2 0x3440 JUMP JUMPDEST DUP2 SLOAD DUP2 LT PUSH2 0x2BE7 JUMPI PUSH4 0x4E487B71 PUSH1 0xE0 SHL PUSH1 0x0 MSTORE PUSH1 0x32 PUSH1 0x4 MSTORE PUSH1 0x24 PUSH1 0x0 REVERT JUMPDEST PUSH1 0x0 SWAP2 DUP3 MSTORE PUSH1 0x20 SWAP1 SWAP2 KECCAK256 PUSH1 0x6 PUSH1 0x9 SWAP1 SWAP3 MUL ADD ADD SSTORE CALLER PUSH1 0x1 PUSH2 0x2C08 DUP2 DUP6 PUSH2 0x3440 JUMP JUMPDEST DUP2 SLOAD DUP2 LT PUSH2 0x2C26 JUMPI PUSH4 0x4E487B71 PUSH1 0xE0 SHL PUSH1 0x0 MSTORE PUSH1 0x32 PUSH1 0x4 MSTORE PUSH1 0x24 PUSH1 0x0 REVERT JUMPDEST PUSH1 0x0 SWAP2 DUP3 MSTORE PUSH1 0x20 DUP3 KECCAK256 PUSH1 0x9 SWAP2 SWAP1 SWAP2 MUL ADD PUSH1 0x2 ADD DUP1 SLOAD PUSH1 0x1 PUSH1 0x1 PUSH1 0xA0 SHL SUB NOT AND PUSH1 0x1 PUSH1 0x1 PUSH1 0xA0 SHL SUB SWAP4 SWAP1 SWAP4 AND SWAP3 SWAP1 SWAP3 OR SWAP1 SWAP2 SSTORE PUSH1 0x1 PUSH2 0x2C64 DUP2 DUP6 PUSH2 0x3440 JUMP JUMPDEST DUP2 SLOAD DUP2 LT PUSH2 0x2C82 JUMPI PUSH4 0x4E487B71 PUSH1 0xE0 SHL PUSH1 0x0 MSTORE PUSH1 0x32 PUSH1 0x4 MSTORE PUSH1 0x24 PUSH1 0x0 REVERT JUMPDEST PUSH1 0x0 SWAP2 DUP3 MSTORE PUSH1 0x20 DUP1 DUP4 KECCAK256 PUSH1 0x9 SWAP3 SWAP1 SWAP3 MUL SWAP1 SWAP2 ADD PUSH1 0x8 ADD DUP1 SLOAD PUSH1 0xFF NOT AND SWAP4 ISZERO ISZERO SWAP4 SWAP1 SWAP4 OR SWAP1 SWAP3 SSTORE CALLER DUP2 MSTORE PUSH1 0x3 DUP3 MSTORE PUSH1 0x40 DUP2 KECCAK256 DUP1 SLOAD PUSH1 0x1 DUP2 DUP2 ADD DUP4 SSTORE SWAP2 DUP4 MSTORE SWAP3 SWAP1 SWAP2 KECCAK256 SWAP1 SWAP2 ADD DUP4 SWAP1 SSTORE PUSH32 0xC6F3E07C4B20B159A57BDA01879E04CD4D7FAF5D15B913E25B16673DCC0DD2AB SWAP1 PUSH2 0x2CF5 DUP2 DUP6 PUSH2 0x3440 JUMP JUMPDEST DUP2 SLOAD DUP2 LT PUSH2 0x2D13 JUMPI PUSH4 0x4E487B71 PUSH1 0xE0 SHL PUSH1 0x0 MSTORE PUSH1 0x32 PUSH1 0x4 MSTORE PUSH1 0x24 PUSH1 0x0 REVERT JUMPDEST SWAP1 PUSH1 0x0 MSTORE PUSH1 0x20 PUSH1 0x0 KECCAK256 SWAP1 PUSH1 0x9 MUL ADD PUSH1 0x6 ADD SLOAD PUSH1 0x40 MLOAD PUSH2 0x2D32 SWAP2 SWAP1 PUSH2 0x330A JUMP JUMPDEST PUSH1 0x40 MLOAD DUP1 SWAP2 SUB SWAP1 LOG1 POP POP JUMP JUMPDEST PUSH1 0x4 PUSH1 0x20 MSTORE PUSH1 0x0 SWAP1 DUP2 MSTORE PUSH1 0x40 SWAP1 KECCAK256 SLOAD DUP2 JUMP JUMPDEST PUSH1 0x2 PUSH1 0x0 SLOAD EQ ISZERO PUSH2 0x2D73 JUMPI PUSH1 0x40 MLOAD PUSH3 0x461BCD PUSH1 0xE5 SHL DUP2 MSTORE PUSH1 0x4 ADD PUSH2 0x7C9 SWAP1 PUSH2 0x329C JUMP JUMPDEST PUSH1 0x2 PUSH1 0x0 SSTORE JUMP JUMPDEST PUSH1 0x1 PUSH1 0x0 SSTORE JUMP JUMPDEST DUP3 DUP1 SLOAD PUSH2 0x2D8D SWAP1 PUSH2 0x3457 JUMP JUMPDEST SWAP1 PUSH1 0x0 MSTORE PUSH1 0x20 PUSH1 0x0 KECCAK256 SWAP1 PUSH1 0x1F ADD PUSH1 0x20 SWAP1 DIV DUP2 ADD SWAP3 DUP3 PUSH2 0x2DAF JUMPI PUSH1 0x0 DUP6 SSTORE PUSH2 0x2DF5 JUMP JUMPDEST DUP3 PUSH1 0x1F LT PUSH2 0x2DC8 JUMPI DUP1 MLOAD PUSH1 0xFF NOT AND DUP4 DUP1 ADD OR DUP6 SSTORE PUSH2 0x2DF5 JUMP JUMPDEST DUP3 DUP1 ADD PUSH1 0x1 ADD DUP6 SSTORE DUP3 ISZERO PUSH2 0x2DF5 JUMPI SWAP2 DUP3 ADD JUMPDEST DUP3 DUP2 GT ISZERO PUSH2 0x2DF5 JUMPI DUP3 MLOAD DUP3 SSTORE SWAP2 PUSH1 0x20 ADD SWAP2 SWAP1 PUSH1 0x1 ADD SWAP1 PUSH2 0x2DDA JUMP JUMPDEST POP PUSH2 0x2E01 SWAP3 SWAP2 POP PUSH2 0x2E05 JUMP JUMPDEST POP SWAP1 JUMP JUMPDEST JUMPDEST DUP1 DUP3 GT ISZERO PUSH2 0x2E01 JUMPI PUSH1 0x0 DUP2 SSTORE PUSH1 0x1 ADD PUSH2 0x2E06 JUMP JUMPDEST DUP1 CALLDATALOAD PUSH1 0x1 PUSH1 0x1 PUSH1 0xA0 SHL SUB DUP2 AND DUP2 EQ PUSH2 0x10DA JUMPI PUSH1 0x0 DUP1 REVERT JUMPDEST PUSH1 0x0 DUP3 PUSH1 0x1F DUP4 ADD SLT PUSH2 0x2E41 JUMPI DUP1 DUP2 REVERT JUMPDEST DUP2 CALLDATALOAD PUSH8 0xFFFFFFFFFFFFFFFF DUP1 DUP3 GT ISZERO PUSH2 0x2E5C JUMPI PUSH2 0x2E5C PUSH2 0x34A8 JUMP JUMPDEST PUSH1 0x40 MLOAD PUSH1 0x1F DUP4 ADD PUSH1 0x1F NOT AND DUP2 ADD PUSH1 0x20 ADD DUP3 DUP2 GT DUP3 DUP3 LT OR ISZERO PUSH2 0x2E80 JUMPI PUSH2 0x2E80 PUSH2 0x34A8 JUMP JUMPDEST PUSH1 0x40 MSTORE DUP3 DUP2 MSTORE DUP5 DUP4 ADD PUSH1 0x20 ADD DUP7 LT ISZERO PUSH2 0x2E97 JUMPI DUP4 DUP5 REVERT JUMPDEST DUP3 PUSH1 0x20 DUP7 ADD PUSH1 0x20 DUP4 ADD CALLDATACOPY SWAP2 DUP3 ADD PUSH1 0x20 ADD SWAP3 SWAP1 SWAP3 MSTORE SWAP4 SWAP3 POP POP POP JUMP JUMPDEST PUSH1 0x0 PUSH1 0x20 DUP3 DUP5 SUB SLT ISZERO PUSH2 0x2EC3 JUMPI DUP1 DUP2 REVERT JUMPDEST PUSH2 0x2ECC DUP3 PUSH2 0x2E1A JUMP JUMPDEST SWAP4 SWAP3 POP POP POP JUMP JUMPDEST PUSH1 0x0 DUP1 PUSH1 0x40 DUP4 DUP6 SUB SLT ISZERO PUSH2 0x2EE5 JUMPI DUP1 DUP2 REVERT JUMPDEST PUSH2 0x2EEE DUP4 PUSH2 0x2E1A JUMP JUMPDEST SWAP5 PUSH1 0x20 SWAP4 SWAP1 SWAP4 ADD CALLDATALOAD SWAP4 POP POP POP JUMP JUMPDEST PUSH1 0x0 PUSH1 0x20 DUP3 DUP5 SUB SLT ISZERO PUSH2 0x2F0D JUMPI DUP1 DUP2 REVERT JUMPDEST DUP2 CALLDATALOAD DUP1 ISZERO ISZERO DUP2 EQ PUSH2 0x2ECC JUMPI DUP2 DUP3 REVERT JUMPDEST PUSH1 0x0 DUP1 PUSH1 0x0 PUSH1 0x60 DUP5 DUP7 SUB SLT ISZERO PUSH2 0x2F30 JUMPI DUP1 DUP2 REVERT JUMPDEST DUP4 CALLDATALOAD PUSH8 0xFFFFFFFFFFFFFFFF DUP2 GT ISZERO PUSH2 0x2F46 JUMPI DUP2 DUP3 REVERT JUMPDEST PUSH2 0x2F52 DUP7 DUP3 DUP8 ADD PUSH2 0x2E31 JUMP JUMPDEST SWAP7 PUSH1 0x20 DUP7 ADD CALLDATALOAD SWAP7 POP PUSH1 0x40 SWAP1 SWAP6 ADD CALLDATALOAD SWAP5 SWAP4 POP POP POP POP JUMP JUMPDEST PUSH1 0x0 PUSH1 0x20 DUP3 DUP5 SUB SLT ISZERO PUSH2 0x2F79 JUMPI DUP1 DUP2 REVERT JUMPDEST POP CALLDATALOAD SWAP2 SWAP1 POP JUMP JUMPDEST PUSH1 0x0 DUP1 PUSH1 0x40 DUP4 DUP6 SUB SLT ISZERO PUSH2 0x2F92 JUMPI DUP2 DUP3 REVERT JUMPDEST DUP3 CALLDATALOAD SWAP2 POP PUSH1 0x20 DUP4 ADD CALLDATALOAD PUSH8 0xFFFFFFFFFFFFFFFF DUP2 GT ISZERO PUSH2 0x2FAF JUMPI DUP2 DUP3 REVERT JUMPDEST PUSH2 0x2FBB DUP6 DUP3 DUP7 ADD PUSH2 0x2E31 JUMP JUMPDEST SWAP2 POP POP SWAP3 POP SWAP3 SWAP1 POP JUMP JUMPDEST PUSH1 0x0 DUP1 PUSH1 0x40 DUP4 DUP6 SUB SLT ISZERO PUSH2 0x2FD7 JUMPI DUP2 DUP3 REVERT JUMPDEST POP POP DUP1 CALLDATALOAD SWAP3 PUSH1 0x20 SWAP1 SWAP2 ADD CALLDATALOAD SWAP2 POP JUMP JUMPDEST ISZERO ISZERO SWAP1 MSTORE JUMP JUMPDEST PUSH1 0x4 DUP2 LT PUSH2 0x300A JUMPI PUSH4 0x4E487B71 PUSH1 0xE0 SHL PUSH1 0x0 MSTORE PUSH1 0x21 PUSH1 0x4 MSTORE PUSH1 0x24 PUSH1 0x0 REVERT JUMPDEST SWAP1 MSTORE JUMP JUMPDEST SWAP1 JUMP JUMPDEST PUSH1 0x1 PUSH1 0x1 PUSH1 0xA0 SHL SUB SWAP2 SWAP1 SWAP2 AND DUP2 MSTORE PUSH1 0x20 ADD SWAP1 JUMP JUMPDEST PUSH1 0x20 DUP1 DUP3 MSTORE DUP3 MLOAD DUP3 DUP3 ADD DUP2 SWAP1 MSTORE PUSH1 0x0 SWAP2 SWAP1 DUP5 DUP3 ADD SWAP1 PUSH1 0x40 DUP6 ADD SWAP1 DUP5 JUMPDEST DUP2 DUP2 LT ISZERO PUSH2 0x305D JUMPI DUP4 MLOAD DUP4 MSTORE SWAP3 DUP5 ADD SWAP3 SWAP2 DUP5 ADD SWAP2 PUSH1 0x1 ADD PUSH2 0x3041 JUMP JUMPDEST POP SWAP1 SWAP7 SWAP6 POP POP POP POP POP POP JUMP JUMPDEST SWAP1 ISZERO ISZERO DUP2 MSTORE PUSH1 0x20 ADD SWAP1 JUMP JUMPDEST PUSH1 0x20 DUP1 DUP3 MSTORE PUSH1 0x14 SWAP1 DUP3 ADD MSTORE PUSH20 0x2330B4B632B2103A379039B2B7321022BA3432B9 PUSH1 0x61 SHL PUSH1 0x40 DUP3 ADD MSTORE PUSH1 0x60 ADD SWAP1 JUMP JUMPDEST PUSH1 0x20 DUP1 DUP3 MSTORE PUSH1 0x27 SWAP1 DUP3 ADD MSTORE PUSH32 0x207468652070726F6A656374206973206E6F7420636F6D706C65746564207761 PUSH1 0x40 DUP3 ADD MSTORE PUSH7 0x6974206D6F7265 PUSH1 0xC8 SHL PUSH1 0x60 DUP3 ADD MSTORE PUSH1 0x80 ADD SWAP1 JUMP JUMPDEST PUSH1 0x20 DUP1 DUP3 MSTORE PUSH1 0x15 SWAP1 DUP3 ADD MSTORE PUSH21 0x20796F752073686F756C642077616974206D6F7265 PUSH1 0x58 SHL PUSH1 0x40 DUP3 ADD MSTORE PUSH1 0x60 ADD SWAP1 JUMP JUMPDEST PUSH1 0x20 DUP1 DUP3 MSTORE PUSH1 0x2F SWAP1 DUP3 ADD MSTORE PUSH32 0x496E76616C69642070726F6A656374204944206F72207468652070726F6A6563 PUSH1 0x40 DUP3 ADD MSTORE PUSH15 0x74206973206E6F7420616374697665 PUSH1 0x88 SHL PUSH1 0x60 DUP3 ADD MSTORE PUSH1 0x80 ADD SWAP1 JUMP JUMPDEST PUSH1 0x20 DUP1 DUP3 MSTORE PUSH1 0x1C SWAP1 DUP3 ADD MSTORE PUSH32 0x4475726174696F6E206D757374206265206D6F7265207468616E203000000000 PUSH1 0x40 DUP3 ADD MSTORE PUSH1 0x60 ADD SWAP1 JUMP JUMPDEST PUSH1 0x20 DUP1 DUP3 MSTORE PUSH1 0x1C SWAP1 DUP3 ADD MSTORE PUSH32 0x796F757220636C69656E74206973206E6F742073617469736669656400000000 PUSH1 0x40 DUP3 ADD MSTORE PUSH1 0x60 ADD SWAP1 JUMP JUMPDEST PUSH1 0x20 DUP1 DUP3 MSTORE PUSH1 0x18 SWAP1 DUP3 ADD MSTORE PUSH32 0x796F75722070656F6A656374206973206E6F7420646F6E650000000000000000 PUSH1 0x40 DUP3 ADD MSTORE PUSH1 0x60 ADD SWAP1 JUMP JUMPDEST PUSH1 0x20 DUP1 DUP3 MSTORE PUSH1 0x1B SWAP1 DUP3 ADD MSTORE PUSH32 0x506C6561736520496E63726561736520796F7572206372656469740000000000 PUSH1 0x40 DUP3 ADD MSTORE PUSH1 0x60 ADD SWAP1 JUMP JUMPDEST PUSH1 0x20 DUP1 DUP3 MSTORE PUSH1 0x10 SWAP1 DUP3 ADD MSTORE PUSH16 0x1DDC9BDB99C81C1C9BDA9958DD081251 PUSH1 0x82 SHL PUSH1 0x40 DUP3 ADD MSTORE PUSH1 0x60 ADD SWAP1 JUMP JUMPDEST PUSH1 0x20 DUP1 DUP3 MSTORE PUSH1 0x15 SWAP1 DUP3 ADD MSTORE PUSH21 0x50726F6A65637420697320416374697665206E6F77 PUSH1 0x58 SHL PUSH1 0x40 DUP3 ADD MSTORE PUSH1 0x60 ADD SWAP1 JUMP JUMPDEST PUSH1 0x20 DUP1 DUP3 MSTORE PUSH1 0x1F SWAP1 DUP3 ADD MSTORE PUSH32 0x5265656E7472616E637947756172643A207265656E7472616E742063616C6C00 PUSH1 0x40 DUP3 ADD MSTORE PUSH1 0x60 ADD SWAP1 JUMP JUMPDEST PUSH1 0x20 DUP1 DUP3 MSTORE PUSH1 0x1D SWAP1 DUP3 ADD MSTORE PUSH32 0x636F6E6669726D6174696F6E206973206E6F7420636F6D706C65746564000000 PUSH1 0x40 DUP3 ADD MSTORE PUSH1 0x60 ADD SWAP1 JUMP JUMPDEST SWAP1 DUP2 MSTORE PUSH1 0x20 ADD SWAP1 JUMP JUMPDEST PUSH1 0x0 PUSH2 0x160 DUP14 DUP4 MSTORE PUSH1 0x20 PUSH1 0x1 DUP1 PUSH1 0xA0 SHL SUB DUP1 DUP16 AND DUP3 DUP7 ADD MSTORE DUP1 DUP15 AND PUSH1 0x40 DUP7 ADD MSTORE POP DUP2 PUSH1 0x60 DUP6 ADD MSTORE DUP12 MLOAD DUP1 DUP4 DUP7 ADD MSTORE DUP4 SWAP3 POP JUMPDEST DUP1 DUP4 LT ISZERO PUSH2 0x3364 JUMPI DUP13 DUP4 ADD DUP3 ADD MLOAD DUP6 DUP5 ADD PUSH2 0x180 ADD MSTORE SWAP2 DUP2 ADD SWAP2 PUSH2 0x3345 JUMP JUMPDEST DUP1 DUP4 GT ISZERO PUSH2 0x3376 JUMPI DUP4 PUSH2 0x180 DUP3 DUP8 ADD ADD MSTORE JUMPDEST PUSH2 0x180 PUSH1 0x1F NOT PUSH1 0x1F DUP4 ADD AND DUP7 ADD ADD SWAP4 POP POP POP POP DUP9 PUSH1 0x80 DUP4 ADD MSTORE DUP8 PUSH1 0xA0 DUP4 ADD MSTORE DUP7 PUSH1 0xC0 DUP4 ADD MSTORE DUP6 PUSH1 0xE0 DUP4 ADD MSTORE PUSH2 0x33AF PUSH2 0x100 DUP4 ADD DUP7 PUSH2 0x2FE6 JUMP JUMPDEST PUSH2 0x33BD PUSH2 0x120 DUP4 ADD DUP6 PUSH2 0x2FE6 JUMP JUMPDEST PUSH2 0x33CB PUSH2 0x140 DUP4 ADD DUP5 PUSH2 0x2FEC JUMP JUMPDEST SWAP13 SWAP12 POP POP POP POP POP POP POP POP POP POP POP POP JUMP JUMPDEST SWAP2 DUP3 MSTORE PUSH1 0x20 DUP3 ADD MSTORE PUSH1 0x40 ADD SWAP1 JUMP JUMPDEST PUSH1 0x0 DUP3 NOT DUP3 GT ISZERO PUSH2 0x33FC JUMPI PUSH2 0x33FC PUSH2 0x3492 JUMP JUMPDEST POP ADD SWAP1 JUMP JUMPDEST PUSH1 0x0 DUP3 PUSH2 0x341C JUMPI PUSH4 0x4E487B71 PUSH1 0xE0 SHL DUP2 MSTORE PUSH1 0x12 PUSH1 0x4 MSTORE PUSH1 0x24 DUP2 REVERT JUMPDEST POP DIV SWAP1 JUMP JUMPDEST PUSH1 0x0 DUP2 PUSH1 0x0 NOT DIV DUP4 GT DUP3 ISZERO ISZERO AND ISZERO PUSH2 0x343B JUMPI PUSH2 0x343B PUSH2 0x3492 JUMP JUMPDEST POP MUL SWAP1 JUMP JUMPDEST PUSH1 0x0 DUP3 DUP3 LT ISZERO PUSH2 0x3452 JUMPI PUSH2 0x3452 PUSH2 0x3492 JUMP JUMPDEST POP SUB SWAP1 JUMP JUMPDEST PUSH1 0x2 DUP2 DIV PUSH1 0x1 DUP3 AND DUP1 PUSH2 0x346B JUMPI PUSH1 0x7F DUP3 AND SWAP2 POP JUMPDEST PUSH1 0x20 DUP3 LT DUP2 EQ ISZERO PUSH2 0x348C JUMPI PUSH4 0x4E487B71 PUSH1 0xE0 SHL PUSH1 0x0 MSTORE PUSH1 0x22 PUSH1 0x4 MSTORE PUSH1 0x24 PUSH1 0x0 REVERT JUMPDEST POP SWAP2 SWAP1 POP JUMP JUMPDEST PUSH4 0x4E487B71 PUSH1 0xE0 SHL PUSH1 0x0 MSTORE PUSH1 0x11 PUSH1 0x4 MSTORE PUSH1 0x24 PUSH1 0x0 REVERT JUMPDEST PUSH4 0x4E487B71 PUSH1 0xE0 SHL PUSH1 0x0 MSTORE PUSH1 0x41 PUSH1 0x4 MSTORE PUSH1 0x24 PUSH1 0x0 REVERT INVALID LOG2 PUSH5 0x6970667358 0x22 SLT KECCAK256 MUL 0xC9 DUP15 DUP7 0xEB DUP9 PUSH7 0xD2D621D294A418 ADDRESS DIFFICULTY PUSH21 0x301CB66B3C0E485303FFF50DF5E14464736F6C6343 STOP ADDMOD STOP STOP CALLER ","sha1":"0afd37b2caeac59b3220bd53ecba7133206fa6a4","source":"// SPDX-License-Identifier: MIT\npragma solidity >=0.8.0;\n\n\nimport \"@openzeppelin/contracts/security/ReentrancyGuard.sol\";\n\n\ncontract WorkChain is ReentrancyGuard {\n    // Define an event that is emitted when a project is created\n    event CreatedProject(uint indexed ID, string  message);\n    // Define an event that is emitted when a project deadline is set\n    event DeadLineNotice (uint  deadline);\n  \n\n    \n    // Define an enum type that represents the acceptance status of a project\n    enum IsAccepted {\n        No,\n        Yes,\n        Dissatisfied,\n        Reviewing\n\n    }\n    // Define a struct type that represents a project\n    struct Project {\n        uint256 projectID; // The unique identifier of the project\n        address employer;\n        address employee;\n        string projectDescription; // The description of the project\n        uint256 budget; \n        uint256 projectDuration; // The time that the project should be done in seconds\n        uint256 deadLine; // The deadline of the project in unix timestamp\n        uint256 endTime; \n        bool isActive;\n        bool isCompleted;\n        IsAccepted isAccepted; // The acceptance status of the project\n    }\n\n\n    Project[] public projects;\n    mapping(address =>uint[]) public employerProjects; // A mapping that stores the project IDs for each employer address\n    mapping(address =>uint[]) public employeeProjects;\n    mapping(address =>uint256) public credits; // A mapping that stores the available credits for employers\n    mapping(address =>uint256) public lockedCredits; // A mapping that stores the locked credits for employers\n    mapping(address =>uint256) private employeeCredits;\n    mapping(address =>uint256) public employeeLockedCredits;\n    mapping (address => bool) private ownerStatus; // A mapping that stores the owners status \n    uint256 public treasury ; // A variable that stores the income of the contract\n    address public owner1;\n    address public owner2;\n    bool public status = true; // A variable that stores the working status of the contract\n    \n\n\n\n\n\n\n    modifier checkBalance (uint256 _budget) { // A modifier that checks if an address has enough credits to create a project with a given budget\n        credits[msg.sender] += msg.value;\n        if (msg.value < _budget){\n            require (credits[msg.sender]>= _budget, 'Please Increase your credit');\n            _;\n        }\n        _;\n    }\n\n    modifier checkEmployee (uint256 _projectID){ // A modifier that checks if an address is the employee of a given project ID\n        require(projects[_projectID - 1].employee == msg.sender);\n        _;\n    }\n    modifier checkEmployer (uint256 _projectID){\n        require(projects[_projectID - 1].employer == msg.sender);\n        _;\n    }\n    modifier onlyOwner() {\n        require (msg.sender == owner1 || msg.sender == owner2);\n        _;\n    }\n    modifier working () { // A modifier that checks if the contract is working or not\n        require (status);\n        _;\n    }\n\n    constructor(address _owner1, address _owner2) {\n        owner1 = _owner1;\n        owner2 = _owner2;\n        ownerStatus[owner1] = false; // Set the owner status of owner1 to false in the mapping\n        ownerStatus[owner2] = false;\n\n    }\n\n\n\n    function createProject(string memory _projectDescription, uint256 _budget, uint256 _projectDuration ) \n    public payable checkBalance(_budget) working { // A public payable function that allows an employer to create a project with a given description, \n    //budget, and duration, and requires that they have enough credits and that the contract is working\n        require (_projectDuration >0, 'Duration must be more than 0');\n        credits[msg.sender] -= _budget;\n        lockedCredits[msg.sender] += _budget;\n\n        uint256 projectID = projects.length + 1;\n        uint256 projectTime = _projectDuration * 1 days; // Calculate the project time in seconds as the project duration in days multiplied by one day in seconds\n        Project memory NewProject = Project(projectID, msg.sender,address(0), _projectDescription,\n        _budget, projectTime, 0, 0, true, false, IsAccepted.No);\n        projects.push(NewProject);\n        employerProjects[msg.sender].push(projectID);\n        emit CreatedProject(projectID, 'Project is Active now');\n\n    }\n\n    function acceptProject (uint256 _projectID ) public payable working{ // A public payable function that allows a freelancer to accept a project with a given ID,\n    // and requires that the contract is working\n    // // Require that the project with the given ID is active, otherwise revert with an error message\n        require(projects[_projectID - 1].isActive,'Invalid project ID or the project is not active');\n        employeeCredits[msg.sender] += msg.value;\n        uint256 guarantee = (projects[_projectID - 1].budget * 20) /100; // Calculate the guarantee amount as 20% of the project budget\n        if (msg.value < guarantee){\n            require (employeeCredits[msg.sender]>= guarantee, 'Please Increase your credit');\n        }\n        employeeCredits[msg.sender] -= guarantee;\n        employeeLockedCredits[msg.sender] += guarantee;\n        projects[_projectID - 1].deadLine = projects[_projectID - 1].projectDuration + block.timestamp;\n        projects[_projectID - 1].employee = msg.sender;\n        projects[_projectID - 1].isActive = false; // Set the active flag of the project to false\n        employeeProjects[msg.sender].push(_projectID);\n        \n\n        emit DeadLineNotice(projects[_projectID - 1].deadLine);\n\n    }\n    function completedProject (uint256 _projectID) public checkEmployee(_projectID) { // A public function that allows an employee to mark a project as completed\n        projects[_projectID - 1].isCompleted = true;\n        projects[_projectID - 1].endTime = block.timestamp;\n        \n    }\n\n    function confirmedProject (uint256 _projectID) public checkEmployer(_projectID){ // A public function that allows an employer to confirm a project as accepted\n        require(projects[_projectID - 1].isCompleted == true,' the project is not completed wait more');\n        projects[_projectID - 1].isAccepted = IsAccepted.Yes;\n        \n\n    }\n\n    function releasePayment(uint256 _projectID) public checkEmployee(_projectID){\n        require(projects[_projectID - 1].isAccepted == IsAccepted.Yes,' you should wait more');\n        uint256 budget = projects[_projectID - 1].budget;\n        // If the end time of the project is less than or equal to its deadline, There is no punishment\n        if (projects[_projectID - 1].endTime <= projects[_projectID - 1].deadLine){\n            lockedCredits[projects[_projectID - 1].employer] -= budget;\n            employeeLockedCredits[projects[_projectID - 1].employee] -= (budget * 20)/100;\n            employeeCredits[projects[_projectID - 1].employee] += ((budget * 20) + (budget * 95)) /100;\n            treasury +=(budget * 5)/100;\n        // Else if the end time of the project exceeds its deadline by less than or equal to 20% of its duration\n        // There is  liitle punishment = 15% budget, 10% budget will be rewarded to the employer\n        } else if (projects[_projectID - 1].endTime - projects[_projectID - 1].deadLine <= projects[_projectID - 1].projectDuration * 20/100){\n            lockedCredits[projects[_projectID - 1].employer] -= budget;\n            credits[projects[_projectID - 1].employer] += (budget * 10)/100;\n            employeeLockedCredits[projects[_projectID - 1].employee] -= (budget * 20)/100;\n            employeeCredits[projects[_projectID - 1].employee] += ((budget * 20) + (budget * 80)) /100;\n            treasury += (budget * 10)/100;\n\n        } else { // Else if the end time of the project exceeds its deadline by more than 20% of its duration\n        // there is a huge punishment for the freelancer = 50%, 30% budget will be rewarded to the employer\n            lockedCredits[projects[_projectID - 1].employer] -= budget;\n            credits[projects[_projectID - 1].employer] += (budget * 30)/100;\n            employeeCredits[projects[_projectID - 1].employee] += (budget * 70)/100;\n            employeeLockedCredits[projects[_projectID - 1].employee] -= (budget * 20)/100;\n            treasury += (budget * 20)/100;\n\n        }\n    }\n    function notConfirmed (uint256 _projectID) public checkEmployee(_projectID){ // A public function that allows an employee to mark a project as accepted \n    // if it is not confirmed by the employer after one day\n        require(projects[_projectID - 1].isAccepted != IsAccepted.Dissatisfied, 'your client is not satisfied');\n        require(block.timestamp >= projects[_projectID - 1].endTime +1 days );\n        projects[_projectID - 1].isAccepted = IsAccepted.Yes;\n\n    }\n\n    function dissatisfied (uint256 _projectID) public checkEmployer(_projectID){ // A public function that allows an employer to mark a project as dissatisfied\n        require(projects[_projectID - 1].isCompleted == true, 'your peoject is not done');\n        projects[_projectID - 1].isAccepted = IsAccepted.Dissatisfied;\n\n    }\n\n    function withdraw(uint256 _Amount, string memory _position) public nonReentrant { // A public function that allows an employer/employee to withdraw a certain amount of credits from their balance, \n    // and requires that they are not reentrant\n        bytes32 positionHash = keccak256(bytes(_position)); // Calculate the hash of the position string passed as a parameter\n        if (positionHash == keccak256(\"Employer\")) {// If the position hash is equal to the hash of \"Employer\"\n            require(credits[msg.sender]>= _Amount);\n            credits[msg.sender] -= _Amount;\n            (bool success, ) = msg.sender.call{value: _Amount}(\"\");\n            require(success);\n\n\n        } else if (positionHash == keccak256(\"Employee\")) {\n            require(employeeCredits[msg.sender]>= _Amount);\n            employeeCredits[msg.sender] -= _Amount;\n            (bool success, ) = msg.sender.call{value: _Amount}(\"\");\n            require(success);\n        } \n\n\n    }\n    function review(uint256 _projectID) public {// A public function that allows an address to request a review for a project\n    // workchain should analyze the project and resolve conflicts between employer and employee\n        require(projects[_projectID - 1].employer == msg.sender || projects[_projectID - 1].employee == msg.sender,'wrong project ID');\n        require(projects[_projectID - 1].isCompleted == true, 'your peoject is not done');\n        projects[_projectID - 1].isAccepted = IsAccepted.Reviewing;\n\n    }\n\n    function finalDecision (uint256 _projectID, uint256 Proportion ) public onlyOwner{ // A public function that allows one of the owners of the contract to make a final decision on a project under review\n    // requires that they pass a proportion parameter which is the share of employer \n    // 30% of budget is the cost of reviewing\n        require(Proportion<=70);\n        require(projects[_projectID - 1].isAccepted == IsAccepted.Reviewing);\n        projects[_projectID - 1].isAccepted = IsAccepted.Yes;\n        uint256 budget = projects[_projectID - 1].budget;\n        lockedCredits[projects[_projectID - 1].employer] -= budget;\n        credits[projects[_projectID - 1].employer] += (budget * Proportion)/100;\n        employeeLockedCredits[projects[_projectID - 1].employee] -= (budget * 20)/100;\n        employeeCredits[projects[_projectID - 1].employee] += ((budget * 20) + (budget * (100 - Proportion - 30))) /100;\n        treasury += (budget * 30)/100;\n    }\n\n    function cancelProject (uint256 _projectID) public checkEmployer(_projectID){ // A public function that allows an employer to cancel a project with a given ID\n    // The project must not have been  assigned to an employee\n        require(projects[_projectID - 1].isActive == true); \n        projects[_projectID - 1].isActive = false;\n        uint256 budget = projects[_projectID - 1].budget;\n        lockedCredits[projects[_projectID - 1].employer] -= budget;\n        credits[projects[_projectID - 1].employer] += budget;\n\n    }\n\n\n\n    function confirm() public onlyOwner { // A public function that allows one of the owners of the contract to confirm their status\n        \n        ownerStatus[msg.sender] = true;\n    }\n\n    function setPause (bool _paused) public onlyOwner { // A public function that allows one of the owners of the contract to pause the contract\n    // the two owners should accept to pause the contract\n        require (ownerStatus[owner1]  && ownerStatus[owner2] ,'confirmation is not completed');\n        status = _paused;\n        ownerStatus[owner1] = false;\n        ownerStatus[owner2] = false;\n\n    }\n\n    function withdrawTreasury () public payable onlyOwner() nonReentrant{ // Send the treasury balance in wei to owner1 address\n        require(ownerStatus[owner2] == true || msg.sender == owner2);\n        \n        (bool success,) = owner1.call{value:treasury}('');\n        require(success,\"Failed to send Ether\");\n        treasury = 0;\n        \n    }\n\n\n\n    function getProject(uint256 _projectID) view public returns(uint256 projectID,\n        address employer,address employee,string memory projectDescription,\n        uint256 budget, uint256 projectDuration,uint256 deadLine,\n        uint256 endTime,bool isActive,bool isCompleted,IsAccepted isAccepted) { // A view public function that returns various information about a project with a given ID\n        projectID =  projects[_projectID - 1].projectID;\n        employer =  projects[_projectID - 1].employer;\n        employee =  projects[_projectID - 1].employee;\n        projectDescription =  projects[_projectID - 1].projectDescription;\n        budget =  projects[_projectID - 1].budget;\n        projectDuration = projects[_projectID - 1].projectDuration;\n        deadLine= projects[_projectID - 1].deadLine;\n        endTime= projects[_projectID - 1].endTime;\n        isActive =  projects[_projectID - 1].isActive;\n        isCompleted = projects[_projectID - 1].isCompleted;\n        isAccepted = projects[_projectID - 1].isAccepted;\n\n\n    }\n\n    function getEmployeeProjects(address _address) view public returns(uint[] memory){ // A view public function that returns an array of project IDs for a given employer address\n        return (employeeProjects[_address]);\n    }\n\n    function  getEmployerProjects(address _address) view public returns(uint[] memory){\n        return (employerProjects[_address]);\n\n\n    }\n    function  getEmployerCreadits(address _address) view public returns(uint,uint){ // A view public function that returns the available and locked credits for a given employee address\n        return (credits[_address],lockedCredits[_address]);\n\n    }\n    function  getEmployeeCreadits(address _address) view public returns(uint,uint){\n        return (employeeCredits[_address],employeeLockedCredits[_address]);\n\n    }\n    function  getStatus() view public returns(bool){ // A view public function that returns the working status of the contract\n        return (status);\n\n    }\n    function  getTreasury() view public returns(uint256){ // A view public function that returns the treasury balance of the contract\n        return (treasury);\n\n    }\n\n\n\n}\n\n\n\n","sourcePath":"contracts/WorkChain.sol","type":"contract","deployment":{"address":"0x717526c28D88c955deE234D1daEF078db7550AA7","chainid":"11155111","blockHeight":4352940}}